:020000040000fa
:080000000001040000000000f3
:020000040000fa
:10020000afc22000807922000001880000000000b9
:10021000050007000c000700de01020000000000de
:100220000040da000000fe004440a900400e20001b
:100230000000e0000300320000002000a001880060
:100240004440a80000000600602c210001002000ae
:100250001600370062004000e080480091018800ed
:100260009001ba0062004000e080480091018800df
:100270009002ba0062004000e08048000002eb00fb
:100280006028e10005003a008301e900070033001f
:10029000038009000059eb00040037006128e100e9
:1002a000010032000082eb00050007009101880088
:1002b0001001ba000200e000e6ff3a00000005006d
:1002c000910188008002780062004000e0804800d0
:1002d0003559ba008301e900080032002559ba00f7
:1002e0008301e900050032000400e000f4ff320061
:1002f00015d9ba008301e900f1ff3a0000000600b9
:1003000080007800010037000000e8001004e000e1
:10031000fdff3a00010050000000060000027800d6
:100320008001780001003700815978000200420006
:10033000808f5100fcff3a000400780000000600a6
:10034000839f68000100e00002003d006000100093
:10035000e08018000300e00002003d006001110091
:10036000e0811900050007004f00e00002003b009b
:1003700060001000e0801800000006006022b80055
:10038000060220000000d0008180d2000482d2004a
:100390008582d2000000a0000202520083825a002f
:1003a00003003b000202420083824a000000a100d9
:1003b0000603e900f3ff3a00000006000a00fa0015
:1003c0006000b80020079800310798006000b8006e
:1003d000008fbe00810007008c0007009e00070010
:1003e000ac000700c602a900ca02a8006a070700fd
:1003f00000b02400d10007002c0707006000b800ff
:10040000008fbe000040eb00b4ebb70000003700e7
:1004100010002000010020001e0f40005e974800e1
:100420003f01070001c8bf000004e00006003200e1
:100430000040eb0001e8b7002190200091407800d7
:10044000208020004002070088c9bf000004e000af
:10045000060032000040eb0088e9b70054000700b6
:1004600051c0b30040c2200072070700006a280094
:1004700011002000be0f1000ae8f180042003400a3
:100480006000b800008fbe009ecbbf000000fb00e4
:10049000000040000000400000004000000040005c
:1004a000000040000000400000004000000040004c
:1004b000800078009fcbbf000000fb000080400060
:1004c000705f8800a0cbbf000000fb000000400070
:1004d000000040000000400000004000000040001c
:1004e0000000400000004000000040008000780054
:1004f000a1cbbf000000fb0000804000805f8800af
:100500006000b80020079800310798000600370007
:100510002e009000be00900061004000e080480086
:1005200020079800310798002e019000be0190002e
:10053000f070220001002000800f5100818f5900cf
:10054000f3ff34006000b8002007980031079800de
:10055000060037002e009000be00900061004000b1
:10056000e080480020079800310798002e01900095
:10057000be019000f070220001002000800f5100a9
:10058000818f5900f3ff3400c3c2bf007040600088
:100590000004e0009eff3a00c3c2bf00704060004c
:1005a0000004e000fcff32009607070098ff3700c8
:1005b0000000fa000dccbf0025ecb7000eccbf0048
:1005c00026ecb7000fccbf0027ecb70010ccbf0063
:1005d00028ecb7000080fa00000006000000fa00d6
:1005e000c182a8000000eb0090168800de62a9001e
:1005f000dec2a900dee2a800df02a9000000eb00d5
:10060000301688000080fa00000006000000fa00a2
:100610000040eb000decb7000040eb000eecb70023
:100620000040eb000fecb7000040eb0010ecb7000f
:100630000040eb0011ecb7000040eb0020ecb700ed
:100640000040eb0021ecb7000040eb0012e9b700de
:100650000080fa00000006000000fa000080eb00b5
:10066000100888008c60a8000421a9004110200017
:100670009140780000c3b30000c0700004e1b700ef
:100680000000eb000008880005e1a9000080fa00e6
:10069000000006000000fa00d602a800d622a8003a
:1006a000d642a800d662a8000080fa00000006002a
:1006b000801f78000000fa008d20a9008520a90085
:1006c00010c0b30000e8b7009010800022ecb70023
:1006d0008d20a8000080fa004f007800004006003e
:1006e0003600f800809fbe00829fbe00849fbe003f
:1006f000869fbe000000fa008460a90012c9bf00f6
:100700000004e0000300320091002000c0962000a9
:10071000700007000080fa004f03be004f02be00c9
:100720004f01be004f00be003600f9000040060039
:100730000000fa000080fa00000006000200fa0043
:10074000000f78000d42a9000cc2a900c1202000b2
:100750009140780090cfb30000c060000ce2b70079
:100760000c02a9001e0078000000400000004000bc
:1007700000004000000040006101b80040d42100aa
:10078000c1012000eefe07000000e900a010880073
:100790000de2a8008d20a8000080fa0000000600ed
:1007a0000200fa00004f78000fc2bf0061406000f5
:1007b0000004e000fcff32000f42a8001e00fb0016
:1007c000801088000080fa00000006000c00fa008b
:1007d000204f980040252900104f78000e00e800b7
:1007e0008040eb00014878000000e8008040eb000a
:1007f000014878000000e8008040eb0001487800e4
:100800000000e8008040eb00014878000000e800ac
:100810008040eb00014878000000e8008040eb00d9
:10082000014878000000e8008040eb0001487800b3
:100830000000e8008040eb00014878000000e8007c
:100840008040eb000148780050cab300004f7800a8
:10085000a0c5b3001047980030c0b30020479800ef
:1008600040c7b3003047980050c4b30040479800d9
:100870002e489000504798002e4890000000fb0042
:10088000c00bb0008000780000f02f0000806000f6
:100890004800de0060479800c1cbb3002e489000ae
:1008a00080c0400000c0eb0000c0600070479800ae
:1008b000c0ccb300004f980030c3b300104f980075
:1008c000a10020000e007800020007000080fa005e
:1008d000000006000600fa001007980021079800a3
:1008e0008d20a9000000eb00000f78000600370003
:1008f0009e0078001e0090000080400010407800ac
:10090000a7ff07001e0fe8002e0090009e0f1000aa
:10091000f7ff39008d20a8000080fa0000000600d3
:100920000400fa0000c8bf000004e0000401320027
:100930000040eb0000e8b700f0608000100798006e
:100940001e009000e30f50004d0032001e0090008a
:10095000e30f500007003e001e009000e10f500022
:100960002d0032001e009000e10f500038003e00c4
:100970000d0037001e009000e50f500068003200a7
:100980001e009000e50f50005e0039001e00900030
:10099000e60f5000850032001e009000e70f500067
:1009a00097003200d700370021c220009140780024
:1009b00050cab30080cf500014003a000000eb0092
:1009c000e0608800f06080000000e800f0608800cf
:1009d000d6c2bf000080fb000000d1006140600073
:1009e0000004a200614060006140600000414000de
:1009f000612d200091407800d0cfb30000c060008e
:100a000002407000d6e2b700cd00370010c0b3003e
:100a100020ecb700ca00370021c2200091407800c6
:100a2000a0c5b30080cf500004003a00f060800001
:100a30000000e800f0608800c100370010c0b3007b
:100a400020ecb7000000eb00f0608800bc0037002d
:100a500022ccbf008080fb00e0608000008040006e
:100a6000e060880022ccbf000080fb00d0608800de
:100a7000f06080000000e800f0608800b0003700ff
:100a800018ccbf008080fb00d0608000808f5000b9
:100a90001800310022ccbf008080fb00e0608000a5
:100aa00000804000e060880018ccbf000081fb009f
:100ab00022ccbf0080407800208020000000410050
:100ac0000148780018ccbf000040e80018ecb700df
:100ad00018ccbf008080fb00d0608000808f500069
:100ae00097003a00f06080000000e800f0608800a5
:100af00093003700f06080000000e800f06088009c
:100b00008f00370022ccbf000080fb00a06088006f
:100b1000f06080000000e800f06088008800370086
:100b200022ccbf000080fb00b0608800a060800085
:100b300000004000000040000000400000004000b5
:100b400000004000000040000000400000004000a5
:100b500080007800b06080000080400090608800d5
:100b6000d6c2bf000080fb004200de006140600092
:100b70000004a2006140600061406000004040004d
:100b800000414000612d200091407800b0cfb300bb
:100b900000c0600002407000d6e2b700f060800044
:100ba0000000e800f06088006500370021c22000e6
:100bb00091407800c0ccb30080cf500007003a00cd
:100bc000f06080000000e800f060880018ccbf00f2
:100bd0000040e90018ecb700590037000000eb00b6
:100be000f06088000000eb00e06088000000eb008f
:100bf000d06088000040eb0018ecb70050003700d0
:100c000021c220009140780030c3b30080cf500053
:100c10002d003a0091608000e0608000808f5000dd
:100c200015003a0010c0b30001e8b700d6c2bf00fb
:100c30000080fb004300de00614060000004a20071
:100c400061406000614060000040400000404000a2
:100c500000414000612d20009140780070cfb3002a
:100c600000c0600002407000d6e2b700d060800093
:100c700002e9b7000500370040912000a0fd070001
:100c8000800078004091200012ff07000000eb0078
:100c9000f06088000000eb00d06088000040eb00ae
:100ca00018ecb7000000eb00e06088000000eb00eb
:100cb000a06088000000eb00b06088000000eb003e
:100cc000906088001e0037000000eb00f060880094
:100cd0000000eb00d06088000040eb0018ecb7008b
:100ce0000000eb00e06088000000eb00a0608800de
:100cf0000000eb00b06088000000eb00906088000e
:100d00000f003700d6c2bf000080fb004200de00ab
:100d1000614060000004a20061406000614060002a
:100d20000040400000414000612d200091407800cb
:100d3000b0cfb30000c0600002407000d6e2b70040
:100d40000080fa00000006007c01fa00403799009c
:100d500021ef9a00e40047004025290090487800e0
:100d60000100e800f20f20008000eb006bfd07009f
:100d7000411020008e804000e0252900110009006c
:100d8000b05878002101b1002001b10061112000ac
:100d90008e8040000027290012000900b05878001a
:100da0003101b1003001b100911220008e8040006d
:100db000302829000d000900b0587800e100b1008a
:100dc000e000b100711320008e804000102929003e
:100dd0000b000900b0587800c100b100c000b1009c
:100de000311420008e804000d02929000c00090019
:100df000b0587800d100b100d000b100011520003a
:100e00008e804000a02a290012000900b058780006
:100e10003101b1003001b1000000eb00000f78009b
:100e2000311620008e80400040252900904878002f
:100e30000100e8008040eb00014878000000e80075
:100e40008040eb00014878000000e8008040eb00a3
:100e5000014878000000e8008040eb00014878007d
:100e60004e309100104078000000fb00503f990088
:100e700060042000de389100808f5000b100320005
:100e800040052000de389100808f500005003200c0
:100e900030042000de389100808f5000d5013200f0
:100ea000ed0137004e3091000000e800104078005e
:100eb0000000fb00403f9900d0042000ce38910094
:100ec000808f500087003200d0042000ce3891007f
:100ed000808f50000d003c0050042000ce3891005f
:100ee000808f50001f00320060042000ce38910037
:100ef000808f50006300320030042000ce38910013
:100f0000808f50003d003200d301370010052000d3
:100f1000ce389100808f50002e0032001005200046
:100f2000ce389100808f500005003c000005200065
:100f3000ce389100808f500012003200c601370079
:100f400020052000ce389100808f5000170032001d
:100f5000a0052000ce389100808f50003100320073
:100f6000bd0137004e3091000080e800104078004d
:100f700011ecb700aee892004e309100eb03070091
:100f8000b50137004e3091000080e8001040780035
:100f90000decb700aee892004e309100e30307007d
:100fa00010c0b30088e9b700ab0137004e309100a4
:100fb0000080e800104078000eecb700aee8920028
:100fc0004e309100d903070010c0b30088e9b70084
:100fd000a10137004e3091000080e80010407800f9
:100fe0000fecb700aee892004e309100cf0307003f
:100ff00010c0b30088e9b700970137004e30910068
:101000000080e8001040780010ecb700aee89200d5
:101010004e309100c503070010c0b30088e9b70047
:101020008d0137004e3091000080e80010407800bc
:1010300003e9b7004e309100630040001040780093
:1010400006e9b7004e30910064004000104078007f
:1010500009e9b7004e30910065004000104078006b
:101060000fe9b7004e309100660040001040780054
:101070000ce9b700aee892004e309100ab030700d8
:10108000750137004e3091000080e8001040780074
:1010900004e9b7004e309100630040001040780032
:1010a00007e9b7004e30910064004000104078001e
:1010b0000ae9b7004e30910065004000104078000a
:1010c00010e9b7004e3091006600400010407800f3
:1010d0000de9b700aee892004e309100930307008f
:1010e0005d0137004e3091000080e800104078002c
:1010f00005e9b7004e3091006300400010407800d1
:1011000008e9b7004e3091006400400010407800bc
:101110000be9b7004e3091006500400010407800a8
:1011200011e9b7004e309100660040001040780091
:101130000ee9b700aee892004e3091007b03070045
:10114000450137004e3091000000e8001040780063
:101150000000fb00303f990090042000be38910051
:10116000808f5000ff00320090042000be389100b4
:10117000808f50000d003c0070042000be389100ac
:10118000808f50004d00320070042000be38910066
:10119000808f500018003c0050042000be389100a1
:1011a000808f50000e0032002b0137000005200018
:1011b000be389100808f5000ba0032002005200018
:1011c000be389100808f5000b2003200d004200061
:1011d000be389100808f5000b70032001e013700ea
:1011e000aee892004e3091005003070010c0b300eb
:1011f00013e9b700180137004e3091000080e80075
:10120000104078000000fb00203f9900d00420002f
:10121000ae389100808f5000110032000005200090
:10122000ae389100808f500005003200300420005d
:10123000ae389100808f5000050032000601370063
:10124000aee892004e3091003803070002013700eb
:10125000aee892004e30910034030700fe003700e4
:101260004e30910063004000104078000000fb0009
:10127000000040000000400000004000000040006e
:10128000000040000000400000004000000040005e
:10129000800078004e3091006400400010407800db
:1012a0000000fb0000804000000f7800aee89200d4
:1012b0004e3091001d030700e70037004e309100cb
:1012c0000080e80010407800d8ebb7004e30910065
:1012d0006300400010407800d9ebb7004e30910019
:1012e00064004000104078000000fb000000400057
:1012f00000004000000040000000400000004000ee
:101300000000400000004000000040008000780025
:101310004e30910065004000104078000000fb0056
:1013200000804000d05e88004e3091006600400092
:1013300010407800dcebb7004e30910067004000b1
:1013400010407800deebb7004e309100680040009e
:1013500010407800dfebb7004e309100690040008c
:10136000104078000000fb0000004000000040003a
:10137000000040000000400000004000000040006d
:101380000000400000004000800078004e309100d6
:101390006a004000104078000000fb000080400020
:1013a000005f88004e3091006b00400010407800d4
:1013b000e2ebb7004e3091006c0040001040780026
:1013c000e4ebb7004e3091006c0040001040780014
:1013d0000000fb00103f9900800420009e3891001f
:1013e000808f500005003200300520009e389100ab
:1013f000808f500018003200200037004e309100de
:101400006d004000104078000000fb00000040002c
:1014100000004000000040000000400000004000cc
:101420000000400000004000000040008000780004
:101430004e3091006e004000104078000000fb002c
:1014400000804000305f8800aee892004e3091008e
:10145000b6020700800037004e3091006d0040005a
:10146000104078000000fb00305f8800aee892007a
:101470004e309100ad0207007700370050972000f2
:101480009ffb0700800078005097200011fd0700a7
:1014900071003700aee892004e309100a3020700c1
:1014a0006d0037004e3091000000e80010407800d9
:1014b0007a000700680037004e3091000080e80095
:1014c000104078000000fb00003f9900000520005c
:1014d0008e389100808f50001a00320000052000e5
:1014e0008e389100808f500005003c006004200081
:1014f0008e389100808f50000a003200560037006d
:10150000200520008e389100808f500009003200a5
:10151000300520008e389100808f50000d00320081
:101520004d003700aee892004e3091007f02070078
:1015300049003700aee892004e3091007b02070070
:1015400045003700aee892004e3091007702070068
:1015500041003700aee892004e3091007302070060
:101560003d0037004e3091000080e80010407800c8
:101570000000fb0070379900c0042000fe3091008d
:10158000808f500016003200c0042000fe30910011
:10159000808f500009003c0020042000fe309100a4
:1015a000808f50000e00320080042000fe30910039
:1015b000808f50000a0032002700370020052000ed
:1015c000fe309100808f500005003200a005200001
:1015d000fe309100808f5000010032001e00370065
:1015e0004e3091000080e800104078002b0007008a
:1015f000190037004e3091000000e80010407800dc
:101600000000fb006037990080042000ee3091005c
:10161000808f50000500320040052000ee30910020
:10162000808f5000070032000b00370010c0b3005d
:1016300012e9b7000000eb000008880005e1a800ef
:10164000050037000040eb0012e9b7000000eb0096
:101650000008880005e1a9000000eb0010079800d1
:10166000080037009e0090004e30910080804000be
:1016700010c0b300804878001e0090000000e80011
:10168000100798009e009000f00f2000808f5000ff
:10169000f4ff36000080fa00000006000801fa009e
:1016a00040479a00e3004700402529009048780011
:1016b0000100e800f20f20008000eb0017fb07009c
:1016c0000040eb00204798000000eb00000f78007e
:1016d000e300470050cab30080487800e3004700a9
:1016e000a0c5b30090409800e300470040c7b30096
:1016f000b040980063004700ce40920041409800ff
:101700004e4092000080fb0030079900c00420008a
:10171000be009100808f50001a003200c0042000eb
:10172000be009100808f500009003c002004200082
:10173000be009100808f5000ea003200800420003b
:10174000be009100808f500068003200f501370024
:1017500020052000be009100808f5000c1013200a2
:10176000a0052000be009100808f50009f00320035
:1017700000052000be009100808f5000290132003a
:10178000e8013700e3004700c0c0b300a040980064
:10179000facbbf00804078006300470051409800ba
:1017a000fbcbbf0080407800630047006140980099
:1017b000e05f80008000780000f02f000080600073
:1017c0004800de00804078006300470071409800c8
:1017d000e05f80008040780000c0eb0080c06000c7
:1017e0006300470001489800fecbbf0080407800ae
:1017f000630047001148980000ccbf00804078008b
:10180000630047002148980001ccbf008040780069
:101810006300470031489800106080008000780025
:1018200000f02f00008060004800de00804078005b
:1018300063004700414898001060800080407800b5
:1018400000c0eb0080c06000630047005148980072
:1018500004ccbf00804078006300470061489800d6
:1018600020c0b30020479800090037002e409000a8
:101870008080fb0063004700614078000080fb002f
:101880001e0f40002e4090000040e80020479800c6
:101890002e409000ee4f5000f4ff360000f02f0075
:1018a0001e0060004800de008040780063004700b2
:1018b000714898001e00780080407800630047005f
:1018c00001509800e3004700c0ccb300905098004e
:1018d000e300470030c3b300a05098006300470006
:1018e00031012000fbfb07008e013700e3004700b9
:1018f00070c0b300a0409800415f800000f02f004e
:10190000008060004800de008040780063004700ef
:1019100051409800405f800080407800630047009d
:1019200061409800a1be200091407800630047000c
:1019300071409800615f800000f02f00008060001f
:101940004800de00804078006300470001489800ae
:10195000605f800080407800630047001148980075
:1019600020c0b30020479800090037002e409000a7
:101970008080fb0063004700614078000080fb002e
:101980001e0f40002e4090000040e80020479800c5
:101990002e409000e94f5000f4ff360000f02f0079
:1019a0001e0060004800de008040780063004700b1
:1019b000214898001e0078008040780063004700ae
:1019c00031489800e3004700c0ccb300c0489800fd
:1019d000e300470030c3b300d048980063004700dd
:1019e000e1002000bbfb07004e013700e300470089
:1019f00080c0b300a04098009ecbbf00804078001c
:101a000063004700514098009fcbbf0080407800a2
:101a10006300470061409800a0cbbf008040780081
:101a20006300470071409800a1cbbf008040780060
:101a30006300470001489800b4cbbf0080407800a5
:101a40006300470011489800b5cbbf008040780084
:101a5000630047002148980020c0b3002047980049
:101a6000090037002e4090008080fb006300470093
:101a7000614078000080fb001e0f40002e40900067
:101a80000040e800204798002e409000ea4f5000a8
:101a9000f4ff360000f02f001e0060004800de005a
:101aa0008040780063004700314898001e007800ad
:101ab000804078006300470041489800e3004700f9
:101ac000c0ccb300d0489800e300470030c3b30057
:101ad000e048980063004700f10020007dfb07000c
:101ae00010013700e300470080c0b300a040980019
:101af000a05f80008000780000f02f000080600070
:101b00004800de00804078006300470051409800a4
:101b1000a05f80008040780000c0eb0080c06000c3
:101b20006300470061409800b05f8000800078004b
:101b300000f02f00008060004800de008040780048
:101b40006300470071409800b05f800080407800db
:101b500000c0eb0080c060006300470001489800af
:101b6000c05f80008000780000f02f0000806000df
:101b70004800de008040780063004700114898006c
:101b8000c05f80008040780000c0eb0080c0600033
:101b9000630047002148980020c0b3002047980008
:101ba000090037002e4090008080fb006300470052
:101bb000614078000080fb001e0f40002e40900026
:101bc0000040e800204798002e409000ea4f500067
:101bd000f4ff360000f02f001e0060004800de0019
:101be0008040780063004700314898001e0078006c
:101bf000804078006300470041489800e3004700b8
:101c0000c0ccb300d0489800e300470030c3b30015
:101c1000e048980063004700f10020002dfb07001a
:101c2000c0003700e300470050c1b300a040980057
:101c3000facbbf0080407800630047005140980015
:101c4000fbcbbf00804078006300470061409800f4
:101c5000e05f80008000780000f02f0000806000ce
:101c60004800de0080407800630047007140980023
:101c7000e05f80008040780000c0eb0080c0600022
:101c80006300470001489800fecbbf008040780009
:101c9000630047001148980000ccbf0080407800e6
:101ca000630047002148980001ccbf0080407800c5
:101cb0006300470031489800106080008000780081
:101cc00000f02f00008060004800de0080407800b7
:101cd0006300470041489800106080008040780011
:101ce00000c0eb0080c060006300470051489800ce
:101cf00004ccbf0080407800630047006148980032
:101d00004160800000f02f00008060004800de008d
:101d10008040780063004700714898004060800070
:101d200080407800630047000150980051608000b7
:101d300000f02f00008060004800de008040780046
:101d40006300470011509800506080008040780088
:101d50006300470021509800a05f80008000780059
:101d600000f02f00008060004800de008040780016
:101d70006300470031509800a05f800080407800e9
:101d800000c0eb0080c06000630047004150980035
:101d9000c05f80008000780000f02f0000806000ad
:101da0004800de00804078006300470051509800f2
:101db000c05f80008040780000c0eb0080c0600001
:101dc0006300470061509800c1c020009140780036
:101dd000630047007150980020c0b300204798006e
:101de000090037002e4090008080fb006300470010
:101df000614078000080fb001e0f40002e409000e4
:101e00000040e800204798002e409000f74f500017
:101e1000f4ff360000f02f001e0060004800de00d6
:101e20008040780063004700015898001e00780049
:101e3000804078006300470011589800e300470095
:101e4000c0ccb300a0589800e300470030c3b300f3
:101e5000b058980063004700c10120009dfa0700b8
:101e600030003700e300470040c0b300a0409800b6
:101e70003160800000f02f00008060004800de002c
:101e80008040780063004700514098003060800037
:101e900080407800630047006140980020c0b30094
:101ea00020479800090037002e4090008080fb00fa
:101eb00063004700614078000080fb001e0f400077
:101ec0002e4090000040e800204798002e409000ef
:101ed000e64f5000f4ff360000f02f001e006000b7
:101ee0004800de00804078006300470071409800a1
:101ef0001e00780080407800630047000148980089
:101f0000e3004700c0ccb30090489800e3004700ce
:101f100030c3b300a048980063004700b100200020
:101f20006cfa07000080fa00000006000801fa00c1
:101f30002007990061479a00e300470040252900e7
:101f4000904878000100e800f20f20008000eb00cc
:101f5000f2f807000040eb00204798000000eb007b
:101f6000000f7800e300470050cab30080487800b3
:101f7000e3004700a0c5b300904098006e40920077
:101f80008040e8006300470021409800630047005c
:101f9000204090000000fb00000f7800e3004700a5
:101fa00060c0b300b040980040c0b3002047980024
:101fb000140037002e4090000081fb002e4090005e
:101fc0000080fb00800078002e009100008040001f
:101fd0006400500090407800630047000171780071
:101fe0002e4090008080fb00630047006140780035
:101ff0000000fb001e0f40002e4090000040e80053
:10200000204798002e4090008080fb006e40920098
:102010000000fb0064004000808f5000e5ff3500a9
:102020002e4090000081fb0000f02f001e00600099
:102030004800de00804078006300470001717800ae
:102040002e4090000080fb000001e8001e00780098
:102050008040780063004700017178002e409000b6
:102060000080fb000081e800e3004700c0ccb30023
:1020700000f178002e4090000080fb0063014000da
:10208000e300470030c3b30000f178006e409200d7
:102090000000fb00680040008000780063004700fb
:1020a0000cfa07000080fa00000006000000fa00a9
:1020b00000c3b300d8ebb700e0c1b300d9ebb70061
:1020c0000000eb00d05e8800e0c4b300dcebb7009a
:1020d000c0c7b300deebb700e0c1b300dfebb70071
:1020e0000000eb00005f880070c5b300e2ebb700b2
:1020f00000c3b300faebb700e0c1b300fbebb700dd
:102100000000eb00e05f8800e0c4b300feebb70026
:10211000c0c7b30000ecb700e0c1b30001ecb700ea
:102120000000eb001060880070c5b30004ecb7003d
:102130000000eb00405f88000040eb00eaebb700d6
:102140000000eb00605f88000000eb00705f88001b
:102150000000eb00805f88000000eb00905f8800cb
:1021600040062000a05f88000000eb00b05f880000
:1021700040012000c05f88000000eb004060880044
:102180000000eb005060880000c0eb000cecb700d2
:102190000080fa00000006000000fa0020c2a9003a
:1021a0002342a9002322a90022c2a8002302a900d9
:1021b00022a2a80022e2a90021222000914078005a
:1021c00030ceb30000c0600022e2b7002122200020
:1021d00091407800c0cfb30000c0600022e2b70099
:1021e0000080fa00000006000400fa002047980072
:1021f00021e2a8002e4090000000fb002011880082
:1022000020118000004f78000080fa0000000600d6
:102210000400fa001007980021e2a8001e009000b8
:102220002011880020118000004f78000080fa0003
:10223000000006000600fa001007980041479800c9
:102240000040eb00004f78000040eb00004f7800aa
:102250000b00370020c2bf00624060000004e000b5
:10226000fcff3a001e00fb00800078001e0090007a
:102270000080400010407800dbff07001e4fe800a0
:102280004e4090009e4f1000f2ff35000080fa0093
:10229000000006001200fa00881f780070079800fe
:1022a000010f98000040eb00604798007e0090000e
:1022b00013f80700504798000e08900010f8070028
:1022c00040479800e7004700e02b2900904878003d
:1022d0000100e8008040eb00014878000000e800c1
:1022e0008040eb00014878000000e8008040eb00ef
:1022f000014878000000e8008040eb0001487800c9
:102300000000e8008040eb00014878000000e80091
:102310008040eb00014878000040eb001047980037
:102320000040eb00004f78000040eb006047980051
:102330002b00370020c2bf00624060000004e000b4
:10234000fcff3a006e4090000000fb008000780027
:102350007e0090000080400010407800a2ff07003f
:1023600020c2bf00614060000004e000fcff3200ba
:102370006e4090000004e0000a003400201180004c
:10238000004f78006e4090000000fb008000780055
:102390000e089000008040000000e9001e48780010
:1023a0000200370020118000104798000000eb0069
:1023b00010079800030037001e0090000000e8009e
:1023c000100798009e009000301f2000808f500062
:1023d000f9ff34006e4090000040e800604798002c
:1023e0006e4090000004fb007e009000c4f70700e0
:1023f000800f5400cfff39004f0478000080fa00ae
:10240000000006000200fa002342a800ca02a90048
:10241000003028007eff07000000eb00000f78006e
:10242000010037001e0fe800306a20009e0f1000e8
:10243000fcff3400ca02a8000000eb00000f780087
:10244000010037001e0fe800703e20009e0f1000b4
:10245000fcff3400ca02a900100020006cff070036
:102460000000eb00000f7800010037001e0fe800ad
:10247000306a20009e0f1000fcff3400ca02a80042
:102480002342a9000000eb00000f78000100370094
:102490001e0fe800f07022009e0f1000fcff3400b9
:0824a0000080fa0000000600b4
:020000040000fa
:100008007c1500007c1500007c1500007c150000a4
:100018007c1500007c1500007c1500007c15000094
:100028007c1500007c1500007c15000070030000a2
:100038007c1500007c1500007c1500007c15000074
:100048007c150000580300007c1500007c1500009a
:100058007c1500007c1500007c1500007c15000054
:100068007c1500007c1500007c1500007c15000044
:100078007c1500007c1500007c1500007c15000034
:100088007c1500007c1500007c1500007c15000024
:100098007c1500007c1500007c1500007c15000014
:1000a8007c1500007c1500007c1500007c15000004
:1000b8007c1500007c1500007c1500007c150000f4
:1000c8007c1500007c1500007c1500007c150000e4
:1000d8007c1500007c1500007c1500007c150000d4
:1000e8007c1500007c1500007c1500007c150000c4
:0800f8007c1500007c150000de
:020000040000fa
:100108007c1500007c1500007c1500007c150000a3
:100118007c1500007c1500007c1500007c15000093
:100128007c1500007c1500007c15000070030000a1
:100138007c1500007c1500007c1500007c15000073
:100148007c150000580300007c1500007c15000099
:100158007c1500007c1500007c1500007c15000053
:100168007c1500007c1500007c1500007c15000043
:100178007c1500007c1500007c1500007c15000033
:100188007c1500007c1500007c1500007c15000023
:100198007c1500007c1500007c1500007c15000013
:1001a8007c1500007c1500007c1500007c15000003
:1001b8007c1500007c1500007c1500007c150000f3
:1001c8007c1500007c1500007c1500007c150000e3
:1001d8007c1500007c1500007c1500007c150000d3
:1001e8007c1500007c1500007c1500007c150000c3
:0801f8007c1500007c150000dd
:020000040000fa
:1024a8000000000000000000000000000000000024
:1024b8000000000050610000636b000065740000bc
:1024c8002052000065630000656900007665000021
:1024d800643a000020000000456e000067690000b3
:1024e8006e65000020520000504d0000207300006f
:1024f80065740000207400006f2000000050000088
:1025080069740000636800002073000065740000af
:10251800207400006f20000000590000617700005f
:102528002073000065740000207400006f20000014
:10253800005200006f6c00006c2000007365000002
:1025480074200000746f000020000000436f00003a
:102558006c6c00006563000074690000766500001b
:102568002073000065740000207400006f200000d4
:102578000000000000000000000000000000000053
:04258800000000004f
:020000040000fa
:10258c00240c0000060000000200000050010100b5
:10259c0001010000d80b00003a0000000000000010
:1025ac00000800008a020000020000000000000089
:1025bc00000000000000000000000000000000000f
:1025cc0000000000000000000000000000000000ff
:1025dc0000000000000000000000000000000000ef
:1025ec0000000000000000000000000000000000df
:1025fc0000000000000000000000000000000000cf
:10260c0000000000000000000000000000000000be
:10261c0000000000000000000000000000000000ae
:10262c00000000000000000000000000000000009e
:10263c00000000000000000000000000000000008e
:10264c00000000000000000000000000000000007e
:10265c00000000000000000000000000000000006e
:10266c00000000000000000000000000000000005e
:10267c00000000000000000000000000000000004e
:10268c00000000000000000000000000000000003e
:10269c00000000000000000000000000000000002e
:1026ac00000000000000000000000000000000001e
:1026bc00000000000000000000000000000000000e
:1026cc0000000000000000000000000000000000fe
:1026dc0000000000000000000000000000000000ee
:1026ec0000000000000000000000000000000000de
:1026fc0000000000000000000000000000000000ce
:10270c0000000000000000000000000000000000bd
:10271c000000000000000000000000004572720084
:10272c006f723a002043680065636b0073756d002f
:10273c0020696e00636f720072656300740045005f
:10274c0072726f00723a2000534f540020496e0091
:10275c0076616c0069640000457272006f723a0019
:10276c0020454f00522049006e7661006c69640070
:10277c000049740020776f00726b730021004400d5
:10278c006174610020697300205661006c696400fb
:10279c0000a55a00024306000045cc0033457200e8
:1027ac00726f72003a2055006e6b6e006f776e0080
:1027bc0020416f00410000000000000000000000fc
:1027cc0000000000000000000000000000000000fd
:1027dc0000000000000000000000000000000000ed
:1027ec0000000000000000000000000000000000dd
:1027fc0000000000000000000000000000000000cd
:10280c0000000000000000000000000000000000bc
:10281c0000000000000000000000000000000000ac
:10282c00000000000000000000000000000000009c
:10283c00000000000000000000000000000000008c
:10284c00000000000000000000000000000000007c
:10285c00000000000000000000000000000000006c
:10286c00000000000000000000000000000000005c
:10287c00000000000000000000000000000000004c
:10288c00000000000000000000000000000000003c
:10289c00000000000000000000000000000000002c
:1028ac00000000000000000000000000000000001c
:1028bc00000000000000000000000000000000000c
:1028cc0000000000000000000000000000000000fc
:1028dc0000000000000000000000000000000000ec
:1028ec0000000000000000000000000000000000dc
:1028fc0000000000000000000000000000000000cc
:10290c0000000000000000000000000000000000bb
:10291c00120c000012000000000000008a0a0000e7
:10292c004e0100000200000000000000000000004a
:10293c00000000000000000000000000000000008b
:10294c00000000000000000000000000000000007b
:10295c00000000000000000000000000000000006b
:10296c00000000000000000000000000000000005b
:10297c00000000000000000000000000000000004b
:10298c00000000000000000000000000000000003b
:10299c00000000000000000000000000000000002b
:1029ac00000000000000000000000000000000001b
:1029bc00000000000000000000000000000000000b
:1029cc0000000000000000000000000000000000fb
:1029dc0000000000000000000000000000000000eb
:1029ec0000000000000000000000000000000000db
:1029fc0000000000000000000000000000000000cb
:102a0c0000000000000000000000000000000000ba
:102a1c0000000000000000000000000000000000aa
:102a2c00000000000000000000000000000000009a
:102a3c00000000000000000000000000000000008a
:102a4c00000000000000000000000000000000007a
:102a5c00000000000000000000000000000000006a
:102a6c00000000000000000000000000000000005a
:102a7c000000000000000000000000000054650091
:102a8c0073742000506163006b6574000041010099
:102a9c000101010001010000000000000000000025
:102aac0047010100010100000000000000000000cf
:102abc0043010100000000004f0101000000000074
:102acc00560101000101000000000000005401004b
:102adc000100000000520100010000000053010041
:0c2aec00010000000000000000000000dd
:020000040000fa
:042af8000000fe00dc
:00000001FF
