:020000040000fa
:080000000001040000000000f3
:020000040000fa
:100200008fa62000807922000001880000000000f5
:10021000050007000c000700dc01020000000000e0
:100220000040da000000fe004440a9000000200069
:100230000000e0000300320000002000a001880060
:100240004440a80000000600a04420000100200057
:100250001600370062004000e080480091018800ed
:100260009001ba0062004000e080480091018800df
:100270009002ba0062004000e08048000002eb00fb
:100280006028e10005003a008301e900070033001f
:10029000038009000059eb00040037006128e100e9
:1002a000010032000082eb00050007009101880088
:1002b0001001ba000200e000e6ff3a00000005006d
:1002c000910188008002780062004000e0804800d0
:1002d0003559ba008301e900080032002559ba00f7
:1002e0008301e900050032000400e000f4ff320061
:1002f00015d9ba008301e900f1ff3a0000000600b9
:1003000080007800010037000000e8001004e000e1
:10031000fdff3a0001005000000006008001780057
:100320000001780011407800315978000004e000a5
:10033000fcff3a000300780000000600839f68007d
:100340000100e00002003d0060001000e0801800a5
:100350000300e00002003d0060011100e08119008f
:10036000050007004f00e00002003b0060001000a5
:10037000e0801800000006006022b800060220009d
:100380000000d0008180d2000482d2008582d20099
:100390000000a0000202520083825a0003003b00ca
:1003a0000202420083824a000000a1000603e90025
:1003b000f3ff3a00000006000000fa008d20a800bc
:1003c00000b024001b0007000000eb00301688007e
:1003d0000040eb0003e9b7000040eb0004e9b70080
:1003e0000040eb0005e9b7000040eb0006e9b7006c
:1003f0000040eb0002e9b7000000370043000700af
:1004000001c8bf000004e000fcff32000040eb0028
:1004100001e8b700a0942000b9ff07008000780031
:10042000a09420002600070020802000da000700aa
:10043000f2ff37000200fa00000f78000d42a90019
:100440000cc2a900c12020009140780090cfb300d9
:1004500000c060000ce2b7000c02a9001e0078008a
:10046000000040000000400000004000000040008c
:100470006101b8000068290081092000afff070072
:100480000000e900a01088000de2a8000080fa003a
:10049000000006000200fa00004f78000fc2bf0003
:1004a000614060000004e000fcff32000f42a80041
:1004b0001e80fb00801088000080fa00000006000b
:1004c0000600fa0010079800210798000000eb00d2
:1004d000000f7800060037009e0078001e00900094
:1004e0000080400010407800eaff07001e0fe8007f
:1004f0002e0090009e0f1000f7ff3900a0c0b3003f
:10050000e4ff07000080fa00000006000600fa0081
:1005100000c8bf000004e0009d0032000040eb0076
:1005200000e8b70090108000004f78003053800042
:10053000200798002e009000e30f50003400320096
:100540002e009000e30f500007003e002e009000a8
:10055000e10f50001a0032002e009000e10f500011
:1005600021003e000d0037002e009000e50f5000e6
:100570004b0032002e009000e50f50004200390081
:100580002e009000e60f5000580032002e00900020
:10059000e70f50005e0032007d00370050cab30004
:1005a0009e4f10007a003a000000eb0020538800b4
:1005b000305380000000e80030538800740037009a
:1005c000a0c5b3009e4f100004003a0030538000d5
:1005d0000000e800305388006d0037000000eb0099
:1005e000305388006a0037009e80fb002053800053
:1005f00000804000205388001e80fb0010538800bc
:10060000305380000000e80030538800600037005d
:1006100060cabf008080fb0010538000808f5000b4
:10062000150031009e80fb002053800000804000b8
:100630002053880060cabf008080fb009095200096
:10064000008040001e48780060cabf000040e800fb
:1006500060eab70060cabf008080fb0010538000d2
:10066000808f50004a003a00305380000000e800bc
:100670003053880046003700305380000000e80007
:1006800030538800420037001e80fb00e052880093
:10069000305380000000e800305388003c003700f1
:1006a0001e80fb00f0528800e052800000004000f5
:1006b000000040000000400000004000000040003a
:1006c0000000400000004000000040008000780072
:1006d000f052800000804000d052880030538000eb
:1006e0000000e8003053880029003700c0ccb30078
:1006f000004f7800305380000000e800305388003d
:1007000060cabf000040e90060eab700200037007f
:1007100030c3b3009e4f10001d003a00d15280003c
:1007200020538000808f500006003a0091952000f1
:1007300020802000f9fe070010c0b30001e8b700d8
:100740000500370070902000edfe07008000780063
:10075000709020005aff07000000eb003053880023
:100760000000eb00105388000040eb0060eab70087
:100770000000eb00205388000000eb00e0528800ee
:100780000000eb00f05288000000eb00d05288001f
:100790000080fa00000006000400fa00000f780054
:1007a00002c8bf008080fb0040052000808f500001
:1007b000010032002b00370003c8bf000080fb009f
:1007c00010079800000520009e009000808f5000c8
:1007d00019003200000520009e009000808f50001c
:1007e00009003c00300420009e009000808f5000e3
:1007f0001a003200500420009e009000808f5000ac
:100800000a00320017003700100520009e009000fb
:10081000808f50000e003200200520009e009000c6
:10082000808f5000070032000e00370004c8bf0060
:1008300002e9b7000b00370004c8bf0003e9b700a6
:100840000800370004c8bf0004e9b70005003700fe
:1008500004c8bf0005e9b7000200370004c8bf00a4
:1008600006e9b7000080fa0000000600801f78004b
:100870000000fa008d20a9008520a90010c0b30057
:1008800000e8b7008d20a8000080fa004f00780033
:04089000004006001e
:020000040000fa
:10000800ea050000ea050000ea050000ea0500002c
:10001800ea050000ea050000ea050000ea0500001c
:10002800ea050000ea050000ea050000ea0500000c
:10003800ea050000ea050000ea050000ea050000fc
:10004800ea05000036040000ea050000ea050000a1
:10005800ea050000ea050000ea050000ea050000dc
:10006800ea050000ea050000ea050000ea050000cc
:10007800ea050000ea050000ea050000ea050000bc
:10008800ea050000ea050000ea050000ea050000ac
:10009800ea050000ea050000ea050000ea0500009c
:1000a800ea050000ea050000ea050000ea0500008c
:1000b800ea050000ea050000ea050000ea0500007c
:1000c800ea050000ea050000ea050000ea0500006c
:1000d800ea050000ea050000ea050000ea0500005c
:1000e800ea050000ea050000ea050000ea0500004c
:0800f800ea050000ea05000022
:020000040000fa
:10010800ea050000ea050000ea050000ea0500002b
:10011800ea050000ea050000ea050000ea0500001b
:10012800ea050000ea050000ea050000ea0500000b
:10013800ea050000ea050000ea050000ea050000fb
:10014800ea05000036040000ea050000ea050000a0
:10015800ea050000ea050000ea050000ea050000db
:10016800ea050000ea050000ea050000ea050000cb
:10017800ea050000ea050000ea050000ea050000bb
:10018800ea050000ea050000ea050000ea050000ab
:10019800ea050000ea050000ea050000ea0500009b
:1001a800ea050000ea050000ea050000ea0500008b
:1001b800ea050000ea050000ea050000ea0500007b
:1001c800ea050000ea050000ea050000ea0500006b
:1001d800ea050000ea050000ea050000ea0500005b
:1001e800ea050000ea050000ea050000ea0500004b
:0801f800ea050000ea05000021
:020000040000fa
:10089400000800005a0200000200000000000000ee
:1008a4000000000000000000000000000000000044
:1008b4000000000000000000000000000000000034
:1008c4000000000000000000000000000000000024
:1008d4000000000000000000000000000000000014
:1008e4000000000000000000000000000000000004
:1008f40000000000000000000000000000000000f4
:1009040000000000000000000000000000000000e3
:1009140000000000000000000000000000000000d3
:1009240000000000000000000000000000000000c3
:1009340000000000000000000000000000000000b3
:1009440000000000000000000000000000000000a3
:100954000000000000000000000000000000000093
:100964000000000000000000000000000000000083
:100974000000000000000000000000000000000073
:100984000000000000000000000000000000000063
:100994000000000000000000000000000000000053
:1009a4000000000000000000000000000000000043
:1009b4000000000000000000000000000000000033
:1009c4000000000000000000000000000000000023
:1009d4000000000000000000000000000000000013
:1009e4000000000000000000000000000000000003
:1009f40000000000000000000000450072726f005b
:100a0400723a200043686500636b7300756d2000c3
:100a1400696e63006f727200656374000a004500ba
:100a240072726f00723a2000534f540020496e00d6
:100a340076616c0069640a0000457200726f72008e
:100a44003a2045004f522000496e7600616c6900df
:100a5400640a000044617400612069007320560038
:100a6400616c6900640a00000000000000000000de
:100a74000000000000000000000000000000000072
:100a84000000000000000000000000000000000062
:100a94000000000000000000000000000000000052
:100aa4000000000000000000000000000000000042
:100ab4000000000000000000000000000000000032
:100ac4000000000000000000000000000000000022
:100ad4000000000000000000000000000000000012
:100ae4000000000000000000000000000000000002
:100af40000000000000000000000000000000000f2
:100b040000000000000000000000000000000000e1
:100b140000000000000000000000000000000000d1
:100b240000000000000000000000000000000000c1
:100b340000000000000000000000000000000000b1
:100b440000000000000000000000000000000000a1
:100b54000000000000000000000000000000000091
:100b64000000000000000000000000000000000081
:100b74000000000000000000000000000000000071
:100b84000000000000000000000000000000000061
:100b94000000000000000000000000000000000051
:100ba4000000000000000000000000000000000041
:100bb4000000000000000000000000000000000031
:100bc4005a0a00000e0000000000000000000000af
:020000040000fa
:040bd4000000fe001f
:00000001FF
