:020000040000fa
:080000000001040000000000f3
:020000040000fa
:100200000fa9200080792200000188000000000072
:10021000050007000c000700f401020000000000c8
:100220000040da000000fe004440a900002c20003d
:100230000000e0000300320000002000a001880060
:100240004440a80000000600409b20000100200060
:100250001600370062004000e080480091018800ed
:100260009001ba0062004000e080480091018800df
:100270009002ba0062004000e08048000002eb00fb
:100280006028e10005003a008301e900070033001f
:10029000038009000059eb00040037006128e100e9
:1002a000010032000082eb00050007009101880088
:1002b0001001ba000200e000e6ff3a00000005006d
:1002c000910188008002780062004000e0804800d0
:1002d0003559ba008301e900080032002559ba00f7
:1002e0008301e900050032000400e000f4ff320061
:1002f00015d9ba008301e900f1ff3a0000000600b9
:1003000080017800000178001140780031597800b0
:100310000004e000fcff3a00030078000000060043
:1003200080007800010037000000e8001004e000c1
:10033000fdff3a00010050000000060000027800b6
:1003400080017800010037008159780002004200e6
:10035000808f5100fcff3a00040078000000060086
:10036000839f68000100e00002003d006000100073
:10037000e08018000300e00002003d006001110071
:10038000e0811900050007004f00e00002003b007b
:1003900060001000e0801800000006006022b80035
:1003a000060220000000d0008180d2000482d2002a
:1003b0008582d2000000a0000202520083825a000f
:1003c00003003b000202420083824a000000a100b9
:1003d0000603e900f3ff3a00000006002110880040
:1003e00030108800000006000000fa008d20a800f0
:1003f00000b024002b0007000000eb00301688003e
:100400000040eb0004e9b7000040eb0005e9b7004d
:100410000040eb0006e9b7000040eb0007e9b70039
:100420000040eb0003e9b7000040eb008ceab700a6
:100430000040eb008deab7000040eb0017e9b70081
:100440000000eb0090168800d602a800d622a80073
:10045000d642a800d662a800000037004500070079
:1004600001c8bf000004e000070032000040eb00bc
:1004700001e8b70021902000914078002080200002
:1004800045010700f5ff370017c9bf000004e00071
:10049000f2ff320091002000409720002400070066
:1004a000eeff37000200fa00000f78000d42a900ad
:1004b0000cc2a900c12020009140780090cfb30069
:1004c00000c060000ce2b7000c02a9001e0078001a
:1004d000000040000000400000004000000040001c
:1004e0006101b80040d42100c10120009cff070039
:1004f0000000e900a01088000de2a8000080fa00ca
:10050000000006000200fa00004f78000fc2bf0092
:10051000614060000004e000fcff32000f42a800d0
:100520001e00fb00801088000080fa00000006001a
:100530000600fa0010079800210798000000eb0061
:10054000000f7800060037009e0078001e00900023
:100550000080400010407800eaff07001e0fe8000e
:100560002e0090009e0f1000f7ff39000080fa0067
:10057000000006000400fa0000c8bf000004e0000c
:1005800003013200d6c2bf00614060000004a20037
:100590006140600061416000612d20009140780061
:1005a000e0cfb30000c0600002407000d6e2b700a8
:1005b0000040eb0000e8b70050548000100798009e
:1005c0001e009000e30f50004d0032001e0090000e
:1005d000e30f500007003e001e009000e10f5000a6
:1005e0002d0032001e009000e10f500038003e0048
:1005f0000d0037001e009000e50f5000680032002b
:100600001e009000e50f50005e0039001e009000b3
:10061000e60f5000850032001e009000e70f5000ea
:1006200097003200cb003700e1a82000914078000d
:1006300050cab30080cf500014003a000000eb0015
:1006400040548800505480000000e8005054880056
:10065000d6c2bf000080fb000000d10061406000f6
:100660000004a20061406000614060000041400061
:10067000612d200091407800d0cfb30000c0600011
:1006800002407000d6e2b700c100370010c0b300ce
:100690008ceab700be003700e1a820009140780046
:1006a000a0c5b30080cf500004003a005054800031
:1006b0000000e80050548800b500370010c0b300b7
:1006c0008ceab7000000eb0050548800b0003700ff
:1006d0008ecabf008080fb00405480000080400034
:1006e000405488008ecabf000080fb003054880050
:1006f000505480000000e80050548800a4003700e7
:1007000084cabf008080fb0030548000808f50007e
:10071000180031008ecabf008080fb00405480006a
:10072000008040004054880084cabf000081fb0064
:100730008ecabf0080407800d097200000004100a2
:100740000148780084cabf000040e80084eab7008e
:1007500084cabf008080fb0030548000808f50002e
:100760008b003a00505480000000e800505488008c
:1007700087003700505480000000e8005054880083
:10078000830037008ecabf000080fb000054880041
:10079000505480000000e800505488007c0037006e
:1007a0008ecabf000080fb001054880000548000f7
:1007b0000000400000004000000040000000400039
:1007c0000000400000004000000040000000400029
:1007d000800078001054800000804000f0538800b2
:1007e000d6c2bf000080fb004200de006140600016
:1007f0000004a200614060006140600000404000d1
:1008000000414000612d200091407800b0cfb3003e
:1008100000c0600002407000d6e2b7005054800073
:100820000000e8005054880059003700e1a820007b
:1008300091407800c0ccb30080cf500007003a0050
:10084000505480000000e8005054880084cabf0063
:100850000040e90084eab7004d0037000000eb00db
:10086000505488000000eb00405488000000eb006a
:10087000305488000040eb0084eab70044003700a1
:10088000e1a820009140780030c3b30080cf500031
:100890003f003a00f153800040548000808f5000a8
:1008a00018003a00d19720002080200094fe070015
:1008b00010c0b30001e8b700d6c2bf000080fb0043
:1008c0004300de00614060000004a200614060005f
:1008d0006140600000404000004040000041400096
:1008e000612d20009140780070cfb30000c06000ff
:1008f00002407000d6e2b7003054800002e9b70031
:10090000050037008091200085fe070080007800f8
:100910008091200006ff07000000eb005054880083
:100920000000eb00305488000040eb0084eab70080
:100930000000eb00405488000000eb0000548800e9
:100940000000eb00105488000000eb00f05388001a
:100950000f003700d6c2bf000080fb004200de005f
:10096000614060000004a2006140600061406000de
:100970000040400000414000612d2000914078007f
:10098000b0cfb30000c0600002407000d6e2b700f4
:100990000080fa00000006007401fa003037990068
:1009a00001ef9a008e80e80040852800904878008a
:1009b0000100e800f20f20008000eb005ffe07005e
:1009c000211020008e804000409528001100090071
:1009d000b05878002101b1002001b1004111200080
:1009e0008e8040006096280012000900b058780000
:1009f0003101b1003001b100711220008e80400041
:100a0000909728000d000900b0587800e100b1006f
:100a1000e000b100511320008e8040007098280043
:100a20000b000900b0587800c100b100c000b1004f
:100a3000111420008e804000309928000c0009001d
:100a4000b0587800d100b100d000b100e11420000e
:100a50008e804000009a280012000900b0587800eb
:100a60003101b1003001b1000000eb00000f78004f
:100a7000111620008e8040004085280090487800a4
:100a80000100e8008040eb00014878000000e80029
:100a90008040eb00014878000000e8008040eb0057
:100aa000014878000000e8008040eb000148780031
:100ab0003e309100104078000000fb00103f99008c
:100ac000600420009e389100808f5000a900320001
:100ad000400520009e389100808f500005003200b4
:100ae000300420009e389100808f5000e4003200d6
:100af000f90037003e3091000000e8001040780017
:100b00000000fb00003f9900d00420008e389100c7
:100b1000808f50007f003200d00420008e3891007a
:100b2000808f50000d003c00500420008e38910052
:100b3000808f50001f003200600420008e3891002a
:100b4000808f50005b003200300420008e3891000e
:100b5000808f500037003200df0037001005200082
:100b60008e389100808f50002a003200100520003e
:100b70008e389100808f500005003c000005200059
:100b80008e389100808f500012003200d200370062
:100b9000200520008e389100808f50001500320013
:100ba000a00520008e389100808f5000290032006f
:100bb000c90037003e3091000080e8001040780006
:100bc00003e9b7008ee892003e309100c4000700b0
:100bd000c10037003e3091000080e80010407800ee
:100be00004e9b7008ee892003e309100bc00070097
:100bf000b90037003e3091000080e80010407800d6
:100c000005e9b7008ee892003e309100b40007007d
:100c1000b10037003e3091000080e80010407800bd
:100c200006e9b7008ee892003e309100ac00070064
:100c3000a90037003e3091000080e80010407800a5
:100c400007e9b7008ee892003e309100a40007004b
:100c5000a10037003e3091000080e800104078008d
:100c600008e9b7003e309100630040001040780072
:100c70000be9b7003e30910064004000104078005e
:100c80000ee9b7003e30910065004000104078004a
:100c900014e9b7003e309100660040001040780033
:100ca00011e9b7008ee892003e3091008c000700f9
:100cb000890037003e3091000080e8001040780045
:100cc00009e9b7003e309100630040001040780011
:100cd0000ce9b7003e3091006400400010407800fd
:100ce0000fe9b7003e3091006500400010407800e9
:100cf00015e9b7003e3091006600400010407800d2
:100d000012e9b7008ee892003e30910074000700af
:100d1000710037003e3091000080e80010407800fc
:100d20000ae9b7003e3091006300400010407800af
:100d30000de9b7003e30910064004000104078009b
:100d400010e9b7003e309100650040001040780087
:100d500016e9b7003e309100660040001040780070
:100d600013e9b7008ee892003e3091005c00070066
:100d7000590037003e3091000000e8001040780034
:100d80000000fb007037990050042000fe309100f5
:100d9000808f50000500320060042000fe3091007a
:100da000808f5000050032004b0037008ee8920023
:100db0003e3091004a000700470037003e30910066
:100dc0000080e800104078000000fb0060379900c8
:100dd000d0042000ee309100808f500011003200ce
:100de00000052000ee309100808f50000500320099
:100df00030042000ee309100808f5000050032005a
:100e0000350037008ee892003e3091003400070034
:100e1000310037008ee892003e309100300007002c
:100e20002d0037003e3091006300400010407800f4
:100e30000000fb00000040000000400000004000f7
:100e400000004000000040000000400000004000a2
:100e500000004000800078003e30910064004000b7
:100e6000104078000000fb0000804000000f780078
:100e70008ee892003e3091001900070016003700fe
:100e80003e3091000000e800104078000000fb00b8
:100e90005037990080042000de309100808f500090
:100ea0000500320040052000de309100808f5000a8
:100eb0000700320008003700210020004097200082
:100ec0009bfd070010c0b30017e9b7000200370010
:100ed0000040eb0017e9b7000080fa0000000600b0
:100ee0000801fa002007990061479a00e3004700d3
:100ef00040852800904878000100e800f20f2000ab
:100f00008000eb000dfd07000040eb00204798003b
:100f10000000eb00000f7800e300470050cab30068
:100f200080487800e3004700a0c5b30090409800d7
:100f30006e4092008040e800630047002140980026
:100f400063004700204090000000fb00000f780085
:100f5000e300470060c0b300b040980040c0b30059
:100f600020479800140037002e4090000081fb00bd
:100f70002e4090000080fb00800078002e00910041
:100f800000804000640050009040780063004700fb
:100f9000017178002e4090008080fb0063004700c4
:100fa000614078000000fb001e0f40002e409000c2
:100fb0000040e800204798002e4090008080fb0011
:100fc0006e4092000000fb0064004000808f5000e3
:100fd000e5ff35002e4090000081fb0000f02f005f
:100fe0001e0060004800de0080407800630047007b
:100ff000017178002e4090000080fb000001e800a5
:101000001e0078008040780063004700017178007e
:101010002e4090000080fb000081e800e3004700c4
:10102000c0ccb30000f178002e4090000080fb009f
:1010300063014000e300470030c3b30000f17800d3
:101040006e4092000000fb006800400080007800c5
:101050006300470036fd07000080fa00000006002c
:10106000801f78000000fa008d20a9008520a900cb
:1010700010c0b30000e8b700901080008eeab700ff
:101080008d20a8000080fa004f0078000040060084
:101090000000fa001100200010002000cffc070023
:0810a0000080fa0000000600c8
:020000040000fa
:100008006c0b00006c0b00006c0b00006c0b00000c
:100018006c0b00006c0b00006c0b00006c0b0000fc
:100028006c0b00006c0b00006c0b00006c0b0000ec
:100038006c0b00006c0b00006c0b00006c0b0000dc
:100048006c0b0000300800006c0b00006c0b00000b
:100058006c0b00006c0b00006c0b00006c0b0000bc
:100068006c0b00006c0b00006c0b00006c0b0000ac
:100078006c0b00006c0b00006c0b00006c0b00009c
:100088006c0b00006c0b00006c0b00006c0b00008c
:100098006c0b00006c0b00006c0b00006c0b00007c
:1000a8006c0b00006c0b00006c0b00006c0b00006c
:1000b8006c0b00006c0b00006c0b00006c0b00005c
:1000c8006c0b00006c0b00006c0b00006c0b00004c
:1000d8006c0b00006c0b00006c0b00006c0b00003c
:1000e8006c0b00006c0b00006c0b00006c0b00002c
:0800f8006c0b00006c0b000012
:020000040000fa
:100108006c0b00006c0b00006c0b00006c0b00000b
:100118006c0b00006c0b00006c0b00006c0b0000fb
:100128006c0b00006c0b00006c0b00006c0b0000eb
:100138006c0b00006c0b00006c0b00006c0b0000db
:100148006c0b0000300800006c0b00006c0b00000a
:100158006c0b00006c0b00006c0b00006c0b0000bb
:100168006c0b00006c0b00006c0b00006c0b0000ab
:100178006c0b00006c0b00006c0b00006c0b00009b
:100188006c0b00006c0b00006c0b00006c0b00008b
:020000040000fa
:1012a80050610000636b000065740000205200006c
:1012b800656300006569000076650000643a000017
:1012c80020000000456e0000676900006e650000a0
:1012d80020520000504d000020730000657400008b
:1012e800207400006f2000000050000069740000a6
:1012f800636800002073000065740000207400001b
:101308006f20000000590000617700002073000082
:1013180065740000207400006f2000000052000077
:101328006f6c00006c2000007365000074200000e2
:10133800746f000020000000436f00006c6c000018
:101348006563000074690000766500002073000082
:1013580065740000207400006f2000000000000089
:020000040000fa
:10136800000800007e0200000200000000000000eb
:101378000000000000000000000000000000000065
:101388000000000000000000000000000000000055
:101398000000000000000000000000000000000045
:1013a8000000000000000000000000000000000035
:1013b8000000000000000000000000000000000025
:1013c8000000000000000000000000000000000015
:1013d8000000000000000000000000000000000005
:1013e80000000000000000000000000000000000f5
:1013f80000000000000000000000000000000000e5
:1014080000000000000000000000000000000000d4
:1014180000000000000000000000000000000000c4
:1014280000000000000000000000000000000000b4
:1014380000000000000000000000000000000000a4
:101448000000000000000000000000000000000094
:101458000000000000000000000000000000000084
:101468000000000000000000000000000000000074
:101478000000000000000000000000000000000064
:101488000000000000000000000000000000000054
:101498000000000000000000000000000000000044
:1014a8000000000000000000000000000000000034
:1014b8000000000000000000000000000000000024
:1014c8000000000000000000000000000000000014
:1014d8000000000000000000000000000000000004
:1014e80000457200726f72003a204300686563001d
:1014f8006b7375006d2069006e636f007272650012
:1015080063740a0000457200726f72003a2053003b
:101518004f542000496e7600616c6900640a00002f
:10152800457272006f723a0020454f005220490000
:101538006e7661006c6964000a00490074207700c7
:101548006f726b00732100004461740061206900b0
:1015580073205600616c6900640a0000a55a0200f5
:101568004306000045cc33000000000000000000e6
:101578000000000000000000000000000000000063
:101588000000000000000000000000000000000053
:101598000000000000000000000000000000000043
:1015a8000000000000000000000000000000000033
:1015b8000000000000000000000000000000000023
:1015c8000000000000000000000000000000000013
:1015d8000000000000000000000000000000000003
:1015e80000000000000000000000000000000000f3
:1015f80000000000000000000000000000000000e3
:1016080000000000000000000000000000000000d2
:1016180000000000000000000000000000000000c2
:1016280000000000000000000000000000000000b2
:1016380000000000000000000000000000000000a2
:101648000000000000000000000000000000000092
:101658000000000000000000000000000000000082
:101668000000000000000000000000000000000072
:101678000000000000000000000000000000000062
:101688000000000000000000000000000000000052
:101698000000000000000000000000000000000042
:1016a8000000000000000000000000000000000032
:1016b8000000000000000000000000000000000022
:1016c8007e0a000012000000000000000000000078
:020000040000fa
:0416d8000000fe0010
:00000001FF
