:020000040000FA
:06000000FFEF00F012000A
:080008009EAA04D0AECF6CF0FB
:0600100000016D811200E9
:02002A000000D4
:04002C002A0EF66E34
:10003000000EF76E000EF86E00010900F550656FB6
:100040000900F550666F03E1656701D03DD00900F6
:10005000F550606F0900F550616F0900F550626F4F
:1000600009000900F550E96E0900F550EA6E090033
:1000700009000900F550636F0900F550646F09002D
:100080000900F6CF67F0F7CF68F0F8CF69F060C0ED
:10009000F6FF61C0F7FF62C0F8FF0001635302E1A1
:1000A000645307E00900F550EE6E6307F8E2640759
:1000B000F9D767C0F6FF68C0F7FF69C0F8FF000115
:0A00C0006507000E665BBFD7120053
:0600CA00D9CFE6FFE1CFF3
:1000D000D9FF020EE126DF6AFC0EDB50DF5C18E27E
:1000E0009EAAFED7D4EC00F0E76E010EE7CFDBFF4F
:1000F000FD0EDBCFE9FFFE0EDBCFEAFF010EDBCF0B
:10010000EFFFFD0EDB2AFE0E01E3DB2ADF2AE4D738
:10011000020EE15C02E2E16AE552E16EE552E7CFF0
:04012000D9FF1200F1
:0C01240000016D9111D8730EAD6EACA2FD
:10013000FED7320EAD6EACA2FED700016DA104D089
:100140006CC0ADFFACA2FED7F8D71200948C948E91
:10015000AC9CAC8AAC98AC84AB8EAB9CAB88400EAC
:08016000AF6EAA92AA901200F2
:08016800D9CFE6FFE1CFD9FF7A
:10017000ACA2FED7FD0EDBCFE9FFFE0EDBCFEAFF20
:10018000EF50E66EEEEC00F0E552FD0EDBCFE9FF3E
:10019000DB2AFE0EDBCFEAFF01E3DB2AEF50E8E1CA
:0801A000E552E7CFD9FF120080
:0801A800D9CFE6FFE1CFD9FF3A
:1001B000E652F20E00016E17ABAC03D06E91ABB0FD
:1001C0006E81ABB46E85ABB26E87AE50DF6EDF5022
:0C01D00000D0E552E552E7CFD9FF120045
:0401DC00D9CFE6FF92
:1001E000E1CFD9FFACAC04D0AC9000016EB3AC80D1
:0E01F000FE0EDB50AD6EE552E7CFD9FF1200D8
:0201FE0012EEFF
:1002000000F022EE00F0F86A019C16EC00F014EC0D
:0A02100001F092EC00F0FBD71200A1
:06021A00ACB202D0010E9F
:0802200002D0000E00D0120014
:020228001200C2
:00000001FF
