:020000040000FA
:0600000049EF01F01200BF
:0600080016EF00F01200EB
:02002A000000D4
:04002C00DACFE4FF44
:10003000E2CFDAFFE9CFE4FFEACFE4FFF6CFE4FF57
:10004000F7CFE4FFF5CFE4FFF3CFE4FFF4CFE4FF15
:10005000FACFE4FF00EE00F0020EE80403E3EECF77
:10006000E4FFFBD700EE02F0000EE80403E3EECF5E
:10007000E4FFFBD7E6529EB424D8E55200EE01F02F
:10008000000EE80403E3E5CFEDFFFBD700EE01F03F
:10009000020EE80403E3E5CFEDFFFBD7E5CFFAFF5F
:1000A000E5CFF4FFE5CFF3FFE5CFF5FFE5CFF7FFB1
:1000B000E5CFF6FFE5CFEAFFE5CFE9FFE5CFDAFFD1
:1000C00011009E94CECF6AF0CE6ACFCF6BF0CF6A8C
:1000D00012000AD8730EAD6EACA2FED7320EAD6E12
:1000E000ACA2FED7FFD71200948C948EAC9CAC8A45
:1000F000AC98AC84AB8EAB9CAB880A0EAF6EAA9268
:04010000AA901200AF
:0C0104002A0EF66E000EF76E000EF86E6C
:1001100000010900F550656F0900F550666F03E1B5
:10012000656701D03DD00900F550606F0900F550BA
:10013000616F0900F550626F09000900F550E96E22
:100140000900F550EA6E090009000900F550636FD7
:100150000900F550646F09000900F6CF67F0F7CF8A
:1001600068F0F8CF69F060C0F6FF61C0F7FF62C0C9
:10017000F8FF0001635302E1645307E00900F55002
:10018000EE6E6307F8E26407F9D767C0F6FF68C050
:10019000F7FF69C0F8FF00016507000E665BBFD777
:0201A00012004B
:0E01A200D9CFE6FFE1CFD9FF020EE126DF6ADA
:1001B000FC0EDB50DF5C18E29EAAFED71EEC01F0BD
:1001C000E76E010EE7CFDBFFFD0EDBCFE9FFFE0E92
:1001D000DBCFEAFF010EDBCFEFFFFD0EDB2AFE0EC9
:1001E00001E3DB2ADF2AE4D7020EE15C02E2E16AE6
:0C01F000E552E16EE552E7CFD9FF1200A6
:0401FC00D9CFE6FF72
:10020000E1CFD9FFACA2FED7FD0EDBCFE9FFFE0E9A
:10021000DBCFEAFFEF50E66E38EC01F0E552FD0E61
:10022000DBCFE9FFDB2AFE0EDBCFEAFF01E3DB2AAF
:0C023000EF50E8E1E552E7CFD9FF1200E3
:04023C00D9CFE6FF31
:10024000E1CFD9FFE652F20E00016C17ABAC03D040
:100250006C91ABB06C81ABB46C85ABB26C87AE50BB
:10026000DF6EDF5000D0E552E552E7CFD9FF120034
:10027000D9CFE6FFE1CFD9FFACAC04D0AC90000100
:100280006CB3AC80FE0EDB50AD6EE552E7CFD9FF0C
:0202900012005A
:0E02920012EE00F022EE00F0F86A019C82EC01
:0E02A00000F05EEC01F069EC00F0FBD71200FC
:0202AE00ACB2F0
:0C02B00002D0010E02D0000E00D012009F
:0202BC0012002E
:00000001FF
