:020000040000fa
:080000000001040000000000f3
:020000040000fa
:10020000cf94200080bf2000000188000000000083
:10021000050007000c000700c404020000000000f5
:100220000040da000000fe004440a90080042000e5
:100230000000e0000300320000002000a001880060
:100240004440a80000000600209d2100010020007d
:100250001600370062004000e080480091018800ed
:100260009001ba0062004000e080480091018800df
:100270009002ba0062004000e08048000002eb00fb
:100280006028e10005003a008301e900070033001f
:10029000038009000059eb00040037006128e100e9
:1002a000010032000082eb00050007009101880088
:1002b0001001ba000200e000e6ff3a00000005006d
:1002c000910188008002780062004000e0804800d0
:1002d0003559ba008301e900080032002559ba00f7
:1002e0008301e900050032000400e000f4ff320061
:1002f00015d9ba008301e900f1ff3a0000000600b9
:1003000080007800010037000000e8001004e000e1
:10031000fdff3a00010050000000060000027800d6
:100320008001780001003700815978000200420006
:10033000808f5100fcff3a000400780000000600a6
:10034000839f68000100e00002003d006000100093
:10035000e08018000300e00002003d006001110091
:10036000e0811900250107004f00e00002003b007a
:1003700060001000e080180000000600889fbe00aa
:100380008a9fbe00010578000100e00004003500ee
:1003900008003c000000e0002000320005003700ab
:1003a00060001000e080180002003b0001f02c000b
:1003b0001a0037000004be006011b8006b0920006d
:1003c0000982cf00020039000882cf000441b0004a
:1003d000694252000e00320008003b008281710029
:1003e000610164008904d1000884d3008b05e80012
:1003f0000442e800f9ff3a00050037000804440011
:1004000089844c008b05e9000442e900fbff3a00b7
:100410000a0107000af0a70001f0a0004f05be0086
:100420004f04be0000000600889fbe008a9fbe00e9
:100430008c1f7800270107002e01330003866c0013
:100440006450e1002e0032006420e10033003200ed
:100450006150e1002f0032006120e10031003200e4
:1004600085855500eb07b000090020000804200036
:10047000050037000804440089844c000a0031005c
:100480000603430087834b000001530081815b001a
:10049000f8ff33000203be000800a0000804440077
:1004a00089844c00f6ff3900c639dd0083017300f2
:1004b00001003200130020008904d1000884d30019
:1004c0000998a300050032000800a7000300a0005f
:1004d0008904d1000884d3008b05e8008904d10089
:1004e0000884d3000001eb000281d200d300070092
:1004f00001f0a1000cf0a70001f0a00006013700f8
:100500006420e100080132000801be000200be00c4
:10051000f7ff37006120e100030132006000b800fe
:10052000f3ff37000000200001f82700f0ff37003c
:1005300003f0a200889fbe008a9fbe008c1f780037
:10054000e4000700eb0033006450e1004f0032008c
:100550006420e1005200320003826c0007003b007f
:100560000905d0000306d000820f54000c065d0080
:100570000200390002003200890178000306780089
:100580008582550004003d000003fd008103fd004d
:100590008502ea008b854200840f720002003b0056
:1005a00060001000e08018006011b8000005eb004a
:1005b0007a28e1000a00390006007800c75ddd00f6
:1005c000f707b200878075002d0037008281710027
:1005d0000a017800610560008180d1000080d300ad
:1005e0008502e900f9ff3b000604400087844800cb
:1005f00002003b0060041400e0841c000988a30092
:10060000070032008a8171008281710061016400fb
:100610008904d1000884d3008b05e8001700370057
:100620000978a30013003a000b00e0001300340027
:100630008b05e9000804440089844c000a447400d6
:100640000978a3000d003a000b00e0000700340019
:100650008b05e9000804440089844c0001003a003d
:100660000b0020000978a300f7ff32000001eb0027
:1006700002003700828171000a0178006f000700d4
:100680000cf0a70001f0a000a30037006420e100f7
:1006900002003a00838f6c00a30033000801be0003
:1006a0000200be009c003700889fbe008a9fbe00eb
:1006b0008c1f7800870007008e00330003866c00d3
:1006c0006450e100240032006420e1002700320081
:1006d0006150e100220032006120e100210032007f
:1006e0008b854200eb07b1000134b800003ab80036
:1006f0000804420089844a00013ab8000030b8007a
:100700008880400009014a000400330000004000d6
:1007100081804800020149008b05e900c909dd001c
:10072000830170000100320013002000c814de00b5
:100730004814dd004709de001200b200c808de00e0
:10074000088470003d00070001f0a1000cf0a70034
:1007500001f0a000700037006120e100720032005b
:100760000801be000200be00f7ff37006150e10043
:10077000fcff3a006c0037000001be006d0007006e
:100780000470a70003f0a1006509b1001600320053
:100790000d0035006828e10006003500f0ff2f004d
:1007a000f1ff27000300e00013003b0001002800d8
:1007b0000000050000004000818048008502e9003b
:1007c000fcff3a0008003700f88f420002003c00ae
:1007d0008000eb00000005008100d1000080d30004
:1007e0008502e800fcff3a000300e00002003b0045
:1007f00060001000e0801800000006006022b800d1
:10080000060220000000d0008180d2000482d200c5
:100810008582d2000000a0000202520083825a00aa
:1008200003003b000202420083824a000000a10054
:100830000603e900f3ff3a000000060081002000f3
:10084000618055000b003d000b00200061fe2f0071
:100850000100e1001d00340082817100610164002b
:100860008904d1000884d3000000e800faff3a00b0
:10087000710020006100640003007000020060004d
:100880000900320061044400e0844c000988a5009e
:10089000050032008b05e8006808e10002003a001c
:1008a0008904d1000884d300f20f20000258e1002f
:1008b00005003d00c75ddd00f907b20089807500c5
:1008c00008007800000006000bf827008b00780075
:1008d000000005000004be00160007000003be0073
:1008e0000405be000200be0012000700844f750020
:1008f000000006000200be006450e1000500360062
:100900006420e100020036000968a30001003a00fb
:100910000800be000160a0004f0678004f05be0031
:100920004f04be0000000600f0ff2f00f1ff27007b
:10093000f9ff3700c70ade00f107b200f50fb20079
:1009400008003200e1cf4200020032000170a00036
:1009500024000500810f700001003200040805002a
:1009600044000500810f700002003a0014000500e9
:100970008502e9000000400081c04800fcff3b0008
:100980000170a000240005005200fa006000b800c9
:1009900000179800111798006000b800600f9800c9
:1009a000710f98006000b800400f9800510f980038
:1009b0006000b800200f9800310f98000000eb0095
:1009c000300798006000b8001007980021079800d1
:1009d0000040eb00004f7800510220008e80400064
:1009e000e09a290009000900b0587800a100b10080
:1009f000a000b100f10220008e804000909b2900f1
:100a0000904878000100e8008040eb000148780041
:100a10000000e8008040eb00014878000000e8009a
:100a20008040eb00014878000000e8008040eb00c7
:100a3000014878000000e8008040eb0001487800a1
:100a40000000e8008040eb000148780061032000ce
:100a50008e804000909b2900904878008100e8003b
:100a60000040eb00804878000040eb009040980088
:100a7000910320008e804000909b290090487800d0
:100a80008100e8000040eb00804878000040eb0067
:100a900090409800c10320008e804000909b290068
:100aa000904878000100e8008040eb0001487800a1
:100ab0000000e8008040eb00014878000000e800fa
:100ac0008040eb00014878000000e8008040eb0027
:100ad00001487800110420008e804000909b29007e
:100ae000904878000100e8008040eb000148780061
:100af0000000e8008040eb00014878000000e800ba
:100b00008040eb0001487800510420008e804000b6
:100b1000909b2900904878008100e8000040eb009d
:100b2000804878000040eb0090409800810420004d
:100b30008e804000909b2900904878000100e800da
:100b40008040eb00014878000000e8008040eb00a6
:100b5000014878000000e8008040eb000148780080
:100b60000000e8008040eb00014878000701070022
:100b700000b02400aa010700250107003301070087
:100b80008401070011c0b3000040eb00bb01070067
:100b9000ee0807000040eb0048e9b700ca02a800d1
:100ba0006000b80000179800111798000600370081
:100bb0000e1090009e10900061004000e080480000
:100bc00000179800111798000e1190009e119000c8
:100bd000f070220001002000800f5100818f590029
:100be000f3ff3400ca02a9006000b80000179800a3
:100bf00011179800060037000e1090009e1090000c
:100c000061004000e080480000179800111798002c
:100c10000e1190009e119000f07022000100200043
:100c2000800f5100818f5900f3ff3400ca02a800e1
:100c300000003700d6c2bf00614060000004a2007f
:100c40006140600061416000612d200091407800aa
:100c5000e0cfb30000c0600002407000d6e2b700f1
:100c600065c8bf000004e000060032000040eb0051
:100c700065e8b70061882000914078006086200018
:100c8000b303070098c8bf000004e000060032006c
:100c90000040eb0098e8b700b100070051c0b30076
:100ca00000802000b10107000e1090009e109000ff
:100cb00061004000e080480000179800111798007c
:100cc0000e1190009e119000803e20000100200037
:100cd000800f5100818f5900d6ff34004e089000dc
:100ce000de08900061004000e0804800400f98005e
:100cf000510f98006000b800001798001117980075
:100d0000ce00900000fe2700008060004580de00dd
:100d1000400798004e0090006101b9006e089000f5
:100d2000fe0890000000410081804900600f98009b
:100d3000710f98004e099000de0990006e08900037
:100d4000fe0890007efd070070279800012f980094
:100d50007e2090008e289000e00f5000e08f580019
:100d600006003d007e2190008e2990006301410025
:100d7000e081490072279800032f98007e2190009f
:100d80008e2990004e1add004210de000000720035
:100d9000c298de00700798004e099000de099000ae
:100da0004006200001002000800f5100818f590073
:100db000070034006000b800400f9800510f980001
:100dc0007e00900001002000600f9800710f9800d5
:100dd000c1902000e0802000870107000004e000af
:100de0001e0032000cc9bf000080fb000000400064
:100df00000004000000040000000400000004000f3
:100e0000000040000000400000004000800078002a
:100e10000dc9bf000080fb00008040002047880013
:100e20000ec9bf000080fb00000040000000400031
:100e300000004000000040000000400000004000b2
:100e40000000400000004000800078000fc9bf0093
:100e50000080fb0000804000304788008191200026
:100e6000c0812000640107000004e0000f00320090
:100e700018c9bf000080fb000000400000004000d7
:100e80000000400000004000000040000000400062
:100e900000004000000040008000780019c9bf0039
:100ea0000080fb0000804000f046880018c9bf00a9
:100eb0000080fb00000040000000400000004000f7
:100ec0000000400000004000000040000000400022
:100ed000000040008000780019c9bf000080fb00be
:100ee000008140000ec9bf000080fb0000004000f0
:100ef00000004000000040000000400000004000f2
:100f00000000400000004000000040008000780029
:100f10000fc9bf000080fb00808140000cc9bf00ea
:100f20000080fb0000004000000040000000400086
:100f300000004000000040000000400000004000b1
:100f400000004000800078000dc9bf000080fb0059
:100f500000804000830078004108070035ff37001b
:100f60000000fa0007c9bf0001e8b70008c9bf00c8
:100f700002e8b70009c9bf0003e8b7000ac9bf000b
:100f800004e8b7000080fa00000006000000fa0044
:100f9000de62a900dec2a900de42a800de62a9006e
:100fa000c602a900c682a900d202a900dea2a90039
:100fb000d822a900c602a900d842a900dc42a80094
:100fc000d882a900d8a2a900dca2a9000080fa005a
:100fd000000006000000fa000040eb0007e9b7003f
:100fe0000040eb0008e9b7000040eb0009e9b7005a
:100ff0000040eb000ae9b7000040eb000be9b70046
:101000000040eb0096e8b7000080fa000000060000
:101010000000fa0000002100100888008c60a80081
:101020000421a900411020009140780000c3b300c2
:1010300000c0700004e1b7000000eb000008880069
:1010400005e1a9000080fa00000006000000fa0097
:10105000c0072000600888008cc0a8001021a900eb
:101060000111200091407800f0ccb30000c0600076
:1010700010e1b7000000eb00300888000040eb00f2
:1010800049e9b70011e1a8000080fa00000006005d
:101090000000fa000080fa00000006003600f800a8
:1010a000809fbe00829fbe00849fbe00869fbe00c0
:1010b0000000fa008f00a9008700a90010c0b3004b
:1010c00064e8b700e0108000c8e8b700af0107008f
:1010d0008f00a8000080fa004f03be004f02be0040
:1010e0004f01be004f00be003600f9000040060070
:1010f0003600f800809fbe00829fbe00849fbe0025
:10110000869fbe000000fa008460a900d6c2bf001e
:10111000614060000004a200614060006141600025
:10112000612d200091407800e0cfb30000c0600046
:1011300002407000d6e2b70096c8bf000004e0008d
:101140000300320091002000508020007c01070045
:101150000080fa004f03be004f02be004f01be00e8
:101160004f00be003600f90000400600801f7800e6
:101170000000fa0084c0a90010c0b30049e9b7001c
:101180000000eb00300888000080fa004f00780073
:10119000004006000000fa00a00e2000b00e8800fb
:1011a000210e80000000280000806000e157200030
:1011b00001007000200e8800c1a1a900c0c1bf00bd
:1011c0006f406000c0e1b700c0c1bf00c040b300c5
:1011d000c0e1b700011c200091407800c0cfb300ef
:1011e00000c06000c0e1b700110e800000002800c0
:1011f00000806000100e8800c901a800c881a80006
:10120000c8a1a900c8c1a900c801a900c821a90096
:10121000c841a900c1e1a8000080fa000000060052
:101220000200fa00000f78001742a90016c2a900b8
:10123000612120009140780090cfb30000c0600091
:1012400016e2b7001602a900f0002000f010880096
:1012500017e2a8008f00a8000080fa000000060036
:101260000400fa00000f78002147980010c0b30076
:1012700048e9b7000080fa00000006000200fa000a
:10128000004f78001147980020c2a9001e40780046
:10129000614060006140600000404000004140004b
:1012a0003122200091407800b0cfb30000c0600030
:1012b0000240700023e2b7002322a90022c2a80046
:1012c0001e409000614060006141600031222000ba
:1012d00091407800e0cfb30000c060000240700091
:1012e00023e2b70022a2a80022e2a90021222000c6
:1012f0009140780030ceb30000c0600022e2b70019
:101300002122200091407800c0cfb30000c06000cf
:101310000014a00022e2b7000080fa0000000600de
:101320000400fa002047980021e2a8002e40900017
:101330000000fb002011880020118000004f780081
:101340000080fa00000006000400fa001007980070
:1013500021e2a8001e0090002011880020118000ca
:10136000000f78000080fa00000006000800fa0074
:1013700020079800614798000040eb002047980044
:101380000040eb00204798001500370020c2bf0046
:10139000624060000004e000fcff3a002e40900034
:1013a0000000fb00800078002e00900000804000cc
:1013b00010407800daff07000000eb00000f780013
:1013c000010037001e0fe800301f20009e0f1000a4
:1013d000fcff34002e4090000040e80020479800b9
:1013e000ae4090006e40900080cf5000e7ff350087
:1013f0000080fa00000006001000fa00881f780044
:1014000060079800710798000040eb004047980083
:10141000e5004700009c2900904878000100e800a2
:101420008040eb00014878000000e8008040eb00bd
:10143000014878000000e8008040eb000148780097
:101440000000e8008040eb00014878000000e80060
:101450008040eb00014878000000e8008040eb008d
:10146000014878000040eb00104798000040eb0076
:10147000004f7800dc42a9000040eb004047980094
:101480002c00370020c2bf00624060000004e00072
:10149000fcff3a004e4090000000fb008000780006
:1014a0006e00900000804000104078009cff070014
:1014b00020c2bf00614060000004e000fcff320079
:1014c0004e4090000004e0000b003400201180002a
:1014d000004f78004e4090000000fb008000780034
:1014e0007e009000008040008000e9001e407800ef
:1014f00080487800020037002011800010479800d3
:101500000000eb0010079800030037001e00900059
:101510000000e800100798009e009000301f200097
:10152000808f5000f9ff34004e4090000040e800ea
:10153000404798004e4090000004fb006e00900071
:101540006ffb0700800f5400ceff3900dc42a8007b
:10155000100020004f0478000080fa000000060010
:101560000400fa000000eb00100798000000eb00f8
:10157000000f780021e2a90011c0b30010c0b30031
:101580003eff070021e2a8000000eb00000f7800fa
:10159000010037001e0fe800703e20009e0f100073
:1015a000fcff3400dca2a8001e009000201188007f
:1015b00020c2bf00614060000004e000fcff320078
:1015c0002011800010079800dca2a9000000eb00a9
:1015d000000f7800010037001e0fe800703e200069
:1015e0009e0f1000fcff340021e2a9008040eb00b8
:1015f0000040eb0021ff070021e2a8001e00900040
:101600000080fa00000006000200fa00004f780097
:1016100019c2bf00614060000004e000fcff32001e
:101620001942a8001e00fb00d01088000080fa00bc
:10163000000006000c00fa00204f9800809c290052
:10164000104f78000e00e8008040eb000148780061
:101650000000e8008040eb00014878000000e8004e
:101660008040eb00014878000000e8008040eb007b
:10167000014878000000e8008040eb000148780055
:101680000000e8008040eb00014878000000e8001e
:101690008040eb00014878000000e8008040eb004b
:1016a000014878000000e8008040eb000148780025
:1016b00050cab300004f7800a0c5b300104798008f
:1016c00030c0b3002047980040c7b30030479800af
:1016d00050c4b300404798002e48900050479800ef
:1016e0002e4890000000fb00c00bb0008000780086
:1016f00000f02f00008060004800de006047980086
:10170000c1cbb3002e48900000c04000804078005c
:1017100000c0eb0000c0600070479800c0ccb30070
:10172000004f980030c3b300104f9800a100200074
:101730000e007800020007000080fa00000006009a
:101740000600fa0010079800210798008f00a900f2
:101750000000eb00000f7800060037009e007800c4
:101760001e0090000080400010407800a6ff070097
:101770001e0fe8002e0090009e0f1000f7ff3900aa
:101780008f00a8000080fa00000006000600fa00a2
:1017900064c8bf000004e000eb0032000040eb0032
:1017a00064e8b70030468000200798002e009000c3
:1017b000e30f5000480032002e009000e30f50006d
:1017c00007003e002e009000e10f50002a0032007a
:1017d0002e009000e10f500033003e000d00370056
:1017e0002e009000e50f5000630032002e009000a4
:1017f000e50f5000590039002e009000e60f500010
:10180000710032002e009000e70f5000830032007c
:10181000be003700818c20009140780050cab30090
:1018200080cf5000c8003a000000eb00204688003e
:10183000304680000000e80030468800d6c2bf0075
:101840000080fb000000d100614060000004a200a5
:10185000614060006140600000414000612d200057
:1018600091407800d0cfb30000c06000024070000b
:10187000d6e2b700b4003700818c20009140780098
:10188000a0c5b30080cf500004003a00304680006d
:101890000000e80030468800ab0037000000eb0095
:1018a00030468800a8003700c8c8bf008080fb0011
:1018b000204680000080400020468800c8c8bf0045
:1018c0000080fb0010468800304680000000e800e1
:1018d000304688009c003700c0c8bf008080fb00f5
:1018e00010468000808f500018003100c8c8bf002b
:1018f0008080fb0020468000008040002046880059
:10190000c0c8bf000081fb00c8c8bf00804078008d
:10191000608620000000410001487800c0c8bf0078
:101920000040e800c0e8b700c0c8bf008080fb00ee
:1019300010468000808f500083003a0030468000bf
:101940000000e800304688007f0037003046800005
:101950000000e800304688007b003700c8c8bf00a0
:101960000080fb00e0458800304680000000e80071
:101970003046880074003700c8c8bf000080fb00f4
:10198000f0458800e0458000000040000000400075
:101990000000400000004000000040000000400047
:1019a000000040000000400080007800f04580000a
:1019b00000804000d0458800304680000000e800ec
:1019c0003046880060003700818c2000914078000c
:1019d000c0ccb30080cf500007003a0030468000f2
:1019e0000000e80030468800c0c8bf000040e900a1
:1019f000c0e8b700540037000000eb003046880014
:101a00000000eb00204688000000eb001046880034
:101a10000040eb00c0e8b7004b003700818c20008d
:101a20009140780030c3b30080cf500028003a00c6
:101a3000d145800020468000808f500015003a007c
:101a4000cac2bf000080fb004400de0061406000ad
:101a50000004a2006140600061406000004040005e
:101a6000004040000040400000414000a12c200008
:101a700091407800f0ceb30000c0600002407000da
:101a8000cae2b70010c0b30065e8b7001046800096
:101a900086e8b7000000eb00304688000000eb004d
:101aa000104688000040eb00c0e8b7000000eb00e3
:101ab000204688000000eb00e04588000000eb00b5
:101ac000f04588000000eb00d04588001e0037007c
:101ad0000000eb00304688000000eb001046880054
:101ae0000040eb00c0e8b7000000eb002046880093
:101af0000000eb00e04588000000eb00f0458800a6
:101b00000000eb00d04588000f003700d6c2bf00b0
:101b10000080fb004200de00614060000004a20083
:101b200061406000614060000040400000414000b2
:101b3000612d200091407800b0cfb30000c060005c
:101b400002407000d6e2b7000080fa0000000600f4
:101b50002c00fa00400f9800215f98000000eb0075
:101b600040079800f2004700809c290090487800c8
:101b70000100e8008040eb00014878000000e80028
:101b80008040eb00014878000000e8008040eb0056
:101b9000014878000000e8008040eb000148780030
:101ba0004e089000104078000000fb00501798008d
:101bb00060042000de109000808f5000c6003200cc
:101bc00040052000de109000808f5000050032009c
:101bd00030042000de109000808f50003702320069
:101be000520237004e0890000000e80010407800d4
:101bf0000000fb0040179800d0042000ce10900099
:101c0000808f50009c003200d0042000ce10900045
:101c1000808f50000d003c0050042000ce1090003a
:101c2000808f50001f00320060042000ce10900012
:101c3000808f50007800320030042000ce109000d9
:101c4000808f50005200320038023700100520000b
:101c5000ce109000808f500043003200100520000d
:101c6000ce109000808f500005003c000005200041
:101c7000ce109000808f5000270032002b023700da
:101c800020052000ce109000808f50002c003200e4
:101c9000a0052000ce109000808f5000460032003a
:101ca000220237004e0890000080e80010407800c3
:101cb0000be9b7004e0890000080e8001040780063
:101cc0000000fb00cf80de00acf907000200250019
:101cd000337c2400d4f90700f226210033a8230026
:101ce00014fa0700100798002107980002682900dd
:101cf000838124001e009000ae0090006afa070065
:101d00009dfa0700b00e8800ae5890004e08900073
:101d10002c040700050237004e0890000080e80000
:101d20001040780007e9b700ae5890004e089000c8
:101d30002404070010c0b30098e8b700fb01370087
:101d40004e0890000080e8001040780008e9b700d5
:101d5000ae5890004e0890001a04070010c0b3005f
:101d600098e8b700f10137004e0890000080e800c5
:101d70001040780009e9b700ae5890004e08900076
:101d80001004070010c0b30098e8b700e70137005f
:101d90004e0890000080e800104078000ae9b70083
:101da000ae5890004e0890000604070010c0b30023
:101db00098e8b700dd0137004e0890000080e80089
:101dc0001040780087e8b7004e089000630040009c
:101dd000104078008ae8b7004e0890006400400088
:101de000104078008de8b7004e0890006500400074
:101df0001040780093e8b7004e089000660040005d
:101e00001040780090e8b700ae5890004e0890005f
:101e1000ec030700c50137004e0890000080e80081
:101e20001040780088e8b7004e089000630040003a
:101e3000104078008be8b7004e0890006400400026
:101e4000104078008ee8b7004e0890006500400012
:101e50001040780094e8b7004e08900066004000fb
:101e60001040780091e8b700ae5890004e089000fe
:101e7000d4030700ad0137004e0890000080e80051
:101e80001040780089e8b7004e08900063004000d9
:101e9000104078008ce8b7004e08900064004000c5
:101ea000104078008fe8b7004e08900065004000b1
:101eb0001040780095e8b7004e089000660040009a
:101ec0001040780092e8b700ae5890004e0890009d
:101ed000bc030700950137004e0890000000e800a1
:101ee000104078000000fb003017980080042000ac
:101ef000be109000808f50007500320080042000da
:101f0000be109000808f50000d003c005004200057
:101f1000be109000808f50006700320070042000d7
:101f2000be109000808f50009a00320030042000d4
:101f3000be109000808f5000170032007b013700e8
:101f4000d0042000be109000808f50000c013200a1
:101f5000d0042000be109000808f500005003c008f
:101f600090042000be109000808f50002f0132009e
:101f70006e01370000052000be109000808f5000d9
:101f8000fa00320020052000be109000808f500023
:101f9000f200320065013700ae5890004e08900004
:101fa000880307004e0890000080e8001040780089
:101fb0000000fb0000004000000040000000400066
:101fc0000000400000004000000040000000400011
:101fd00000004000800078004e0890006300400040
:101fe000104078000000fb0000804000700798005f
:101ff0004e08900064004000104078000000fb0094
:1020000000004000000040000000400000004000d0
:1020100000004000000040000000400000004000c0
:10202000800078004e089000650040001040780065
:102030000000fb0000804000600798004e08900000
:1020400066004000104078000000fb0000004000e7
:102050000000400000004000000040000000400080
:1020600000004000000040000000400080007800b8
:102070004e08900067004000104078000000fb0010
:1020800000804000500798004e0890006800400013
:1020900010407800604798006e4090000080fb0080
:1020a000800178005e019000ee0090007e009000bc
:1020b0000f0407001d013700ae5890004e08900035
:1020c0004003070010c0b30097e8b70017013700be
:1020d0004e0890000080e800104078000000fb00ef
:1020e00020179800d0042000ae109000808f500080
:1020f0001100320000052000ae109000808f5000cb
:102100000500320030042000ae109000808f500097
:102110000500320005013700ae5890004e089000cf
:102120002803070001013700ae5890004e089000c8
:1021300024030700fd0037004e08900063004000b4
:10214000104078000000fb0000004000000040004c
:10215000000040000000400000004000000040007f
:102160000000400000004000800078004e08900011
:1021700064004000104078000000fb000080400038
:1021800040079800ae5890004e0890000d030700dd
:10219000e60037004e0890000080e800104078000c
:1021a0000000fb00504688004e089000630040008d
:1021b00010407800cce8b7004e0890006400400062
:1021c000104078000000fb000000400000004000cc
:1021d00000004000000040000000400000004000ff
:1021e0000000400000004000800078004e08900091
:1021f00065004000104078000000fb0000804000b7
:10220000704688004e08900066004000104078003c
:10221000d0e8b7004e0890006700400010407800fa
:102220000000fb00904688004e08900068004000c7
:1022300010407800d4e8b7004e08900069004000d4
:10224000104078000000fb0000004000000040004b
:10225000000040000000400000004000000040007e
:102260000000400000004000800078004e08900010
:102270006a004000104078000000fb000080400031
:10228000b04688004e0890006b0040001040780077
:10229000d8e8b7004e0890006c004000104078006d
:1022a000dae8b7004e0890006c004000104078005b
:1022b0000000fb0010179800800420009e10900082
:1022c000808f500005003200300520009e109000e5
:1022d000808f500018003200940037004e089000a4
:1022e0006d004000104078000000fb00000040003e
:1022f00000004000000040000000400000004000de
:102300000000400000004000000040008000780015
:102310004e0890006e004000104078000000fb0066
:1023200000804000e0468800ae5890004e089000c3
:10233000a40207007d0037004e0890006d004000a9
:10234000104078000000fb00e0468800ae58900086
:102350004e0890009b02070074003700ae589000b2
:102360004e08900097020700700037004e0890005a
:102370000000e800104078006e0007006b00370096
:102380004e0890000080e800104078000000fb003c
:1023900000179800000520008e109000808f5000dc
:1023a0001a003200000520008e109000808f50002f
:1023b00005003c00600420008e109000808f5000cb
:1023c0000a00320059003700200520008e109000ce
:1023d000808f500009003200300520008e109000e0
:1023e000808f50000d00320050003700ae58900032
:1023f0004e089000730207004c003700ae58900062
:102400004e0890006f02070048003700ae58900059
:102410004e0890006b02070044003700ae58900051
:102420004e08900067020700400037004e089000f9
:102430000080e800104078000000fb00700f98005a
:10244000c0042000fe089000808f5000160032006b
:10245000c0042000fe089000808f500009003c005e
:1024600020042000fe089000808f50000e003200f3
:1024700080042000fe089000808f50000a00320087
:102480002a00370020052000fe089000808f5000b1
:1024900005003200a0052000fe089000808f50004b
:1024a00001003200210037004e0890000080e80053
:1024b000104078001f0007001c0037004e089000f5
:1024c0000000e800104078000000fb00600f98005a
:1024d00080042000ee089000808f5000050032003c
:1024e00040052000ee089000808f50000a00320066
:1024f0000e003700910020005080200090fc070063
:1025000010c0b30096e8b7000000eb000008880098
:1025100005e1a800050037000040eb0096e8b70091
:102520000000eb000008880005e1a9000080fa0027
:10253000000006002800fa0040679800e30047000a
:10254000809c2900904878000100e800f2012000fa
:102550008000eb0071f707000040eb002047980077
:102560000000eb00000f7800e300470050cab30002
:1025700080487800e3004700a0c5b3009040980071
:10258000e300470040c7b300b04098006300470035
:10259000ce609000414098004e6090000080fb00ab
:1025a00030179800c0042000be109000808f5000ab
:1025b0001a003200c0042000be109000808f50002e
:1025c00009003c0020042000be109000808f5000c5
:1025d000f000320080042000be109000808f500078
:1025e00062003200f501370020052000be10900087
:1025f000808f5000c1013200a0052000be10900065
:10260000808f50009900320000052000be1090001d
:10261000808f50002f013200e8013700e3004700af
:10262000c0c0b300a0409800804780008040780080
:102630006300470051409800f2c8bf008040780016
:102640006300470061409800a147800000f02f0020
:10265000008060004800de00804078006300470092
:1026600071409800a04780008040780063004700d8
:1026700001489800f6c8bf0080407800630047001a
:1026800011489800c04780008040780063004700f0
:1026900021489800fac8bf008040780063004700d6
:1026a00031489800e147800000f02f000080600072
:1026b0004800de00804078006300470041489800f1
:1026c000e047800080407800630047005148980050
:1026d000fec8bf0080407800630047006148980052
:1026e00020c0b30020479800090037002e4090001a
:1026f0008080fb0063004700614078000080fb00a1
:102700001e0f40002e4090000040e8002047980037
:102710002e409000ee4f5000f4ff360000f02f00e6
:102720001e0060004800de00804078006300470023
:10273000714898001e0078008040780063004700d0
:1027400001509800e3004700c0ccb30090509800bf
:10275000e300470030c3b300a05098006300470077
:1027600031012000f6fb070094013700e300470029
:1027700070c0b300a0409800f146800000f02f0028
:10278000008060004800de00804078006300470061
:1027900051409800f0468000804078006300470078
:1027a00061409800018e200091407800630047004e
:1027b000714098001147800000f02f0000806000f9
:1027c0004800de0080407800630047000148980020
:1027d000104780008040780063004700114898004f
:1027e00020c0b30020479800090037002e40900019
:1027f0008080fb0063004700614078000080fb00a0
:102800001e0f40002e4090000040e8002047980036
:102810002e409000e94f5000f4ff360000f02f00ea
:102820001e0060004800de00804078006300470022
:10283000214898001e00780080407800630047001f
:1028400031489800e3004700c0ccb300c04898006e
:10285000e300470030c3b300d0489800630047004e
:10286000e1002000b6fb070054013700e3004700f9
:1028700080c0b300a04098003047800080007800fe
:1028800000f02f00008060004800de0080407800eb
:102890006300470051409800304780008040780036
:1028a00000c0eb0080c060006300470061409800fa
:1028b000204780008000780000f02f00008060003a
:1028c0004800de00804078006300470071409800b7
:1028d000204780008040780000c0eb0080c060008e
:1028e00063004700014898008191200091407800e2
:1028f00063004700114898009191200091407800b2
:10290000630047002148980020c0b300204798008a
:10291000090037002e4090008080fb0063004700d4
:10292000614078000080fb001e0f40002e409000a8
:102930000040e800204798002e409000ea4f5000e9
:10294000f4ff360000f02f001e0060004800de009b
:102950008040780063004700314898001e007800ee
:10296000804078006300470041489800e30047003a
:10297000c0ccb300d0489800e300470030c3b30098
:10298000e048980063004700f10020006cfb07005e
:102990000a013700e300470080c0b300a040980060
:1029a000504780008000780000f02f000080600019
:1029b0004800de00804078006300470051409800e6
:1029c000504780008040780000c0eb0080c060006d
:1029d00063004700614098006047800080007800f5
:1029e00000f02f00008060004800de00804078008a
:1029f0006300470071409800604780008040780085
:102a000000c0eb0080c060006300470001489800f0
:102a1000704780008000780000f02f000080600088
:102a20004800de00804078006300470011489800ad
:102a3000704780008040780000c0eb0080c06000dc
:102a4000630047002148980020c0b3002047980049
:102a5000090037002e4090008080fb006300470093
:102a6000614078000080fb001e0f40002e40900067
:102a70000040e800204798002e409000ea4f5000a8
:102a8000f4ff360000f02f001e0060004800de005a
:102a90008040780063004700314898001e007800ad
:102aa000804078006300470041489800e3004700f9
:102ab000c0ccb300d0489800e300470030c3b30057
:102ac000e048980063004700f10020001cfb07006d
:102ad000ba003700e300470050c1b300a04098009f
:102ae0008047800080407800630047005140980094
:102af000f2c8bf0080407800630047006140980042
:102b0000a147800000f02f00008060004800de0038
:102b1000804078006300470071409800a047800023
:102b2000804078006300470001489800f6c8bf0065
:102b3000804078006300470011489800c04780003b
:102b4000804078006300470021489800fac8bf0021
:102b5000804078006300470031489800e1478000da
:102b600000f02f00008060004800de008040780008
:102b70006300470041489800e047800080407800ab
:102b80006300470051489800fec8bf0080407800ad
:102b900063004700614898001148800000f02f0052
:102ba000008060004800de0080407800630047003d
:102bb000714898001048800080407800630047000a
:102bc000015098002148800000f02f000080600034
:102bd0004800de00804078006300470011509800f4
:102be0002048800080407800630047002150980012
:102bf000504780008000780000f02f0000806000c7
:102c00004800de00804078006300470031509800a3
:102c1000504780008040780000c0eb0080c060001a
:102c200063004700415098007047800080007800a2
:102c300000f02f00008060004800de008040780037
:102c40006300470051509800704780008040780032
:102c500000c0eb0080c06000630047006150980036
:102c60006190200091407800630047007150980007
:102c700020c0b30020479800090037002e40900084
:102c80008080fb0063004700614078000080fb000b
:102c90001e0f40002e4090000040e80020479800a2
:102ca0002e409000f74f5000f4ff360000f02f0048
:102cb0001e0060004800de0080407800630047008e
:102cc000015898001e00780080407800630047009b
:102cd00011589800e3004700c0ccb300a0589800fa
:102ce000e300470030c3b300b058980063004700ca
:102cf000c101200092fa070030003700e3004700ce
:102d000040c0b300a04098000148800000f02f00b0
:102d1000008060004800de008040780063004700cb
:102d200051409800004880008040780063004700d0
:102d30006140980020c0b300204798000900370088
:102d40002e4090008080fb006300470061407800c7
:102d50000080fb001e0f40002e4090000040e80065
:102d6000204798002e409000e64f5000f4ff3600b8
:102d700000f02f001e0060004800de008040780058
:102d800063004700714098001e0078008040780082
:102d90006300470001489800e3004700c0ccb3003f
:102da00090489800e300470030c3b300a048980063
:102db00063004700b100200061fa07000080fa00bc
:102dc000000006002800fa002017980061679800ac
:102dd000e3004700809c2900904878000100e8004b
:102de000f20120008000eb004cf507000040eb00f2
:102df000204798000000eb00000f7800e300470038
:102e000050cab30080487800e3004700a0c5b30073
:102e1000904098006e6090000040e800804078008c
:102e20006300470021409800630047002040900065
:102e30000080fb00000f7800e300470060c0b30093
:102e4000b040980040c0b3002047980015003700fc
:102e50002e4090000081fb002e4090000080fb007f
:102e6000800078002e109000008040006400500028
:102e700010407800804078006300470001717800be
:102e80002e4090008080fb00630047006140780086
:102e90000080fb001e0f40002e4090000040e80024
:102ea000204798002e4090008080fb006e609000cc
:102eb0000000fb0064004000808f5000e4ff3500fc
:102ec0002e4090000081fb0000f02f001e006000eb
:102ed0004800de0080407800630047000171780000
:102ee0002e4090000080fb000001e8001e007800ea
:102ef0008040780063004700017178002e40900008
:102f00000080fb000081e800e3004700c0ccb30074
:102f100000f178002e4090000080fb00630140002b
:102f2000e300470030c3b30000f178006e6090000a
:102f30000000fb006800400080007800630047004c
:102f4000fff907000080fa00000006000000fa0008
:102f50000003200050468800e0c1b300cce8b70071
:102f60000000eb0070468800e0c4b300d0e8b70072
:102f7000b007200090468800e0c1b300d4e8b70055
:102f80000000eb00b046880070c5b300d8e8b70079
:102f90000003200080478800e0c1b300f2e8b700da
:102fa0000000eb00a0478800e0c4b300f6e8b700db
:102fb000b0072000c0478800e0c1b300fae8b700be
:102fc0000000eb00e047880070c5b300fee8b700e2
:102fd0000000eb00f04688000040eb00e0e8b7009e
:102fe0000000eb00104788000000eb00204788003d
:102ff0000000eb00304788000000eb0040478800ed
:1030000040062000504788000000eb006047880021
:1030100040012000704788000000eb001048880045
:103020000000eb002048880000c0eb0006e9b70074
:103030000040eb0007e9b7000040eb0008e9b700eb
:103040000040eb0009e9b7000040eb000ae9b700d7
:103050000040eb000be9b7000080fa00000006001a
:103060000600fa00000f7800110798002207980068
:103070001e007800204788001e009000304788001e
:103080002e009000f04688000080fa000000060044
:103090000400fa00004f78001147980012079800ca
:1030a0001e00fb00804788001e409000f2e8b70039
:1030b0001e009000a04788000080fa000000060073
:1030c0000400fa00004f780011479800120798009a
:1030d0001e00fb00c04788001e409000fae8b700c1
:1030e0001e009000e04788000080fa000000060003
:1030f0001000fa00400798005107980062079800f6
:1031000073079800a0478000010020002007980066
:1031100031079800e047800001002000008fbe00ca
:103120004e0090006101b9002e009000be0090009a
:103130000000410081804900200798003107980075
:103140002e019000be019000f0a52e00010020008d
:10315000800f5100818f59001d003400ae00900097
:1031600000a62e0000805000a0478800f2c8bf00d3
:103170000040e800f2e8b700218f2000914078007d
:10318000b0c3b30080cf50002d003400218f200049
:103190009140780040ccb30000c04000f2e8b70096
:1031a000804780000000e800804788008147800059
:1031b000a0052000808f500021003400804780004f
:1031c000410b200000805000804788001c00370021
:1031d0002e009000be009000e00f5000e08f5800dd
:1031e00017003d00ae00900000a62e0000804000b9
:1031f000a0478800f2c8bf000040e900f2e8b7002d
:10320000f2c8bf000004e0000d003d00f2c8bf009e
:10321000c043b000f2e8b700804780000000e9003a
:1032200080478800804780000000e00004003d00e7
:10323000814780000080eb000088b900804788004b
:103240005e009000cf80de001e0f40005e974800b9
:10325000f0a52e0001002000be0f1000ae8f180058
:103260001d0034009e00780000a62e000080500053
:10327000e0478800fac8bf000040e800fae8b7005d
:10328000a18f200091407800b0c3b30080cf5000e0
:103290002c003400a18f20009140780040ccb30076
:1032a00000c04000fae8b700c04780000000e80016
:1032b000c0478800c1478000400b2000808f50002d
:1032c00020003400c047800081162000008050009c
:1032d000c04788001b0037001e00be00e00f5000f2
:1032e000e08f580017003d009e00780000a62e00d9
:1032f00000804000e0478800fac8bf000040e900b5
:10330000fae8b700fac8bf000004e0000d003d0075
:10331000fac8bf00c043b000fae8b700c047800059
:103320000000e900c0478800c04780000000e000be
:1033300004003d00c14780000080eb000088b90018
:10334000c047880010488000ee0090000100400057
:0c335000104888000080fa000000060011
:020000040000fa
:10000800981a0000981a0000981a0000981a000020
:10001800981a0000981a0000981a0000981a000010
:10002800981a0000981a0000981a00007808000032
:10003800981a0000981a0000b6080000981a0000e4
:10004800981a0000981a0000981a0000981a0000e0
:10005800981a0000981a0000981a0000981a0000d0
:10006800981a0000981a0000981a0000981a0000c0
:10007800981a0000981a0000981a0000981a0000b0
:100088004e080000981a0000981a0000981a0000fc
:10009800981a0000981a0000981a0000981a000090
:1000a800981a0000981a0000981a0000981a000080
:1000b800981a0000981a0000981a0000981a000070
:1000c800981a0000981a0000981a0000981a000060
:1000d800981a0000981a0000981a0000981a000050
:1000e800981a0000981a0000981a0000981a000040
:0800f800981a0000981a00009c
:020000040000fa
:10010800981a0000981a0000981a0000981a00001f
:10011800981a0000981a0000981a0000981a00000f
:10012800981a0000981a0000981a00007808000031
:10013800981a0000981a0000b6080000981a0000e3
:10014800981a0000981a0000981a0000981a0000df
:10015800981a0000981a0000981a0000981a0000cf
:10016800981a0000981a0000981a0000981a0000bf
:10017800981a0000981a0000981a0000981a0000af
:100188004e080000981a0000981a0000981a0000fb
:10019800981a0000981a0000981a0000981a00008f
:1001a800981a0000981a0000981a0000981a00007f
:1001b800981a0000981a0000981a0000981a00006f
:1001c800981a0000981a0000981a0000981a00005f
:1001d800981a0000981a0000981a0000981a00004f
:1001e800981a0000981a0000981a0000981a00003f
:0801f800981a0000981a00009b
:020000040000fa
:10335c0030310000323300003435000036370000c5
:10336c0038390000000000000000000000000000e0
:10337c000000000000000000000000000000000041
:10338c000000000000000000000000000000000031
:08339c00000000000000000029
:020000040000fa
:1033a4000008000064000000020000005001010059
:1033b4000101a5005a02430006004500cc33410038
:1033c40001010100010101000047010001010100a8
:1033d4000043010001004f000101000056010100fb
:1033e40001010000540101000052010001005300da
:1033f400010100004d0101000101010001004c0028
:10340400010101000101010001010100004401006a
:103414000101010001010100010101000100550049
:10342400010101000101010001004200010100004d
:103434000000000048090000040000000000000033
:103444000c0900003c000000020000000000000025
:103454000000000000000000000000000000000068
:103464000000000000000000000000000000000058
:103474000000000000000000000000000000000048
:103484000000000000000000000000000000000038
:1034940000000000000000000000000064080000bc
:1034a40056000000020000000000000000000000c0
:1034b4000000000000000000000000000000000008
:1034c40000000000000000000000000000000000f8
:1034d40000000000000000000000000000000000e8
:1034e40000000000000000000000000000000000d8
:1034f40000000000000000000000000000000000c8
:1035040000000000000000000000000000000000b7
:10351400000000000000000000000000ba080000e5
:0c35240052000000000000000000000049
:020000040000fa
:043530000000fe0099
:00000001FF
