:020000040000fa
:080000000001040000000000f3
:020000040000fa
:100200006fb2200080bf20000001880000000000c5
:10021000050007000c000700d806020000000000df
:100220000040da000000fe004440a9000007200062
:100230000000e0000300320000002000a001880060
:100240004440a80000000600c06622000100200013
:100250001600370062004000e080480091018800ed
:100260009001ba0062004000e080480091018800df
:100270009002ba0062004000e08048000002eb00fb
:100280006028e10005003a008301e900070033001f
:10029000038009000059eb00040037006128e100e9
:1002a000010032000082eb00050007009101880088
:1002b0001001ba000200e000e6ff3a00000005006d
:1002c000910188008002780062004000e0804800d0
:1002d0003559ba008301e900080032002559ba00f7
:1002e0008301e900050032000400e000f4ff320061
:1002f00015d9ba008301e900f1ff3a0000000600b9
:10030000a20020008000eb001000370000027800ff
:100310008001780001003700815978000200420016
:10032000808f5100fcff3a000400780000000600b6
:1003300080007800010037000000e8001004e000b1
:10034000fdff3a000100500000000600ec87470066
:10035000889fbe008a9fbe008c9fbe008e1f7800c3
:10036000f0b79f0081bf9f008204780000047800ee
:10037000010037000804e800184778000e00fb0071
:10038000860007000000e000faff3a00d0c2b30088
:10039000804f57000500320000c0e900804f570031
:1003a0000200320000477800010037000804e8002e
:1003b0000900e00045003500e18f540043003200a1
:1003c00040022000808f540040003c000900e00003
:1003d0000e003400f08f54001a003a0000c3b3003e
:1003e000984f100016003a009840900080c7b30064
:1003f00080cf50000300320080c5b30080cf500092
:100400000f003a000884e8000e003700a900200021
:1004100000c3b300984f10000a003a0098409000c3
:1004200080c7b30080cf5000040032008900200054
:1004300080c5b30080cf500002003a000884e80075
:100440000901200008057800010037000a05e800ce
:1004500000c3b3009a4f1000fcff32008a057800f9
:100460006066b8000e003700d0ab2000004252009a
:10047000c4ef9f006149b9000c00be0046020700ae
:100480004fea97000401fb00cf91de008b05e800e6
:10049000ccb79f00ddb79f00000641008186490070
:1004a0001b00fb0045000700800078000901780070
:1004b000d0ab200048000700000278000000e000f8
:1004c000e9ff3a008b0f540006003a000fb897007e
:1004d0000000e00029003200ffb09700010878001a
:1004e000260037008a80550080a9200069407800e6
:1004f0000000fb0000805000160033004240a900bd
:100500000f003c004fe997000200fb00cf80de00a7
:100510000000560081805e00800f5600818f5e00d3
:10052000070039006149b9009d0107004fb19700ec
:10053000dfb19700820f5000838f58000500320012
:1005400020022000205988000086eb008086eb0006
:1005500005003700d0c2b300804f570002003a00b8
:1005600060061600e0861e008fb997000300e000c9
:10057000030032008b097800010037006066b80084
:100580000c00be004f0778004f06be004f05be00ae
:100590004f04be00cf00b100000006006900e1007a
:1005a000040035006d00e100030034000002b100da
:1005b00001003200000005001000050080007800f6
:1005c0001104b100030035009101b10001003c00ad
:1005d0000050a000000006008201780004003700ef
:1005e00090cf1000050032000000e8008301e90010
:1005f0000300e000faff3a000000eb0000000600f4
:10060000839f68000100e00002003d0060001000d0
:10061000e08018000300e00002003d0060011100ce
:10062000e08119005e0107004f00e00002003b007e
:1006300060001000e080180000000600889fbe00e7
:100640008a9fbe00010578000100e000040035002b
:1006500008003c000000e0002000320005003700e8
:1006600060001000e080180002003b0001f02c0048
:100670001a0037000004be006011b8006b092000aa
:100680000982cf00020039000882cf000441b00087
:10069000694252000e00320008003b008281710066
:1006a000610164008904d1000884d3008b05e8004f
:1006b0000442e800f9ff3a0005003700080444004e
:1006c00089844c008b05e9000442e900fbff3a00f5
:1006d000430107000af0a70001f0a0004f05be008b
:1006e0004f04be00000006000001be0062010700ca
:1006f0000470a70003f0a1006509b10016003200e4
:100700000d0035006828e10006003500f0ff2f00dd
:10071000f1ff27000300e00013003b000100280068
:100720000000050000004000818048008502e900cb
:10073000fcff3a0008003700f88f420002003c003e
:100740008000eb00000005008100d1000080d30094
:100750008502e800fcff3a000300e00002003b00d5
:1007600060001000e080180000000600889fbe00b6
:100770008a9fbe008c1f7800540107005b01330084
:1007800003866c006450e100240032006420e10024
:10079000270032006150e100220032006120e100b8
:1007a000210032008b854200eb07b1000134b80014
:1007b000003ab8000804420089844a00013ab800af
:1007c0000030b8008880400009014a00040033006e
:1007d0000000400081804800020149008b05e900cb
:1007e000c909dd0083017000010032001300200000
:1007f000c814de004814dd004709de001200b20014
:10080000c808de0008847000f500070001f0a100b0
:100810000cf0a70001f0a0003d0137006120e100cd
:100820003f0132000801be000200be00f7ff3700a2
:100830006150e100fcff3a003901370003f0a200eb
:10084000889fbe008a9fbe008c1f78001f01070092
:10085000260133006450e1004f0032006420e100c3
:100860005200320003826c0007003b000905d000f3
:100870000306d000820f54000c065d000200390010
:100880000200320089017800030678008582550055
:1008900004003d000003fd008103fd008502ea0025
:1008a0008b854200840f720002003b006000100044
:1008b000e08018006011b8000005eb007a28e10024
:1008c0000a00390006007800c75ddd00f707b200b6
:1008d000878075002d003700828171000a01780041
:1008e000610560008180d1000080d3008502e900ad
:1008f000f9ff3b00060440008784480002003b00eb
:1009000060041400e0841c000988a3000700320082
:100910008a81710082817100610164008904d100c3
:100920000884d3008b05e800170037000978a3007e
:1009300013003a000b00e000130034008b05e900bf
:100940000804440089844c000a4474000978a30018
:100950000d003a000b00e000070034008b05e900b1
:100960000804440089844c0001003a000b00200078
:100970000978a300f7ff32000001eb000200370006
:10098000828171000a017800950007000cf0a70031
:1009900001f0a000de0037006420e10002003a0010
:1009a000838f6c00de0033000801be000200be0031
:1009b000d7003700889fbe008a9fbe008c1f78003a
:1009c000c2000700c900330003866c006450e100d8
:1009d0002e0032006420e100330032006150e1005b
:1009e0002f0032006120e100310032008585550082
:1009f000eb07b000090020000804200005003700c4
:100a00000804440089844c000a00310006034300b6
:100a100087834b000001530081815b00f8ff3300a6
:100a20000203be000800a0000804440089844c00b2
:100a3000f6ff3900c639dd00830173000100320082
:100a4000130020008904d1000884d3000998a30072
:100a5000050032000800a7000300a0008904d100af
:100a60000884d3008b05e8008904d1000884d300f2
:100a70000001eb000281d2005900070001f0a10043
:100a80000cf0a70001f0a000a10037006420e100f5
:100a9000a30032000801be000200be00f7ff3700cd
:100aa0006120e1009e0032006000b800f3ff3700d3
:100ab0000000200001f82700f0ff3700140020009c
:100ac0009a003700f4ff2f0098003700889fbe007f
:100ad0008a9fbe008c1f78000004be0066000700dd
:100ae0000478a30026003a006120e10025003200ce
:100af00009f8a30025003a006420e100210032003b
:100b0000f507b1000508a300020032000000400014
:100b1000818048006044b8000310200002002000db
:100b200000004000818048000805440089854c0091
:100b30000a0541008b8549000a0550008b85580045
:100b4000030033000a00be000204740083847400b2
:100b50008301d1000281d300830f7100f0ff3a00be
:100b60008904d1000884d300600149008201780023
:100b7000c1adde00fb07b0001900070064003700bc
:100b80000960a0000800be006100370012022000ca
:100b900022598800f0ff2f00f1ff27005c0037008a
:100ba0006022b800060220000000d0008180d20040
:100bb0000482d2008582d2000000a000020252000e
:100bc00083825a0003003b000202420083824a00f3
:100bd0000000a1000603e900f3ff3a000000060050
:100be00081002000618055000b003d000b002000bb
:100bf00061fe2f000100e1001d00340082817100c0
:100c0000610164008904d1000884d3000000e80079
:100c1000faff3a00710020006100640003007000d8
:100c2000020060000900320061044400e0844c00ce
:100c30000988a500050032008b05e8006808e1007e
:100c400002003a008904d1000884d300f20f20008a
:100c50000258e10005003d00c75ddd00f907b20064
:100c60008980750008007800000006000bf8270056
:100c70008b00780000000500c70ade00f107b20013
:100c8000f50fb20008003200e1cf4200020032004e
:100c90000170a00024000500810f700001003200e7
:100ca0000408050044000500810f700002003a00ae
:100cb000140005008502e9000000400081c04800e2
:100cc000fcff3b000170a000240005000004be00f2
:100cd000e9ff07000003be000405be000200be00dd
:100ce000e5ff0700844f7500000006000200be000b
:100cf0006450e100050036006420e1000200360087
:100d00000968a30001003a000800be000160a000cd
:100d10004f0678004f05be004f04be0000000600dd
:100d2000f0ff2f00f1ff2700f9ff3700889fbe007a
:100d30008a9fbe00841f7800e4ff07004f00780000
:100d400011003300f0ff2f00838f6c0006003b0082
:100d5000040565000a00a7000800370009f0a60096
:100d60001000200008003700820f5400838f5c00c1
:100d7000030039001000200001003e0000002000a8
:100d800009f0a7000000ea004f05be004f04be00b6
:100d90000000e00000000600020ab900001bb900d4
:100da0000200b800810042008100430000000600fc
:100db0005400fa00889fbe006000b8001017980029
:100dc000211798006000b800700f98000117980074
:100dd0006000b800500f9800610f98006000b800e4
:100de000300f9800410f98000000eb00400798007a
:100df0006000b80020079800310798000040eb0021
:100e000020479800710220008e80400040632a0035
:100e100009000900b0587800a100b100a000b1009d
:100e2000110320008e804000f0632a009048780073
:100e30000100e8008040eb00014878000000e80075
:100e40008040eb00014878000000e8008040eb00a3
:100e5000014878000000e8008040eb00014878007d
:100e60000000e8008040eb00014878000000e80046
:100e70008040eb0001487800810320008e80400014
:100e8000f0632a00904878008100e8000040eb0001
:100e9000804878000040eb0090409800b1032000ab
:100ea0008e804000f0632a00904878008100e800be
:100eb0000040eb00804878000040eb009040980034
:100ec000e10320008e804000f0632a009048780003
:100ed0000100e8008040eb00014878000000e800d5
:100ee0008040eb00014878000000e8008040eb0003
:100ef000014878000000e8008040eb0001487800dd
:100f0000310420008e804000f0632a009048780071
:100f10000100e8008040eb00014878000000e80094
:100f20008040eb00014878000000e8008040eb00c2
:100f300001487800710420008e804000f0632a0090
:100f4000904878008100e8000040eb00804878007d
:100f50000040eb0090409800a10420008e804000eb
:100f6000f0632a00904878000100e8008040eb0020
:100f7000014878000000e8008040eb00014878005c
:100f80000000e8008040eb00014878000000e80025
:100f90008040eb0001487800c02b2000000f780053
:100fa000f102070000b02400940307000f030700bc
:100fb0001d0307006e03070011c0b3000040eb00e3
:100fc000460e07007a0d07000040eb004ceab70020
:100fd000cb02a8006000b8001017980021179800f5
:100fe000060037001e109000ae1090006100400017
:100ff000e080480010179800211798001e119000fb
:10100000ae119000f070220001002000800f51000e
:10101000818f5900f3ff3400cb02a9006000b800b3
:101020001017980021179800060037001e10900036
:10103000ae10900061004000e0804800101798005a
:10104000211798001e119000ae119000f070220040
:1010500001002000800f5100818f5900f3ff340000
:10106000cb02a80000003700d6c2bf00614060007c
:101070000004a2006140600061416000612d200019
:1010800091407800e0cfb30000c0600002407000e3
:10109000d6e2b700ebc9bf000004e0000600320052
:1010a0000040eb00ebe9b700c1a0200091407800c0
:1010b000c09e2000a50707001ecabf000004e00074
:1010c00009003a0028cabf000004e0000600320010
:1010d0000040eb0028eab7009802070051c0b300b7
:1010e000e0972000390e07001e119000ae1190000d
:1010f0000071220001002000800f5100818f5900f3
:10110000d9ff34005e089000ee08900061004000b6
:10111000e0804800500f9800610f98006000b80010
:101120001017980021179800de00900000fe27009d
:10113000008060004580de00500798005e0090004f
:101140006101b9007e0890008e10900000004100ff
:1011500081804900700f9800011798005e09900087
:10116000ee0990007e0890008e10900024fd07008c
:10117000002f9800112f98000e2890009e289000b4
:10118000e00f5000e08f580006003d000e2990004f
:101190009e29900063014100e0814900022f9800e0
:1011a000132f98000e2990009e2990004e1add0002
:1011b0004210de0000007200c298de00000f9800ae
:1011c0005e099000ee09900040062000010020001a
:1011d000800f5100818f5900070034006000b80073
:1011e000500f9800610f98000e0890000100200039
:1011f000700f98000117980021ae2000c0982000c1
:10120000150e07000004e00083003200e2cabf00b0
:101210000080fb0000004000000040000000400093
:1012200000004000000040000000400000004000be
:101230000000400080007800e3cabf000080fb008f
:1012400000804000004a8800e4cabf000080fb0024
:10125000000040000000400000004000000040008e
:10126000000040000000400000004000000040007e
:1012700080007800e5cabf000080fb0000804000cd
:10128000104a88001ecabf000004e000620032005d
:10129000284f8000004a8000cf80de00e7fc070076
:1012a000200c9800310c9800384f8000b04b800023
:1012b000401eb000cf80de00e0fc0700200c98004c
:1012c000310c9800214f80000080200007030700a8
:1012d000314f8000c0832000040307008187200075
:1012e00000a52000cb040700fffc07006be9b70056
:1012f000284f8000104a8000cf80de00cffc07001e
:10130000200c9800310c9800384f8000b04b8000c2
:10131000401eb000cf80de00c8fc0700200c980003
:10132000310c9800214f800000802000ef02070060
:10133000314f8000c0832000ec020700818720002d
:1013400000a52000b3040700e7fc07006ce9b70024
:10135000f149800040062000808f500006003600d2
:10136000224f800000002000a13f240020099800a7
:101370003109980014003700284f8000f14980009f
:10138000505180000080400080007800401f200005
:1013900001005000cf80de00a8fc0700200c980060
:1013a000310c9800284f8000204f8000b00890003a
:1013b0002008900092432b0083e42300ebfc0700fd
:1013c000200c9800310c9800324f80000000200063
:1013d000a13f24002009980031099800214f800086
:1013e00000802000c1020700314f8000c083200030
:1013f000be0207008187200000a5200085040700a9
:10140000b9fc07006ee9b700cc01070051c0b3007a
:10141000e09720006d0d0700e1ae2000c09920008c
:101420008d0d07000004e000cd003200eecabf00c1
:101430000080fb0000004000000040000000400071
:10144000000040000000400000004000000040009c
:101450000000400080007800efcabf000080fb0061
:1014600000804000204a88001ecabf000004e0003f
:10147000b70032000000eb00e04b8800e14b800039
:10148000c0022000808f500038003e00214a8000ba
:10149000b0132000808f500010003400e04b80001b
:1014a0008000ea00204a800000805000b035b00083
:1014b000d04b8800284f8000d04b8000cf80de00ca
:1014c0005efc070022a72800e3e02300a7fc07003a
:1014d000200c9800310c98008a003700e04b800007
:1014e000214a8000810f500010003900e04b80003d
:1014f0008000ea00204a800000805000401fb000b9
:10150000d04b8800284f8000d04b8000cf80de0079
:101510004afc070022a72800e3e0230093fc070011
:10152000200c9800310c980076003700204a80008b
:1015300080007800e04b800000804000401fb00039
:10154000d04b8800284f8000d04b8000cf80de0039
:101550003afc070022a72800e3e0230083fc0700f1
:10156000200c9800310c980066003700e14b800099
:10157000a0132000808f500040003600e14b800017
:1015800060162000808f50003c003e00214a800001
:10159000c0022000808f500011003c00214a8000d2
:1015a000e04b800080805000e04b800000804000d5
:1015b000b035b000d04b8800284f8000d04b800061
:1015c000cf80de001dfc070022a72800e3e02300f7
:1015d00066fc0700200c9800310c98004900370089
:1015e000e04b8000214a8000810f5000100036003f
:1015f000e04b80008000ea00204a8000008050001c
:10160000401fb000d04b8800284f8000d04b800096
:10161000cf80de0009fc070022a72800e3e02300ba
:1016200052fc0700200c9800310c98003500370060
:10163000e04b8000214a8000810f500031003e00c5
:10164000214a8000e04b800000805000401fb00025
:10165000d04b8800284f8000d04b8000cf80de0028
:10166000f6fb070022a72800e3e023003ffc070069
:10167000200c9800310c980022003700e04b8000cd
:10168000214a8000810f500010003900e04b80009b
:101690008000ea00204a800000805000401fb00017
:1016a000d04b8800284f8000d04b8000cf80de00d8
:1016b000e2fb070022a72800e3e023002bfc070041
:1016c000200c9800310c98000e003700214a800051
:1016d000e04b800000805000401fb000d04b8800dd
:1016e000284f8000d04b8000cf80de00d3fb070066
:1016f00022a72800e3e023001cfc0700200c980030
:10170000310c9800384f8000d14b800080f32f00bf
:1017100000804000cf80de00c8fb0700200c98004e
:10172000310c9800214f800000802000ef0107005d
:10173000314f8000c0832000ec010700818720002a
:1017400000a52000b3030700e7fb07006de9b70021
:10175000fa00070051c0b300e09720009b0c07007f
:10176000eecabf000080fb00000040000000400007
:101770000000400000004000000040000000400069
:10178000000040000000400080007800efcabf0069
:101790000080fb0000814000e4cabf000080fb0025
:1017a0000000400000004000000040000000400039
:1017b0000000400000004000000040000000400029
:1017c00080007800e5cabf000080fb0080814000f7
:1017d000e2cabf000080fb000000400000004000a3
:1017e00000004000000040000000400000004000f9
:1017f000000040000000400080007800e3cabf0005
:101800000080fb000080400083007800ad0b0700e3
:1018100021b02000e09b20008f0c07000004e000b6
:101820003d00320021b0200091407800800320006c
:101830000e0040000148780031b02000914078004f
:10184000800320000e0040001140980041b02000ad
:1018500091407800b00320000e004000014878005d
:1018600051b0200091407800b00320000e004000ed
:101870001140980071b0200091407800e0032000f2
:101880000e0040000148780081b0200091407800af
:10189000e00320000e0040001140980091b02000ad
:1018a00091407800e00320000e00400021409800a5
:1018b000a1b0200091407800e00320000e0040001d
:1018c00031409800e00320000e0040008cfa070031
:1018d000cf80de0059fb07002007980031079800f1
:1018e0002e009000be0090007ffb0700800478006f
:1018f000b00320000e00400081fa07000044780089
:10190000800320000e0040007dfa070009017800e6
:1019100088407800770b0700b1b02000909c200031
:101920004d0c07000004e00042003200b1b020007e
:1019300091407800300420000e00400001487800fb
:10194000c1b0200091407800300420000e0040001b
:1019500011409800d1b02000914078003004200060
:101960000e00400021409800e1b020009140780036
:10197000700420000e00400001487800f1b0200003
:1019800091407800700420000e0040001140980043
:1019900011b1200091407800a00420000e0040000a
:1019a0000148780021b1200091407800a004200077
:1019b0000e0040001140980031b1200091407800a5
:1019c000a00420000e0040002140980041b12000fa
:1019d00091407800a00420000e00400031409800a3
:1019e000a00420000e00400045fa0700cf80de0072
:1019f00012fb070020079800310798002e00900086
:101a0000be00900038fb07008004780070042000be
:101a10000e0040003afa070000447800300420002d
:101a20000e00400036fa070009017800884078006f
:101a30003c0b070001af2000009a2000060c0700b5
:101a4000f0cabf000080fb00000040000000400022
:101a50000000400000004000000040000000400086
:101a6000000040000000400080007800f1cabf0084
:101a70000080fb0000804000920b0700e1b12000d5
:101a800040992000f40b070022cbbf000080fb0030
:101a90000000400000004000000040000000400046
:101aa0000000400000004000000040000000400036
:101ab0008000780023cbbf000080fb000081400045
:101ac00020cbbf000080fb00000040000000400071
:101ad0000000400000004000000040000000400006
:101ae00000004000000040008000780021cbbf00d3
:101af0000080fb00808140001ecbbf000080fb0007
:101b000000004000000040000000400000004000d5
:101b100000004000000040000000400000004000c5
:101b2000800078001fcbbf000080fb0000804000d9
:101b300083007800070b07004bfd37000000fa0018
:101b40006bc9bf007fe9b7006cc9bf0080e9b7006f
:101b50006dc9bf0081e9b7006ec9bf0082e9b70057
:101b60000080fa00000006000000fa00de62a90012
:101b7000dec2a900de42a800de62a900c602a900fa
:101b8000c682a900d202a900dea2a900d822a9001b
:101b9000c702a900d842a900dc42a800d882a90047
:101ba000d8a2a900dca2a9000080fa00000006006b
:101bb0000000fa000040eb006be9b7000040eb00ca
:101bc0006ce9b7000040eb006de9b7000040eb00a6
:101bd0006ee9b7000040eb006fe9b7000040eb0092
:101be0001ceab7000080fa00000006000000fa00be
:101bf00000002100100888008c60a8000421a900c2
:101c0000411020009140780000c3b30000c0700074
:101c100004e1b7000000eb000008880005e1a9001e
:101c20000080fa00000006000000fa00c007200053
:101c3000600888008cc0a8001021a90001112000b4
:101c400091407800f0ccb30000c0600010e1b70014
:101c50000000eb00300888000040eb004deab700c0
:101c600011e1a8000080fa00000006000000fa0060
:101c70000080fa00000006003600f800809fbe00d9
:101c8000829fbe00849fbe00869fbe000000fa00b7
:101c90008f00a9008700a90010c0b300eae9b700cf
:101ca000e01080001ce9b700b70307008f00a80010
:101cb0000080fa004f03be004f02be004f01be007d
:101cc0004f00be003600f900004006003600f80064
:101cd000809fbe00829fbe00849fbe00869fbe0084
:101ce0000000fa008460a900d6c2bf006140600015
:101cf0000004a2006140600061416000612d20008d
:101d000091407800e0cfb30000c060000240700056
:101d1000d6e2b7001ccabf000004e0000300320096
:101d20009100200030982000840307000080fa0012
:101d30004f03be004f02be004f01be004f00be0069
:101d40003600f90000400600801f78000000fa000d
:101d500084c0a90010c0b3004deab7000000eb003a
:101d6000300888000080fa004f007800004006002c
:101d70000000fa00a00e2000b00e8800210e8000a6
:101d80000000280000806000e15720000100700082
:101d9000200e8800c1a1a900c0c1bf006f40600033
:101da000c0e1b700c0c1bf00c040b300c0e1b70090
:101db000011c200091407800c0cfb30000c060003b
:101dc000c0e1b700110e8000000028000080600014
:101dd000100e8800c901a800c881a800c8a1a900e8
:101de000c8c1a900c801a900c821a900c841a9000b
:101df000c1e1a8000080fa00000006000200fa001d
:101e0000000f78001742a90016c2a9006121200026
:101e10009140780090cfb30000c0600016e2b70098
:101e20001602a900f0002000f010880017e2a800b8
:101e30008f00a8000080fa00000006000400fa00ed
:101e4000000f78002147980010c0b3004ceab7009b
:101e50000080fa00000006001000fa00889fbe0013
:101e6000008fbe00220798003307980044079800af
:101e70005507980066079800770798006e01900054
:101e8000fe0190003eb89700ceb897006bfa0700ad
:101e90000004be002e019000be0190004e00900094
:101ea000de00900065fa07000001be000800be00d9
:101eb000c0fa07000004be002e019000be01900091
:101ec0001e00be005dfa07000001be000800be0053
:101ed00026fa07006e019000fe01900058fa0700f4
:101ee0004f04be000080fa00000006000400fa0063
:101ef000889fbe008a9fbe00000f780011079800df
:101f00001e0190006000b8000089be001e01900014
:101f10006000b80020019800310198001e01900077
:101f20006000b80040019800510198001e01900027
:101f30006000b80060019800710198001e019000d7
:101f40006000b80000099800110998001e00900078
:101f5000200a9000b00a90001e0078002001900036
:101f6000b00190000400be00d4fa07000000e000b9
:101f700001003500140037001e0078002001900099
:101f8000b00190001e0078001005be001e009000f9
:101f9000200c9000b00c90000000200001f82300fd
:101fa000809fbe000600200007f823000202be004a
:101fb0000a01be000800be00a7ff0700e487570023
:101fc0001e0190000089be001e009000200a9000b3
:101fd000b00a90001e00780040019000d0019000ef
:101fe0000400be00b5fa07000000e0000100350063
:101ff0001f0037001e009000200a9000b00a9000d9
:102000001e00780020019000b00190000400be0086
:10201000acfa07000000e00001003d0014003700aa
:102020001e00780040019000d00190001e00780052
:1020300020059000b00590001e009000200c90003c
:10204000b00c90006000b800809fbe000600200029
:1020500007f823000202be000a01be000800be000d
:102060007dff0700e48757001e0190000089be0035
:102070001e009000200a9000b00a90009e00780098
:102080006c80400020019000b00190000400be0070
:102090008afa07000000e000010035002100370047
:1020a0001e009000200a9000b00a90009e00780068
:1020b0006c8040001001be000400be0081fa0700e1
:1020c0000000e00001003d00160037009e0078008f
:1020d0006c80400020019000b00190009e007800cc
:1020e0006c8040001005be001e009000200c900087
:1020f000b00c90000000200001f82300809fbe007b
:102100006033b8000202be000a01be000800be0033
:1021100051ff0700e48757001e019000200198003e
:10212000310198001e009000200a9000b00a900033
:102130009e0078006c80400040019000d00190002b
:102140000400be005dfa07000000e0000100350059
:10215000230037001e009000200a9000b00a900073
:102160009e0078006c80400020019000b00190003b
:102170000400be0053fa07000000e00001003d002b
:10218000170037009e0078006c80400040019000ee
:10219000d00190009e0078006c80400020059000e7
:1021a000b00590001e009000200c9000b00c900034
:1021b0006000b800809fbe000600200007f82300e2
:1021c0000202be000a01be000800be0022ff070096
:1021d000e48757001e01900020019800310198000b
:1021e0001e009000200a9000b00a90009e00780027
:1021f0007880400020019000b00190000400be00f3
:102200002efa07000000e000010035002100370031
:102210001e009000200a9000b00a90009e007800f6
:10222000788040001001be000400be0025fa0700bf
:102230000000e00001003d00160037009e0078001d
:102240007880400020019000b00190009e0078004e
:10225000788040001005be001e009000200c900009
:10226000b00c90000000200001f82300809fbe0009
:102270006033b8000202be000a01be000800be00c2
:10228000f5fe0700e48757001e019000400198000a
:10229000510198001e009000200a9000b00a9000a2
:1022a0009e0078007880400040019000d0019000ae
:1022b0000400be0001fa07000000e0000100350044
:1022c000230037001e009000200a9000b00a900002
:1022d0009e0078007880400020019000b0019000be
:1022e0000400be00f7f907000000e00001003d0017
:1022f000170037009e007800788040004001900071
:10230000d00190009e007800788040002005900069
:10231000b00590001e009000200c9000b00c9000c2
:102320006000b800809fbe000600200007f8230070
:102330000202be000a01be000800be00c6fe070081
:10234000e48757001e019000400198005101980059
:102350001e009000200a9000b00a90004102200068
:102360001e80400020019000b00190000400be00db
:10237000d2f907000000e00001003500210037001d
:102380001e009000200a9000b00a90004102200038
:102390001e8040001001be000400be00c9f9070005
:1023a0000000e00001003d0016003700410220005f
:1023b0001e80400020019000b001900041022000ea
:1023c0001e8040001005be001e009000200c9000f2
:1023d000b00c90000000200001f82300809fbe0098
:1023e0006033b8000202be000a01be000800be0051
:1023f00099fe0700e48757001e01900060019800d5
:10240000710198001e009000200a9000b00a900010
:10241000410220001e80400040019000d001900049
:102420000400be00a5f907000000e000010035002f
:10243000230037001e009000200a9000b00a900090
:10244000410220001e80400020019000b001900059
:102450000400be009bf907000000e00001003d0001
:1024600017003700410220001e804000400190000c
:10247000d0019000410220001e8040002005900005
:10248000b00590001e009000200c9000b00c900051
:102490006000b800809fbe000600200007f82300ff
:1024a0000202be000a01be000800be006afe07006c
:1024b000e48757001e0190006001980071019800a8
:1024c0001e009000200a9000b00a90000103200036
:1024d0001e80400020019000b00190000400be006a
:1024e00076f907000000e000010035002100370008
:1024f0001e009000200a9000b00a90000103200006
:102500001e8040001001be000400be006df90700ef
:102510000000e00001003d0016003700010320002c
:102520001e80400020019000b001900001032000b7
:102530001e8040001005be001e009000200c900080
:10254000b00c90000000200001f82300809fbe0026
:102550006033b8000202be000a01be000800be00df
:102560003dfe0700e48757001e0190000009980017
:10257000110998001e009000200a9000b00a9000f7
:10258000010320001e80400020019000b001900057
:102590000400be004bf907000000e00001003d0010
:1025a00018003700010320001e8040004001900009
:1025b000d0019000010320001e8040002005900003
:1025c000b00590001e009000200c9000b00c900010
:1025d0000000200001f82300809fbe0006002000bc
:1025e00007f823000202be000a01be000800be0078
:1025f00019fe0700e48757001e01900000099800ab
:10260000110998004f05be004f04be000080fa007b
:10261000000006004000fa00889fbe008a1f780074
:10262000601f9800711f9800f000470060642a0046
:1026300009000900b01878004101b1004001b10063
:102640000000eb00700798000000eb0060079800a6
:102650000000eb00000f780063003700000020004e
:1026600001f8230030079800410798003100370037
:102670007e009000800078007e189000008040006e
:10268000104078000000fb007800b900800078005e
:102690006e18900000804000500798007e00900067
:1026a0000000e800700798007e009000800078002d
:1026b0007e18900000804000104078000000fb0071
:1026c0000000400000004000800078005e009000a4
:1026d000008040001000be003e019000ce0190003e
:1026e000f6f807000000e000010035000e0037009a
:1026f0007e009000800078007e18900000804000ee
:10270000104078000000fb00000040000000400086
:10271000800078005e009000008040001001be0044
:1027200032079800430798007e0090000000e80000
:10273000700798007e009000800078007e1890005e
:10274000008040009040780090c5b30080cf5000da
:10275000c7ff3a007e0090000000e8007007980074
:102760006e0090000000e800600798007e00900076
:10277000800078007e1890000080400010407800b3
:102780000000fb00000f78007e0090000000e800d1
:10279000700798001e0578001e007800f0004700c2
:1027a0000000400000004000010040001004be0096
:1027b0003e019000ce0190003e009000ce009000bf
:1027c000eaf707000001be000800be001cf8070081
:1027d0000001be00f00047000a0045000000400074
:1027e000010040000288be006e009000f80f50000b
:1027f0009aff3400400220000e004000500798006d
:102800000000eb00700798000f0037007e0090007a
:10281000f0004700000040000000400001004000c0
:102820001000be00a9f807005e0190000089be00fc
:102830005e00900064004000500798007e00900009
:102840000000e800700798007e009000e40f500040
:10285000eeff34006000b8001007980021079800d0
:10286000400220000e0040001000be006011b800c1
:10287000bef70700100798002107980040022000cb
:102880000e004000b00090002000900002002000e8
:10289000831c2400b5f707000001be001e00900055
:1028a000ae009000e6f70700100798002107980097
:1028b000400220000e004000d00090004000900038
:1028c0000200200083242400a8f707000001be00b6
:1028d0001e009000ae009000d9f707001007980086
:1028e00021079800400220000e004000f0009000f8
:1028f0006000900002002000632924009bf707007d
:102900000001be001e009000ae009000ccf7070052
:102910001007980021079800400220000e00400098
:10292000900890000008900002002000832c2400f2
:102930008ef707000001be001e009000ae00900060
:10294000bff70700100798002107980040022000f9
:102950000e0040001002be00400220000e004000a9
:1029600020019000b00190000400be00b4f7070001
:102970000002be00400220000e0040004001900016
:10298000d00190000400be00adf707000002be00b9
:10299000400220000e00400060019000f001900015
:1029a0000400be00a6f707000002be00400220009f
:1029b0000e00400000099000900990000400be0045
:1029c0009ff707000001be001e009000ae009000bf
:1029d000f8f7070010079800210798001e009000e4
:1029e000ae00900040f70700000f78001e00900036
:1029f000ae0090004f0578004f04be000080fa0042
:102a0000000006000200fa00004f780019c2bf0063
:102a1000614060000004e000fcff32001942a800a1
:102a20001e00fb00d01088000080fa0000000600a5
:102a30000c00fa00204f9800a0652a00104f780083
:102a40000e00e8008040eb00014878000000e8003c
:102a50008040eb00014878000000e8008040eb0077
:102a6000014878000000e8008040eb000148780051
:102a70000000e8008040eb00014878000000e8001a
:102a80008040eb00014878000000e8008040eb0047
:102a9000014878000000e8008040eb000148780021
:102aa0000000e8008040eb000148780050cab30005
:102ab000004f7800a0c5b3001047980030c0b300a5
:102ac0002047980040c7b3003047980050c4b30077
:102ad000404798002e489000504798002e4890009c
:102ae0000000fb00c00bb0008000780000f02f0059
:102af000008060004800de0060479800c1cbb30052
:102b00002e48900000c040008040780000c0eb00dc
:102b100000c0600070479800c0ccb300004f980020
:102b200030c3b300104f9800a10020000e007800c1
:102b3000020007000080fa00000006000600fa000c
:102b400010079800210798008f00a9000000eb00f3
:102b5000000f7800060037009e0078001e009000ed
:102b60000080400010407800a6ff07001e0fe8001c
:102b70002e0090009e0f1000f7ff39008f00a80074
:102b80000080fa00000006000600fa00eac9bf0053
:102b90000004e000eb0032000040eb00eae9b7007f
:102ba000d0488000200798002e009000e30f5000ce
:102bb000480032002e009000e30f500007003e0056
:102bc0002e009000e10f50002a0032002e009000ed
:102bd000e10f500033003e000d0037002e00900042
:102be000e50f5000630032002e009000e50f50000a
:102bf000590039002e009000e60f5000710032009d
:102c00002e009000e70f500083003200be00370016
:102c1000c19120009140780050cab30080cf50008d
:102c2000c8003a000000eb00c0488800d04880008f
:102c30000000e800d0488800d6c2bf000080fb003a
:102c40000000d100614060000004a200614060000b
:102c50006140600000414000612d200091407800fb
:102c6000d0cfb30000c0600002407000d6e2b700d1
:102c7000b4003700c191200091407800a0c5b30096
:102c800080cf500004003a00d04880000000e800e7
:102c9000d0488800ab0037000000eb00d048880027
:102ca000a80037001cc9bf008080fb00c04880001e
:102cb00000804000c04888001cc9bf000080fb00a5
:102cc000b0488800d04880000000e800d048880064
:102cd0009c00370014c9bf008080fb00b048800012
:102ce000808f5000180031001cc9bf008080fb009d
:102cf000c048800000804000c048880014c9bf0060
:102d00000081fb001cc9bf0080407800c09e2000ed
:102d1000000041000148780014c9bf000040e800ed
:102d200014e9b70014c9bf008080fb00b0488000e0
:102d3000808f500083003a00d04880000000e800f7
:102d4000d04888007f003700d04880000000e800ad
:102d5000d04888007b0037001cc9bf000080fb0002
:102d600080488800d04880000000e800d0488800f3
:102d7000740037001cc9bf000080fb009048880029
:102d8000804880000000400000004000000040003b
:102d90000000400000004000000040000000400033
:102da00000004000800078009048800000804000d3
:102db00070488800d04880000000e800d0488800b3
:102dc00060003700c191200091407800c0ccb30072
:102dd00080cf500007003a00d04880000000e80093
:102de000d048880014c9bf000040e90014e9b700ca
:102df000540037000000eb00d04888000000eb00d2
:102e0000c04888000000eb00b04888000040eb009c
:102e100014e9b7004b003700c191200091407800c1
:102e200030c3b30080cf500028003a0071488000c2
:102e3000c0488000808f500015003a00cac2bf0011
:102e40000080fb004400de00614060000004a2003e
:102e50006140600061406000004040000040400070
:102e60000040400000414000a12c2000914078002b
:102e7000f0ceb30000c0600002407000cae2b700ac
:102e800010c0b300ebe9b700b04880000ceab7000f
:102e90000000eb00d04888000000eb00b04888003c
:102ea0000040eb0014e9b7000000eb00c0488800c8
:102eb0000000eb00804888000000eb00904888008c
:102ec0000000eb00704888001e0037000000eb0097
:102ed000d04888000000eb00b04888000040eb00bc
:102ee00014e9b7000000eb00c04888000000eb00c8
:102ef000804888000000eb00904888000000eb004c
:102f0000704888000f003700d6c2bf000080fb0069
:102f10004200de00614060000004a20061406000e9
:102f2000614060000040400000414000612d2000f1
:102f300091407800b0cfb30000c060000240700044
:102f4000d6e2b7000080fa00000006002400fa0074
:102f5000000f980021579800ea004700a0652a005a
:102f6000904878000100e8008040eb0001487800bc
:102f70000000e8008040eb00014878000000e80015
:102f80008040eb00014878000000e8008040eb0042
:102f9000014878000e089000104078000000fb0007
:102fa00010179800600420009e109000808f500041
:102fb000d8003200400520009e109000808f500005
:102fc00005003200300420009e109000808f5000d9
:102fd000620232007d0237000e0890000000e80017
:102fe000104078000000fb0000179800000520004a
:102ff0008e109000808f50004800320000052000a5
:103000008e109000808f500016003c00500420006d
:103010008e109000808f500023003200500420005a
:103020008e109000808f500005003c00300420007e
:103030008e109000808f50005600320063023700df
:10304000600420008e109000808f500073003200ca
:10305000d00420008e109000808f50008700320036
:103060005a023700200520008e109000808f5000fb
:1030700034003200200520008e109000808f500018
:103080003a003500a00520008e109000808f50007f
:103090004a003200600620008e109000808f5000a1
:1030a0008e003200490237000e0890000080e800d0
:1030b000104078006fe9b7000e0890000080e8002b
:1030c000104078000000fb00cf80de005bf50700b9
:1030d00002002500337c240036f60700f22621008a
:1030e00033a82300d6f507001007980021079800a1
:1030f00002682900838124001e009000ae00900029
:103100009af5070078f50700b00e8800ae509000e1
:103110000e089000c40407002c0237000e0890002f
:103120000080e800104078006be9b700ae509000d6
:103130000e089000bc04070010c0b30028eab700d6
:10314000220237000e0890000080e800104078004e
:103150006ce9b700ae5090000e089000b204070072
:1031600010c0b30028eab700180237000e0890001c
:103170000080e800104078006de9b700ae50900084
:103180000e089000a804070010c0b30028eab7009a
:103190000e0237000e0890000080e8001040780012
:1031a0006ee9b700ae5090000e0890009e04070034
:1031b00010c0b30028eab700040237000e089000e0
:1031c0000080e800104078000deab7000e0890007b
:1031d000630040001040780010eab7000e0890002d
:1031e000640040001040780013eab7000e08900019
:1031f000650040001040780019eab7000e08900002
:10320000660040001040780016eab700ae5090000b
:103210000e08900084040700ec0137000e089000af
:103220000080e800104078000eeab7000e08900019
:10323000630040001040780011eab7000e089000cb
:10324000640040001040780014eab7000e089000b7
:1032500065004000104078001aeab7000e089000a0
:10326000660040001040780017eab700ae509000aa
:103270000e0890006c040700d40137000e0890007f
:103280000080e800104078000feab7000e089000b8
:10329000630040001040780012eab7000e0890006a
:1032a000640040001040780015eab7000e08900056
:1032b00065004000104078001beab7000e0890003f
:1032c000660040001040780018eab700ae50900049
:1032d0000e08900054040700bc0137000e0890004f
:1032e0000080e800104078000004e0000300320095
:1032f00010c0b3001eeab700020037000040eb0028
:103300001eeab700ae5090000e0890004604070079
:10331000ae0137000e0890000000e8001040780071
:103320000000fb00700f980080042000fe08900051
:10333000808f50007700320080042000fe0890004b
:10334000808f500016003c0040042000fe089000d2
:10335000808f50004601320040042000fe0890009b
:10336000808f500005003c0030042000fe089000d3
:10337000808f50002000320094013700500420005c
:10338000fe089000808f50005c0032007004200026
:10339000fe089000808f50008f0032008b013700b4
:1033a000d0042000fe089000808f500005013200fc
:1033b000d0042000fe089000808f500005003c00e3
:1033c00090042000fe089000808f50003f013200e2
:1033d0007e01370000052000fe089000808f50001d
:1033e000f300320020052000fe089000808f50007e
:1033f000eb00320075013700ae5090000e089000cf
:10340000090407000e0890000080e80010407800d2
:103410000000fb00000040000000400000004000f1
:10342000000040000000400000004000000040009c
:1034300000004000800078000e089000630040000b
:10344000104078000000fb00008040000051880020
:103450000e08900064004000104078000000fb005f
:10346000000040000000400000004000000040005c
:10347000000040000000400000004000000040004c
:10348000800078000e089000650040001040780031
:103490000000fb0000804000105188000e089000e2
:1034a00066004000104078000000fb000000400073
:1034b000000040000000400000004000000040000c
:1034c0000000400000004000000040008000780044
:1034d0000e08900067004000104078000000fb00dc
:1034e00000804000205188000e08900068004000d5
:1034f000104078006047980034013700ae509000cb
:103500000e089000c803070010c0b3001deab70002
:103510002e0137000e0890000080e800104078006f
:103520000000fb00600f9800d0042000ee0890001f
:10353000808f50001100320000052000ee0890003e
:10354000808f50000500320030042000ee0890000b
:10355000808f5000050032001c013700ae509000f3
:103560000e089000b003070018013700ae5090001d
:103570000e089000ac030700140137000e089000fd
:1035800063004000104078000000fb000000400095
:10359000000040000000400000004000000040002b
:1035a0000000400000004000000040008000780063
:1035b0000e08900064004000104078000000fb00fe
:1035c0000080400050518800ae5090000e089000de
:1035d00095030700fd0037000e0890000080e8000a
:1035e000104078000000fb00f04888000e089000b2
:1035f000630040001040780020e9b7000e089000fa
:1036000064004000104078000000fb000000400013
:1036100000004000000040000000400000004000aa
:1036200000004000000040000000400080007800e2
:103630000e08900065004000104078000000fb007c
:1036400000804000104988000e089000660040008d
:103650001040780028e9b7000e089000670040008d
:10366000104078000000fb00504988000e089000d0
:1036700068004000104078002ce9b7000e08900068
:1036800069004000104078000000fb00000040008e
:10369000000040000000400000004000000040002a
:1036a0000000400000004000000040008000780062
:1036b0000e0890006a004000104078000000fb00f7
:1036c00000804000704988000e0890006b004000a8
:1036d0001040780034e9b7000e0890006c004000fc
:1036e0001040780036e9b7000e0890006c004000ea
:1036f000104078000000fb00500f9800800420006c
:10370000de089000808f5000050032003005200058
:10371000de089000808f500018003200ab003700a8
:103720000e0890006d004000104078000000fb0083
:103730000000400000004000000040000000400089
:103740000000400000004000000040000000400079
:10375000800078000e0890006e0040001040780055
:103760000000fb0000804000c0498800ae5090007f
:103770000e0890002c030700940037000e089000fc
:103780006d004000104078000000fb00c049880038
:10379000ae5090000e089000230307008b00370006
:1037a000ae5090000e0890001f03070087003700fe
:1037b0000e0890000000e80010407800f3000700b9
:1037c000820037000e0890000080e800104078006a
:1037d0000000fb00400f980000052000ce0890007c
:1037e000808f50001a00320000052000ce089000a3
:1037f000808f500005003c0060042000ce0890003f
:10380000808f50000a003200700037002005200031
:10381000ce089000808f5000090032003005200053
:10382000ce089000808f50000d00320067003700f6
:10383000ae5090000e089000fb02070063003700b6
:10384000ae5090000e089000f70207005f003700ae
:10385000ae5090000e089000f30207005b003700a6
:10386000ae5090000e089000ef020700570037009e
:103870000e0890000080e800104078000000fb0077
:103880000000400000004000000040000000400038
:103890000000400000004000000040000000400028
:1038a000800078000e08900063004000104078000f
:1038b0000000fb0000804000e04b8800ae5090000c
:1038c0000e089000d8020700400037000e08900054
:1038d0000080e800104078000000fb00300f9800e6
:1038e000c0042000be089000808f500016003200f7
:1038f000c0042000be089000808f500009003c00ea
:1039000020042000be089000808f50000e0032007e
:1039100080042000be089000808f50000a00320012
:103920002a00370020052000be089000808f50003c
:1039300005003200a0052000be089000808f5000d6
:1039400001003200210037000e0890000080e800de
:10395000104078008d0007001c0037000e08900012
:103960000000e800104078000000fb00200f9800e5
:1039700080042000ae089000808f500005003200c7
:1039800040052000ae089000808f50000a003200f1
:103990000e003700910020003098200067fc0700df
:1039a00010c0b3001ceab7000000eb00000888005c
:1039b00005e1a800050037000040eb001ceab70055
:1039c0000000eb000008880005e1a9000080fa0073
:1039d000000006002800fa00201798006167980090
:1039e000e3004700a0652a00904878000100e80045
:1039f000f20120008000eb0044f207000040eb00e1
:103a0000204798000000eb00000f7800e30047001b
:103a100050cab30080487800e3004700a0c5b30057
:103a2000904098006e60900000c0e80080407800f0
:103a30006300470021409800e300470040c5b30001
:103a4000b0409800e3004700d0cdb300c0409800dc
:103a500050c0b300204798000e0037002e40900061
:103a60000081fb002e4090000080fb008000780069
:103a70002e109000008040006500500090407800bb
:103a800063004700017178002e4090000040e8007c
:103a9000204798002e4090008080fb006e609000d0
:103aa0000080fb0064004000808f5000ebff34007a
:103ab00020c0b30020479800090037002e40900036
:103ac0008080fb0063004700614078000080fb00bd
:103ad0001e0f40002e4090000040e8002047980054
:103ae0002e4090008080fb006e6090000080fb0004
:103af00064004000808f5000f0ff34006e60900042
:103b00000080fb006501400000f02f001e006000f7
:103b10004800de00804078006300470001717800b3
:103b20006e6090000080fb00660140001e0078007f
:103b30008040780063004700017178006e6090005b
:103b40000080fb0067014000e3004700c0ccb300e9
:103b500000f178006e6090000080fb00680140007a
:103b6000e300470030c3b30000f178006e609000be
:103b70000080fb006900400080007800630047007f
:103b8000eefb07000080fa00000006002800fa00a3
:103b900040679800e3004700a0652a00904878003d
:103ba0000100e800f20120008000eb00d7f10700df
:103bb0000040eb00204798000000eb00000f780069
:103bc000e300470050cab30080487800e300470094
:103bd000a0c5b30090409800e300470040c7b30081
:103be000b040980063004700ce60900041409800cc
:103bf0004e6090000080fb0030179800c004200049
:103c0000be109000808f50001a003200c0042000c7
:103c1000be109000808f500009003c00200420005e
:103c2000be109000808f5000f3003200800420000e
:103c3000be109000808f500062003200f801370003
:103c400020052000be109000808f5000c40132007b
:103c5000a0052000be109000808f5000960032001a
:103c600000052000be109000808f5000320132000d
:103c7000eb013700e3004700c0c0b300a04098004c
:103c8000604a8000804078006300470051409800ff
:103c90004ec9bf0080407800630047006140980033
:103ca000814a800000f02f00008060004800de00a4
:103cb000804078006300470071409800804a80008f
:103cc00080407800630047000148980056c9bf0053
:103cd000804078006300470011489800c04a800087
:103ce0008040780063004700214898005ac9bf000f
:103cf000804078006300470031489800e14a800026
:103d000000f02f00008060004800de008040780056
:103d10006300470041489800e04a800080407800f6
:103d2000630047005148980062c9bf008040780096
:103d3000630047006148980020c0b3002047980006
:103d4000090037002e4090008080fb006300470090
:103d5000614078000080fb001e0f40002e40900064
:103d60000040e800204798002e409000ee4f5000a1
:103d7000f4ff360000f02f001e0060004800de0057
:103d80008040780063004700714898001e0078006a
:103d9000804078006300470001509800e30047002e
:103da000c0ccb30090509800e300470030c3b3008c
:103db000a050980063004700310120005ffb07001e
:103dc00097013700e300470070c0b300a04098009f
:103dd000d149800000f02f00008060004800de0024
:103de000804078006300470051409800d04980002f
:103df000804078006300470061409800c193200034
:103e000091407800630047007140980001af2000a6
:103e100091407800630047000148980011af2000ee
:103e200091407800630047001148980020c0b3001b
:103e300020479800090037002e4090008080fb004a
:103e400063004700614078000080fb001e0f4000c7
:103e50002e4090000040e800204798002e4090003f
:103e6000e94f5000f4ff360000f02f001e00600004
:103e70004800de0080407800630047002148980039
:103e80001e007800804078006300470031489800a9
:103e9000e3004700c0ccb300c0489800e3004700ef
:103ea00030c3b300d048980063004700e100200011
:103eb00022fb07005a013700e300470080c0b3002f
:103ec000a0409800104a80008000780000f02f0089
:103ed000008060004800de008040780063004700fa
:103ee00051409800104a80008040780000c0eb00ec
:103ef00080c060006300470061409800004a800075
:103f00008000780000f02f00008060004800de0094
:103f1000804078006300470071409800004a8000ac
:103f20008040780000c0eb0080c060006300470064
:103f300001489800204a80008000780000f02f009f
:103f4000008060004800de00804078006300470089
:103f500011489800204a80008040780000c0eb00a3
:103f600080c06000630047002148980020c0b30073
:103f700020479800090037002e4090008080fb0009
:103f800063004700614078000080fb001e0f400086
:103f90002e4090000040e800204798002e409000fe
:103fa000ea4f5000f4ff360000f02f001e006000c2
:103fb0004800de00804078006300470031489800e8
:103fc0001e00780080407800630047004148980058
:103fd000e3004700c0ccb300d0489800e30047009e
:103fe00030c3b300e048980063004700f1002000b0
:103ff000d2fa07000a013700e300470080c0b3008f
:10400000a0409800304a80008000780000f02f0027
:10401000008060004800de008040780063004700b8
:1040200051409800304a80008040780000c0eb008a
:1040300080c060006300470061409800404a8000f3
:104040008000780000f02f00008060004800de0053
:10405000804078006300470071409800404a80002b
:104060008040780000c0eb0080c060006300470023
:1040700001489800504a80008000780000f02f002e
:10408000008060004800de00804078006300470048
:1040900011489800504a80008040780000c0eb0032
:1040a00080c06000630047002148980020c0b30032
:1040b00020479800090037002e4090008080fb00c8
:1040c00063004700614078000080fb001e0f400045
:1040d0002e4090000040e800204798002e409000bd
:1040e000ea4f5000f4ff360000f02f001e00600081
:1040f0004800de00804078006300470031489800a7
:104100001e00780080407800630047004148980016
:10411000e3004700c0ccb300d0489800e30047005c
:1041200030c3b300e048980063004700f10020006e
:1041300082fa0700ba003700e300470050c1b3001d
:10414000a0409800604a80008040780063004700eb
:10415000514098004ec9bf0080407800630047007e
:1041600061409800814a800000f02f0000806000cc
:104170004800de00804078006300470071409800ee
:10418000804a800080407800630047000148980022
:1041900056c9bf008040780063004700114898006e
:1041a000c04a8000804078006300470021489800a2
:1041b0005ac9bf008040780063004700314898002a
:1041c000e14a800000f02f00008060004800de001f
:1041d000804078006300470041489800e04a800032
:1041e00080407800630047005148980062c9bf00d2
:1041f000804078006300470061489800314b8000a0
:1042000000f02f00008060004800de008040780051
:104210006300470071489800304b80008040780070
:104220006300470001509800414b800000f02f00d0
:10423000008060004800de00804078006300470096
:1042400011509800404b8000804078006300470088
:1042500021509800304a80008000780000f02f0044
:10426000008060004800de00804078006300470066
:1042700031509800304a80008040780000c0eb0048
:1042800080c060006300470041509800504a8000a1
:104290008000780000f02f00008060004800de0001
:1042a000804078006300470051509800504a8000d9
:1042b0008040780000c0eb0080c0600063004700d1
:1042c00061509800a196200091407800630047005b
:1042d0007150980020c0b3002047980009003700b3
:1042e0002e4090008080fb00630047006140780012
:1042f0000080fb001e0f40002e4090000040e800b0
:10430000204798002e409000f74f5000f4ff3600f1
:1043100000f02f001e0060004800de0080407800a2
:1043200063004700015898001e0078008040780024
:104330006300470011589800e3004700c0ccb30069
:10434000a0589800e300470030c3b300b05898006d
:1043500063004700c1012000f8f907003000370072
:10436000e300470040c0b300a0409800214b80000c
:1043700000f02f00008060004800de0080407800e0
:104380006300470051409800204b80008040780037
:10439000630047006140980020c0b30020479800a8
:1043a000090037002e4090008080fb00630047002a
:1043b000614078000080fb001e0f40002e409000fe
:1043c0000040e800204798002e409000e64f500043
:1043d000f4ff360000f02f001e0060004800de00f1
:1043e0008040780063004700714098001e0078000c
:1043f000804078006300470001489800e3004700d0
:10440000c0ccb30090489800e300470030c3b3002d
:10441000a048980063004700b1002000c7f90700da
:104420000080fa00000006002800fa00201798001b
:1044300061679800e3004700a0652a009048780073
:104440000100e800f20120008000eb00afef070060
:104450000040eb00204798000000eb00000f7800c0
:10446000e300470050cab30080487800e3004700eb
:10447000a0c5b300904098006e6090000040e80036
:1044800080407800630047002140980063004700a7
:10449000204090000080fb00000f7800e300470000
:1044a00060c0b300b040980040c0b30020479800ff
:1044b000150037002e4090000081fb002e40900038
:1044c0000080fb00800078002e10900000804000eb
:1044d000640050001040780080407800630047007e
:1044e000017178002e4090008080fb00630047003f
:1044f000614078000080fb001e0f40002e409000bd
:104500000040e800204798002e4090008080fb008b
:104510006e6090000000fb0064004000808f50003f
:10452000e4ff35002e4090000081fb0000f02f00da
:104530001e0060004800de008040780063004700f5
:10454000017178002e4090000080fb000001e8001f
:104550001e007800804078006300470001717800f9
:104560002e4090000080fb000081e800e30047003f
:10457000c0ccb30000f178002e4090000080fb001a
:1045800063014000e300470030c3b30000f178004e
:104590006e6090000000fb00680040008000780022
:1045a0006300470065f907000080fa00000006007c
:1045b0000000fa0000032000f0488800e0c1b300ca
:1045c00020e9b7000000eb0010498800e0c4b30008
:1045d00028e9b700b007200050498800e0c1b300c7
:1045e0002ce9b7000000eb007049880070c5b300eb
:1045f00034e9b70000032000604a8800e0c1b3003e
:104600004ee9b7000000eb00804a8800e0c4b30028
:1046100056e9b700b0072000c04a8800e0c1b300e7
:104620005ae9b7000000eb00e04a880070c5b3000b
:1046300062e9b7000000eb00d04988000040eb00c1
:104640003ce9b7000000eb00f04988000000eb00f7
:10465000004a88000000eb00104a88000000eb00d0
:10466000204a880040062000304a88000000eb0005
:10467000404a880040012000504a88000000eb00ba
:10468000304b88000000eb00404b880000c0eb007e
:104690006ae9b70020c3b3006be9b70020c3b300d9
:1046a0006ce9b70020c3b3006de9b70020c3b300c5
:1046b0006ee9b7000040eb006fe9b7000080fa0038
:1046c000000006000600fa00000f780011079800ad
:1046d000220798001e007800004a88001e00900003
:1046e000104a88002e009000204a88000080fa00be
:1046f000000006000400fa00004f780011479800ff
:10470000120798001e00fb00604a88001e409000bf
:104710004ee9b7001e009000804a88000080fa0031
:10472000000006000400fa00004f780011479800ce
:10473000120798001e00fb00c04a88001e4090002f
:104740005ae9b7001e009000e04a88000080fa0095
:10475000000006000600fa00000f7800110798001c
:10476000220798001e007800b04b88001e009000c1
:10477000c04b88002e009000d04b88000080fa00cb
:10478000000006001000fa0040079800510798004a
:104790006207980073079800814a80004e009000dd
:1047a0000080400001002000200798003107980099
:1047b000e14a80005e00900000804000010020007f
:1047c000008fbe002e019000be019000f07022000c
:1047d00001002000800f5100818f59000800340033
:1047e0004ec9bf000040e8004ee9b700ae0090009f
:1047f000008f2d0000804000804a88000f003700a5
:104800002e009000be009000e00f5000e08f580096
:1048100008003d004ec9bf000040e9004ee9b70066
:10482000ae0090000071220000804000804a8800a5
:10483000020037002e009000804a8800f0702200ad
:1048400001002000be0f1000ae8f180008003400d9
:104850005ac9bf000040e8005ae9b7009e0078003e
:10486000008f2d0000804000e04a88000f003700d4
:104870002e009000be009000e00f5000e08f580026
:1048800008003d005ac9bf000040e9005ae9b700de
:104890009e0078000071220000804000e04a8800fd
:1048a000020037001e007800e04a8800304b80008c
:1048b000ee00900001004000304b88000080fa00bc
:1048c000000006000200fa00000f78001e007800c9
:1048d000f04988000080fa00000006000200fa009b
:1048e000004f78001147980020c2a9001e407800b0
:1048f00061406000614060000040400000414000b5
:104900003122200091407800b0cfb30000c0600099
:104910000240700023e2b7002322a90022c2a800af
:104920001e40900061406000614160003122200023
:1049300091407800e0cfb30000c0600002407000fa
:1049400023e2b70022a2a80022e2a900212220002f
:104950009140780030ceb30000c0600022e2b70082
:104960002122200091407800c0cfb30000c0600039
:104970000014a00022e2b7000080fa000000060048
:104980000400fa002047980021e2a8002e40900081
:104990000000fb002011880020118000004f7800eb
:1049a0000080fa00000006000400fa0010079800da
:1049b00021e2a8001e009000201188002011800034
:1049c000000f78000080fa00000006000800fa00de
:1049d00020079800614798000040eb0020479800ae
:1049e0000040eb00204798001500370020c2bf00b0
:1049f000624060000004e000fcff3a002e4090009e
:104a00000000fb00800078002e0090000080400035
:104a100010407800daff07000000eb00000f78007c
:104a2000010037001e0fe800301f20009e0f10000d
:104a3000fcff34002e4090000040e8002047980022
:104a4000ae4090006e40900080cf5000e7ff3500f0
:104a50000080fa00000006001000fa00881f7800ad
:104a600060079800710798000040eb0040479800ed
:104a7000e500470040662a00904878000100e80001
:104a80008040eb00014878000000e8008040eb0027
:104a9000014878000000e8008040eb000148780001
:104aa0000000e8008040eb00014878000000e800ca
:104ab0008040eb00014878000000e8008040eb00f7
:104ac000014878000040eb00104798000040eb00e0
:104ad000004f7800dc42a9000040eb0040479800fe
:104ae0002c00370020c2bf00624060000004e000dc
:104af000fcff3a004e4090000000fb008000780070
:104b00006e00900000804000104078009cff07007d
:104b100020c2bf00614060000004e000fcff3200e2
:104b20004e4090000004e0000b0034002011800093
:104b3000004f78004e4090000000fb00800078009d
:104b40007e009000008040008000e9001e40780058
:104b5000804878000200370020118000104798003c
:104b60000000eb0010079800030037001e009000c3
:104b70000000e800100798009e009000301f200001
:104b8000808f5000f9ff34004e4090000040e80054
:104b9000404798004e4090000004fb006e009000db
:104ba000e3ed0700800f5400ceff3900dc42a8007f
:104bb000100020004f0478000080fa00000006007a
:104bc0000400fa000000eb00100798000000eb0062
:104bd000000f780021e2a90011c0b30010c0b3009b
:104be0003eff070021e2a8000000eb00000f780064
:104bf000010037001e0fe800703e20009e0f1000dd
:104c0000fcff3400dca2a8001e00900020118800e8
:104c100020c2bf00614060000004e000fcff3200e1
:104c20002011800010079800dca2a9000000eb0012
:104c3000000f7800010037001e0fe800703e2000d2
:104c40009e0f1000fcff340021e2a9008040eb0021
:104c50000040eb0021ff070021e2a8001e009000a9
:084c60000080fa0000000600cc
:020000040000fa
:100008003a2800003a2800003a2800003a28000060
:100018003a2800003a2800003a2800003a28000050
:100028003a2800003a2800003a280000660e00002e
:100038003a2800003a280000a40e00003a280000e0
:100048003a2800003a2800003a2800003a28000020
:100058003a2800003a2800003a2800003a28000010
:100068003a2800003a2800003a2800003a28000000
:100078003a2800003a2800003a2800003a280000f0
:100088003c0e00003a2800003a2800003a280000f8
:100098003a2800003a2800003a2800003a280000d0
:1000a8003a2800003a2800003a2800003a280000c0
:1000b8003a2800003a2800003a2800003a280000b0
:1000c8003a2800003a2800003a2800003a280000a0
:1000d8003a2800003a2800003a2800003a28000090
:1000e8003a2800003a2800003a2800003a28000080
:0800f8003a2800003a2800003c
:020000040000fa
:100108003a2800003a2800003a2800003a2800005f
:100118003a2800003a2800003a2800003a2800004f
:100128003a2800003a2800003a280000660e00002d
:100138003a2800003a280000a40e00003a280000df
:100148003a2800003a2800003a2800003a2800001f
:100158003a2800003a2800003a2800003a2800000f
:100168003a2800003a2800003a2800003a280000ff
:100178003a2800003a2800003a2800003a280000ef
:100188003c0e00003a2800003a2800003a280000f7
:100198003a2800003a2800003a2800003a280000cf
:1001a8003a2800003a2800003a2800003a280000bf
:1001b8003a2800003a2800003a2800003a280000af
:1001c8003a2800003a2800003a2800003a2800009f
:1001d8003a2800003a2800003a2800003a2800008f
:1001e8003a2800003a2800003a2800003a2800007f
:0801f8003a2800003a2800003b
:020000040000fa
:104c680030310000323300003435000036370000a0
:104c780038390000000000000000000000000000bb
:104c8800000000000000000000000000000000001c
:104c9800000000000000000000000000000000000c
:104ca80000000000000000000000000000000000fc
:104cb80000000000000000000000000000000000ec
:104cc80000000000000000000000000000000000dc
:020000040000fa
:104cd8007e0900006c000000020000005001010085
:104ce8000101a5005a02430006004500cc334100eb
:104cf800010101000101010000470100010101005b
:104d08000101000043010100004f010001005600ad
:104d180001010100010054000101000052010100dd
:104d28000053010001004d000101010001010100d3
:104d3800004c010001010100010101000101000016
:104d4800440101000101010001010100010101000c
:104d580000550100010101000101010000420100ac
:104d680001000000500a68000a800a004c0a00008e
:104d78004c00000000000000000800000e010000c8
:104d8800020000000000200041008000de43000017
:104d980080eb43000000e20043000000ec43000009
:104da80080f943000080ec0043000000fa43000053
:104db800800344000080fa004300c0000344000060
:104dc800c0084400000004004400800009440000ba
:104dd80080774400000080003f008000e643000028
:104de80000ef43000000e80043000000f04300002b
:104df80080f943000080f10043000000fa430000fe
:104e0800000144000080fa004300800001440000d3
:104e1800c005440000800200440000000744000070
:104e2800c0794400000001000059000000010100a1
:104e380000590000000201000059000000030100b1
:104e480000590100000401000059010000000100a0
:104e58000159000000010100015901000002010090
:104e68000159010000030100015903000004010079
:104e7800015903000000010002590000000101006f
:104e8800025901000002010002590200000301005a
:104e98000259030000040100025904000000010047
:104ea800035901000001010003590100000201003b
:104eb8000359030000030100035903000004010023
:104ec8000359040000000100045903000001010017
:104ed8000459030000020100045904000003010002
:104ee800045904000004010004590400ea09000000
:104ef8006200000002000000000000000000000046
:104f08000000000000000000000000000000000099
:104f18000000000000000000000000000000000089
:104f28000000000000000000000000000000000079
:104f38000000000000000000000000000000000069
:104f48000000000000000000000000000000000059
:104f58000000000000000000000000000000000049
:104f68000000000000000000000000000000000039
:104f78000000000000000000000000000e09000012
:104f88007000000000000000e20a0000420000007b
:104f98000200000000000000000000000000000007
:104fa80000000000000000000000000000000000f9
:104fb80000000000000000000000000000000000e9
:104fc80000000000000000000000000000000000d9
:104fd80000000000000000000000000000000000c9
:104fe800000000000000000000000000240b00008a
:104ff8000200000000000000980a00004a000000bb
:10500800020000000000210015110e000d0c0b001d
:105018000b0a0a000909090009090800080808001c
:105028000808080007070700070707000707070021
:1050380007070700073031003233340035363700b0
:1050480038396100626364006566670068696a00f0
:105058006b6c6d006e6f7000717273007475760002
:0c506800777879007a000000000000005a
:020000040000fa
:045074000000fe003a
:00000001FF
