:020000040000fa
:080000000001040000000000f3
:020000040000fa
:100200000f99200080bf200000018800000000003e
:10021000050007000c0007001e0602000000000099
:100220000040da000000fe004440a9000004200065
:100230000000e0000300320000002000a001880060
:100240004440a80000000600e094210001002000c6
:100250001600370062004000e080480091018800ed
:100260009001ba0062004000e080480091018800df
:100270009002ba0062004000e08048000002eb00fb
:100280006028e10005003a008301e900070033001f
:10029000038009000059eb00040037006128e100e9
:1002a000010032000082eb00050007009101880088
:1002b0001001ba000200e000e6ff3a00000005006d
:1002c000910188008002780062004000e0804800d0
:1002d0003559ba008301e900080032002559ba00f7
:1002e0008301e900050032000400e000f4ff320061
:1002f00015d9ba008301e900f1ff3a0000000600b9
:10030000a20020008000eb00100037008000780081
:10031000010037000000e8001004e000fdff3a0093
:100320000100500000000600000278008001780003
:10033000010037008159780002004200808f51008f
:10034000fcff3a000400780000000600ec8747003c
:10035000889fbe008a9fbe008c9fbe008e1f7800c3
:10036000f0b79f0081bf9f008204780000047800ee
:10037000010037000804e800184778000e00fb0071
:10038000860007000000e000faff3a00d0c2b30088
:10039000804f57000500320000c0e900804f570031
:1003a0000200320000477800010037000804e8002e
:1003b0000900e00045003500e18f540043003200a1
:1003c00040022000808f540040003c000900e00003
:1003d0000e003400f08f54001a003a0000c3b3003e
:1003e000984f100016003a009840900080c7b30064
:1003f00080cf50000300320080c5b30080cf500092
:100400000f003a000884e8000e003700a900200021
:1004100000c3b300984f10000a003a0098409000c3
:1004200080c7b30080cf5000040032008900200054
:1004300080c5b30080cf500002003a000884e80075
:100440000901200008057800010037000a05e800ce
:1004500000c3b3009a4f1000fcff32008a057800f9
:100460006066b8000e003700709220000042520013
:10047000c4ef9f006149b9000c00be00d90107001c
:100480004fea97000401fb00cf91de008b05e800e6
:10049000ccb79f00ddb79f00000641008186490070
:1004a0001b00fb0045000700800078000901780070
:1004b0007092200048000700000278000000e00071
:1004c000e9ff3a008b0f540006003a000fb897007e
:1004d0000000e00029003200ffb09700010878001a
:1004e000260037008a80550020902000694078005f
:1004f0000000fb0000805000160033004240a900bd
:100500000f003c004fe997000200fb00cf80de00a7
:100510000000560081805e00800f5600818f5e00d3
:10052000070039006149b900b40107004fb19700d5
:10053000dfb19700820f5000838f58000500320012
:1005400020022000704c88000086eb008086eb00c3
:1005500005003700d0c2b300804f570002003a00b8
:1005600060061600e0861e008fb997000300e000c9
:10057000030032008b097800010037006066b80084
:100580000c00be004f0778004f06be004f05be00ae
:100590004f04be00cf00b100000006006900e1007a
:1005a000040035006d00e100030034000002b100da
:1005b00001003200000005001000050080007800f6
:1005c0001104b100030035009101b10001003c00ad
:1005d0000050a000000006008201780004003700ef
:1005e00090cf1000050032000000e8008301e90010
:1005f0000300e000faff3a000000eb0000000600f4
:10060000604c80000000e0000100320000000100aa
:10061000e098200000000600889fbe008a9fbe0070
:10062000010578000100e0000400350008003c00ee
:100630000000e000200032000500370060001000dc
:10064000e080180002003b0001f02c001a00370087
:100650000004be006011b8006b0920000982cf00c1
:10066000020039000882cf000441b0006942520004
:100670000e00320008003b008281710061016400bd
:100680008904d1000884d3008b05e8000442e80007
:10069000f9ff3a00050037000804440089844c0043
:1006a0008b05e9000442e900fbff3a00fa0007006d
:1006b0000af0a70001f0a0004f05be004f04be00e5
:1006c0000000060003f0a200889fbe008a9fbe00c3
:1006d0008c1f7800160107001d0133006450e100f3
:1006e0004f0032006420e1005200320003826c00af
:1006f00007003b000905d0000306d000820f54001c
:100700000c065d0002003900020032008901780009
:10071000030678008582550004003d000003fd00bb
:100720008103fd008502ea008b854200840f720080
:1007300002003b0060001000e08018006011b8006b
:100740000005eb007a28e1000a0039000600780075
:10075000c75ddd00f707b200878075002d00370008
:10076000828171000a017800610560008180d100fa
:100770000080d3008502e900f9ff3b000604400039
:100780008784480002003b0060041400e0841c00e1
:100790000988a300070032008a81710082817100fc
:1007a000610164008904d1000884d3008b05e8004e
:1007b000170037000978a30013003a000b00e0008f
:1007c000130034008b05e9000804440089844c00c0
:1007d0000a4474000978a3000d003a000b00e00001
:1007e000070034008b05e9000804440089844c00ac
:1007f00001003a000b0020000978a300f7ff320047
:100800000001eb0002003700828171000a017800cc
:10081000a10007000cf0a70001f0a000d5003700f0
:100820006420e10002003a00838f6c00d5003300a1
:100830000801be000200be00ce0037000001be006d
:10084000d30007000470a70003f0a1006509b10000
:10085000160032000d0035006828e1000600350062
:10086000f0ff2f00f1ff27000300e00013003b0022
:1008700001002800000005000000400081804800c1
:100880008502e900fcff3a0008003700f88f4200bb
:1008900002003c008000eb00000005008100d10058
:1008a0000080d3008502e800fcff3a000300e0006e
:1008b00002003b0060001000e0801800000006000d
:1008c000889fbe008a9fbe008c1f7800980007009a
:1008d0009f00330003866c006450e1002e0032005c
:1008e0006420e100330032006150e1002f0032004b
:1008f0006120e1003100320085855500eb07b00032
:100900000900200008042000050037000804440006
:1009100089844c000a0031000603430087834b00a2
:100920000001530081815b00f8ff33000203be0029
:100930000800a0000804440089844c00f6ff390038
:10094000c639dd008301730001003200130020006e
:100950008904d1000884d3000998a300050032005f
:100960000800a7000300a0008904d1000884d30078
:100970008b05e8008904d1000884d3000001eb0056
:100980000281d2004400070001f0a1000cf0a70092
:1009900001f0a000770037006420e1007900320008
:1009a0000801be000200be00f7ff37006120e10031
:1009b000740032006000b800f3ff37000000200030
:1009c00001f82700f0ff3700889fbe008a9fbe0015
:1009d0008c1f7800560007005d00330003866c0012
:1009e0006450e100240032006420e100270032005e
:1009f0006150e100220032006120e100210032005c
:100a00008b854200eb07b1000134b800003ab80012
:100a10000804420089844a00013ab8000030b80056
:100a20008880400009014a000400330000004000b3
:100a300081804800020149008b05e900c909dd00f9
:100a4000830170000100320013002000c814de0092
:100a50004814dd004709de001200b200c808de00bd
:100a6000088470000c00070001f0a1000cf0a70042
:100a700001f0a0003f0037006120e100410032009a
:100a80000801be000200be00f7ff37006150e10020
:100a9000fcff3a003b0037008100200061805500d8
:100aa0000b003d000b00200061fe2f000100e10063
:100ab0001d00340082817100610164008904d1004d
:100ac0000884d3000000e800faff3a00710020001b
:100ad0006100640003007000020060000900320041
:100ae00061044400e0844c000988a5000500320040
:100af0008b05e8006808e10002003a008904d10093
:100b00000884d300f20f20000258e10005003d00e8
:100b1000c75ddd00f907b200898075000800780024
:100b2000000006000bf827008b007800000005008d
:100b30000004be00160007000003be000405be004e
:100b40000200be0012000700844f7500000006007e
:100b50000200be006450e100050036006420e100a0
:100b6000020036000968a30001003a000800be0038
:100b70000160a0004f0678004f05be004f04be0084
:100b800000000600f0ff2f00f1ff2700f9ff3700fb
:100b9000c70ade00f107b200f50fb200080032000c
:100ba000e1cf4200020032000170a00024000500e5
:100bb000810f7000010032000408050044000500a8
:100bc000810f700002003a00140005008502e90060
:100bd0000000400081c04800fcff3b000170a00005
:100be00024000500020ab900001bb9000200b80089
:100bf0008100420081004300000006006022b8002e
:100c0000060220000000d0008180d2000482d200c1
:100c10008582d2000000a0000202520083825a00a6
:100c200003003b000202420083824a000000a10050
:100c30000603e900f3ff3a00000006002c00fa006a
:100c4000889fbe006000b8003007980041079800f8
:100c50006000b80010079800210798000040eb00e2
:100c6000004f7800eb004700e092290009000900de
:100c7000b0587800a100b100a000b100f500470015
:100c800090932900904878008100e8000040eb0034
:100c9000804878000040eb0090409800f800470042
:100ca00090932900904878008100e8000040eb0014
:100cb000804878000040eb0090409800fb0047001f
:100cc00090932900904878000100e8008040eb00f4
:100cd000014878000000e8008040eb0001487800ff
:100ce0000000e8008040eb00014878000000e800c8
:100cf0008040eb0001487800010220008e80400017
:100d000090932900904878000100e8008040eb00b3
:100d1000014878000000e8008040eb0001487800be
:100d20000000e8008040eb0001487800410220000c
:100d30008e80400090932900904878008100e80060
:100d40000040eb00804878000040eb0090409800a5
:100d5000710220008e804000909329009048780016
:100d60000100e8008040eb00014878000000e80046
:100d70008040eb00014878000000e8008040eb0074
:100d8000014878000000e8008040eb00014878004e
:100d90004701070000b02400e701070062010700d7
:100da00070010700c1010700fa010700c20807002f
:100db0000040eb0088e9b7000000370063c8bf00bf
:100dc0000004e000060032000040eb0063e8b700da
:100dd000418820009140780040862000fe030700f3
:100de00096c8bf000004e000030032000040eb00a2
:100df00096e8b700230107003e009000ce00900067
:100e000061004000e08048003007980041079800ea
:100e10003e019000ce0190000071220001002000f0
:100e2000800f5100818f5900e4ff34006000b8004a
:100e30003007980041079800c1942000e08020000e
:100e4000130207004cc9bf000080fb0000004000f7
:100e50000000400000004000000040000000400092
:100e600000004000000040000000400080007800ca
:100e70004dc9bf000080fb0000804000f0468800a4
:100e80004ec9bf000080fb00000040000000400091
:100e90000000400000004000000040000000400052
:100ea0000000400000004000800078004fc9bf00f3
:100eb0000080fb00008040000047880081952000f2
:100ec000c0812000f201070058c9bf000080fb006c
:100ed0000000400000004000000040000000400012
:100ee0000000400000004000000040000000400002
:100ef0008000780059c9bf000080fb0000804000de
:100f0000c046880058c9bf000080fb0000004000b8
:100f100000004000000040000000400000004000d1
:100f20000000400000004000000040008000780009
:100f300059c9bf000080fb00008140004ec9bf00be
:100f40000080fb0000004000000040000000400066
:100f50000000400000004000000040000000400091
:100f600000004000800078004fc9bf000080fb00f7
:100f7000808140004cc9bf000080fb0000004000a1
:100f80000000400000004000000040000000400061
:100f90000000400000004000000040008000780099
:100fa0004dc9bf000080fb00008040008300780036
:100fb00086080700c1962000e0832000b4010700e6
:100fc000c1962000914078007500470001487800e4
:100fd000d19620009140780075004700114098009c
:100fe000e1962000914078007800470001487800a1
:100ff000f196200091407800780047001140980059
:1010000011972000914078007b004700014878004c
:1010100021972000914078007b0047001140980004
:1010200031972000914078007b00470021409800d4
:1010300041972000914078007b00470031409800a4
:101040007b004700aefc0700823e20001100090033
:101050000200d8006600b900000040000000400017
:101060000000400000004000000040000000400080
:101070000000400000004000000040000000400070
:10108000cf80de0064fd070010079800210798005c
:101090007b0047009afc0700823e200011000900f7
:1010a0000200d8008000fd006600b900cf80de009d
:1010b00059fd07000001be001e009000ae00900028
:1010c00081fd070010079800210798001e0090007e
:1010d000ae009000d9fd070080047800780047003a
:1010e00087fc0700004478007500470084fc070077
:1010f00009017800884078004008070051972000d7
:1011000090842000620107005197200091407800f0
:10111000000220000e004000014878006197200086
:1011200091407800000220000e004000114098001d
:101130007197200091407800000220000e004000ce
:1011400021409800819720009140780040022000c3
:101150000e004000014878009197200091407800ef
:10116000400220000e00400011409800b19720007e
:1011700091407800700220000e0040000148780085
:10118000c197200091407800700220000e004000be
:1011900011409800d1972000914078007002200003
:1011a0000e00400021409800e19720009140780017
:1011b000700220000e004000314098007b00470084
:1011c0004ffc0700823e2000110009000200d800f9
:1011d0006600b90000004000000040000000400030
:1011e00000004000000040000000400000004000ff
:1011f000000040000000400000004000cf80de0002
:1012000005fd070010079800210798007b004700a4
:101210003bfc0700823e2000110009000200d800bc
:101220008000fd006600b900cf80de00fafc0700f8
:101230000001be001e009000ae00900022fd0700dd
:1012400010079800210798001e009000ae00900043
:101250007afd070080047800400220000e00400064
:1012600027fc070000447800000220000e00400028
:1012700023fc07000901780088407800eb0707008d
:10128000cefe37000000fa00fdc8bf0001e8b7003d
:10129000fec8bf0002e8b700ffc8bf0003e8b70000
:1012a00000c9bf0004e8b7000080fa000000060093
:1012b0000000fa00de62a900dec2a900de42a8003a
:1012c000de62a900c602a900c682a900d202a90056
:1012d000dea2a900d842a900d862a900d882a9003c
:1012e000d8a2a9000080fa00000006000000fa0061
:1012f0000040eb00fde8b7000040eb00fee8b7005f
:101300000040eb00ffe8b7000040eb0000e9b70049
:101310000040eb0001e9b7000040eb0094e8b700a3
:101320000080fa00000006000000fa000000210022
:10133000100888008c60a8000421a900411020003a
:101340009140780000c3b30000c0700004e1b70012
:101350000000eb000008880005e1a9000080fa0009
:10136000000006000000fa00c007200060088800a6
:101370008cc0a8001021a900011120009140780024
:10138000f0ccb30000c0600010e1b7000000eb003b
:10139000300888000040eb0089e9b70011e1a8009f
:1013a0000080fa00000006000000fa000080fa0049
:1013b000000006003600f800809fbe00829fbe003d
:1013c000849fbe00869fbe000000fa008f00a90027
:1013d0008700a90010c0b30062e8b700e0108000e9
:1013e000c6e8b7008b0107008f00a8000080fa0054
:1013f0004f03be004f02be004f01be004f00be00b3
:101400003600f900004006003600f800809fbe005c
:10141000829fbe00849fbe00869fbe000000fa002f
:101420008460a900d6c2bf00614060000004a20031
:101430006140600061416000612d200091407800b2
:10144000e0cfb30000c0600002407000d6e2b700f9
:1014500094c8bf000004e0000300320091002000a7
:1014600050802000580107000080fa004f03be00a2
:101470004f02be004f01be004f00be003600f90013
:1014800000400600801f78000000fa0084c0a90018
:1014900010c0b30089e9b7000000eb0030088800f5
:1014a0000080fa004f007800004006000000fa00bb
:1014b000a00e2000b00e8800210e80000000280041
:1014c00000806000e157200001007000200e8800bd
:1014d000c1a1a900c0c1bf006f406000c0e1b7005a
:1014e000c0c1bf00c040b300c0e1b700011c200074
:1014f00091407800c0cfb30000c06000c0e1b700e9
:10150000110e80000000280000806000100e88008e
:10151000c901a800c881a800c8a1a900c8c1a90024
:10152000c801a900c821a900c841a900c1e1a800bb
:101530000080fa00000006000200fa00000f7800a8
:101540001742a90016c2a90061212000914078002d
:1015500090cfb30000c0600016e2b7001602a900e9
:10156000f0002000f010880017e2a8008f00a8000b
:101570000080fa00000006000400fa00000f780066
:101580002147980010c0b30088e9b7000080fa0036
:10159000000006000000fa0020c2a9002342a900b2
:1015a0002322a90022c2a8002302a90022a2a80087
:1015b00022e2a900212220009140780030ceb30021
:1015c00000c0600022e2b700212220009140780094
:1015d000c0cfb30000c0600022e2b7000080fa0074
:1015e000000006000400fa002047980021e2a8004d
:1015f0002e4090000000fb00201188002011800088
:10160000004f78000080fa00000006000400fa0095
:101610001007980021e2a8001e0090002011880009
:1016200020118000004f78000080fa0000000600c2
:101630000600fa0010079800414798000040eb00b0
:10164000004f78000040eb00004f78000b0037009f
:1016500020c2bf00624060000004e000fcff3a00ce
:101660001e00fb00800078001e00900000804000fb
:1016700010407800dbff07001e4fe8004e4090004e
:101680009e4f1000f2ff35000080fa0000000600b7
:101690001000fa00881f7800600798007107980012
:1016a0000040eb0040479800e5004700c093290048
:1016b000904878000100e8008040eb000148780085
:1016c0000000e8008040eb00014878000000e800de
:1016d0008040eb00014878000000e8008040eb000b
:1016e000014878000000e8008040eb0001487800e5
:1016f0000000e8008040eb00014878000040eb006b
:10170000104798000040eb00004f78000040eb00cd
:10171000404798002c00370020c2bf0062406000a4
:101720000004e000fcff3a004e4090000000fb0087
:10173000800078006e00900000804000104078002b
:10174000a8ff070020c2bf00614060000004e00065
:10175000fcff32004e4090000004e0000b0034001b
:1017600020118000004f78004e4090000000fb00e8
:10177000800078007e009000008040008000e9003a
:101780001e40780080487800020037002011800059
:10179000104798000000eb00100798000300370086
:1017a0001e0090000000e800100798009e009000c6
:1017b000301f2000808f5000f9ff34004e40900011
:1017c0000040e800404798004e4090000004fb00b5
:1017d0006e009000cdfa0700800f5400ceff390054
:1017e0004f0478000080fa00000006000200fa00b2
:1017f0002342a800ca02a9000030280083ff070086
:101800000000eb00000f7800010037001e0fe80019
:10181000306a20009e0f1000fcff3400ca02a800ae
:101820000000eb00000f7800010037001e0fe800f9
:10183000703e20009e0f1000fcff3400ca02a90079
:101840001000200071ff07000000eb00000f78007f
:10185000010037001e0fe800306a20009e0f1000c4
:10186000fcff3400ca02a8002342a9000000eb00dc
:10187000000f7800010037001e0fe800f070220012
:101880009e0f1000fcff34000080fa0000000600ec
:101890000200fa00004f780019c2bf0061406000ea
:1018a0000004e000fcff32001942a8001e00fb000b
:1018b000d01088000080fa00000006000c00fa003a
:1018c000204f980040942900104f78000e00e80047
:1018d0008040eb00014878000000e8008040eb0009
:1018e000014878000000e8008040eb0001487800e3
:1018f0000000e8008040eb00014878000000e800ac
:101900008040eb00014878000000e8008040eb00d8
:10191000014878000000e8008040eb0001487800b2
:101920000000e8008040eb00014878000000e8007b
:101930008040eb000148780050cab300004f7800a7
:10194000a0c5b3001047980030c0b30020479800ee
:1019500040c7b3003047980050c4b30040479800d8
:101960002e489000504798002e4890000000fb0041
:10197000c00bb0008000780000f02f0000806000f5
:101980004800de0060479800c1cbb3002e489000ad
:1019900000c040008040780000c0eb0000c0600044
:1019a00070479800c0ccb300004f980030c3b3001c
:1019b000104f9800a10020000e00780002000700e0
:1019c0000080fa00000006000600fa0010079800e8
:1019d000210798008f00a9000000eb00000f78009d
:1019e000060037009e0078001e0090000080400036
:1019f00010407800a6ff07001e0fe8002e009000a0
:101a00009e0f1000f7ff39008f00a8000080fa0039
:101a1000000006000600fa0062c8bf000004e000f3
:101a2000eb0032000040eb0062e8b7002046800087
:101a3000200798002e009000e30f5000480032006d
:101a40002e009000e30f500007003e002e00900093
:101a5000e10f50002a0032002e009000e10f5000ec
:101a600033003e000d0037002e009000e50f5000bf
:101a7000630032002e009000e50f5000590039003d
:101a80002e009000e60f5000710032002e009000f2
:101a9000e70f500083003200be003700618c200049
:101aa0009140780050cab30080cf5000c8003a007f
:101ab0000000eb0010468800204680000000e8008f
:101ac00020468800d6c2bf000080fb000000d10085
:101ad000614060000004a20061406000614060005d
:101ae00000414000612d200091407800d0cfb3002c
:101af00000c0600002407000d6e2b700b4003700ba
:101b0000618c200091407800a0c5b30080cf5000c8
:101b100004003a00204680000000e80020468800cb
:101b2000ab0037000000eb0020468800a80037001b
:101b3000c6c8bf008080fb001046800000804000c7
:101b400010468800c6c8bf000080fb000046880021
:101b5000204680000000e800204688009c003700f6
:101b6000bec8bf008080fb0000468000808f500010
:101b700018003100c6c8bf008080fb0010468000fe
:101b80000080400010468800bec8bf000081fb00f6
:101b9000c6c8bf0080407800408620000000410099
:101ba00001487800bec8bf000040e800bee8b700aa
:101bb000bec8bf008080fb0000468000808f5000c0
:101bc00083003a00204680000000e800204688009c
:101bd0007f003700204680000000e8002046880093
:101be0007b003700c6c8bf000080fb00d0458800de
:101bf000204680000000e80020468800740037007e
:101c0000c6c8bf000080fb00e0458800d0458000ca
:101c100000004000000040000000400000004000c4
:101c200000004000000040000000400000004000b4
:101c300080007800e045800000804000c0458800ba
:101c4000204680000000e800204688006000370041
:101c5000618c200091407800c0ccb30080cf500050
:101c600007003a00204680000000e8002046880077
:101c7000bec8bf000040e900bee8b700540037000e
:101c80000000eb00204688000000eb0010468800b2
:101c90000000eb00004688000040eb00bee8b70003
:101ca0004b003700618c20009140780030c3b300b6
:101cb00080cf500028003a00c145800010468000c7
:101cc000808f500015003a00cac2bf000080fb00a0
:101cd0004400de00614060000004a200614060003a
:101ce0006140600000404000004040000040400073
:101cf00000414000a12c200091407800f0ceb300bc
:101d000000c0600002407000cae2b70010c0b3001b
:101d100063e8b7000046800084e8b7000000eb00ed
:101d2000204688000000eb00004688000040eb00e1
:101d3000bee8b7000000eb00104688000000eb0092
:101d4000d04588000000eb00e04588000000eb0073
:101d5000c04588001e0037000000eb0020468800c8
:101d60000000eb00004688000040eb00bee8b70032
:101d70000000eb00104688000000eb00d045880012
:101d80000000eb00e04588000000eb00c045880043
:101d90000f003700d6c2bf000080fb004200de000b
:101da000614060000004a20061406000614060008a
:101db0000040400000414000612d2000914078002b
:101dc000b0cfb30000c0600002407000d6e2b700a0
:101dd0000080fa00000006002400fa00000f9800be
:101de000215798000000eb0030079800ea004700f8
:101df00040942900904878000100e8008040eb0002
:101e0000014878000000e8008040eb0001487800bd
:101e10000000e8008040eb00014878000000e80086
:101e20008040eb00014878000e08900010407800d8
:101e30000000fb0010179800600420009e10900026
:101e4000808f5000c6003200400520009e10900098
:101e5000808f500005003200300420009e1090005a
:101e6000808f5000e4013200ff0137000e0890001f
:101e70000000e800104078000000fb000017980008
:101e8000d00420008e109000808f50009c00320003
:101e9000d00420008e109000808f50000d003c0078
:101ea000500420008e109000808f50001f003200e0
:101eb000600420008e109000808f50007800320067
:101ec000300420008e109000808f500052003200ad
:101ed000e5013700100520008e109000808f500023
:101ee00043003200100520008e109000808f5000bb
:101ef00005003c00000520008e109000808f5000ef
:101f000027003200d8013700200520008e109000f5
:101f1000808f50002c003200a00520008e10900011
:101f2000808f500046003200cf0137000e0890002d
:101f30000080e8001040780001e9b7000e0890002a
:101f40000080e800104078000000fb00cf80de0039
:101f5000b1f9070002002500337c240058fa07007d
:101f6000f226210033a82300d7f9070010079800b4
:101f70002107980002682900838124001e00900038
:101f8000ae00900090fa07002cfa0700b00e88000f
:101f9000ae5090000e089000e5030700b201370034
:101fa0000e0890000080e80010407800fde8b700bf
:101fb000ae5090000e089000dd03070010c0b30083
:101fc00096e8b700a80137000e0890000080e800ee
:101fd00010407800fee8b700ae5090000e08900068
:101fe000d303070010c0b30096e8b7009e01370086
:101ff0000e0890000080e80010407800ffe8b7006d
:10200000ae5090000e089000c903070010c0b30046
:1020100096e8b700940137000e0890000080e800b1
:102020001040780000e9b700ae5090000e08900014
:10203000bf03070010c0b30096e8b7008a0137005d
:102040000e0890000080e8001040780085e8b70096
:102050000e089000630040001040780088e8b70048
:102060000e08900064004000104078008be8b70034
:102070000e089000650040001040780091e8b7001d
:102080000e08900066004000104078008ee8b7000f
:10209000ae5090000e089000a503070072013700b3
:1020a0000e0890000080e8001040780086e8b70035
:1020b0000e089000630040001040780089e8b700e7
:1020c0000e08900064004000104078008ce8b700d3
:1020d0000e089000650040001040780092e8b700bc
:1020e0000e08900066004000104078008fe8b700ae
:1020f000ae5090000e0890008d0307005a01370083
:102100000e0890000080e8001040780087e8b700d3
:102110000e08900063004000104078008ae8b70085
:102120000e08900064004000104078008de8b70071
:102130000e089000650040001040780093e8b7005a
:102140000e089000660040001040780090e8b7004c
:10215000ae5090000e089000750307004201370052
:102160000e0890000000e800104078000000fb001e
:10217000700f980090042000fe089000808f50009f
:10218000f900320090042000fe089000808f50007b
:102190000d003c0070042000fe089000808f50006d
:1021a0004d00320070042000fe089000808f500027
:1021b00018003c0050042000fe089000808f500062
:1021c0000e0032002801370000052000fe089000b4
:1021d000808f5000b400320020052000fe089000df
:1021e000808f5000ac003200d0042000fe08900028
:1021f000808f5000b10032001b013700ae509000bc
:102200000e0890004a03070010c0b30095e8b7001d
:10221000150137000e0890000080e800104078009b
:102220000000fb00600f9800d0042000ee08900032
:10223000808f50001100320000052000ee08900051
:10224000808f50000500320030042000ee0890001e
:10225000808f50000500320003013700ae5090001f
:102260000e08900032030700ff003700ae509000c8
:102270000e0890002e030700fb0037000e089000a8
:1022800063004000104078000000fb0000004000a8
:10229000000040000000400000004000000040003e
:1022a0000000400000004000000040008000780076
:1022b0000e08900064004000104078000000fb0011
:1022c0000080400030079800ae5090000e0890004b
:1022d00017030700e40037000e0890000080e800b4
:1022e00010407800c8e8b7000e0890006300400076
:1022f00010407800c9e8b7000e0890006400400064
:10230000104078000000fb0000004000000040008a
:1023100000004000000040000000400000004000bd
:102320000000400000004000800078000e0890008f
:1023300065004000104078000000fb000080400075
:10234000504688000e08900066004000104078005b
:10235000cce8b7000e0890006700400010407800fd
:10236000cee8b7000e0890006800400010407800ea
:10237000cfe8b7000e0890006900400010407800d8
:102380000000fb0000004000000040000000400092
:10239000000040000000400000004000000040003d
:1023a00000004000800078000e0890006a004000a5
:1023b000104078000000fb0000804000804688004c
:1023c0000e0890006b00400010407800d2e8b70083
:1023d0000e0890006c00400010407800d4e8b70070
:1023e0000e0890006c004000104078000000fb00d8
:1023f000500f980080042000de089000808f50006d
:102400000500320030052000de089000808f50006b
:1024100018003200940037000e0890006d00400054
:10242000104078000000fb00000040000000400069
:10243000000040000000400000004000000040009c
:102440000000400000004000800078000e0890006e
:102450006e004000104078000000fb00008040004b
:10246000b0468800ae5090000e089000b002070001
:102470007d0037000e0890006d004000104078008d
:102480000000fb00b0468800ae5090000e0890009f
:10249000a702070074003700ae5090000e089000ad
:1024a000a3020700700037000e0890000000e8004b
:1024b000104078006e0007006b0037000e08900097
:1024c0000080e800104078000000fb00400f9800fa
:1024d00000052000ce089000808f50001a003200c6
:1024e00000052000ce089000808f500005003c00c1
:1024f00060042000ce089000808f50000a00320057
:102500005900370020052000ce089000808f500031
:102510000900320030052000ce089000808f500066
:102520000d00320050003700ae5090000e089000b1
:102530007f0207004c003700ae5090000e0890005c
:102540007b02070048003700ae5090000e08900054
:102550007702070044003700ae5090000e0890004c
:1025600073020700400037000e0890000080e8006a
:10257000104078000000fb00300f9800c0042000dd
:10258000be089000808f500016003200c00420006a
:10259000be089000808f500009003c0020042000fd
:1025a000be089000808f50000e0032008004200092
:1025b000be089000808f50000a0032002a003700c9
:1025c00020052000be089000808f500005003200da
:1025d000a0052000be089000808f5000010032004e
:1025e000210037000e0890000080e80010407800bd
:1025f0001f0007001c0037000e0890000000e800d4
:10260000104078000000fb00200f9800800420009c
:10261000ae089000808f5000050032004005200079
:10262000ae089000808f50000a0032000e00370084
:102630009100200050802000e3fc070010c0b30090
:1026400094e8b7000000eb000008880005e1a8004e
:10265000050037000040eb0094e8b7000000eb00f5
:102660000008880005e1a9000080fa0000000600cb
:102670002800fa0040679800e300470040942900d2
:10268000904878000100e800f20120008000eb0093
:1026900025f707000040eb00204798000000eb0002
:1026a000000f7800e300470050cab300804878006c
:1026b000e3004700a0c5b30090409800e300470046
:1026c00040c7b300b040980063004700ce60900060
:1026d000414098004e6090000080fb003017980049
:1026e000c0042000be109000808f50001a003200fd
:1026f000c0042000be109000808f500009003c00f4
:1027000020042000be109000808f5000f6003200a0
:1027100080042000be109000808f500068003200be
:102720000102370020052000be109000808f50006d
:10273000cd013200a0052000be109000808f500017
:102740009f00320000052000be109000808f5000d6
:1027500035013200f4013700e3004700c0c0b30088
:10276000a0409800eac8bf0080407800630047009e
:1027700051409800ebc8bf008040780063004700dc
:1027800061409800604780008000780000f02f00d2
:10279000008060004800de00804078006300470051
:1027a00071409800604780008040780000c0eb00d6
:1027b00080c060006300470001489800eec8bf0079
:1027c000804078006300470011489800f0c8bf00bf
:1027d000804078006300470021489800f1c8bf009e
:1027e000804078006300470031489800904780009f
:1027f0008000780000f02f00008060004800de00bc
:10280000804078006300470041489800904780006e
:102810008040780000c0eb0080c06000630047008b
:1028200051489800f4c8bf0080407800630047001a
:102830006148980020c0b300204798000900370085
:102840002e4090008080fb006300470061407800cc
:102850000080fb001e0f40002e4090000040e8006a
:10286000204798002e409000ee4f5000f4ff3600b5
:1028700000f02f001e0060004800de00804078005d
:1028800063004700714898001e007800804078007f
:102890006300470001509800e3004700c0ccb3003c
:1028a00090509800e300470030c3b300a050980058
:1028b000630047003101200043fc07009a01370004
:1028c000e300470070c0b300a0409800c1468000fc
:1028d00000f02f00008060004800de00804078009b
:1028e0006300470051409800c04680008040780057
:1028f0006300470061409800a18d2000914078005e
:102900006300470071409800e146800000f02f000e
:10291000008060004800de008040780063004700cf
:1029200001489800e046800080407800630047003e
:102930001148980020c0b3002047980009003700d4
:102940002e4090008080fb006300470061407800cb
:102950000080fb001e0f40002e4090000040e80069
:10296000204798002e409000e94f5000f4ff3600b9
:1029700000f02f001e0060004800de00804078005c
:1029800063004700214898001e00780080407800ce
:102990006300470031489800e3004700c0ccb30013
:1029a000c0489800e300470030c3b300d048980007
:1029b00063004700e100200003fc07005a013700d4
:1029c000e300470080c0b300a040980000478000ab
:1029d0008000780000f02f00008060004800de00da
:1029e0008040780063004700514098000047800015
:1029f0008040780000c0eb0080c0600063004700aa
:102a000061409800f04680008000780000f02f00c0
:102a1000008060004800de008040780063004700ce
:102a200071409800f04680008040780000c0eb00c4
:102a300080c0600063004700014898008195200035
:102a4000914078006300470011489800919520005c
:102a500091407800630047002148980020c0b300ef
:102a600020479800090037002e4090008080fb002e
:102a700063004700614078000080fb001e0f4000ab
:102a80002e4090000040e800204798002e40900023
:102a9000ea4f5000f4ff360000f02f001e006000e7
:102aa0004800de008040780063004700314898000d
:102ab0001e0078008040780063004700414898007d
:102ac000e3004700c0ccb300d0489800e3004700c3
:102ad00030c3b300e048980063004700f1002000d5
:102ae000b9fb070010013700e300470080c0b300c6
:102af000a0409800204780008000780000f02f0060
:102b0000008060004800de008040780063004700dd
:102b100051409800204780008040780000c0eb00c2
:102b200080c060006300470061409800304780002b
:102b30008000780000f02f00008060004800de0078
:102b40008040780063004700714098003047800063
:102b50008040780000c0eb0080c060006300470048
:102b600001489800404780008000780000f02f0066
:102b7000008060004800de0080407800630047006d
:102b800011489800404780008040780000c0eb006a
:102b900080c06000630047002148980020c0b30057
:102ba00020479800090037002e4090008080fb00ed
:102bb00063004700614078000080fb001e0f40006a
:102bc0002e4090000040e800204798002e409000e2
:102bd000ea4f5000f4ff360000f02f001e006000a6
:102be0004800de00804078006300470031489800cc
:102bf0001e0078008040780063004700414898003c
:102c0000e3004700c0ccb300d0489800e300470081
:102c100030c3b300e048980063004700f100200093
:102c200069fb0700c0003700e300470050c1b30054
:102c3000a0409800eac8bf008040780063004700c9
:102c400051409800ebc8bf00804078006300470007
:102c500061409800604780008000780000f02f00fd
:102c6000008060004800de0080407800630047007c
:102c700071409800604780008040780000c0eb0001
:102c800080c060006300470001489800eec8bf00a4
:102c9000804078006300470011489800f0c8bf00ea
:102ca000804078006300470021489800f1c8bf00c9
:102cb00080407800630047003148980090478000ca
:102cc0008000780000f02f00008060004800de00e7
:102cd000804078006300470041489800904780009a
:102ce0008040780000c0eb0080c0600063004700b7
:102cf00051489800f4c8bf00804078006300470046
:102d000061489800c147800000f02f0000806000fb
:102d10004800de008040780063004700714898005a
:102d2000c047800080407800630047000150980051
:102d3000d147800000f02f00008060004800de00d6
:102d4000804078006300470011509800d047800011
:102d500080407800630047002150980020478000a1
:102d60008000780000f02f00008060004800de0046
:102d70008040780063004700315098002047800071
:102d80008040780000c0eb0080c060006300470016
:102d900041509800404780008000780000f02f00ec
:102da000008060004800de0080407800630047003b
:102db00051509800404780008040780000c0eb00f0
:102dc00080c060006300470061509800c18f200000
:102dd00091407800630047007150980020c0b30014
:102de00020479800090037002e4090008080fb00ab
:102df00063004700614078000080fb001e0f400028
:102e00002e4090000040e800204798002e4090009f
:102e1000f74f5000f4ff360000f02f001e00600056
:102e20004800de00804078006300470001589800a9
:102e30001e00780080407800630047001158980019
:102e4000e3004700c0ccb300a0589800e30047005f
:102e500030c3b300b058980063004700c1012000a0
:102e6000d9fa070030003700e300470040c0b30044
:102e7000a0409800b147800000f02f000080600063
:102e80004800de0080407800630047005140980011
:102e9000b0478000804078006300470061409800a0
:102ea00020c0b30020479800090037002e40900052
:102eb0008080fb0063004700614078000080fb00d9
:102ec0001e0f40002e4090000040e8002047980070
:102ed0002e409000e64f5000f4ff360000f02f0027
:102ee0001e0060004800de0080407800630047005c
:102ef000714098001e007800804078006300470011
:102f000001489800e3004700c0ccb3009048980007
:102f1000e300470030c3b300a048980063004700b7
:102f2000b1002000a8fa07000080fa0000000600a7
:102f30002800fa002017980061679800e300470016
:102f400040942900904878000100e800f201200038
:102f50008000eb00f4f407000040eb0020479800ed
:102f60000000eb00000f7800e300470050cab300f8
:102f700080487800e3004700a0c5b3009040980067
:102f80006e6090000040e8008040780063004700d9
:102f90002140980063004700204090000080fb0023
:102fa000000f7800e300470060c0b300b040980015
:102fb00040c0b30020479800150037002e40900015
:102fc0000081fb002e4090000080fb008000780014
:102fd0002e109000008040006400500010407800e7
:102fe0008040780063004700017178002e40900017
:102ff0008080fb0063004700614078000080fb0098
:103000001e0f40002e4090000040e800204798002e
:103010002e4090008080fb006e6090000000fb005e
:1030200064004000808f5000e4ff35002e40900087
:103030000081fb0000f02f001e0060004800de0051
:103040008040780063004700017178002e409000b6
:103050000080fb000001e8001e007800804078003e
:1030600063004700017178002e4090000080fb0053
:103070000081e800e3004700c0ccb30000f1780015
:103080002e4090000080fb0063014000e3004700f9
:1030900030c3b30000f178006e6090000000fb00c8
:1030a00068004000800078006300470046fa07008f
:1030b0000080fa00000006000000fa0000c3b30020
:1030c000c8e8b700e0c1b300c9e8b7000000eb00f2
:1030d00050468800e0c4b300cce8b700c0c7b300d6
:1030e000cee8b700e0c1b300cfe8b7000000eb00c6
:1030f0008046880070c5b300d2e8b70000c3b300b3
:10310000eae8b700e0c1b300ebe8b7000000eb006d
:1031100060478800e0c4b300eee8b700c0c7b30062
:10312000f0e8b700e0c1b300f1e8b7000000eb0041
:103130009047880070c5b300f4e8b7000000eb00ca
:10314000c04688000040eb00dae8b7000000eb0062
:10315000e04688000000eb00f04688000000eb002d
:10316000004788000000eb00104788004006200060
:10317000204788000000eb00304788004001200015
:10318000404788000000eb00c04788000000eb00cb
:10319000d047880000c0eb00fce8b7000040eb001f
:1031a000fde8b7000040eb00fee8b7000040eb0090
:1031b000ffe8b7000040eb0000e9b7000040eb007b
:1031c00001e9b7000080fa00000006000600fa00de
:1031d000000f780011079800220798001e00780061
:1031e000f04688001e009000004788002e009000e6
:1031f000c04688000080fa00000006000400fa00c3
:10320000004f780011479800120798001e40780080
:10321000eae8b7001e409000ebe8b7001e009000ff
:10322000604788000080fa00000006000400fa00f1
:10323000004f780011479800120798001e40780050
:10324000f0e8b7001e409000f1e8b7001e009000c3
:0c325000904788000080fa000000060093
:020000040000fa
:10000800541a0000541a0000541a0000541a000030
:10001800541a0000541a0000541a0000541a000020
:10002800541a0000541a0000541a0000040a000070
:10003800541a0000541a0000420a0000541a000022
:10004800541a0000541a0000541a0000541a0000f0
:10005800541a0000541a0000541a0000541a0000e0
:10006800541a0000541a0000541a0000541a0000d0
:10007800541a0000541a0000541a0000541a0000c0
:10008800da090000541a0000541a0000541a00003b
:10009800541a0000541a0000541a0000541a0000a0
:1000a800541a0000541a0000541a0000541a000090
:1000b800541a0000541a0000541a0000541a000080
:1000c800541a0000541a0000541a0000541a000070
:1000d800541a0000541a0000541a0000541a000060
:1000e800541a0000541a0000541a0000541a000050
:0800f800541a0000541a000024
:020000040000fa
:10010800541a0000541a0000541a0000541a00002f
:10011800541a0000541a0000541a0000541a00001f
:10012800541a0000541a0000541a0000040a00006f
:10013800541a0000541a0000420a0000541a000021
:10014800541a0000541a0000541a0000541a0000ef
:10015800541a0000541a0000541a0000541a0000df
:10016800541a0000541a0000541a0000541a0000cf
:10017800541a0000541a0000541a0000541a0000bf
:10018800da090000541a0000541a0000541a00003a
:10019800541a0000541a0000541a0000541a00009f
:1001a800541a0000541a0000541a0000541a00008f
:1001b800541a0000541a0000541a0000541a00007f
:1001c800541a0000541a0000541a0000541a00006f
:1001d800541a0000541a0000541a0000541a00005f
:1001e800541a0000541a0000541a0000541a00004f
:0801f800541a0000541a000023
:020000040000fa
:10325c0030310000323300003435000036370000c6
:10326c0038390000000000000000000000000000e1
:10327c000000000000000000000000000000000042
:10328c000000000000000000000000000000000032
:020000040000fa
:10329c000008000062000000020000005001010064
:1032ac000101a5005a02430006004500cc33410041
:1032bc0001010100010101000047010001010100b1
:1032cc000043010001004f00010100005601010004
:1032dc0001010000540101000052010001005300e3
:1032ec00010100004d0101000101010001004c0031
:1032fc000101010001010100010101000044010074
:10330c000101010001010100010101000055010052
:10331c000101010001010100004201000100000057
:10332c008809000004000000000000004c090000a7
:10333c003c00000002000000000000000000000043
:10334c000000000000000000000000000000000071
:10335c000000000000000000000000000000000061
:10336c000000000000000000000000000000000051
:10337c000000000000000000000000000000000041
:10338c000000000000000000620800005600000071
:10339c00020000000000000000000000000000001f
:1033ac000000000000000000000000000000000011
:1033bc000000000000000000000000000000000001
:1033cc0000000000000000000000000000000000f1
:1033dc0000000000000000000000000000000000e1
:1033ec0000000000000000000000000000000000d1
:1033fc0000000000000000000000000000000000c1
:10340c000000000000000000b80800004a000000a6
:10341c0000000000020900004a0000000200000049
:10342c000000210015110e000d0c0b000b0a0a00f8
:10343c00090909000909080008080800080808001b
:10344c00070707000707070007070700070707001c
:10345c0007303100323334003536370038396100eb
:10346c00626364006566670068696a006b6c6d0076
:10347c006e6f7000717273007475760077787900d6
:10348c007a0000008c09000004000000020000001b
:0c349c0000000000000000000000000024
:020000040000fa
:0434a8000000fe0022
:00000001FF
