:020000040000fa
:080000000001040000000000f3
:020000040000fa
:10020000efb4200080bf2000000188000000000043
:10021000050007000c000700d806020000000000df
:100220000040da000000fe004440a9000007200062
:100230000000e0000300320000002000a001880060
:100240004440a80000000600802d2200010020008c
:100250001600370062004000e080480091018800ed
:100260009001ba0062004000e080480091018800df
:100270009002ba0062004000e08048000002eb00fb
:100280006028e10005003a008301e900070033001f
:10029000038009000059eb00040037006128e100e9
:1002a000010032000082eb00050007009101880088
:1002b0001001ba000200e000e6ff3a00000005006d
:1002c000910188008002780062004000e0804800d0
:1002d0003559ba008301e900080032002559ba00f7
:1002e0008301e900050032000400e000f4ff320061
:1002f00015d9ba008301e900f1ff3a0000000600b9
:10030000a20020008000eb00100037008000780081
:10031000010037000000e8001004e000fdff3a0093
:100320000100500000000600000278008001780003
:10033000010037008159780002004200808f51008f
:10034000fcff3a000400780000000600ec8747003c
:10035000889fbe008a9fbe008c9fbe008e1f7800c3
:10036000f0b79f0081bf9f008204780000047800ee
:10037000010037000804e800184778000e00fb0071
:10038000860007000000e000faff3a00d0c2b30088
:10039000804f57000500320000c0e900804f570031
:1003a0000200320000477800010037000804e8002e
:1003b0000900e00045003500e18f540043003200a1
:1003c00040022000808f540040003c000900e00003
:1003d0000e003400f08f54001a003a0000c3b3003e
:1003e000984f100016003a009840900080c7b30064
:1003f00080cf50000300320080c5b30080cf500092
:100400000f003a000884e8000e003700a900200021
:1004100000c3b300984f10000a003a0098409000c3
:1004200080c7b30080cf5000040032008900200054
:1004300080c5b30080cf500002003a000884e80075
:100440000901200008057800010037000a05e800ce
:1004500000c3b3009a4f1000fcff32008a057800f9
:100460006066b8000e003700b0ae200000425200b7
:10047000c4ef9f006149b9000c00be0046020700ae
:100480004fea97000401fb00cf91de008b05e800e6
:10049000ccb79f00ddb79f00000641008186490070
:1004a0001b00fb0045000700800078000901780070
:1004b000b0ae200048000700000278000000e00015
:1004c000e9ff3a008b0f540006003a000fb897007e
:1004d0000000e00029003200ffb09700010878001a
:1004e000260037008a80550060ac20006940780003
:1004f0000000fb0000805000160033004240a900bd
:100500000f003c004fe997000200fb00cf80de00a7
:100510000000560081805e00800f5600818f5e00d3
:10052000070039006149b9009d0107004fb19700ec
:10053000dfb19700820f5000838f58000500320012
:1005400020022000605a88000086eb008086eb00c5
:1005500005003700d0c2b300804f570002003a00b8
:1005600060061600e0861e008fb997000300e000c9
:10057000030032008b097800010037006066b80084
:100580000c00be004f0778004f06be004f05be00ae
:100590004f04be00cf00b100000006006900e1007a
:1005a000040035006d00e100030034000002b100da
:1005b00001003200000005001000050080007800f6
:1005c0001104b100030035009101b10001003c00ad
:1005d0000050a000000006008201780004003700ef
:1005e00090cf1000050032000000e8008301e90010
:1005f0000300e000faff3a000000eb0000000600f4
:10060000839f68000100e00002003d0060001000d0
:10061000e08018000300e00002003d0060011100ce
:10062000e08119005e0107004f00e00002003b007e
:1006300060001000e080180000000600889fbe00e7
:100640008a9fbe00010578000100e000040035002b
:1006500008003c000000e0002000320005003700e8
:1006600060001000e080180002003b0001f02c0048
:100670001a0037000004be006011b8006b092000aa
:100680000982cf00020039000882cf000441b00087
:10069000694252000e00320008003b008281710066
:1006a000610164008904d1000884d3008b05e8004f
:1006b0000442e800f9ff3a0005003700080444004e
:1006c00089844c008b05e9000442e900fbff3a00f5
:1006d000430107000af0a70001f0a0004f05be008b
:1006e0004f04be00000006000001be0062010700ca
:1006f0000470a70003f0a1006509b10016003200e4
:100700000d0035006828e10006003500f0ff2f00dd
:10071000f1ff27000300e00013003b000100280068
:100720000000050000004000818048008502e900cb
:10073000fcff3a0008003700f88f420002003c003e
:100740008000eb00000005008100d1000080d30094
:100750008502e800fcff3a000300e00002003b00d5
:1007600060001000e080180000000600889fbe00b6
:100770008a9fbe008c1f7800540107005b01330084
:1007800003866c006450e1002e0032006420e1001a
:10079000330032006150e1002f0032006120e1009f
:1007a0003100320085855500eb07b00009002000bc
:1007b00008042000050037000804440089844c0028
:1007c0000a0031000603430087834b0000015300f9
:1007d00081815b00f8ff33000203be000800a00027
:1007e0000804440089844c00f6ff3900c639dd0056
:1007f0008301730001003200130020008904d1003e
:100800000884d3000998a300050032000800a7005f
:100810000300a0008904d1000884d3008b05e80000
:100820008904d1000884d3000001eb000281d200ca
:10083000eb00070001f0a1000cf0a70001f0a00000
:10084000330137006420e100350132000801be00a9
:100850000200be00f7ff37006120e10030013200e6
:100860006000b800f3ff37000000200001f8270007
:10087000f0ff370003f0a200889fbe008a9fbe00f1
:100880008c1f780011010700180133006450e1004b
:100890004f0032006420e1005200320003826c00fd
:1008a00007003b000905d0000306d000820f54006a
:1008b0000c065d0002003900020032008901780058
:1008c000030678008582550004003d000003fd000a
:1008d0008103fd008502ea008b854200840f7200cf
:1008e00002003b0060001000e08018006011b800ba
:1008f0000005eb007a28e1000a00390006007800c4
:10090000c75ddd00f707b200878075002d00370056
:10091000828171000a017800610560008180d10048
:100920000080d3008502e900f9ff3b000604400087
:100930008784480002003b0060041400e0841c002f
:100940000988a300070032008a817100828171004a
:10095000610164008904d1000884d3008b05e8009c
:10096000170037000978a30013003a000b00e000dd
:10097000130034008b05e9000804440089844c000e
:100980000a4474000978a3000d003a000b00e0004f
:10099000070034008b05e9000804440089844c00fa
:1009a00001003a000b0020000978a300f7ff320095
:1009b0000001eb0002003700828171000a0178001b
:1009c000870007000cf0a70001f0a000d00037005e
:1009d0006420e10002003a00838f6c00d0003300f5
:1009e0000801be000200be00c9003700889fbe009b
:1009f0008a9fbe008c1f7800b4000700bb00330044
:100a000003866c006450e100240032006420e100a1
:100a1000270032006150e100220032006120e10035
:100a2000210032008b854200eb07b1000134b80091
:100a3000003ab8000804420089844a00013ab8002c
:100a40000030b8008880400009014a0004003300eb
:100a50000000400081804800020149008b05e90048
:100a6000c909dd008301700001003200130020007d
:100a7000c814de004814dd004709de001200b20091
:100a8000c808de00088470005500070001f0a100ce
:100a90000cf0a70001f0a0009d0037006120e100ec
:100aa0009f0032000801be000200be00f7ff3700c1
:100ab0006150e100fcff3a0099003700140020006b
:100ac0009a003700f4ff2f0098003700889fbe007f
:100ad0008a9fbe008c1f78000004be0066000700dd
:100ae0000478a30026003a006120e10025003200ce
:100af00009f8a30025003a006420e100210032003b
:100b0000f507b1000508a300020032000000400014
:100b1000818048006044b8000310200002002000db
:100b200000004000818048000805440089854c0091
:100b30000a0541008b8549000a0550008b85580045
:100b4000030033000a00be000204740083847400b2
:100b50008301d1000281d300830f7100f0ff3a00be
:100b60008904d1000884d300600149008201780023
:100b7000c1adde00fb07b0001900070064003700bc
:100b80000960a0000800be006100370012022000ca
:100b9000625a8800f0ff2f00f1ff27005c00370049
:100ba0006022b800060220000000d0008180d20040
:100bb0000482d2008582d2000000a000020252000e
:100bc00083825a0003003b000202420083824a00f3
:100bd0000000a1000603e900f3ff3a000000060050
:100be00081002000618055000b003d000b002000bb
:100bf00061fe2f000100e1001d00340082817100c0
:100c0000610164008904d1000884d3000000e80079
:100c1000faff3a00710020006100640003007000d8
:100c2000020060000900320061044400e0844c00ce
:100c30000988a500050032008b05e8006808e1007e
:100c400002003a008904d1000884d300f20f20008a
:100c50000258e10005003d00c75ddd00f907b20064
:100c60008980750008007800000006000bf8270056
:100c70008b00780000000500c70ade00f107b20013
:100c8000f50fb20008003200e1cf4200020032004e
:100c90000170a00024000500810f700001003200e7
:100ca0000408050044000500810f700002003a00ae
:100cb000140005008502e9000000400081c04800e2
:100cc000fcff3b000170a000240005000004be00f2
:100cd000e9ff07000003be000405be000200be00dd
:100ce000e5ff0700844f7500000006000200be000b
:100cf0006450e100050036006420e1000200360087
:100d00000968a30001003a000800be000160a000cd
:100d10004f0678004f05be004f04be0000000600dd
:100d2000f0ff2f00f1ff2700f9ff3700889fbe007a
:100d30008a9fbe00841f7800e4ff07004f00780000
:100d400011003300f0ff2f00838f6c0006003b0082
:100d5000040565000a00a7000800370009f0a60096
:100d60001000200008003700820f5400838f5c00c1
:100d7000030039001000200001003e0000002000a8
:100d800009f0a7000000ea004f05be004f04be00b6
:100d90000000e00000000600020ab900001bb900d4
:100da0000200b800810042008100430000000600fc
:100db0005200fa00889fbe006000b800001798003b
:100dc000111798006000b800600f9800710f98002c
:100dd0006000b800400f9800510f98006000b80004
:100de000200f9800310f98000000eb0030079800aa
:100df0006000b80010079800210798000040eb0041
:100e0000004f7800510220008e804000002a2a0006
:100e100009000900b0587800a100b100a000b1009d
:100e2000f10220008e804000b02a2a00904878000d
:100e30000100e8008040eb00014878000000e80075
:100e40008040eb00014878000000e8008040eb00a3
:100e5000014878000000e8008040eb00014878007d
:100e60000000e8008040eb00014878000000e80046
:100e70008040eb0001487800610320008e80400034
:100e8000b02a2a00904878008100e8000040eb007a
:100e9000804878000040eb009040980091032000cb
:100ea0008e804000b02a2a00904878008100e80037
:100eb0000040eb00804878000040eb009040980034
:100ec000c10320008e804000b02a2a00904878009c
:100ed0000100e8008040eb00014878000000e800d5
:100ee0008040eb00014878000000e8008040eb0003
:100ef000014878000000e8008040eb0001487800dd
:100f0000110420008e804000b02a2a00904878000a
:100f10000100e8008040eb00014878000000e80094
:100f20008040eb00014878000000e8008040eb00c2
:100f300001487800510420008e804000b02a2a0029
:100f4000904878008100e8000040eb00804878007d
:100f50000040eb0090409800810420008e8040000b
:100f6000b02a2a00904878000100e8008040eb0099
:100f7000014878000000e8008040eb00014878005c
:100f80000000e8008040eb00014878000000e80025
:100f90008040eb0001487800b601070000b0240053
:100fa00059020700d4010700e201070033020700dd
:100fb00011c0b3000040eb006a0207009609070069
:100fc0000040eb0002e9b700ca02a8006000b800c8
:100fd0000017980011179800060037000e109000b7
:100fe0009e10900061004000e080480000179800cb
:100ff000111798000e1190009e119000f0702200c1
:1010000001002000800f5100818f5900f3ff340050
:10101000ca02a9006000b8000017980011179800d4
:10102000060037000e1090009e10900061004000f6
:10103000e080480000179800111798000e119000ea
:101040009e119000f070220001002000800f5100de
:10105000818f5900f3ff3400ca02a8000000370056
:10106000d6c2bf00614060000004a2006140600081
:1010700061416000612d200091407800e0cfb30015
:1010800000c0600002407000d6e2b70069cabf002d
:101090000004e000060032000040eb0069eab700ff
:1010a000a1a8200091407800a0a6200062040700bb
:1010b000a4cabf000004e000060032000040eb00bc
:1010c000a4eab7006001070051c0b3006099200096
:1010d000600207000e1090009e109000610040001a
:1010e000e080480000179800111798000e1190003a
:1010f0009e119000803e200001002000800f5100d2
:10110000818f5900d6ff34004e089000de08900011
:1011100061004000e0804800400f9800510f9800a7
:101120006000b8000017980011179800ce009000da
:1011300000fe2700008060004580de004007980028
:101140004e0090006101b9006e089000fe0890000a
:101150000000410081804900600f9800710f9800e5
:101160004e099000de0990006e089000fe08900085
:1011700023fd070070279800012f98007e20900023
:101180008e289000e00f5000e08f580006003d00d0
:101190007e2190008e29900063014100e08149008a
:1011a00072279800032f98007e2190008e299000ce
:1011b0004e1add004210de0000007200c298de0010
:1011c000700798004e099000de099000400620004c
:1011d00001002000800f5100818f5900070034006a
:1011e0006000b800400f9800510f98007e009000fa
:1011f00001002000600f9800710f980001b12000dd
:10120000409a2000360207000004e000440032004b
:1012100010cbbf000080fb00000040000000400039
:1012200000004000000040000000400000004000be
:1012300000004000000040008000780011cbbf009b
:101240000080fb0000804000c051880012cbbf002e
:101250000080fb0000004000000040000000400053
:10126000000040000000400000004000000040007e
:10127000000040008000780013cbbf000080fb001e
:1012800000804000d0518800d84f8000c0518000bd
:10129000cf80de00e9fc0700200c9800310c98009c
:1012a000e24f800000002c00114424002009980027
:1012b00031099800d14f800000802000bb09070051
:1012c000e14f8000c0832000b8090700085080006b
:1012d000d0518000cf80de00d8fc0700200c9800a1
:1012e000310c98001250800000002c0011442400a2
:1012f00020099800310998000150800000802000ea
:10130000aa09070011508000c0832000a709070028
:10131000cd00070051c0b30060992000cd01070047
:10132000c1b12000209b2000ed0107000004e00077
:101330000f0032001ccbbf000080fb00000040000b
:10134000000040000000400000004000000040009d
:1013500000004000000040000000400080007800d5
:101360001dcbbf000080fb00008040009051880032
:101370001ccbbf000080fb000000400000004000cc
:10138000000040000000400000004000000040005d
:101390000000400000004000800078001dcbbf002e
:1013a0000080fb000081400012cbbf000080fb00ea
:1013b000000040000000400000004000000040002d
:1013c000000040000000400000004000000040001d
:1013d0008000780013cbbf000080fb0080814000bc
:1013e00010cbbf000080fb00000040000000400068
:1013f00000004000000040000000400000004000ed
:1014000000004000000040008000780011cbbf00c9
:101410000080fb000080400083007800c3080700c4
:1014200001b32000409d2000ad0107000004e00052
:101430003d00320001b3200091407800600320009d
:101440000e0040000148780011b320009140780060
:10145000600320000e0040001140980021b32000de
:1014600091407800900320000e0040000148780071
:1014700031b3200091407800900320000e0040001e
:101480001140980051b3200091407800c003200023
:101490000e0040000148780061b3200091407800c0
:1014a000c00320000e0040001140980071b32000de
:1014b00091407800c00320000e00400021409800b9
:1014c00081b3200091407800c00320000e0040004e
:1014d00031409800c00320000e00400088fb070048
:1014e000cf80de0055fc0700100798002107980008
:1014f0001e009000ae0090007bfc07008004780086
:10150000900320000e0040007dfb0700004478009f
:10151000600320000e00400079fb070009017800fd
:10152000884078008d08070091b32000f09d2000ce
:101530006b0107000004e000c9fe320091b32000f7
:1015400091407800100420000e004000014878000f
:10155000a1b3200091407800100420000e0040004c
:1015600011409800b1b32000914078001004200091
:101570000e00400021409800c1b320009140780047
:10158000500420000e00400001487800d1b3200034
:1015900091407800500420000e0040001140980057
:1015a000f1b3200091407800800420000e0040003c
:1015b0000148780001b420009140780080042000a8
:1015c0000e0040001140980011b4200091407800b6
:1015d000800420000e0040002140980021b420002b
:1015e00091407800800420000e00400031409800b7
:1015f000800420000e00400041fb0700cf80de0089
:101600000efc070010079800210798001e009000ac
:10161000ae00900034fc07008004780050042000e5
:101620000e00400036fb0700004478001004200044
:101630000e00400032fb0700090178008840780066
:101640005208070086fe37000000fa0063cabf0098
:1016500097e9b70064cabf0098e9b70065cabf0040
:1016600099e9b70066cabf009ae9b7000080fa009e
:10167000000006000000fa00de62a900dec2a90038
:10168000de42a800de62a900c602a900c682a90047
:10169000d202a900dea2a900d822a900c602a90090
:1016a000d842a900dc42a800d882a900d8a2a9008b
:1016b000dca2a9000080fa00000006000000fa0089
:1016c0000040eb0063eab7000040eb0064eab700bb
:1016d0000040eb0065eab7000040eb0066eab700a7
:1016e0000040eb0067eab7000040eb009aeab70061
:1016f0000080fa00000006000000fa00000021004f
:10170000100888008c60a8000421a9004110200066
:101710009140780000c3b30000c0700004e1b7003e
:101720000000eb000008880005e1a9000080fa0035
:10173000000006000000fa00c007200060088800d2
:101740008cc0a8001021a900011120009140780050
:10175000f0ccb30000c0600010e1b7000000eb0067
:10176000300888000040eb0003e9b70011e1a80051
:101770000080fa00000006000000fa000080fa0075
:10178000000006003600f800809fbe00829fbe0069
:10179000849fbe00869fbe000000fa008f00a90053
:1017a0008700a90010c0b30068eab700e01080000d
:1017b00014eab700af0107008f00a8000080fa000c
:1017c0004f03be004f02be004f01be004f00be00df
:1017d0003600f900004006003600f800809fbe0089
:1017e000829fbe00849fbe00869fbe000000fa005c
:1017f0008460a900d6c2bf00614060000004a2005e
:101800006140600061416000612d200091407800de
:10181000e0cfb30000c0600002407000d6e2b70025
:101820009acabf000004e0000300320091002000cb
:10183000b09920007c0107000080fa004f03be0031
:101840004f02be004f01be004f00be003600f9003f
:1018500000400600801f78000000fa0084c0a90044
:1018600010c0b30003e9b7000000eb0030088800a7
:101870000080fa004f007800004006000000fa00e7
:10188000a00e2000b00e8800210e8000000028006d
:1018900000806000e157200001007000200e8800e9
:1018a000c1a1a900c0c1bf006f406000c0e1b70086
:1018b000c0c1bf00c040b300c0e1b700011c2000a0
:1018c00091407800c0cfb30000c06000c0e1b70015
:1018d000110e80000000280000806000100e8800bb
:1018e000c901a800c881a800c8a1a900c8c1a90051
:1018f000c801a900c821a900c841a900c1e1a800e8
:101900000080fa00000006000200fa00000f7800d4
:101910001742a90016c2a900612120009140780059
:1019200090cfb30000c0600016e2b7001602a90015
:10193000f0002000f010880017e2a8008f00a80037
:101940000080fa00000006000400fa00000f780092
:101950002147980010c0b30002e9b7000080fa00e8
:10196000000006000200fa00004f780011479800be
:1019700020c2a9001e407800614060006140600004
:10198000004040000041400031222000914078009a
:10199000b0cfb30000c060000240700023e2b70087
:1019a0002322a90022c2a8001e40900061406000ce
:1019b000614160003122200091407800e0cfb30007
:1019c00000c060000240700023e2b70022a2a8001d
:1019d00022e2a900212220009140780030ceb300fd
:1019e00000c0600022e2b700212220009140780070
:1019f000c0cfb30000c060000014a00022e2b70016
:101a00000080fa00000006000400fa002047980059
:101a100021e2a8002e4090000000fb002011880069
:101a200020118000004f78000080fa0000000600be
:101a30000400fa001007980021e2a8001e009000a0
:101a40002011880020118000000f78000080fa002b
:101a5000000006000800fa0020079800614798007f
:101a60000040eb00204798000040eb002047980022
:101a70001500370020c2bf00624060000004e00093
:101a8000fcff3a002e4090000000fb008000780030
:101a90002e0090000080400010407800daff070020
:101aa0000000eb00000f7800010037001e0fe80077
:101ab000301f20009e0f1000fcff34002e409000cd
:101ac0000040e80020479800ae4090006e40900033
:101ad00080cf5000e7ff35000080fa0000000600cc
:101ae0001000fa00881f78006007980071079800be
:101af0000040eb0040479800e5004700202b2a00fb
:101b0000904878000100e8008040eb000148780030
:101b10000000e8008040eb00014878000000e80089
:101b20008040eb00014878000000e8008040eb00b6
:101b3000014878000000e8008040eb000148780090
:101b40000000e8008040eb00014878000040eb0016
:101b5000104798000040eb00004f7800dc42a900dd
:101b60000040eb00404798002c00370020c2bf0027
:101b7000624060000004e000fcff3a004e4090002c
:101b80000000fb00800078006e00900000804000a4
:101b9000104078009cff070020c2bf006140600039
:101ba0000004e000fcff32004e4090000004e00022
:101bb0000b00340020118000004f78004e40900050
:101bc0000000fb00800078007e0090000080400054
:101bd0008000e9001e40780080487800020037004d
:101be00020118000104798000000eb0010079800bb
:101bf000030037001e0090000000e8001007980066
:101c00009e009000301f2000808f5000f9ff3400ac
:101c10004e4090000040e800404798004e40900041
:101c20000004fb006e009000b8f90700800f54001c
:101c3000ceff3900dc42a800100020004f047800dd
:101c40000080fa00000006000400fa000000eb002b
:101c5000100798000000eb00000f780021e2a900b7
:101c600011c0b30010c0b3003eff070021e2a8007e
:101c70000000eb00000f7800010037001e0fe800a5
:101c8000703e20009e0f1000fcff3400dca2a80074
:101c90001e0090002011880020c2bf00614060003b
:101ca0000004e000fcff32002011800010079800c3
:101cb000dca2a9000000eb00000f78000100370053
:101cc0001e0fe800703e20009e0f1000fcff340045
:101cd00021e2a9008040eb000040eb0021ff07005b
:101ce00021e2a8001e0090000080fa00000006001b
:101cf0000200fa00004f780019c2bf006140600086
:101d00000004e000fcff32001942a8001e00fb00a6
:101d1000d01088000080fa00000006000c00fa00d5
:101d2000204f9800a02b2a00104f78000e00e800ea
:101d30008040eb00014878000000e8008040eb00a4
:101d4000014878000000e8008040eb00014878007e
:101d50000000e8008040eb00014878000000e80047
:101d60008040eb00014878000000e8008040eb0074
:101d7000014878000000e8008040eb00014878004e
:101d80000000e8008040eb00014878000000e80017
:101d90008040eb000148780050cab300004f780043
:101da000a0c5b3001047980030c0b300204798008a
:101db00040c7b3003047980050c4b3004047980074
:101dc0002e489000504798002e4890000000fb00dd
:101dd000c00bb0008000780000f02f000080600091
:101de0004800de0060479800c1cbb3002e48900049
:101df00000c040008040780000c0eb0000c06000e0
:101e000070479800c0ccb300004f980030c3b300b7
:101e1000104f9800a10020000e007800020007007b
:101e20000080fa00000006000600fa001007980083
:101e3000210798008f00a9000000eb00000f780038
:101e4000060037009e0078001e00900000804000d1
:101e500010407800a6ff07001e0fe8002e0090003b
:101e60009e0f1000f7ff39008f00a8000080fa00d5
:101e7000000006000600fa0068cabf000004e00087
:101e8000eb0032000040eb0068eab70090508000a1
:101e9000200798002e009000e30f50004800320009
:101ea0002e009000e30f500007003e002e0090002f
:101eb000e10f50002a0032002e009000e10f500088
:101ec00033003e000d0037002e009000e50f50005b
:101ed000630032002e009000e50f500059003900d9
:101ee0002e009000e60f5000710032002e0090008e
:101ef000e70f500083003200be00370041a12000f0
:101f00009140780050cab30080cf5000c8003a001a
:101f10000000eb0080508800905080000000e80036
:101f200090508800d6c2bf000080fb000000d100a6
:101f3000614060000004a2006140600061406000f8
:101f400000414000612d200091407800d0cfb300c7
:101f500000c0600002407000d6e2b700b400370055
:101f600041a1200091407800a0c5b30080cf50006f
:101f700004003a00905080000000e8009050880073
:101f8000ab0037000000eb0090508800a80037003d
:101f900014cabf008080fb00805080000080400099
:101fa0008050880014cabf000080fb007050880079
:101fb000905080000000e800905088009c0037009e
:101fc0000ccabf008080fb0070508000808f5000e2
:101fd0001800310014cabf008080fb0080508000d0
:101fe00000804000805088000ccabf000081fb00c8
:101ff00014cabf0080407800a0a620000000410065
:10200000014878000ccabf000040e8000ceab700a5
:102010000ccabf008080fb0070508000808f500091
:1020200083003a00905080000000e8009050880043
:102030007f003700905080000000e800905088003a
:102040007b00370014cabf000080fb0040508800ae
:10205000905080000000e800905088007400370025
:1020600014cabf000080fb00505088004050800020
:102070000000400000004000000040000000400060
:102080000000400000004000000040000000400050
:102090008000780050508000008040003050880060
:1020a000905080000000e8009050880060003700e9
:1020b00041a1200091407800c0ccb30080cf5000f7
:1020c00007003a00905080000000e800905088001f
:1020d0000ccabf000040e9000ceab700540037000a
:1020e0000000eb00905088000000eb00805088005a
:1020f0000000eb00705088000040eb000ceab700d5
:102100004b00370041a120009140780030c3b3005c
:1021100080cf500028003a0031508000805080006d
:10212000808f500015003a00cac2bf000080fb003b
:102130004400de00614060000004a20061406000d5
:10214000614060000040400000404000004040000e
:1021500000414000a12c200091407800f0ceb30057
:1021600000c0600002407000cae2b70010c0b300b7
:1021700069eab700705080008aeab7000000eb00ff
:10218000905088000000eb00705088000040eb0089
:102190000ceab7000000eb00805088000000eb0064
:1021a000405088000000eb00505088000000eb0019
:1021b000305088001e0037000000eb00905088006f
:1021c0000000eb00705088000040eb000ceab70004
:1021d0000000eb00805088000000eb0040508800b9
:1021e0000000eb00505088000000eb0030508800e9
:1021f0000f003700d6c2bf000080fb004200de00a7
:10220000614060000004a200614060006140600025
:102210000040400000414000612d200091407800c6
:10222000b0cfb30000c0600002407000d6e2b7003b
:102230000080fa00000006002600fa00100f980047
:10224000415798000000eb0040079800ec00470061
:10225000a02b2a00904878000100e8008040eb00a5
:10226000014878000000e8008040eb000148780059
:102270000000e8008040eb00014878000000e80022
:102280008040eb00014878001e0890001040780064
:102290000000fb002017980060042000ae109000a2
:1022a000808f5000c600320040052000ae10900024
:1022b000808f50000500320030042000ae109000e6
:1022c000808f5000300232004b0237001e08900011
:1022d0000000e800104078000000fb001017980094
:1022e000d00420009e109000808f50009c0032008f
:1022f000d00420009e109000808f50000d003c0004
:10230000500420009e109000808f50001f0032006b
:10231000600420009e109000808f500078003200f2
:10232000300420009e109000808f50005200320038
:1023300031023700100520009e109000808f500061
:1023400043003200100520009e109000808f500046
:1023500005003c00000520009e109000808f50007a
:102360002700320024023700200520009e10900034
:10237000808f50002c003200a00520009e1090009d
:10238000808f5000460032001b0237001e0890006c
:102390000080e8001040780067eab7001e0890004f
:1023a0000080e800104078000000fb00cf80de00d5
:1023b000a2f8070002002500337c2400ebf8070098
:1023c000f226210033a823002bf9070010079800fc
:1023d0002107980002682900838124001e009000d4
:1023e000ae00900081f90700bff80700b00e88002a
:1023f000ce5090001e08900025040700fe01370013
:102400001e0890000080e8001040780063eab700e2
:10241000ce5090001e0890001d04070010c0b300ad
:10242000a4eab700f40137001e0890000080e8001d
:102430001040780064eab700ce5090001e0890006b
:102440001304070010c0b300a4eab700ea01370084
:102450001e0890000080e8001040780065eab70090
:10246000ce5090001e0890000904070010c0b30071
:10247000a4eab700e00137001e0890000080e800e1
:102480001040780066eab700ce5090001e08900019
:10249000ff03070010c0b300a4eab700d60137005d
:1024a0001e0890000080e800104078008beab7001a
:1024b0001e08900063004000104078008eeab700cc
:1024c0001e089000640040001040780091eab700b8
:1024d0001e089000650040001040780097eab700a1
:1024e0001e089000660040001040780094eab70093
:1024f000ce5090001e089000e5030700be01370093
:102500001e0890000080e800104078008ceab700b8
:102510001e08900063004000104078008feab7006a
:102520001e089000640040001040780092eab70056
:102530001e089000650040001040780098eab7003f
:102540001e089000660040001040780095eab70031
:10255000ce5090001e089000cd030700a601370062
:102560001e0890000080e800104078008deab70057
:102570001e089000630040001040780090eab70009
:102580001e089000640040001040780093eab700f5
:102590001e089000650040001040780099eab700de
:1025a0001e089000660040001040780096eab700d0
:1025b000ce5090001e089000b50307008e01370032
:1025c0001e0890000000e800104078000000fb00aa
:1025d00000179800800420008e109000808f50001b
:1025e0006e003200800420008e109000808f50001a
:1025f0000d003c00500420008e109000808f500091
:1026000060003200700420008e109000808f500017
:1026100093003200300420008e109000808f500014
:102620001700320074013700d00420008e10900093
:10263000808f500005013200d00420008e109000e1
:10264000808f500005003c00900420008e10900008
:10265000808f5000280132006701370000052000fc
:102660008e109000808f5000f30032002005200073
:102670008e109000808f5000eb0032005e0137001a
:10268000ce5090001e089000810307001e089000a5
:102690000080e800104078000000fb0000004000cf
:1026a000000040000000400000004000000040002a
:1026b0000000400000004000000040008000780062
:1026c0001e08900063004000104078000000fb00ee
:1026d00000804000e05488001e0890006400400024
:1026e000104078000000fb000000400000004000a7
:1026f00000004000000040000000400000004000da
:102700000000400000004000800078001e0890009b
:1027100065004000104078000000fb000080400091
:10272000f05488001e0890006600400010407800b9
:102730000000fb00000040000000400000004000de
:102740000000400000004000000040000000400089
:1027500000004000800078001e08900067004000e4
:10276000104078000000fb00008040000055880009
:102770001e089000680040001040780060479800f4
:102780001d013700ce5090001e0890004003070046
:1027900010c0b3009beab700170137001e08900075
:1027a0000080e800104078000000fb00700f9800e7
:1027b000d0042000fe089000808f500011003200ed
:1027c00000052000fe089000808f500005003200b8
:1027d00030042000fe089000808f50000500320079
:1027e00005013700ce5090001e0890002803070016
:1027f00001013700ce5090001e089000240307000e
:10280000fd0037001e089000630040001040780073
:102810000000fb00000040000000400000004000fd
:1028200000004000000040000000400000004000a8
:1028300000004000800078001e0890006400400006
:10284000104078000000fb00008040004007980026
:10285000ce5090001e0890000d030700e6003700e0
:102860001e0890000080e800104078000000fb0087
:10287000b05088001e0890006300400010407800af
:1028800018eab7001e08900064004000104078006d
:102890000000fb000000400000004000000040007d
:1028a0000000400000004000000040000000400028
:1028b00000004000800078001e0890006500400085
:1028c000104078000000fb0000804000d0508800dd
:1028d0001e089000660040001040780020eab70013
:1028e0001e08900067004000104078000000fb00c8
:1028f000105188001e0890006800400010407800c9
:1029000024eab7001e0890006900400010407800db
:102910000000fb00000040000000400000004000fc
:1029200000004000000040000000400000004000a7
:1029300000004000800078001e0890006a004000ff
:10294000104078000000fb000080400030518800fb
:102950001e0890006b004000104078002ceab70081
:102960001e0890006c004000104078002eeab7006e
:102970001e0890006c004000104078000000fb0032
:10298000600f980080042000ee089000808f5000b7
:102990000500320030052000ee089000808f5000c6
:1029a00018003200940037001e0890006d004000af
:1029b000104078000000fb000000400000004000d4
:1029c0000000400000004000000040000000400007
:1029d0000000400000004000800078001e089000c9
:1029e0006e004000104078000000fb0000804000b6
:1029f00080518800ce5090001e089000a40207006d
:102a00007d0037001e0890006d00400010407800e7
:102a10000000fb0080518800ce5090001e089000fe
:102a20009b02070074003700ce5090001e089000f3
:102a300097020700700037001e0890000000e800b1
:102a4000104078006e0007006b0037001e089000f1
:102a50000080e800104078000000fb00500f980054
:102a600000052000de089000808f50001a00320020
:102a700000052000de089000808f500005003c001b
:102a800060042000de089000808f50000a003200b1
:102a90005900370020052000de089000808f50008c
:102aa0000900320030052000de089000808f5000c1
:102ab0000d00320050003700ce5090001e089000ec
:102ac000730207004c003700ce5090001e089000a3
:102ad0006f02070048003700ce5090001e0890009b
:102ae0006b02070044003700ce5090001e08900093
:102af00067020700400037001e0890000080e800d1
:102b0000104078000000fb00400f9800c004200037
:102b1000ce089000808f500016003200c0042000c4
:102b2000ce089000808f500009003c002004200057
:102b3000ce089000808f50000e00320080042000ec
:102b4000ce089000808f50000a0032002a00370023
:102b500020052000ce089000808f50000500320034
:102b6000a0052000ce089000808f500001003200a8
:102b7000210037001e0890000080e8001040780017
:102b80001f0007001c0037001e0890000000e8002e
:102b9000104078000000fb00300f980080042000f7
:102ba000be089000808f50000500320040052000d4
:102bb000be089000808f50000a0032000e003700df
:102bc00091002000b099200097fc070010c0b300ce
:102bd0009aeab7000000eb000008880005e1a800b1
:102be000050037000040eb009aeab7000000eb0058
:102bf0000008880005e1a9000080fa000000060036
:102c00002800fa0040679800e3004700a02b2a0044
:102c1000904878000100e800f20120008000eb00fd
:102c2000c1f507000040eb00204798000000eb00d2
:102c3000000f7800e300470050cab30080487800d6
:102c4000e3004700a0c5b30090409800e3004700b0
:102c500040c7b300b040980063004700ce609000ca
:102c6000414098004e6090000080fb0030179800b3
:102c7000c0042000be109000808f50001a00320067
:102c8000c0042000be109000808f500009003c005e
:102c900020042000be109000808f5000f000320011
:102ca00080042000be109000808f5000620032002f
:102cb000f501370020052000be109000808f5000e5
:102cc000c1013200a0052000be109000808f50008e
:102cd0009900320000052000be109000808f500047
:102ce0002f013200e8013700e3004700c0c0b30005
:102cf000a040980020528000804078006300470088
:102d00005140980046cabf008040780063004700e9
:102d1000614098004152800000f02f000080600068
:102d20004800de0080407800630047007140980052
:102d300040528000804078006300470001489800be
:102d40004ecabf00804078006300470011489800d9
:102d5000805280008040780063004700214898003e
:102d600052cabf0080407800630047003148980095
:102d7000a152800000f02f00008060004800de00bb
:102d8000804078006300470041489800a0528000ce
:102d90008040780063004700514898005acabf003d
:102da00080407800630047006148980020c0b3006d
:102db00020479800090037002e4090008080fb00db
:102dc00063004700614078000080fb001e0f400058
:102dd0002e4090000040e800204798002e409000d0
:102de000ee4f5000f4ff360000f02f001e00600090
:102df0004800de008040780063004700714898007a
:102e00001e00780080407800630047000150980061
:102e1000e3004700c0ccb30090509800e3004700a7
:102e200030c3b300a0509800630047003101200078
:102e3000fdfb070094013700e300470070c0b300ba
:102e4000a04098009151800000f02f0000806000a9
:102e50004800de0080407800630047005140980041
:102e600090518000804078006300470061409800e6
:102e700041a3200091407800630047007140980012
:102e8000b151800000f02f00008060004800de009b
:102e9000804078006300470001489800b0518000ee
:102ea00080407800630047001148980020c0b300bc
:102eb00020479800090037002e4090008080fb00da
:102ec00063004700614078000080fb001e0f400057
:102ed0002e4090000040e800204798002e409000cf
:102ee000e94f5000f4ff360000f02f001e00600094
:102ef0004800de00804078006300470021489800c9
:102f00001e00780080407800630047003148980038
:102f1000e3004700c0ccb300c0489800e30047007e
:102f200030c3b300d048980063004700e1002000a0
:102f3000bdfb070054013700e300470080c0b30029
:102f4000a0409800d05180008000780000f02f0051
:102f5000008060004800de00804078006300470089
:102f600051409800d05180008040780000c0eb00b4
:102f700080c060006300470061409800c05180003d
:102f80008000780000f02f00008060004800de0024
:102f9000804078006300470071409800c051800075
:102fa0008040780000c0eb0080c0600063004700f4
:102fb00001489800c1b120009140780063004700ab
:102fc00011489800d1b1200091407800630047007b
:102fd0002148980020c0b30020479800090037001e
:102fe0002e4090008080fb00630047006140780025
:102ff0000080fb001e0f40002e4090000040e800c3
:10300000204798002e409000ea4f5000f4ff360011
:1030100000f02f001e0060004800de0080407800b5
:1030200063004700314898001e0078008040780017
:103030006300470041489800e3004700c0ccb3005c
:10304000d0489800e300470030c3b300e048980040
:1030500063004700f100200073fb07000a013700fe
:10306000e300470080c0b300a0409800f05180000a
:103070008000780000f02f00008060004800de0033
:10308000804078006300470051409800f051800074
:103090008040780000c0eb0080c060006300470003
:1030a00061409800005280008000780000f02f00fe
:1030b000008060004800de00804078006300470028
:1030c00071409800005280008040780000c0eb0002
:1030d00080c06000630047000148980010528000e3
:1030e0008000780000f02f00008060004800de00c3
:1030f000804078006300470011489800105280001b
:103100008040780000c0eb0080c060006300470092
:103110002148980020c0b3002047980009003700dc
:103120002e4090008080fb006300470061407800e3
:103130000080fb001e0f40002e4090000040e80081
:10314000204798002e409000ea4f5000f4ff3600d0
:1031500000f02f001e0060004800de008040780074
:1031600063004700314898001e00780080407800d6
:103170006300470041489800e3004700c0ccb3001b
:10318000d0489800e300470030c3b300e0489800ff
:1031900063004700f100200023fb0700ba0037005e
:1031a000e300470050c1b300a040980020528000c7
:1031b00080407800630047005140980046cabf0035
:1031c00080407800630047006140980041528000d1
:1031d00000f02f00008060004800de008040780092
:1031e00063004700714098004052800080407800a2
:1031f00063004700014898004ecabf008040780035
:103200006300470011489800805280008040780099
:10321000630047002148980052cabf0080407800f0
:103220006300470031489800a152800000f02f0051
:10323000008060004800de008040780063004700a6
:1032400041489800a0528000804078006300470009
:10325000514898005acabf00804078006300470078
:1032600061489800f152800000f02f00008060005b
:103270004800de00804078006300470071489800f5
:10328000f0528000804078006300470001509800b1
:103290000153800000f02f00008060004800de0035
:1032a0008040780063004700115098000053800070
:1032b000804078006300470021509800f051800062
:1032c0008000780000f02f00008060004800de00e1
:1032d000804078006300470031509800f051800032
:1032e0008040780000c0eb0080c0600063004700b1
:1032f00041509800105280008000780000f02f00ac
:10330000008060004800de008040780063004700d5
:1033100051509800105280008040780000c0eb00af
:1033200080c06000630047006150980021a6200023
:1033300091407800630047007150980020c0b300ae
:1033400020479800090037002e4090008080fb0045
:1033500063004700614078000080fb001e0f4000c2
:103360002e4090000040e800204798002e4090003a
:10337000f74f5000f4ff360000f02f001e006000f1
:103380004800de0080407800630047000158980044
:103390001e007800804078006300470011589800b4
:1033a000e3004700c0ccb300a0589800e3004700fa
:1033b00030c3b300b058980063004700c10120003b
:1033c00099fa070030003700e300470040c0b3001f
:1033d000a0409800e152800000f02f0000806000c3
:1033e0004800de00804078006300470051409800ac
:1033f000e052800080407800630047006140980000
:1034000020c0b30020479800090037002e409000ec
:103410008080fb0063004700614078000080fb0073
:103420001e0f40002e4090000040e800204798000a
:103430002e409000e64f5000f4ff360000f02f00c1
:103440001e0060004800de008040780063004700f6
:10345000714098001e0078008040780063004700ab
:1034600001489800e3004700c0ccb30090489800a2
:10347000e300470030c3b300a04898006300470052
:10348000b100200068fa07000080fa000000060082
:103490002800fa002017980061679800e3004700b1
:1034a000a02b2a00904878000100e800f2012000db
:1034b0008000eb009cf307000040eb0020479800e1
:1034c0000000eb00000f7800e300470050cab30093
:1034d00080487800e3004700a0c5b3009040980002
:1034e0006e6090000040e800804078006300470074
:1034f0002140980063004700204090000080fb00be
:10350000000f7800e300470060c0b300b0409800af
:1035100040c0b30020479800150037002e409000af
:103520000081fb002e4090000080fb0080007800ae
:103530002e10900000804000640050001040780081
:103540008040780063004700017178002e409000b1
:103550008080fb0063004700614078000080fb0032
:103560001e0f40002e4090000040e80020479800c9
:103570002e4090008080fb006e6090000000fb00f9
:1035800064004000808f5000e4ff35002e40900022
:103590000081fb0000f02f001e0060004800de00ec
:1035a0008040780063004700017178002e40900051
:1035b0000080fb000001e8001e00780080407800d9
:1035c00063004700017178002e4090000080fb00ee
:1035d0000081e800e3004700c0ccb30000f17800b0
:1035e0002e4090000080fb0063014000e300470094
:1035f00030c3b30000f178006e6090000000fb0063
:1036000068004000800078006300470006fa070069
:103610000080fa00000006000000fa00000320000d
:10362000b0508800e0c1b30018eab7000000eb001a
:10363000d0508800e0c4b30020eab700b0072000f3
:1036400010518800e0c1b30024eab7000000eb008d
:103650003051880070c5b3002ceab7000003200089
:1036600020528800e0c1b30046eab7000000eb003a
:1036700040528800e0c4b3004eeab700b007200013
:1036800080528800e0c1b30052eab7000000eb00ae
:10369000a052880070c5b3005aeab7000000eb00e2
:1036a000905188000040eb0034eab7000000eb00c6
:1036b000b05188000000eb00c05188000000eb0012
:1036c000d05188000000eb00e05188004006200047
:1036d000f05188000000eb000052880040012000fb
:1036e000105288000000eb00f05288000000eb0050
:1036f0000053880000c0eb0062eab7000040eb0016
:1037000063eab7000040eb0064eab7000040eb005a
:1037100065eab7000040eb0066eab7000040eb0046
:1037200067eab7000080fa00000006000600fa0011
:10373000000f780011079800220798001e007800fb
:10374000c05188001e009000d05188002e009000cb
:10375000905188000080fa00000006000400fa0082
:10376000004f780011479800120798001e00fb00d8
:10377000205288001e40900046eab7001e009000cc
:10378000405288000080fa00000006000400fa00a1
:10379000004f780011479800120798001e00fb00a8
:1037a000805288001e40900052eab7001e00900030
:1037b000a05288001055800002558000f15480000e
:1037c000e4548000800178000400780002000700c3
:1037d0000080fa00000006001000fa004007980080
:1037e00051079800620798007307980041528000c3
:1037f0004e0090000080400001002000200798004b
:1038000031079800a15280005e00900000804000c7
:1038100001002000008fbe002e019000be0190002c
:10382000f070220001002000800f5100818f5900ac
:103830000800340046cabf000040e80046eab7006e
:10384000ae009000008f2d000080400040528800a4
:103850000f0037002e009000be009000e00f5000d7
:10386000e08f580008003d0046cabf000040e90054
:1038700046eab700ae0090000071220000804000d0
:1038800040528800020037002e009000405288000d
:10389000f070220001002000be0f1000ae8f180053
:1038a0000800340052cabf000040e80052eab700e6
:1038b0009e007800008f2d0000804000a0528800fc
:1038c0000f0037002e009000be009000e00f500067
:1038d000e08f580008003d0052cabf000040e900d8
:1038e00052eab7009e00780000712200008040007c
:1038f000a0528800020037001e007800a052880005
:10390000f0528000ee00900001004000f05288006c
:103910000080fa00000006001000fa00889fbe0038
:10392000008fbe00220798003307980044079800d4
:103930005507980066079800770798006e01900079
:10394000fe0190003eb89700ceb89700c9f307007b
:103950000004be002e019000be0190004e009000b9
:10396000de009000c3f307000001be000800be00a7
:103970007ef307000004be002e019000be019000ff
:103980001e00be00bbf307000001be000800be0021
:1039900016f407006e019000fe019000b6f30700d8
:1039a0004f04be000080fa00000006000400fa0088
:1039b000889fbe008a9fbe00000f78001107980004
:1039c0001e0190006000b8000089be001e0190003a
:1039d0006000b80020019800310198001e0190009d
:1039e0006000b80040019800510198001e0190004d
:1039f0006000b80060019800710198001e019000fd
:103a00006000b80000099800110998001e0090009d
:103a1000200a9000b00a90001e007800200190005b
:103a2000b00190000400be0024f407000000e00094
:103a300001003500140037001e00780020019000be
:103a4000b00190001e0078001005be001e0090001e
:103a5000200c9000b00c90000000200001f8230022
:103a6000809fbe000600200007f823000202be006f
:103a70000a01be000800be00a7ff0700e487570048
:103a80001e0190000089be001e009000200a9000d8
:103a9000b00a90001e00780040019000d001900014
:103aa0000400be0005f407000000e000010035003e
:103ab0001f0037001e009000200a9000b00a9000fe
:103ac0001e00780020019000b00190000400be00ac
:103ad000fcf307000000e00001003d001400370087
:103ae0001e00780040019000d00190001e00780078
:103af00020059000b00590001e009000200c900062
:103b0000b00c90006000b800809fbe00060020004e
:103b100007f823000202be000a01be000800be0032
:103b20007dff0700e48757001e0190000089be005a
:103b30001e009000200a9000b00a90009e007800bd
:103b40006c80400020019000b00190000400be0095
:103b5000daf307000000e000010035002100370023
:103b60001e009000200a9000b00a90009e0078008d
:103b70006c8040001001be000400be00d1f30700bd
:103b80000000e00001003d00160037009e007800b4
:103b90006c80400020019000b00190009e007800f1
:103ba0006c8040001005be001e009000200c9000ac
:103bb000b00c90000000200001f82300809fbe00a0
:103bc0006033b8000202be000a01be000800be0059
:103bd00051ff0700e48757001e0190002001980064
:103be000310198001e009000200a9000b00a900059
:103bf0009e0078006c80400040019000d001900051
:103c00000400be00adf307000000e0000100350035
:103c1000230037001e009000200a9000b00a900098
:103c20009e0078006c80400020019000b001900060
:103c30000400be00a3f307000000e00001003d0007
:103c4000170037009e0078006c8040004001900013
:103c5000d00190009e0078006c804000200590000c
:103c6000b00590001e009000200c9000b00c900059
:103c70006000b800809fbe000600200007f8230007
:103c80000202be000a01be000800be0022ff0700bb
:103c9000e48757001e019000200198003101980030
:103ca0001e009000200a9000b00a90009e0078004c
:103cb0007880400020019000b00190000400be0018
:103cc0007ef307000000e00001003500210037000e
:103cd0001e009000200a9000b00a90009e0078001c
:103ce000788040001001be000400be0075f307009c
:103cf0000000e00001003d00160037009e00780043
:103d00007880400020019000b00190009e00780073
:103d1000788040001005be001e009000200c90002e
:103d2000b00c90000000200001f82300809fbe002e
:103d30006033b8000202be000a01be000800be00e7
:103d4000f5fe0700e48757001e019000400198002f
:103d5000510198001e009000200a9000b00a9000c7
:103d60009e0078007880400040019000d0019000d3
:103d70000400be0051f307000000e0000100350020
:103d8000230037001e009000200a9000b00a900027
:103d90009e0078007880400020019000b0019000e3
:103da0000400be0047f307000000e00001003d00f2
:103db000170037009e007800788040004001900096
:103dc000d00190009e00780078804000200590008f
:103dd000b00590001e009000200c9000b00c9000e8
:103de0006000b800809fbe000600200007f8230096
:103df0000202be000a01be000800be00c6fe0700a7
:103e0000e48757001e01900040019800510198007e
:103e10001e009000200a9000b00a9000410220008d
:103e20001e80400020019000b00190000400be0000
:103e300022f307000000e0000100350021003700f8
:103e40001e009000200a9000b00a9000410220005d
:103e50001e8040001001be000400be0019f30700e0
:103e60000000e00001003d00160037004102200084
:103e70001e80400020019000b0019000410220000f
:103e80001e8040001005be001e009000200c900017
:103e9000b00c90000000200001f82300809fbe00bd
:103ea0006033b8000202be000a01be000800be0076
:103eb00099fe0700e48757001e01900060019800fa
:103ec000710198001e009000200a9000b00a900036
:103ed000410220001e80400040019000d00190006f
:103ee0000400be00f5f207000000e000010035000c
:103ef000230037001e009000200a9000b00a9000b6
:103f0000410220001e80400020019000b00190007e
:103f10000400be00ebf207000000e00001003d00dd
:103f200017003700410220001e8040004001900031
:103f3000d0019000410220001e804000200590002a
:103f4000b00590001e009000200c9000b00c900076
:103f50006000b800809fbe000600200007f8230024
:103f60000202be000a01be000800be006afe070091
:103f7000e48757001e0190006001980071019800cd
:103f80001e009000200a9000b00a9000010320005b
:103f90001e80400020019000b00190000400be008f
:103fa000c6f207000000e0000100350021003700e4
:103fb0001e009000200a9000b00a9000010320002b
:103fc0001e8040001001be000400be00bdf20700cc
:103fd0000000e00001003d00160037000103200052
:103fe0001e80400020019000b001900001032000dd
:103ff0001e8040001005be001e009000200c9000a6
:10400000b00c90000000200001f82300809fbe004b
:104010006033b8000202be000a01be000800be0004
:104020003dfe0700e48757001e019000000998003c
:10403000110998001e009000200a9000b00a90001c
:10404000010320001e80400020019000b00190007c
:104050000400be009bf207000000e00001003d00ec
:1040600018003700010320001e804000400190002e
:10407000d0019000010320001e8040002005900028
:10408000b00590001e009000200c9000b00c900035
:104090000000200001f82300809fbe0006002000e1
:1040a00007f823000202be000a01be000800be009d
:1040b00019fe0700e48757001e01900000099800d0
:1040c000110998004f05be004f04be000080fa00a1
:1040d000000006003e00fa00889fbe008a1f78009c
:1040e000501f9800611f9800ee004700402c2a00e6
:1040f00009000900b01878004101b1004001b10089
:104100000040eb00504f98000040eb00404f9800fb
:104110000000eb00000f780077003700000020005f
:1041200001f823003007980041079800430037004a
:104130005e4890000000fb00800078006e18900040
:1041400000804000104078000000fb007800b900bb
:10415000800078005e1890000080400050079800b2
:104160005e4890000040e800504f98005e48900084
:104170000000fb00800078006e1890000080400076
:10418000104078000000fb000000400000004000ec
:10419000800078005e009000008040001001be00aa
:1041a00012079800230798005e4890000000fb006b
:1041b000800078006e189000008040001040780069
:1041c0000000fb000000400000004000800078007c
:1041d0005e009000008040001000be003e01900094
:1041e000ce01900035f207000000e000010035002c
:1041f0000f0037005e4890000000fb008000780050
:104200006e18900000804000104078000000fb0015
:104210000000400000004000800078005e00900038
:10422000008040001001be0032079800430798004c
:104230005e4890000040e800504f98005e489000b3
:104240000000fb00800078006e18900000804000a5
:104250009040780090c5b30080cf5000b4ff3a0082
:104260005e4890000040e800504f98004e48900093
:104270000040e800404f98005e4890000000fb00be
:10428000800078006e189000008040001040780098
:104290000000fb00000f78005e4890000040e8003e
:1042a000504f98001e0578001e007800ee00470071
:1042b0000000400000004000010040001004be006b
:1042c0003e019000ce0190003e009000ce00900094
:1042d000c6f107000001be000800be0066f107003d
:1042e0000001be00ee0047000a004500000040004b
:1042f000010040000288be004e489000f64f50007a
:1043000086ff3400200220000e0040005007980075
:104310000040eb00504f98001a0037005e489000b4
:104320000000fb00ee0047000000400000004000dd
:10433000010040001000be00e4f1070010079800e3
:10434000210798005e4890000000fb00ee00470047
:104350000000400000004000010040001000be00ce
:10436000daf107005e0190000089be005e00900057
:1043700064004000500798005e4890000040e8004c
:10438000504f98005e489000e44f5000e3ff340027
:104390006000b80010079800210798002002200054
:1043a0000e0040001000be006011b8008ff1070041
:1043b0001007980021079800200220000e004000fe
:1043c000b00090002000900002002000831c240018
:1043d00086f107000001be001e009000ae009000b4
:1043e00025f10700100798002107980020022000ff
:1043f0000e004000d000900040009000020020001d
:104400008324240079f107000001be001e00900003
:10441000ae00900018f107001007980021079800df
:10442000200220000e004000f0009000600090008c
:1044300002002000632924006cf107000001be0087
:104440001e009000ae0090000bf1070010079800ce
:1044500021079800200220000e00400090089000e4
:104460000008900002002000832c24005ff1070068
:104470000001be001e009000ae009000fef007009c
:104480001007980021079800200220000e0040002d
:104490001002be00200220000e004000200190000b
:1044a000b00190000400be00f3f007000002be005f
:1044b000200220000e00400040019000d00190003a
:1044c0000400be00ecf007000002be002002200045
:1044d0000e00400060019000f00190000400be005a
:1044e000e5f007000002be00200220000e004000a0
:1044f00000099000900990000400be00def0070063
:104500000001be001e009000ae00900097f0070072
:1045100010079800210798001e009000ae00900040
:1045200071f00700000f78001e009000ae009000b0
:104530004f0578004f04be000080fa00000006001e
:020000040000fa
:100008009c2400009c2400009c2400009c240000e8
:100018009c2400009c2400009c2400009c240000d8
:100028009c2400009c2400009c240000ec0b000091
:100038009c2400009c2400002a0c00009c24000042
:100048009c2400009c2400009c2400009c240000a8
:100058009c2400009c2400009c2400009c24000098
:100068009c2400009c2400009c2400009c24000088
:100078009c2400009c2400009c2400009c24000078
:10008800c20b00009c2400009c2400009c2400005b
:100098009c2400009c2400009c2400009c24000058
:1000a8009c2400009c2400009c2400009c24000048
:1000b8009c2400009c2400009c2400009c24000038
:1000c8009c2400009c2400009c2400009c24000028
:1000d8009c2400009c2400009c2400009c24000018
:1000e8009c2400009c2400009c2400009c24000008
:0800f8009c2400009c24000080
:020000040000fa
:100108009c2400009c2400009c2400009c240000e7
:100118009c2400009c2400009c2400009c240000d7
:100128009c2400009c2400009c240000ec0b000090
:100138009c2400009c2400002a0c00009c24000041
:100148009c2400009c2400009c2400009c240000a7
:100158009c2400009c2400009c2400009c24000097
:100168009c2400009c2400009c2400009c24000087
:100178009c2400009c2400009c2400009c24000077
:10018800c20b00009c2400009c2400009c2400005a
:100198009c2400009c2400009c2400009c24000057
:1001a8009c2400009c2400009c2400009c24000047
:1001b8009c2400009c2400009c2400009c24000037
:1001c8009c2400009c2400009c2400009c24000027
:1001d8009c2400009c2400009c2400009c24000017
:1001e8009c2400009c2400009c2400009c24000007
:0801f8009c2400009c2400007f
:020000040000fa
:1045400030310000323300003435000036370000cf
:1045500038390000000000000000000000000000ea
:10456000000000000000000000000000000000004b
:10457000000000000000000000000000000000003b
:10458000000000000000000000000000000000002b
:10459000000000000000000000000000000000001b
:1045a000000000000000000000000000000000000b
:020000040000fa
:1045b0009609000070000000020000005001010098
:1045c0000101a5005a02430006004500cc3341001a
:1045d000010101000101010000470100010101008a
:1045e0000043010001004f000101000056010100dd
:1045f00001010000540101000052010001005300bc
:10460000010100004d0101000101010001004c0009
:10461000010101000101010001010100004401004c
:10462000010101000101010001010100010055002b
:10463000010101000101010001004200010100002f
:10464000000609001e093600094e090066097e00b1
:1046500009000000020900009400000000000000b2
:10466000100b00003c0000000200000000000000f1
:10467000000000000000000000000000000000003a
:10468000000000000000000000000000000000002a
:10469000000000000000000000000000000000001a
:1046a000000000000000000000000000000000000a
:1046b000000000000000000000000000680a000088
:1046c0005e0000000200000000000000000000008a
:1046d00000000000000000000000000000000000da
:1046e00000000000000000000000000000000000ca
:1046f00000000000000000000000000000000000ba
:1047000000000000000000000000000000000000a9
:104710000000000000000000000000000000000099
:104720000000000000000000000000000000000089
:104730000000000000000000000000000000000079
:104740000000000000000000060a000062000000f7
:10475000000000000008000002010000020000004c
:104760000000200041000000dc43000080ea43001c
:104770000080dc0043000000eb43000080f94300b0
:104780000080eb0043000000fa43000040044400b6
:104790000080fa004300800004440000c00b440085
:1047a00000c00400440000000c4400008077440076
:1047b000000080003f0000004144000040414400f0
:1047c000002041004400400041440000a04144005a
:1047d000008041004400c000414400000042440009
:1047e00000e041004400400042440000a042440078
:1047f000008042004400c00042440000c0794400f0
:1048000000000100005900000001010000590000f3
:1048100000020100005900000003010000590100de
:1048200000000100015900000001010001590100d0
:1048300000020100015901000003010001590300b9
:1048400000040100015903000000010002590000aa
:10485000000101000259010000020100025902009a
:104860000003010002590300000401000259040082
:10487000000001000359010000010100035901007b
:104880000002010003590300000301000359030063
:104890000004010003590400000101000459030051
:1048a000000201000459040000030100045904003f
:1048b00000040100045904004c0b00000200000039
:1048c00000000000c60a00004a00000002000000cc
:1048d0000000210015110e000d0c0b000b0a0a0040
:1048e0000909090009090800080808000808080063
:1048f0000707070007070700070707000707070064
:104900000730310032333400353637003839610032
:10491000626364006566670068696a006b6c6d00bd
:104920006e6f70007172730074757600777879001d
:084930007a0000000000000005
:020000040000fa
:044938000000fe007d
:00000001FF
