:020000040000fa
:080000000001040000000000f3
:020000040000fa
:100200002f8f200080bf2000000188000000000028
:10021000050007000c000700de01020000000000de
:100220000040da000000fe004440a900400e20001b
:100230000000e0000300320000002000a001880060
:100240004440a80000000600a03121000100200069
:100250001600370062004000e080480091018800ed
:100260009001ba0062004000e080480091018800df
:100270009002ba0062004000e08048000002eb00fb
:100280006028e10005003a008301e900070033001f
:10029000038009000059eb00040037006128e100e9
:1002a000010032000082eb00050007009101880088
:1002b0001001ba000200e000e6ff3a00000005006d
:1002c000910188008002780062004000e0804800d0
:1002d0003559ba008301e900080032002559ba00f7
:1002e0008301e900050032000400e000f4ff320061
:1002f00015d9ba008301e900f1ff3a0000000600b9
:1003000080007800010037000000e8001004e000e1
:10031000fdff3a00010050000000060000027800d6
:100320008001780001003700815978000200420006
:10033000808f5100fcff3a000400780000000600a6
:10034000839f68000100e00002003d006000100093
:10035000e08018000300e00002003d006001110091
:10036000e0811900050007004f00e00002003b009b
:1003700060001000e0801800000006006022b80055
:10038000060220000000d0008180d2000482d2004a
:100390008582d2000000a0000202520083825a002f
:1003a00003003b000202420083824a000000a100d9
:1003b0000603e900f3ff3a00000006001000fa000f
:1003c0006000b80030079800410798006000b8004e
:1003d00010079800210798000040eb00004f7800bc
:1003e000820007008900070097000700a5000700aa
:1003f000b5000700ea000700ca02a80024010700b0
:1004000000b0240009010700160807006000b800ca
:1004100010079800210798000040eb00d4e8b700cf
:100420000040eb00d4e8b7000000370090c8bf00e0
:100430000004e000fdff320091c8bf000040e8006a
:1004400091e8b7000040eb0090e8b70091c8bf000a
:100450000080fb00700798007e009000e30f5000c2
:100460001b0032007e009000e30f500007003c00ac
:100470007e009000e10f5000ecff32007e00900003
:10048000e20f500008003200e8ff37007e009000c5
:10049000e40f5000180032007e009000e50f50007d
:1004a00044003200e1ff370001c8bf000004e00053
:1004b000deff32000040eb0001e8b700218220009f
:1004c000914078002080200011030700d7ff3700fb
:1004d00034c8bf000004e000d4ff32000040eb004d
:1004e00034e8b7003600070051c0b300208920006f
:1004f0000a010700cdff37001e80fb00600798004f
:100500006e009000ea0f5000280032006e0090004c
:10051000f40f5000230032006e0090000000e00055
:100520000100320021003700c8c8bf000000fb00f6
:1005300000004000000040000000400000004000bb
:1005400000004000000040000000400000004000ab
:1005500080007800c9c8bf000000fb000080400098
:1005600060438800cac8bf000000fb0000004000d4
:10057000000040000000400000004000000040007b
:1005800000004000000040000000400080007800b3
:10059000cbc8bf000000fb00008040007043880013
:1005a000020037000040eb00004f78001e4fe800cb
:1005b0009eff37000040eb0091e8b7009bff37003b
:1005c0000000fa008bc8bf0093e8b7008cc8bf00da
:1005d00094e8b7008dc8bf0095e8b7008ec8bf008b
:1005e00096e8b7000080fa00000006000000fa005c
:1005f000de62a900dec2a900de42a800de62a90018
:10060000c602a9000080fa00000006000000fa00ff
:100610000040eb008be8b7000040eb008ce8b7002f
:100620000040eb008de8b7000040eb008ee8b7001b
:100630000040eb008fe8b7000040eb0032e8b70065
:100640000080fa00000006000000fa000080eb00c5
:10065000100888008c60a8000421a9004110200027
:100660009140780000c3b30000c0700004e1b700ff
:100670000000eb000008880005e1a9000080fa00f6
:10068000000006000000fa008007200060088800d3
:100690008cc0a8001021a900011120009140780011
:1006a000f0ccb30000c0600010e1b7000000eb0028
:1006b000300888000040eb0090e8b70011e1a80086
:1006c0000080fa00000006000000fa000080fa0036
:1006d00000000600801f78000000fa008f00a900cb
:1006e0008700a90010c0b30000e8b700e010800048
:1006f000f0e8b7008f00a8000080fa004f007800f3
:10070000004006003600f800809fbe00829fbe00b9
:10071000849fbe00869fbe000000fa008460a9008e
:1007200032c8bf000004e000030032009100200046
:1007300070892000640107000080fa004f03be00aa
:100740004f02be004f01be004f00be003600f90050
:10075000004006003600f800809fbe00829fbe0069
:10076000849fbe00869fbe000000fa0084c0a900de
:1007700010c0b30090e8b700660107000000eb006e
:10078000300888000080fa004f03be004f02be0010
:100790004f01be004f00be003600f90000400600c9
:1007a0000000fa00c1a1a900c0c1bf006f406000f5
:1007b000c0e1b700011c20009140780030cfb300a9
:1007c00000c06000c0e1b700011c2000914078002b
:1007d000c0cfb30000c06000c0e1b700110e8000c0
:1007e0000000280000806000100e8800210e8000ac
:1007f0000000280000806000410620000100700019
:10080000200e8800c901a800c881a800c8a1a900bd
:10081000c8c1a900c801a900c821a900c841a900f0
:10082000c1e1a8000080fa00000006000200fa0002
:10083000000f78001742a90016c2a900612120000c
:100840009140780090cfb30000c0600016e2b7007e
:100850001602a9001e0078000000400000004000c1
:1008600000004000000040006101b800006829005d
:1008700081092000b2fe07000000e900f0108800a6
:1008800017e2a8008f00a8000080fa000000060010
:100890000000fa0020c2a9002342a9002322a900d7
:1008a00022c2a8002302a90022a2a80022e2a900d5
:1008b00022c2bf00c041b30022e2b70022c2bf0083
:1008c0003040b30022e2b7000080fa0000000600ca
:1008d0000400fa002047980021e2a8002e40900072
:1008e0000000fb002011880020118000004f7800dc
:1008f0000080fa00000006000400fa0010079800cb
:1009000021e2a8001e009000201188002011800024
:10091000004f78000080fa00000006000600fa0090
:1009200010079800414798000040eb00004f780006
:100930000040eb00004f78000b00370020c2bf00e2
:10094000624060000004e000fcff3a001e00fb0073
:10095000800078001e009000008040001040780069
:10096000dbff07001e4fe8004e4090009e4f100036
:10097000f2ff35000080fa00000006001200fa00c5
:10098000881f780070079800010f98000040eb0066
:10099000604798007e00900059fe0700504798007d
:1009a0000e08900056fe070040479800e7004700f9
:1009b000802a2900904878000100e8008040eb0080
:1009c000014878000000e8008040eb000148780012
:1009d0000000e8008040eb00014878000000e800db
:1009e0008040eb00014878000000e8008040eb0008
:1009f000014878000000e8008040eb0001487800e2
:100a00000040eb00104798000040eb00004f7800da
:100a10000040eb00604798002b00370020c2bf0069
:100a2000624060000004e000fcff3a006e4090006d
:100a30000000fb00800078007e00900000804000f5
:100a400010407800a2ff070020c2bf006140600094
:100a50000004e000fcff32006e4090000004e00063
:100a60000a00340020118000004f78006e40900092
:100a70000000fb00800078000e089000008040001d
:100a80000000e9001e4878000200370020118000b5
:100a9000104798000000eb00100798000300370093
:100aa0001e0090000000e800100798009e009000d3
:100ab000301f2000808f5000f9ff34006e409000fe
:100ac0000040e800604798006e4090000004fb0082
:100ad0007e0090000afe0700800f5400cfff39000f
:100ae0004f0478000080fa00000006000200fa00bf
:100af0002342a800ca02a900003028007eff070098
:100b00000000eb00000f7800010037001e0fe80026
:100b1000306a20009e0f1000fcff3400ca02a800bb
:100b20000000eb00000f7800010037001e0fe80006
:100b3000703e20009e0f1000fcff3400ca02a90086
:100b4000100020006cff07000000eb00000f780091
:100b5000010037001e0fe800306a20009e0f1000d1
:100b6000fcff3400ca02a8002342a9000000eb00e9
:100b7000000f7800010037001e0fe800f07022001f
:100b80009e0f1000fcff34000080fa0000000600f9
:100b90000200fa00004f780019c2bf0061406000f7
:100ba0000004e000fcff32001942a8001e00fb0018
:100bb000d01088000080fa00000006000c00fa0047
:100bc000204f9800002b2900104f78000e00e800fd
:100bd0008040eb00014878000000e8008040eb0016
:100be000014878000000e8008040eb0001487800f0
:100bf0000000e8008040eb00014878000000e800b9
:100c00008040eb00014878000000e8008040eb00e5
:100c1000014878000000e8008040eb0001487800bf
:100c20000000e8008040eb00014878000000e80088
:100c30008040eb000148780050cab300004f7800b4
:100c4000a0c5b3001047980030c0b30020479800fb
:100c500040c7b3003047980050c4b30040479800e5
:100c60002e489000504798002e4890000000fb004e
:100c7000c00bb0008000780000f02f000080600002
:100c80004800de0060479800c1cbb3002e489000ba
:100c900000c040008040780000c0eb0000c0600051
:100ca00070479800c0ccb300004f980030c3b30029
:100cb000104f9800a10020000e00780002000700ed
:100cc0000080fa00000006000600fa0010079800f5
:100cd000210798008f00a9000000eb00000f7800aa
:100ce000060037009e0078001e0090000080400043
:100cf00010407800a6ff07001e0fe8002e009000ad
:100d00009e0f1000f7ff39008f00a8000080fa0046
:100d1000000006000600fa0000c8bf000004e00062
:100d2000f90032000040eb0000e8b7007047800097
:100d3000200798002e009000e30f5000480032007a
:100d40002e009000e30f500007003e002e009000a0
:100d5000e10f50002a0032002e009000e10f5000f9
:100d600033003e000d0037002e009000e50f5000cc
:100d7000630032002e009000e50f5000590039004a
:100d80002e009000e60f5000800032002e009000f0
:100d9000e70f500092003200cc003700018f200096
:100da0009140780050cab30080cf5000d6003a007e
:100db0000000eb0060478800704780000000e800fa
:100dc00070478800d6c2bf000080fb000000d10041
:100dd000614060000004a20061406000614060006a
:100de00000414000612d200091407800d0cfb30039
:100df00000c0600002407000d6e2b700c2003700b9
:100e0000018f200091407800a0c5b30080cf500032
:100e100004003a00704780000000e8007047880036
:100e2000b90037000000eb0070478800b6003700bb
:100e3000f0c8bf008080fb00604780000080400059
:100e400060478800f0c8bf000080fb005047880062
:100e5000704780000000e80070478800aa00370053
:100e6000e8c8bf008080fb0050478000808f5000a2
:100e700018003100f0c8bf008080fb006047800090
:100e80000080400060478800e8c8bf000081fb0088
:100e9000f0c8bf00804078002080200000004100a2
:100ea00001487800e8c8bf000040e800e8e8b70063
:100eb000e8c8bf008080fb0050478000808f500052
:100ec00091003a00704780000000e80070478800f9
:100ed0008d003700704780000000e80070478800f0
:100ee00089003700f0c8bf000080fb002047880061
:100ef000704780000000e8007047880082003700db
:100f0000f0c8bf000080fb00304788002047800009
:100f100000004000000040000000400000004000d1
:100f200000004000000040000000400000004000c1
:100f30008000780030478000008040001047880023
:100f4000d6c2bf000080fb004200de0061406000ae
:100f50000004a20061406000614060000040400069
:100f600000414000612d200091407800b0cfb300d7
:100f700000c0600002407000d6e2b70070478000f9
:100f80000000e800704788005f003700018f2000f4
:100f900091407800c0ccb30080cf500007003a00e9
:100fa000704780000000e80070478800e8c8bf0074
:100fb0000040e900e8e8b700530037000000eb000c
:100fc000704788000000eb00604788000000eb00dd
:100fd000504788000040eb00e8e8b7004a003700bf
:100fe000018f20009140780030c3b30080cf5000c3
:100ff00027003a001147800060478000808f500032
:1010000014003a0010c0b30001e8b700d6c2bf0018
:101010000080fb004300de00614060000004a2008d
:1010200061406000614060000040400000404000be
:1010300000414000612d20009140780070cfb30046
:1010400000c0600002407000d6e2b7005047800048
:1010500022e8b7000000eb00704788000000eb00ba
:10106000504788000040eb00e8e8b7000000eb00c4
:10107000604788000000eb00204788000000eb007c
:10108000304788000000eb00104788001e00370042
:101090000000eb00704788000000eb00504788001c
:1010a0000040eb00e8e8b7000000eb006047880074
:1010b0000000eb00204788000000eb00304788006c
:1010c0000000eb00104788000f003700d6c2bf00b9
:1010d0000080fb004200de00614060000004a200ce
:1010e00061406000614060000040400000414000fd
:1010f000612d200091407800b0cfb30000c06000a7
:1011000002407000d6e2b7000080fa00000006003e
:101110009c00fa0040879800214f9900e4004700a6
:10112000002b2900904878000100e800f20120001f
:101130008000eb0079fc0700410220008e80400017
:10114000a02b290011000900b05878002101b1003e
:101150002001b100610320008e804000c02c2900d6
:1011600012000900b05878003101b1003001b1001f
:10117000910420008e804000f02d29000d00090010
:10118000b0587800e100b100e000b1007105200026
:101190008e804000d02e29000b000900b058780046
:1011a000c100b100c000b100310620008e804000b7
:1011b000902f29000c000900b0587800d100b10030
:1011c000d000b100010720008e804000603029006f
:1011d00012000900b05878003101b1003001b100af
:1011e0000000eb00000f7800310820008e804000e6
:1011f000002b2900904878000100e8008040eb00b7
:10120000014878000000e8008040eb0001487800c9
:101210000000e8008040eb00014878000000e80092
:101220008040eb00014878004e809000104078002c
:101230000000fb00508f980060042000de889000c2
:10124000808f5000b100320040052000de88900001
:10125000808f50000500320030042000de889000ae
:10126000808f5000cf013200e70137004e809000a0
:101270000000e800104078000000fb00408f98005c
:10128000d0042000ce889000808f5000870032006c
:10129000d0042000ce889000808f50000d003c00cc
:1012a00050042000ce889000808f50001f00320034
:1012b00060042000ce889000808f500063003200d0
:1012c00030042000ce889000808f50003d00320016
:1012d000cd01370010052000ce889000808f50008f
:1012e0002e00320010052000ce889000808f500024
:1012f00005003c0000052000ce889000808f500043
:1013000012003200c001370020052000ce88900076
:10131000808f500017003200a0052000ce8890007a
:10132000808f500031003200b70137004e809000ae
:101330000080e800104078008fe8b700ae489100c8
:101340004e809000e5030700af0137004e8090000b
:101350000080e800104078008be8b700ae489100ac
:101360004e809000dd03070010c0b30034e8b700e2
:10137000a50137004e8090000080e8001040780002
:101380008ce8b700ae4891004e809000d303070070
:1013900010c0b30034e8b7009b0137004e809000c6
:1013a0000080e800104078008de8b700ae4891005a
:1013b0004e809000c903070010c0b30034e8b700a6
:1013c000910137004e8090000080e80010407800c6
:1013d0008ee8b700ae4891004e809000bf03070032
:1013e00010c0b30034e8b700870137004e8090008a
:1013f0000080e8001040780023e8b7004e8090009d
:10140000630040001040780026e8b7004e8090004e
:10141000640040001040780029e8b7004e8090003a
:1014200065004000104078002fe8b7004e80900023
:1014300066004000104078002ce8b700ae489100ec
:101440004e809000a50307006f0137004e8090008a
:101450000080e8001040780024e8b7004e8090003b
:10146000630040001040780027e8b7004e809000ed
:1014700064004000104078002ae8b7004e809000d9
:10148000650040001040780030e8b7004e809000c2
:1014900066004000104078002de8b700ae4891008b
:1014a0004e8090008d030700570137004e8090005a
:1014b0000080e8001040780025e8b7004e809000da
:1014c000630040001040780028e8b7004e8090008c
:1014d00064004000104078002be8b7004e80900078
:1014e000650040001040780031e8b7004e80900061
:1014f00066004000104078002ee8b700ae4891002a
:101500004e809000750307003f0137004e80900029
:101510000000e800104078000000fb00308f9800c9
:1015200090042000be889000808f5000f9003200a7
:1015300090042000be889000808f50000d003c0079
:1015400070042000be889000808f50004d00320053
:1015500070042000be889000808f500018003c006e
:1015600050042000be889000808f50000e00320092
:101570002501370000052000be889000808f5000b4
:10158000b400320020052000be889000808f5000fb
:10159000ac003200d0042000be889000808f500044
:1015a000b100320018013700ae4891004e80900023
:1015b0004a03070010c0b30033e8b7001201370038
:1015c0004e8090000080e800104078000000fb0092
:1015d000208f9800d0042000ae889000808f5000ab
:1015e0001100320000052000ae889000808f50006e
:1015f0000500320030042000ae889000808f50003b
:101600000500320000013700ae4891004e80900086
:1016100032030700fc003700ae4891004e80900076
:101620002e030700f80037004e8090006300400052
:10163000104078000000fb00000040000000400067
:10164000000040000000400000004000000040009a
:101650000000400000004000800078004e809000b4
:1016600064004000104078000000fb000080400053
:10167000000f7800ae4891004e80900017030700dd
:10168000e10037004e8090000080e80010407800b4
:1016900056e8b7004e80900063004000104078008c
:1016a00057e8b7004e80900064004000104078007a
:1016b0000000fb000000400000004000000040006f
:1016c000000040000000400000004000000040001a
:1016d00000004000800078004e80900065004000cf
:1016e000104078000000fb0000804000c0428800ed
:1016f0004e80900066004000104078005ae8b70025
:101700004e80900067004000104078005ce8b70011
:101710004e80900068004000104078005de8b700ff
:101720004e80900069004000104078000000fb00ef
:1017300000004000000040000000400000004000a9
:101740000000400000004000000040000000400099
:10175000800078004e8090006a00400010407800c1
:101760000000fb0000804000f04288004e809000a6
:101770006b0040001040780060e8b7004e80900099
:101780006c0040001040780062e8b7004e80900086
:101790006c004000104078000000fb00108f9800a3
:1017a000800420009e889000808f50000500320049
:1017b000300520009e889000808f50001800320075
:1017c000910037004e8090006d004000104078007e
:1017d0000000fb000000400000004000000040004e
:1017e00000004000000040000000400000004000f9
:1017f00000004000800078004e8090006e004000a5
:10180000104078000000fb0000804000204388006a
:10181000ae4891004e809000b00207007a00370079
:101820004e8090006d004000104078000000fb00ea
:1018300020438800ae4891004e809000a702070028
:1018400071003700ae4891004e809000a30207005f
:101850006d0037004e8090000000e80010407800d6
:101860007a000700680037004e8090000080e80092
:10187000104078000000fb00008f98000005200059
:101880008e889000808f50001a00320000052000e2
:101890008e889000808f500005003c00600420007e
:1018a0008e889000808f50000a003200560037006a
:1018b000200520008e889000808f500009003200a3
:1018c000300520008e889000808f50000d0032007f
:1018d0004d003700ae4891004e8090007f02070017
:1018e00049003700ae4891004e8090007b0207000f
:1018f00045003700ae4891004e8090007702070007
:1019000041003700ae4891004e80900073020700fe
:101910003d0037004e8090000080e80010407800c5
:101920000000fb0070879800c0042000fe8090003b
:10193000808f500016003200c0042000fe8090000e
:10194000808f500009003c0020042000fe809000a1
:10195000808f50000e00320080042000fe80900036
:10196000808f50000a003200270037002005200039
:10197000fe809000808f500005003200a0052000fe
:10198000fe809000808f5000010032001e00370062
:101990004e8090000080e800104078002b00070087
:1019a000190037004e8090000000e80010407800d9
:1019b0000000fb006087980080042000ee8090000b
:1019c000808f50000500320040052000ee8090001e
:1019d000808f5000070032000b00370010c0b300aa
:1019e00032e8b7000000eb000008880005e1a8001d
:1019f000050037000040eb0032e8b7000000eb00c4
:101a00000008880005e1a9000000eb00100798001d
:101a1000080037009e0090004e80900080804000bb
:101a200010c0b300804878001e0090000000e8005d
:101a3000100798009e009000f00f2000808f50004b
:101a4000f4ff36000080fa00000006002800fa00cb
:101a500040679800e3004700002b29009048780079
:101a60000100e800f20120008000eb002bfa0700e3
:101a70000040eb00204798000000eb00000f7800ca
:101a8000e300470050cab30080487800e3004700f5
:101a9000a0c5b30090409800e300470040c7b300e2
:101aa000b040980063004700ce609000414098002d
:101ab0004e6090000080fb0030179800c0042000aa
:101ac000be109000808f50001a003200c004200029
:101ad000be109000808f500009003c0020042000c0
:101ae000be109000808f5000ea0032008004200079
:101af000be109000808f500068003200f501370062
:101b000020052000be109000808f5000c1013200df
:101b1000a0052000be109000808f50009f00320072
:101b200000052000be109000808f50002901320077
:101b3000e8013700e3004700c0c0b300a0409800b0
:101b400078c8bf008040780063004700514098008b
:101b500079c8bf008040780063004700614098006a
:101b6000d04380008000780000f02f0000806000eb
:101b70004800de0080407800630047007140980014
:101b8000d04380008040780000c0eb0080c060003f
:101b900063004700014898007cc8bf00804078007f
:101ba00063004700114898007ec8bf00804078005d
:101bb00063004700214898007fc8bf00804078003c
:101bc000630047003148980000448000800078009e
:101bd00000f02f00008060004800de0080407800a8
:101be000630047004148980000448000804078002e
:101bf00000c0eb0080c060006300470051489800bf
:101c000082c8bf00804078006300470061489800a8
:101c100020c0b30020479800090037002e409000f4
:101c20008080fb0063004700614078000080fb007b
:101c30001e0f40002e4090000040e8002047980012
:101c40002e409000ee4f5000f4ff360000f02f00c1
:101c50001e0060004800de008040780063004700fe
:101c6000714898001e0078008040780063004700ab
:101c700001509800e3004700c0ccb300905098009a
:101c8000e300470030c3b300a05098006300470052
:101c9000310120000cfc07008e013700e3004700f3
:101ca00070c0b300a04098003143800000f02f00c6
:101cb000008060004800de0080407800630047003c
:101cc0005140980030438000804078006300470016
:101cd00061409800818620009140780063004700b1
:101ce000714098005143800000f02f000080600098
:101cf0004800de00804078006300470001489800fb
:101d000050438000804078006300470011489800ed
:101d100020c0b30020479800090037002e409000f3
:101d20008080fb0063004700614078000080fb007a
:101d30001e0f40002e4090000040e8002047980011
:101d40002e409000e94f5000f4ff360000f02f00c5
:101d50001e0060004800de008040780063004700fd
:101d6000214898001e0078008040780063004700fa
:101d700031489800e3004700c0ccb300c048980049
:101d8000e300470030c3b300d04898006300470029
:101d9000e1002000ccfb07004e013700e3004700c4
:101da00080c0b300a0409800c8c8bf008040780041
:101db0006300470051409800c9c8bf0080407800c8
:101dc0006300470061409800cac8bf0080407800a7
:101dd0006300470071409800cbc8bf008040780086
:101de0006300470001489800d4c8bf0080407800d5
:101df0006300470011489800d5c8bf0080407800b4
:101e0000630047002148980020c0b3002047980095
:101e1000090037002e4090008080fb0063004700df
:101e2000614078000080fb001e0f40002e409000b3
:101e30000040e800204798002e409000ea4f5000f4
:101e4000f4ff360000f02f001e0060004800de00a6
:101e50008040780063004700314898001e007800f9
:101e6000804078006300470041489800e300470045
:101e7000c0ccb300d0489800e300470030c3b300a3
:101e8000e048980063004700f10020008efb070047
:101e900010013700e300470080c0b300a040980065
:101ea000904380008000780000f02f0000806000e8
:101eb0004800de00804078006300470051409800f1
:101ec000904380008040780000c0eb0080c060003c
:101ed0006300470061409800a043800080007800c4
:101ee00000f02f00008060004800de008040780095
:101ef0006300470071409800a04380008040780054
:101f000000c0eb0080c060006300470001489800fb
:101f1000b04380008000780000f02f000080600057
:101f20004800de00804078006300470011489800b8
:101f3000b04380008040780000c0eb0080c06000ab
:101f4000630047002148980020c0b3002047980054
:101f5000090037002e4090008080fb00630047009e
:101f6000614078000080fb001e0f40002e40900072
:101f70000040e800204798002e409000ea4f5000b3
:101f8000f4ff360000f02f001e0060004800de0065
:101f90008040780063004700314898001e007800b8
:101fa000804078006300470041489800e300470004
:101fb000c0ccb300d0489800e300470030c3b30062
:101fc000e048980063004700f10020003efb070056
:101fd000c0003700e300470050c1b300a0409800a4
:101fe00078c8bf00804078006300470051409800e7
:101ff00079c8bf00804078006300470061409800c6
:10200000d04380008000780000f02f000080600046
:102010004800de008040780063004700714098006f
:10202000d04380008040780000c0eb0080c060009a
:1020300063004700014898007cc8bf0080407800da
:1020400063004700114898007ec8bf0080407800b8
:1020500063004700214898007fc8bf008040780097
:1020600063004700314898000044800080007800f9
:1020700000f02f00008060004800de008040780003
:102080006300470041489800004480008040780089
:1020900000c0eb0080c0600063004700514898001a
:1020a00082c8bf0080407800630047006148980004
:1020b0003144800000f02f00008060004800de0006
:1020c00080407800630047007148980030448000e9
:1020d0008040780063004700015098004144800030
:1020e00000f02f00008060004800de008040780093
:1020f0006300470011509800404480008040780001
:1021000063004700215098009043800080007800d1
:1021100000f02f00008060004800de008040780062
:102120006300470031509800904380008040780061
:1021300000c0eb0080c06000630047004150980081
:10214000b04380008000780000f02f000080600025
:102150004800de008040780063004700515098003e
:10216000b04380008040780000c0eb0080c0600079
:102170006300470061509800a188200091407800da
:10218000630047007150980020c0b30020479800ba
:10219000090037002e4090008080fb00630047005c
:1021a000614078000080fb001e0f40002e40900030
:1021b0000040e800204798002e409000f74f500064
:1021c000f4ff360000f02f001e0060004800de0023
:1021d0008040780063004700015898001e00780096
:1021e000804078006300470011589800e3004700e2
:1021f000c0ccb300a0589800e300470030c3b30040
:10220000b058980063004700c1012000aefa0700f3
:1022100030003700e300470040c0b300a040980002
:102220002144800000f02f00008060004800de00a4
:1022300080407800630047005140980020448000af
:1022400080407800630047006140980020c0b300e0
:1022500020479800090037002e4090008080fb0046
:1022600063004700614078000080fb001e0f4000c3
:102270002e4090000040e800204798002e4090003b
:10228000e64f5000f4ff360000f02f001e00600003
:102290004800de00804078006300470071409800ed
:1022a0001e007800804078006300470001489800d5
:1022b000e3004700c0ccb30090489800e30047001b
:1022c00030c3b300a048980063004700b10020006d
:1022d0007dfa07000080fa00000006002800fa00de
:1022e0002017980061679800e3004700002b290041
:1022f000904878000100e800f20120008000eb0027
:1023000006f807000040eb00204798000000eb00b3
:10231000000f7800e300470050cab30080487800ff
:10232000e3004700a0c5b300904098006e609000a5
:102330000040e8008040780063004700214098009a
:1023400063004700204090000080fb00000f7800f1
:10235000e300470060c0b300b040980040c0b30045
:1023600020479800150037002e4090000081fb00a8
:102370002e4090000080fb00800078002e1090001e
:1023800000804000640050001040780080407800d9
:1023900063004700017178002e4090008080fb00b0
:1023a00063004700614078000080fb001e0f400082
:1023b0002e4090000040e800204798002e409000fa
:1023c0008080fb006e6090000000fb006400400015
:1023d000808f5000e4ff35002e4090000081fb000c
:1023e00000f02f001e0060004800de0080407800f2
:1023f00063004700017178002e4090000080fb00d0
:102400000001e8001e00780080407800630047006b
:10241000017178002e4090000080fb000081e800f0
:10242000e3004700c0ccb30000f178002e409000dc
:102430000080fb0063014000e300470030c3b300ad
:1024400000f178006e6090000000fb006800400022
:1024500080007800630047001bfa07000080fa0044
:10246000000006000000fa0000c3b30056e8b70001
:10247000e0c1b30057e8b7000000eb00c04288009d
:10248000e0c4b3005ae8b700c0c7b3005ce8b700c7
:10249000e0c1b3005de8b7000000eb00f042880047
:1024a00070c5b30060e8b70000c3b30078e8b700b8
:1024b000e0c1b30079e8b7000000eb00d04388002a
:1024c000e0c4b3007ce8b700c0c7b3007ee8b70043
:1024d000e0c1b3007fe8b7000000eb0000448800d3
:1024e00070c5b30082e8b7000000eb0030438800fd
:1024f0000040eb0068e8b7000000eb0050438800a4
:102500000000eb00604388000000eb00704388008f
:102510000000eb00804388004006200090438800c4
:102520000000eb00a043880040012000b043880079
:102530000000eb00304488000000eb0040448800bd
:1025400000c0eb008ae8b7000080fa000000060037
:020000040000fa
:10000800aa130000aa130000aa130000aa130000f4
:10001800aa130000aa130000aa130000aa130000e4
:10002800aa130000aa130000aa130000820300000c
:10003800aa130000aa130000aa030000aa130000d4
:10004800aa130000aa130000aa130000aa130000b4
:10005800aa130000aa130000aa130000aa130000a4
:10006800aa130000aa130000aa130000aa13000094
:10007800aa130000aa130000aa130000aa13000084
:100088006a030000aa130000aa130000aa130000c4
:10009800aa130000aa130000aa130000aa13000064
:1000a800aa130000aa130000aa130000aa13000054
:1000b800aa130000aa130000aa130000aa13000044
:1000c800aa130000aa130000aa130000aa13000034
:1000d800aa130000aa130000aa130000aa13000024
:1000e800aa130000aa130000aa130000aa13000014
:0800f800aa130000aa13000086
:020000040000fa
:10010800aa130000aa130000aa130000aa130000f3
:10011800aa130000aa130000aa130000aa130000e3
:10012800aa130000aa130000aa130000820300000b
:10013800aa130000aa130000aa030000aa130000d3
:10014800aa130000aa130000aa130000aa130000b3
:10015800aa130000aa130000aa130000aa130000a3
:10016800aa130000aa130000aa130000aa13000093
:10017800aa130000aa130000aa130000aa13000083
:100188006a030000aa130000aa130000aa130000c3
:10019800aa130000aa130000aa130000aa13000063
:1001a800aa130000aa130000aa130000aa13000053
:1001b800aa130000aa130000aa130000aa13000043
:1001c800aa130000aa130000aa130000aa13000033
:1001d800aa130000aa130000aa130000aa13000023
:1001e800aa130000aa130000aa130000aa13000013
:0801f800aa130000aa13000085
:020000040000fa
:10255000000000000000000000000000000000007b
:10256000000000000000000000000000000000006b
:102570000000000050610000636b00006574000003
:102580002052000065630000656900007665000068
:10259000643a000020000000456e000067690000fa
:1025a0006e65000020520000504d000020730000b6
:1025b00065740000207400006f20000000500000cf
:1025c00069740000636800002073000065740000f7
:1025d000207400006f2000000059000061770000a7
:1025e0002073000065740000207400006f2000005c
:1025f000005200006f6c00006c200000736500004a
:1026000074200000746f000020000000436f000081
:102610006c6c000065630000746900007665000062
:102620002073000065740000207400006f2000001b
:0426300000000000a6
:020000040000fa
:102634009208000036000000020000005001010072
:102644000101a5005a02430006004500cc334100b5
:102654000101010001010100004701000101010025
:102664000043010001004f00010100005601010078
:102674000101000054010100005201000100530057
:1026840001010000560800003c00000000000000aa
:10269400c80800001a00000002000000000000004a
:1026a4000000000000000000000000000000000026
:1026b4000000000000000000000000000000000016
:1026c40000080000560000000200000000000000a6
:1026d40000000000000000000000000000000000f6
:1026e40000000000000000000000000000000000e6
:1026f40000000000000000000000000000000000d6
:1027040000000000000000000000000000000000c5
:1027140000000000000000000000000000000000b5
:1027240000000000000000000000000000000000a5
:102734000000000000000000000000000000000095
:10274400e20800001000000000000000000000008b
:020000040000fa
:042754000000fe0083
:00000001FF
