:020000040000fa
:080000000001040000000000f3
:020000040000fa
:100200006fb1200080bf20000001880000000000c6
:10021000050007000c000700d806020000000000df
:100220000040da000000fe004440a9000007200062
:100230000000e0000300320000002000a001880060
:100240004440a80000000600c04622000100200033
:100250001600370062004000e080480091018800ed
:100260009001ba0062004000e080480091018800df
:100270009002ba0062004000e08048000002eb00fb
:100280006028e10005003a008301e900070033001f
:10029000038009000059eb00040037006128e100e9
:1002a000010032000082eb00050007009101880088
:1002b0001001ba000200e000e6ff3a00000005006d
:1002c000910188008002780062004000e0804800d0
:1002d0003559ba008301e900080032002559ba00f7
:1002e0008301e900050032000400e000f4ff320061
:1002f00015d9ba008301e900f1ff3a0000000600b9
:10030000a20020008000eb00100037008000780081
:10031000010037000000e8001004e000fdff3a0093
:100320000100500000000600000278008001780003
:10033000010037008159780002004200808f51008f
:10034000fcff3a000400780000000600ec8747003c
:10035000889fbe008a9fbe008c9fbe008e1f7800c3
:10036000f0b79f0081bf9f008204780000047800ee
:10037000010037000804e800184778000e00fb0071
:10038000860007000000e000faff3a00d0c2b30088
:10039000804f57000500320000c0e900804f570031
:1003a0000200320000477800010037000804e8002e
:1003b0000900e00045003500e18f540043003200a1
:1003c00040022000808f540040003c000900e00003
:1003d0000e003400f08f54001a003a0000c3b3003e
:1003e000984f100016003a009840900080c7b30064
:1003f00080cf50000300320080c5b30080cf500092
:100400000f003a000884e8000e003700a900200021
:1004100000c3b300984f10000a003a0098409000c3
:1004200080c7b30080cf5000040032008900200054
:1004300080c5b30080cf500002003a000884e80075
:100440000901200008057800010037000a05e800ce
:1004500000c3b3009a4f1000fcff32008a057800f9
:100460006066b8000e003700d0aa2000004252009b
:10047000c4ef9f006149b9000c00be0046020700ae
:100480004fea97000401fb00cf91de008b05e800e6
:10049000ccb79f00ddb79f00000641008186490070
:1004a0001b00fb0045000700800078000901780070
:1004b000d0aa200048000700000278000000e000f9
:1004c000e9ff3a008b0f540006003a000fb897007e
:1004d0000000e00029003200ffb09700010878001a
:1004e000260037008a80550080a8200069407800e7
:1004f0000000fb0000805000160033004240a900bd
:100500000f003c004fe997000200fb00cf80de00a7
:100510000000560081805e00800f5600818f5e00d3
:10052000070039006149b9009d0107004fb19700ec
:10053000dfb19700820f5000838f58000500320012
:1005400020022000a05888000086eb008086eb0087
:1005500005003700d0c2b300804f570002003a00b8
:1005600060061600e0861e008fb997000300e000c9
:10057000030032008b097800010037006066b80084
:100580000c00be004f0778004f06be004f05be00ae
:100590004f04be00cf00b100000006006900e1007a
:1005a000040035006d00e100030034000002b100da
:1005b00001003200000005001000050080007800f6
:1005c0001104b100030035009101b10001003c00ad
:1005d0000050a000000006008201780004003700ef
:1005e00090cf1000050032000000e8008301e90010
:1005f0000300e000faff3a000000eb0000000600f4
:10060000839f68000100e00002003d0060001000d0
:10061000e08018000300e00002003d0060011100ce
:10062000e08119005e0107004f00e00002003b007e
:1006300060001000e080180000000600889fbe00e7
:100640008a9fbe00010578000100e000040035002b
:1006500008003c000000e0002000320005003700e8
:1006600060001000e080180002003b0001f02c0048
:100670001a0037000004be006011b8006b092000aa
:100680000982cf00020039000882cf000441b00087
:10069000694252000e00320008003b008281710066
:1006a000610164008904d1000884d3008b05e8004f
:1006b0000442e800f9ff3a0005003700080444004e
:1006c00089844c008b05e9000442e900fbff3a00f5
:1006d000430107000af0a70001f0a0004f05be008b
:1006e0004f04be00000006000001be0062010700ca
:1006f0000470a70003f0a1006509b10016003200e4
:100700000d0035006828e10006003500f0ff2f00dd
:10071000f1ff27000300e00013003b000100280068
:100720000000050000004000818048008502e900cb
:10073000fcff3a0008003700f88f420002003c003e
:100740008000eb00000005008100d1000080d30094
:100750008502e800fcff3a000300e00002003b00d5
:1007600060001000e080180000000600889fbe00b6
:100770008a9fbe008c1f7800540107005b01330084
:1007800003866c006450e1002e0032006420e1001a
:10079000330032006150e1002f0032006120e1009f
:1007a0003100320085855500eb07b00009002000bc
:1007b00008042000050037000804440089844c0028
:1007c0000a0031000603430087834b0000015300f9
:1007d00081815b00f8ff33000203be000800a00027
:1007e0000804440089844c00f6ff3900c639dd0056
:1007f0008301730001003200130020008904d1003e
:100800000884d3000998a300050032000800a7005f
:100810000300a0008904d1000884d3008b05e80000
:100820008904d1000884d3000001eb000281d200ca
:10083000eb00070001f0a1000cf0a70001f0a00000
:10084000330137006420e100350132000801be00a9
:100850000200be00f7ff37006120e10030013200e6
:100860006000b800f3ff37000000200001f8270007
:10087000f0ff370003f0a200889fbe008a9fbe00f1
:100880008c1f780011010700180133006450e1004b
:100890004f0032006420e1005200320003826c00fd
:1008a00007003b000905d0000306d000820f54006a
:1008b0000c065d0002003900020032008901780058
:1008c000030678008582550004003d000003fd000a
:1008d0008103fd008502ea008b854200840f7200cf
:1008e00002003b0060001000e08018006011b800ba
:1008f0000005eb007a28e1000a00390006007800c4
:10090000c75ddd00f707b200878075002d00370056
:10091000828171000a017800610560008180d10048
:100920000080d3008502e900f9ff3b000604400087
:100930008784480002003b0060041400e0841c002f
:100940000988a300070032008a817100828171004a
:10095000610164008904d1000884d3008b05e8009c
:10096000170037000978a30013003a000b00e000dd
:10097000130034008b05e9000804440089844c000e
:100980000a4474000978a3000d003a000b00e0004f
:10099000070034008b05e9000804440089844c00fa
:1009a00001003a000b0020000978a300f7ff320095
:1009b0000001eb0002003700828171000a0178001b
:1009c000870007000cf0a70001f0a000d00037005e
:1009d0006420e10002003a00838f6c00d0003300f5
:1009e0000801be000200be00c9003700889fbe009b
:1009f0008a9fbe008c1f7800b4000700bb00330044
:100a000003866c006450e100240032006420e100a1
:100a1000270032006150e100220032006120e10035
:100a2000210032008b854200eb07b1000134b80091
:100a3000003ab8000804420089844a00013ab8002c
:100a40000030b8008880400009014a0004003300eb
:100a50000000400081804800020149008b05e90048
:100a6000c909dd008301700001003200130020007d
:100a7000c814de004814dd004709de001200b20091
:100a8000c808de00088470005500070001f0a100ce
:100a90000cf0a70001f0a0009d0037006120e100ec
:100aa0009f0032000801be000200be00f7ff3700c1
:100ab0006150e100fcff3a0099003700140020006b
:100ac0009a003700f4ff2f0098003700889fbe007f
:100ad0008a9fbe008c1f78000004be0066000700dd
:100ae0000478a30026003a006120e10025003200ce
:100af00009f8a30025003a006420e100210032003b
:100b0000f507b1000508a300020032000000400014
:100b1000818048006044b8000310200002002000db
:100b200000004000818048000805440089854c0091
:100b30000a0541008b8549000a0550008b85580045
:100b4000030033000a00be000204740083847400b2
:100b50008301d1000281d300830f7100f0ff3a00be
:100b60008904d1000884d300600149008201780023
:100b7000c1adde00fb07b0001900070064003700bc
:100b80000960a0000800be006100370012022000ca
:100b9000a2588800f0ff2f00f1ff27005c0037000b
:100ba0006022b800060220000000d0008180d20040
:100bb0000482d2008582d2000000a000020252000e
:100bc00083825a0003003b000202420083824a00f3
:100bd0000000a1000603e900f3ff3a000000060050
:100be00081002000618055000b003d000b002000bb
:100bf00061fe2f000100e1001d00340082817100c0
:100c0000610164008904d1000884d3000000e80079
:100c1000faff3a00710020006100640003007000d8
:100c2000020060000900320061044400e0844c00ce
:100c30000988a500050032008b05e8006808e1007e
:100c400002003a008904d1000884d300f20f20008a
:100c50000258e10005003d00c75ddd00f907b20064
:100c60008980750008007800000006000bf8270056
:100c70008b00780000000500c70ade00f107b20013
:100c8000f50fb20008003200e1cf4200020032004e
:100c90000170a00024000500810f700001003200e7
:100ca0000408050044000500810f700002003a00ae
:100cb000140005008502e9000000400081c04800e2
:100cc000fcff3b000170a000240005000004be00f2
:100cd000e9ff07000003be000405be000200be00dd
:100ce000e5ff0700844f7500000006000200be000b
:100cf0006450e100050036006420e1000200360087
:100d00000968a30001003a000800be000160a000cd
:100d10004f0678004f05be004f04be0000000600dd
:100d2000f0ff2f00f1ff2700f9ff3700889fbe007a
:100d30008a9fbe00841f7800e4ff07004f00780000
:100d400011003300f0ff2f00838f6c0006003b0082
:100d5000040565000a00a7000800370009f0a60096
:100d60001000200008003700820f5400838f5c00c1
:100d7000030039001000200001003e0000002000a8
:100d800009f0a7000000ea004f05be004f04be00b6
:100d90000000e00000000600020ab900001bb900d4
:100da0000200b800810042008100430000000600fc
:100db0005400fa00889fbe006000b8001017980029
:100dc000211798006000b800700f98000117980074
:100dd0006000b800500f9800610f98006000b800e4
:100de000300f9800410f98000000eb00400798007a
:100df0006000b80020079800310798000040eb0021
:100e000020479800710220008e80400040432a0055
:100e100009000900b0587800a100b100a000b1009d
:100e2000110320008e804000f0432a009048780093
:100e30000100e8008040eb00014878000000e80075
:100e40008040eb00014878000000e8008040eb00a3
:100e5000014878000000e8008040eb00014878007d
:100e60000000e8008040eb00014878000000e80046
:100e70008040eb0001487800810320008e80400014
:100e8000f0432a00904878008100e8000040eb0021
:100e9000804878000040eb0090409800b1032000ab
:100ea0008e804000f0432a00904878008100e800de
:100eb0000040eb00804878000040eb009040980034
:100ec000e10320008e804000f0432a009048780023
:100ed0000100e8008040eb00014878000000e800d5
:100ee0008040eb00014878000000e8008040eb0003
:100ef000014878000000e8008040eb0001487800dd
:100f0000310420008e804000f0432a009048780091
:100f10000100e8008040eb00014878000000e80094
:100f20008040eb00014878000000e8008040eb00c2
:100f300001487800710420008e804000f0432a00b0
:100f4000904878008100e8000040eb00804878007d
:100f50000040eb0090409800a10420008e804000eb
:100f6000f0432a00904878000100e8008040eb0040
:100f7000014878000000e8008040eb00014878005c
:100f80000000e8008040eb00014878000000e80025
:100f90008040eb0001487800f801070000b0240011
:100fa0009b020700160207002402070075020700d3
:100fb00011c0b3000040eb00ac0207005b0a070061
:100fc0000040eb003ceab700ca02a8006000b8008d
:100fd0001017980021179800060037001e10900087
:100fe000ae10900061004000e080480010179800ab
:100ff000211798001e119000ae119000f070220091
:1010000001002000800f5100818f5900f3ff340050
:10101000ca02a9006000b8001017980021179800b4
:10102000060037001e109000ae10900061004000d6
:10103000e080480010179800211798001e119000ba
:10104000ae119000f070220001002000800f5100ce
:10105000818f5900f3ff3400ca02a8000000370056
:10106000d6c2bf00614060000004a2006140600081
:1010700061416000612d200091407800e0cfb30015
:1010800000c0600002407000d6e2b700ddc9bf00ba
:101090000004e000060032000040eb00dde9b7008c
:1010a000e19f200091407800e09d2000a40407000b
:1010b00010cabf000004e00009003a001acabf00cd
:1010c0000004e000060032000040eb001aeab7001e
:1010d0009f01070051c0b300009720009f02070046
:1010e0001e109000ae10900061004000e0804800ab
:1010f00010179800211798001e119000ae11900053
:10110000803e200001002000800f5100818f590097
:10111000d3ff34005e089000ee08900061004000ac
:10112000e0804800500f9800610f98006000b80000
:101130001017980021179800de00900000fe27008d
:10114000008060004580de00500798005e0090003f
:101150006101b9007e0890008e10900000004100ef
:1011600081804900700f9800011798005e09900077
:10117000ee0990007e0890008e10900020fd070080
:10118000002f9800112f98000e2890009e289000a4
:10119000e00f5000e08f580006003d000e2990003f
:1011a0009e29900063014100e0814900022f9800d0
:1011b000132f98000e2990009e2990004e1add00f2
:1011c0004210de0000007200c298de00000f98009e
:1011d0005e099000ee09900040062000010020000a
:1011e000800f5100818f5900070034006000b80063
:1011f000500f9800610f98000e0890000100200029
:10120000700f98000117980021ad2000e097200092
:10121000750207000004e00051003200d2cabf008e
:101220000080fb0000004000000040000000400083
:1012300000004000000040000000400000004000ae
:101240000000400080007800d3cabf000080fb008f
:1012500000804000a0498800d4cabf000080fb0085
:10126000000040000000400000004000000040007e
:10127000000040000000400000004000000040006e
:1012800080007800d5cabf000080fb0000804000cd
:10129000b049880010cabf000004e00030003200ee
:1012a000b84e8000a0498000cf80de00e3fc07003c
:1012b000200c9800310c9800c24e800000002c00d9
:1012c000114424002009980031099800b14e800093
:1012d000008020007f0a0700c14e8000c0832000ec
:1012e0007c0a07008187200000a42000430c07002f
:1012f000fdfc070064e9b700b84e8000b0498000eb
:10130000cf80de00cdfc0700200c9800310c980047
:10131000c24e800000002c001144240020099800d7
:1013200031099800b14e800000802000690a070052
:10133000c14e8000c0832000660a0700818720001c
:1013400000a420002d0c0700e7fc070065e9b700aa
:10135000ff00070051c0b30000972000ff01070005
:10136000e1ad2000e09820001f0207000004e0002b
:101370000f003200decabf000080fb00000040000a
:10138000000040000000400000004000000040005d
:101390000000400000004000000040008000780095
:1013a000dfcabf000080fb0000804000c049880009
:1013b000decabf000080fb000000400000004000cb
:1013c000000040000000400000004000000040001d
:1013d000000040000000400080007800dfcabf002d
:1013e0000080fb0000814000d4cabf000080fb00e9
:1013f00000004000000040000000400000004000ed
:1014000000004000000040000000400000004000dc
:1014100080007800d5cabf000080fb0080814000ba
:10142000d2cabf000080fb00000040000000400066
:1014300000004000000040000000400000004000ac
:10144000000040000000400080007800d3cabf00c8
:101450000080fb00008040008300780078090700ce
:1014600021af2000009b2000df0107000004e00006
:101470003d00320021af2000914078008003200021
:101480000e0040000148780031af20009140780004
:10149000800320000e0040001140980041af200062
:1014a00091407800b00320000e0040000148780011
:1014b00051af200091407800b00320000e004000a2
:1014c0001140980071af200091407800e0032000a7
:1014d0000e0040000148780081af20009140780064
:1014e000e00320000e0040001140980091af200062
:1014f00091407800e00320000e0040002140980059
:10150000a1af200091407800e00320000e004000d1
:1015100031409800e00320000e00400078fb0700f7
:10152000cf80de0045fc07002007980031079800b7
:101530002e009000be0090006bfc07008004780035
:10154000b00320000e0040006dfb0700004478004f
:10155000800320000e00400069fb070009017800ad
:101560008840780042090700b1af2000b09b2000fe
:101570009d0107000004e00042003200b1af2000ee
:1015800091407800300420000e00400001487800af
:10159000c1af200091407800300420000e004000d0
:1015a00011409800d1af2000914078003004200015
:1015b0000e00400021409800e1af200091407800eb
:1015c000700420000e00400001487800f1af2000b8
:1015d00091407800700420000e00400011409800f7
:1015e00011b0200091407800a00420000e004000bf
:1015f0000148780021b0200091407800a00420002c
:101600000e0040001140980031b020009140780059
:10161000a00420000e0040002140980041b02000ae
:1016200091407800a00420000e0040003140980056
:10163000a00420000e00400031fb0700cf80de0038
:10164000fefb070020079800310798002e0090004d
:10165000be00900024fc0700800478007004200085
:101660000e00400026fb07000044780030042000f4
:101670000e00400022fb0700090178008840780036
:101680000709070001ae200020992000560107003d
:10169000e1b02000609820005301070012cbbf008a
:1016a0000080fb00000040000000400000004000ff
:1016b000000040000000400000004000000040002a
:1016c000000040008000780013cbbf000080fb00ca
:1016d0000081400010cbbf000080fb0000004000f4
:1016e00000004000000040000000400000004000fa
:1016f0000000400000004000000040008000780032
:1017000011cbbf000080fb00808140000ecbbf00ea
:101710000080fb000000400000004000000040008e
:1017200000004000000040000000400000004000b9
:1017300000004000800078000fcbbf000080fb005d
:101740000080400083007800e108070044fe370075
:101750000000fa005fc9bf0071e9b70060c9bf00af
:1017600072e9b70061c9bf0073e9b70062c9bf0081
:1017700074e9b7000080fa00000006000000fa00db
:10178000de62a900dec2a900de42a800de62a90076
:10179000c602a900c682a900d202a900dea2a90041
:1017a000d822a900c602a900d842a900dc42a8009c
:1017b000d882a900d8a2a900dca2a9000080fa0062
:1017c000000006000000fa000040eb005fe9b700ef
:1017d0000040eb0060e9b7000040eb0061e9b700b2
:1017e0000040eb0062e9b7000040eb0063e9b7009e
:1017f0000040eb000eeab7000080fa00000006008f
:101800000000fa0000002100100888008c60a80089
:101810000421a900411020009140780000c3b300ca
:1018200000c0700004e1b7000000eb000008880071
:1018300005e1a9000080fa00000006000000fa009f
:10184000c0072000600888008cc0a8001021a900f3
:101850000111200091407800f0ccb30000c060007e
:1018600010e1b7000000eb00300888000040eb00fa
:101870003deab70011e1a8000080fa000000060070
:101880000000fa000080fa00000006003600f800b0
:10189000809fbe00829fbe00849fbe00869fbe00c8
:1018a0000000fa008f00a9008700a90010c0b30053
:1018b000dce9b700e010800010e9b700af010700d5
:1018c0008f00a8000080fa004f03be004f02be0048
:1018d0004f01be004f00be003600f9000040060078
:1018e0003600f800809fbe00829fbe00849fbe002d
:1018f000869fbe000000fa008460a900d6c2bf0027
:10190000614060000004a20061406000614160002d
:10191000612d200091407800e0cfb30000c060004e
:1019200002407000d6e2b7000ecabf000004e0001b
:101930000300320091002000509720007c01070036
:101940000080fa004f03be004f02be004f01be00f0
:101950004f00be003600f90000400600801f7800ee
:101960000000fa0084c0a90010c0b3003deab7002f
:101970000000eb00300888000080fa004f0078007b
:10198000004006000000fa00a00e2000b00e880003
:10199000210e80000000280000806000e157200038
:1019a00001007000200e8800c1a1a900c0c1bf00c5
:1019b0006f406000c0e1b700c0c1bf00c040b300cd
:1019c000c0e1b700011c200091407800c0cfb300f7
:1019d00000c06000c0e1b700110e800000002800c8
:1019e00000806000100e8800c901a800c881a8000e
:1019f000c8a1a900c8c1a900c801a900c821a9009f
:101a0000c841a900c1e1a8000080fa00000006005a
:101a10000200fa00000f78001742a90016c2a900c0
:101a2000612120009140780090cfb30000c0600099
:101a300016e2b7001602a900f0002000f01088009e
:101a400017e2a8008f00a8000080fa00000006003e
:101a50000400fa00000f78002147980010c0b3007e
:101a60003ceab7000080fa00000006000200fa001d
:101a7000004f78001147980020c2a9001e4078004e
:101a80006140600061406000004040000041400053
:101a90003122200091407800b0cfb30000c0600038
:101aa0000240700023e2b7002322a90022c2a8004e
:101ab0001e409000614060006141600031222000c2
:101ac00091407800e0cfb30000c060000240700099
:101ad00023e2b70022a2a80022e2a90021222000ce
:101ae0009140780030ceb30000c0600022e2b70021
:101af0002122200091407800c0cfb30000c06000d8
:101b00000014a00022e2b7000080fa0000000600e6
:101b10000400fa002047980021e2a8002e4090001f
:101b20000000fb002011880020118000004f780089
:101b30000080fa00000006000400fa001007980078
:101b400021e2a8001e0090002011880020118000d2
:101b5000000f78000080fa00000006000800fa007c
:101b600020079800614798000040eb00204798004c
:101b70000040eb00204798001500370020c2bf004e
:101b8000624060000004e000fcff3a002e4090003c
:101b90000000fb00800078002e00900000804000d4
:101ba00010407800daff07000000eb00000f78001b
:101bb000010037001e0fe800301f20009e0f1000ac
:101bc000fcff34002e4090000040e80020479800c1
:101bd000ae4090006e40900080cf5000e7ff35008f
:101be0000080fa00000006001000fa00881f78004c
:101bf00060079800710798000040eb00404798008c
:101c0000e500470060442a00904878000100e800a1
:101c10008040eb00014878000000e8008040eb00c5
:101c2000014878000000e8008040eb00014878009f
:101c30000000e8008040eb00014878000000e80068
:101c40008040eb00014878000000e8008040eb0095
:101c5000014878000040eb00104798000040eb007e
:101c6000004f7800dc42a9000040eb00404798009c
:101c70002c00370020c2bf00624060000004e0007a
:101c8000fcff3a004e4090000000fb00800078000e
:101c90006e00900000804000104078009cff07001c
:101ca00020c2bf00614060000004e000fcff320081
:101cb0004e4090000004e0000b0034002011800032
:101cc000004f78004e4090000000fb00800078003c
:101cd0007e009000008040008000e9001e407800f7
:101ce00080487800020037002011800010479800db
:101cf0000000eb0010079800030037001e00900062
:101d00000000e800100798009e009000301f20009f
:101d1000808f5000f9ff34004e4090000040e800f2
:101d2000404798004e4090000004fb006e00900079
:101d300076f90700800f5400ceff3900dc42a8007e
:101d4000100020004f0478000080fa000000060018
:101d50000400fa000000eb00100798000000eb0000
:101d6000000f780021e2a90011c0b30010c0b30039
:101d70003eff070021e2a8000000eb00000f780002
:101d8000010037001e0fe800703e20009e0f10007b
:101d9000fcff3400dca2a8001e0090002011880087
:101da00020c2bf00614060000004e000fcff320080
:101db0002011800010079800dca2a9000000eb00b1
:101dc000000f7800010037001e0fe800703e200071
:101dd0009e0f1000fcff340021e2a9008040eb00c0
:101de0000040eb0021ff070021e2a8001e00900048
:101df0000080fa00000006000200fa00004f7800a0
:101e000019c2bf00614060000004e000fcff320026
:101e10001942a8001e00fb00d01088000080fa00c4
:101e2000000006000c00fa00204f9800e0442a0051
:101e3000104f78000e00e8008040eb000148780069
:101e40000000e8008040eb00014878000000e80056
:101e50008040eb00014878000000e8008040eb0083
:101e6000014878000000e8008040eb00014878005d
:101e70000000e8008040eb00014878000000e80026
:101e80008040eb00014878000000e8008040eb0053
:101e9000014878000000e8008040eb00014878002d
:101ea00050cab300004f7800a0c5b3001047980097
:101eb00030c0b3002047980040c7b30030479800b7
:101ec00050c4b300404798002e48900050479800f7
:101ed0002e4890000000fb00c00bb000800078008e
:101ee00000f02f00008060004800de00604798008e
:101ef000c1cbb3002e48900000c040008040780065
:101f000000c0eb0000c0600070479800c0ccb30078
:101f1000004f980030c3b300104f9800a10020007c
:101f20000e007800020007000080fa0000000600a2
:101f30000600fa0010079800210798008f00a900fa
:101f40000000eb00000f7800060037009e007800cc
:101f50001e0090000080400010407800a6ff07009f
:101f60001e0fe8002e0090009e0f1000f7ff3900b2
:101f70008f00a8000080fa00000006000600fa00aa
:101f8000dcc9bf000004e000eb0032000040eb00c1
:101f9000dce9b70070488000200798002e00900010
:101fa000e30f5000480032002e009000e30f500075
:101fb00007003e002e009000e10f50002a00320082
:101fc0002e009000e10f500033003e000d0037005e
:101fd0002e009000e50f5000630032002e009000ac
:101fe000e50f5000590039002e009000e60f500018
:101ff000710032002e009000e70f50008300320085
:10200000be003700019120009140780050cab30013
:1020100080cf5000c8003a000000eb006048880004
:10202000704880000000e80070488800d6c2bf00f9
:102030000080fb000000d100614060000004a200ad
:10204000614060006140600000414000612d20005f
:1020500091407800d0cfb30000c060000240700013
:10206000d6e2b700b400370001912000914078001b
:10207000a0c5b30080cf500004003a007048800033
:102080000000e80070488800ab0037000000eb005b
:1020900070488800a800370010c9bf008080fb008e
:1020a00060488000008040006048880010c9bf0080
:1020b0000080fb0050488800704880000000e80065
:1020c000704888009c00370008c9bf008080fb0072
:1020d00050488000808f50001800310010c9bf00a8
:1020e0008080fb00604880000080400060488800dd
:1020f00008c9bf000081fb0010c9bf008040780004
:10210000e09d2000000041000148780008c9bf00a0
:102110000040e80008e9b70008c9bf008080fb0064
:1021200050488000808f500083003a007048800043
:102130000000e800704888007f0037007048800089
:102140000000e800704888007b00370010c9bf001d
:102150000080fb0020488800704880000000e800f4
:10216000704888007400370010c9bf000080fb0071
:1021700030488800204880000000400000004000f7
:10218000000040000000400000004000000040004f
:1021900000004000000040008000780030488000cf
:1021a0000080400010488800704880000000e8006f
:1021b000704888006000370001912000914078004d
:1021c000c0ccb30080cf500007003a0070488000b8
:1021d0000000e8007048880008c9bf000040e9001e
:1021e00008e9b700540037000000eb007048880091
:1021f0000000eb00604888000000eb0050488800b9
:102200000040eb0008e9b7004b00370001912000c7
:102210009140780030c3b30080cf500028003a00ce
:102220001148800060488000808f500015003a00ff
:10223000cac2bf000080fb004400de0061406000b5
:102240000004a20061406000614060000040400066
:10225000004040000040400000414000a12c200010
:1022600091407800f0ceb30000c0600002407000e2
:10227000cae2b70010c0b300dde9b70050488000e3
:10228000fee9b7000000eb00704888000000eb009a
:10229000504888000040eb0008e9b7000000eb0060
:1022a000604888000000eb00204888000000eb0038
:1022b000304888000000eb00104888001e003700fe
:1022c0000000eb00704888000000eb0050488800d8
:1022d0000040eb0008e9b7000000eb006048880010
:1022e0000000eb00204888000000eb003048880028
:1022f0000000eb00104888000f003700d6c2bf0076
:102300000080fb004200de00614060000004a2008b
:1023100061406000614060000040400000414000ba
:10232000612d200091407800b0cfb30000c0600064
:1023300002407000d6e2b7000080fa0000000600fc
:102340002600fa00100f9800415798000000eb009b
:1023500040079800ec004700e0442a0090487800cd
:102360000100e8008040eb00014878000000e80030
:102370008040eb00014878000000e8008040eb005e
:10238000014878000000e8008040eb000148780038
:102390001e089000104078000000fb0020179800f5
:1023a00060042000ae109000808f5000d8003200f2
:1023b00040052000ae109000808f500005003200d4
:1023c00030042000ae109000808f50004202320096
:1023d0005d0237001e0890000000e8001040780001
:1023e0000000fb0010179800000520009e109000d0
:1023f000808f500048003200000520009e109000a1
:10240000808f500016003c00500420009e10900069
:10241000808f500023003200500420009e10900056
:10242000808f500005003c00300420009e1090007a
:10243000808f5000560032004302370060042000b5
:102440009e109000808f500073003200d004200056
:102450009e109000808f5000870032003a023700b3
:10246000200520009e109000808f50003400320024
:10247000200520009e109000808f50003a0035000b
:10248000a00520009e109000808f50004a0032006e
:10249000600620009e109000808f50008e00320059
:1024a000290237001e0890000080e80010407800e4
:1024b00063e9b7001e0890000080e8001040780033
:1024c0000000fb00cf80de005cf807000200250062
:1024d000337c2400a5f80700f226210033a823004e
:1024e000e5f8070010079800210798000268290006
:1024f000838124001e009000ae0090003bf907008d
:1025000079f80700b00e8800ce5090001e089000a9
:10251000a40407000c0237001e0890000080e800a9
:10252000104078005fe9b700ce5090001e08900080
:102530009c04070010c0b3001aeab700020237007b
:102540001e0890000080e8001040780060e9b700a5
:10255000ce5090001e0890009204070010c0b300f7
:102560001aeab700f80137001e0890000080e80062
:102570001040780061e9b700ce5090001e0890002e
:102580008804070010c0b3001aeab700ee01370054
:102590001e0890000080e8001040780062e9b70053
:1025a000ce5090001e0890007e04070010c0b300bb
:1025b0001aeab700e40137001e0890000080e80026
:1025c00010407800ffe9b7001e089000630040004b
:1025d0001040780002eab7001e0890006400400036
:1025e0001040780005eab7001e0890006500400022
:1025f000104078000beab7001e089000660040000b
:102600001040780008eab700ce5090001e089000f5
:1026100064040700cc0137001e0890000080e80029
:102620001040780000eab7001e08900063004000e8
:102630001040780003eab7001e08900064004000d4
:102640001040780006eab7001e08900065004000c0
:10265000104078000ceab7001e08900066004000a9
:102660001040780009eab700ce5090001e08900094
:102670004c040700b40137001e0890000080e800f9
:102680001040780001eab7001e0890006300400087
:102690001040780004eab7001e0890006400400073
:1026a0001040780007eab7001e089000650040005f
:1026b000104078000deab7001e0890006600400048
:1026c000104078000aeab700ce5090001e08900033
:1026d000340407009c0137001e0890000080e800c9
:1026e000104078000004e0000300320010c0b30086
:1026f00010eab700020037000040eb0010eab70014
:10270000ce5090001e089000260407008e0137006e
:102710001e0890000000e800104078000000fb0058
:1027200000179800800420008e109000808f5000c9
:102730006e003200800420008e109000808f5000c8
:102740000d003c00500420008e109000808f50003f
:1027500060003200700420008e109000808f5000c6
:1027600093003200300420008e109000808f5000c3
:102770001700320074013700d00420008e10900042
:10278000808f500005013200d00420008e10900090
:10279000808f500005003c00900420008e109000b7
:1027a000808f5000280132006701370000052000ab
:1027b0008e109000808f5000f30032002005200022
:1027c0008e109000808f5000eb0032005e013700c9
:1027d000ce5090001e089000f20307001e089000e3
:1027e0000080e800104078000000fb00000040007e
:1027f00000004000000040000000400000004000d9
:102800000000400000004000000040008000780010
:102810001e08900063004000104078000000fb009c
:1028200000804000905088001e0890006400400026
:10283000104078000000fb00000040000000400055
:102840000000400000004000000040000000400088
:102850000000400000004000800078001e0890004a
:1028600065004000104078000000fb000080400040
:10287000a05088001e0890006600400010407800bc
:102880000000fb000000400000004000000040008d
:102890000000400000004000000040000000400038
:1028a00000004000800078001e0890006700400093
:1028b000104078000000fb0000804000b05088000d
:1028c0001e089000680040001040780060479800a3
:1028d0001d013700ce5090001e089000b103070084
:1028e00010c0b3000feab700170137001e089000b0
:1028f0000080e800104078000000fb00700f980096
:10290000d0042000fe089000808f5000110032009b
:1029100000052000fe089000808f50000500320066
:1029200030042000fe089000808f50000500320027
:1029300005013700ce5090001e0890009903070053
:1029400001013700ce5090001e089000950307004b
:10295000fd0037001e089000630040001040780022
:102960000000fb00000040000000400000004000ac
:102970000000400000004000000040000000400057
:1029800000004000800078001e08900064004000b5
:10299000104078000000fb000080400040079800d5
:1029a000ce5090001e0890007e030700e60037001e
:1029b0001e0890000080e800104078000000fb0036
:1029c000904888001e089000630040001040780086
:1029d00014e9b7001e089000640040001040780021
:1029e0000000fb000000400000004000000040002c
:1029f00000004000000040000000400000004000d7
:102a000000004000800078001e0890006500400033
:102a1000104078000000fb0000804000b0488800b3
:102a20001e08900066004000104078001ce9b700c6
:102a30001e08900067004000104078000000fb0076
:102a4000f04888001e0890006800400010407800a0
:102a500020e9b7001e08900069004000104078008f
:102a60000000fb00000040000000400000004000ab
:102a70000000400000004000000040000000400056
:102a800000004000800078001e0890006a004000ae
:102a9000104078000000fb000080400010498800d2
:102aa0001e0890006b0040001040780028e9b70035
:102ab0001e0890006c004000104078002ae9b70022
:102ac0001e0890006c004000104078000000fb00e1
:102ad000600f980080042000ee089000808f500066
:102ae0000500320030052000ee089000808f500075
:102af00018003200940037001e0890006d0040005e
:102b0000104078000000fb00000040000000400082
:102b100000004000000040000000400000004000b5
:102b20000000400000004000800078001e08900077
:102b30006e004000104078000000fb000080400064
:102b400060498800ce5090001e08900015030700d1
:102b50007d0037001e0890006d0040001040780096
:102b60000000fb0060498800ce5090001e089000d5
:102b70000c03070074003700ce5090001e08900030
:102b800008030700700037001e0890000000e800ee
:102b900010407800dc0007006b0037001e08900032
:102ba0000080e800104078000000fb00500f980003
:102bb00000052000de089000808f50001a003200cf
:102bc00000052000de089000808f500005003c00ca
:102bd00060042000de089000808f50000a00320060
:102be0005900370020052000de089000808f50003b
:102bf0000900320030052000de089000808f500070
:102c00000d00320050003700ce5090001e0890009a
:102c1000e40207004c003700ce5090001e089000e0
:102c2000e002070048003700ce5090001e089000d8
:102c3000dc02070044003700ce5090001e089000d0
:102c4000d8020700400037001e0890000080e8000e
:102c5000104078000000fb00400f9800c0042000e6
:102c6000ce089000808f500016003200c004200073
:102c7000ce089000808f500009003c002004200006
:102c8000ce089000808f50000e003200800420009b
:102c9000ce089000808f50000a0032002a003700d2
:102ca00020052000ce089000808f500005003200e3
:102cb000a0052000ce089000808f50000100320057
:102cc000210037001e0890000080e80010407800c6
:102cd0008d0007001c0037001e0890000000e8006f
:102ce000104078000000fb00300f980080042000a6
:102cf000be089000808f5000050032004005200083
:102d0000be089000808f50000a0032000e0037008d
:102d1000910020005097200085fc070010c0b300f0
:102d20000eeab7000000eb000008880005e1a800eb
:102d3000050037000040eb000eeab7000000eb0092
:102d40000008880005e1a9000080fa0000000600e4
:102d50002800fa002017980061679800e3004700f8
:102d6000e0442a00904878000100e800f2012000c9
:102d70008000eb006cf507000040eb002047980056
:102d80000000eb00000f7800e300470050cab300da
:102d900080487800e3004700a0c5b3009040980049
:102da0006e60900000c0e80080407800630047003b
:102db00021409800e300470040c5b300b0409800b0
:102dc000e3004700d0cdb300c040980050c0b3002e
:102dd000204798000e0037002e4090000081fb0035
:102de0002e4090000080fb00800078002e109000a4
:102df000008040006500500090407800630047006c
:102e0000017178002e4090000040e80020479800b3
:102e10002e4090008080fb006e6090000080fb00e0
:102e200064004000808f5000ebff340020c0b300ee
:102e300020479800090037002e4090008080fb005a
:102e400063004700614078000080fb001e0f4000d7
:102e50002e4090000040e800204798002e4090004f
:102e60008080fb006e6090000080fb0064004000ea
:102e7000808f5000f0ff34006e6090000080fb00f7
:102e80006501400000f02f001e0060004800de00d9
:102e90008040780063004700017178006e60900008
:102ea0000080fb00660140001e0078008040780032
:102eb00063004700017178006e6090000080fb00a5
:102ec00067014000e3004700c0ccb30000f1780088
:102ed0006e6090000080fb0068014000e300470046
:102ee00030c3b30000f178006e6090000080fb00fa
:102ef0006900400080007800630047000cfc070078
:102f00000080fa00000006002800fa0040679800e0
:102f1000e3004700e0442a00904878000100e80000
:102f2000f20120008000eb00fff407000040eb00fe
:102f3000204798000000eb00000f7800e3004700f6
:102f400050cab30080487800e3004700a0c5b30032
:102f500090409800e300470040c7b300b04098009d
:102f600063004700ce609000414098004e609000a2
:102f70000080fb0030179800c0042000be109000b5
:102f8000808f50001a003200c0042000be10900054
:102f9000808f500009003c0020042000be109000eb
:102fa000808f5000f300320080042000be1090009b
:102fb000808f500062003200f801370020052000a9
:102fc000be109000808f5000c4013200a005200088
:102fd000be109000808f5000960032000005200047
:102fe000be109000808f500032013200eb0137009c
:102ff000e3004700c0c0b300a0409800004a800032
:1030000080407800630047005140980042c9bf00eb
:10301000804078006300470061409800214a8000aa
:1030200000f02f00008060004800de008040780043
:103030006300470071409800204a8000804078007b
:1030400063004700014898004ac9bf0080407800eb
:103050006300470011489800604a80008040780073
:1030600063004700214898004ec9bf0080407800a7
:103070006300470031489800814a800000f02f002b
:10308000008060004800de00804078006300470058
:1030900041489800804a80008040780063004700e3
:1030a0005148980056c9bf0080407800630047002f
:1030b0006148980020c0b3002047980009003700fd
:1030c0002e4090008080fb00630047006140780044
:1030d0000080fb001e0f40002e4090000040e800e2
:1030e000204798002e409000ee4f5000f4ff36002d
:1030f00000f02f001e0060004800de0080407800d5
:1031000063004700714898001e00780080407800f6
:103110006300470001509800e3004700c0ccb300b3
:1031200090509800e300470030c3b300a0509800cf
:1031300063004700310120007dfb07009701370045
:10314000e300470070c0b300a040980071498000c0
:1031500000f02f00008060004800de008040780012
:10316000630047005140980070498000804078001b
:10317000630047006140980001932000914078006f
:10318000630047007140980001ae20009140780034
:10319000630047000148980011ae2000914078007c
:1031a000630047001148980020c0b30020479800f2
:1031b000090037002e4090008080fb00630047002c
:1031c000614078000080fb001e0f40002e40900000
:1031d0000040e800204798002e409000e94f500042
:1031e000f4ff360000f02f001e0060004800de00f3
:1031f0008040780063004700214898001e00780056
:10320000804078006300470031489800e3004700a1
:10321000c0ccb300c0489800e300470030c3b300ff
:10322000d048980063004700e100200040fb070001
:103230005a013700e300470080c0b300a040980067
:10324000b04980008000780000f02f00008060000e
:103250004800de008040780063004700514098003d
:10326000b04980008040780000c0eb0080c0600062
:103270006300470061409800a0498000800078000a
:1032800000f02f00008060004800de0080407800e1
:103290006300470071409800a0498000804078009a
:1032a00000c0eb0080c06000630047000148980048
:1032b000c04980008000780000f02f00008060008e
:1032c0004800de0080407800630047001148980005
:1032d000c04980008040780000c0eb0080c06000e2
:1032e000630047002148980020c0b30020479800a1
:1032f000090037002e4090008080fb0063004700eb
:10330000614078000080fb001e0f40002e409000be
:103310000040e800204798002e409000ea4f5000ff
:10332000f4ff360000f02f001e0060004800de00b1
:103330008040780063004700314898001e00780004
:10334000804078006300470041489800e300470050
:10335000c0ccb300d0489800e300470030c3b300ae
:10336000e048980063004700f1002000f0fa0700f1
:103370000a013700e300470080c0b300a040980076
:10338000d04980008000780000f02f0000806000ad
:103390004800de00804078006300470051409800fc
:1033a000d04980008040780000c0eb0080c0600001
:1033b0006300470061409800e04980008000780089
:1033c00000f02f00008060004800de0080407800a0
:1033d0006300470071409800e04980008040780019
:1033e00000c0eb0080c06000630047000148980007
:1033f000f04980008000780000f02f00008060001d
:103400004800de00804078006300470011489800c3
:10341000f04980008040780000c0eb0080c0600070
:10342000630047002148980020c0b300204798005f
:10343000090037002e4090008080fb0063004700a9
:10344000614078000080fb001e0f40002e4090007d
:103450000040e800204798002e409000ea4f5000be
:10346000f4ff360000f02f001e0060004800de0070
:103470008040780063004700314898001e007800c3
:10348000804078006300470041489800e30047000f
:10349000c0ccb300d0489800e300470030c3b3006d
:1034a000e048980063004700f1002000a0fa070000
:1034b000ba003700e300470050c1b300a0409800b5
:1034c000004a800080407800630047005140980027
:1034d00042c9bf0080407800630047006140980007
:1034e000214a800000f02f00008060004800de00cc
:1034f000804078006300470071409800204a8000b7
:103500008040780063004700014898004ac9bf0026
:10351000804078006300470011489800604a8000ae
:103520008040780063004700214898004ec9bf00e2
:10353000804078006300470031489800814a80004d
:1035400000f02f00008060004800de00804078001e
:103550006300470041489800804a8000804078001e
:10356000630047005148980056c9bf00804078006a
:103570006300470061489800d14a800000f02f00a6
:10358000008060004800de00804078006300470053
:1035900071489800d04a800080407800630047005e
:1035a00001509800e14a800000f02f000080600088
:1035b0004800de008040780063004700115098000a
:1035c000e04a800080407800630047002150980066
:1035d000d04980008000780000f02f00008060005b
:1035e0004800de00804078006300470031509800ba
:1035f000d04980008040780000c0eb0080c06000af
:103600006300470041509800f04980008000780036
:1036100000f02f00008060004800de00804078004d
:103620006300470051509800f049800080407800c6
:1036300000c0eb0080c0600063004700615098004c
:10364000e195200091407800630047007150980098
:1036500020c0b30020479800090037002e4090009a
:103660008080fb0063004700614078000080fb0021
:103670001e0f40002e4090000040e80020479800b8
:103680002e409000f74f5000f4ff360000f02f005e
:103690001e0060004800de008040780063004700a4
:1036a000015898001e0078008040780063004700b1
:1036b00011589800e3004700c0ccb300a058980010
:1036c000e300470030c3b300b058980063004700e0
:1036d000c101200016fa070030003700e300470060
:1036e00040c0b300a0409800c14a800000f02f0005
:1036f000008060004800de008040780063004700e2
:1037000051409800c04a8000804078006300470024
:103710006140980020c0b30020479800090037009e
:103720002e4090008080fb006300470061407800dd
:103730000080fb001e0f40002e4090000040e8007b
:10374000204798002e409000e64f5000f4ff3600ce
:1037500000f02f001e0060004800de00804078006e
:1037600063004700714098001e0078008040780098
:103770006300470001489800e3004700c0ccb30055
:1037800090489800e300470030c3b300a048980079
:1037900063004700b1002000e5f907000080fa004f
:1037a000000006002800fa002017980061679800c2
:1037b000e3004700e0442a00904878000100e80058
:1037c000f20120008000eb00d7f207000040eb0080
:1037d000204798000000eb00000f7800e30047004e
:1037e00050cab30080487800e3004700a0c5b3008a
:1037f000904098006e6090000040e80080407800a3
:10380000630047002140980063004700204090007b
:103810000080fb00000f7800e300470060c0b300a9
:10382000b040980040c0b300204798001500370012
:103830002e4090000081fb002e4090000080fb0095
:10384000800078002e10900000804000640050003e
:1038500010407800804078006300470001717800d4
:103860002e4090008080fb0063004700614078009c
:103870000080fb001e0f40002e4090000040e8003a
:10388000204798002e4090008080fb006e609000e2
:103890000000fb0064004000808f5000e4ff350012
:1038a0002e4090000081fb0000f02f001e00600001
:1038b0004800de0080407800630047000171780016
:1038c0002e4090000080fb000001e8001e00780000
:1038d0008040780063004700017178002e4090001e
:1038e0000080fb000081e800e3004700c0ccb3008b
:1038f00000f178002e4090000080fb006301400042
:10390000e300470030c3b30000f178006e60900020
:103910000000fb0068004000800078006300470062
:1039200083f907000080fa00000006000000fa009a
:103930000003200090488800e0c1b30014e9b700fc
:103940000000eb00b0488800e0c4b3001ce9b700f9
:10395000b0072000f0488800e0c1b30020e9b700bc
:103960000000eb001049880070c5b30028e9b700db
:1039700000032000004a8800e0c1b30042e9b7001c
:103980000000eb00204a8800e0c4b3004ae9b70019
:10399000b0072000604a8800e0c1b3004ee9b700dc
:1039a0000000eb00804a880070c5b30056e9b700fc
:1039b0000000eb00704988000040eb0030e9b700e0
:1039c0000000eb00904988000000eb00a04988004f
:1039d0000000eb00b04988000000eb00c0498800ff
:1039e00040062000d04988000000eb00e049880034
:1039f00040012000f04988000000eb00d04a880018
:103a00000000eb00e04a880000c0eb005ee9b70070
:103a100020c3b3005fe9b70020c3b30060e9b7007b
:103a200020c3b30061e9b70020c3b30062e9b70067
:103a30000040eb0063e9b7000080fa0000000600d8
:103a40000600fa00000f780011079800220798007e
:103a50001e007800a04988001e009000b049880030
:103a60002e009000c04988000080fa000000060087
:103a70000400fa00004f78001147980012079800e0
:103a80001e00fb00004a88001e40900042e9b7007b
:103a90001e009000204a88000080fa000000060006
:103aa0000400fa00004f78001147980012079800b0
:103ab0001e00fb00604a88001e4090004ee9b700df
:103ac0001e009000804a88000080fa000000060076
:103ad0000600fa00000f78001107980022079800ee
:103ae0001e007800504b88001e009000604b88003c
:103af0002e009000704b88000080fa000000060045
:103b00001000fa00400798005107980062079800db
:103b100073079800214a80004e009000008040000a
:103b2000010020002007980031079800814a80009a
:103b30005e0090000080400001002000008fbe0069
:103b40002e019000be019000f070220001002000c4
:103b5000800f5100818f59000800340042c9bf0016
:103b60000040e80042e9b700ae009000008f2d0051
:103b700000804000204a88000f0037002e0090008f
:103b8000be009000e00f5000e08f580008003d009c
:103b900042c9bf000040e90042e9b700ae00900012
:103ba0000071220000804000204a88000200370097
:103bb0002e009000204a8800f070220001002000b2
:103bc000be0f1000ae8f1800080034004ec9bf00b1
:103bd0000040e8004ee9b7009e007800008f2d00fd
:103be00000804000804a88000f0037002e009000bf
:103bf000be009000e00f5000e08f580008003d002c
:103c00004ec9bf000040e9004ee9b7009e007800b1
:103c10000071220000804000804a880002003700c6
:103c20001e007800804a8800d04a8000ee00900094
:103c300001004000d04a88000080fa000000060021
:103c40001000fa00889fbe00008fbe002207980077
:103c500033079800440798005507980066079800b6
:103c6000770798006e019000fe0190003eb8970023
:103c7000ceb89700fff207000004be002e019000ae
:103c8000be0190004e009000de009000f9f20700a7
:103c90000001be000800be00b4f207000004be0030
:103ca0002e019000be0190001e00be00f1f2070040
:103cb0000001be000800be004cf307006e0190003a
:103cc000fe019000ecf207004f04be000080fa00f5
:103cd000000006000400fa00889fbe008a9fbe0014
:103ce000000f7800110798001e0190006000b800d6
:103cf0000089be001e0190006000b80020019800fd
:103d0000310198001e0190006000b8004001980049
:103d1000510198001e0190006000b80060019800f9
:103d2000710198001e0190006000b8000009980021
:103d3000110998001e009000200a9000b00a90001f
:103d40001e00780020019000b00190000400be0029
:103d50005af307000000e0000100350014003700ae
:103d60001e00780020019000b00190001e00780035
:103d70001005be001e009000200c9000b00c9000ba
:103d80000000200001f82300809fbe0006002000f4
:103d900007f823000202be000a01be000800be00b0
:103da000a7ff0700e48757001e0190000089be00ae
:103db0001e009000200a9000b00a90001e007800bb
:103dc00040019000d00190000400be003bf30700ca
:103dd0000000e000010035001f0037001e009000c9
:103de000200a9000b00a90001e0078002001900088
:103df000b00190000400be0032f307000000e000b4
:103e000001003d00140037001e00780040019000c2
:103e1000d00190001e00780020059000b0059000b1
:103e20001e009000200c9000b00c90006000b800c4
:103e3000809fbe000600200007f823000202be009b
:103e40000a01be000800be007dff0700e48757009e
:103e50001e0190000089be001e009000200a900004
:103e6000b00a90009e0078006c8040002001900015
:103e7000b00190000400be0010f307000000e00055
:103e800001003500210037001e009000200a90003c
:103e9000b00a90009e0078006c8040001001be00c7
:103ea0000400be0007f307000000e00001003d0031
:103eb000160037009e0078006c80400020019000c2
:103ec000b00190009e0078006c8040001005be009c
:103ed0001e009000200c9000b00c9000000020000c
:103ee00001f82300809fbe006033b8000202be00cc
:103ef0000a01be000800be0051ff0700e48757001a
:103f00001e01900020019800310198001e009000d1
:103f1000200a9000b00a90009e0078006c8040005b
:103f200040019000d00190000400be00e3f20700c1
:103f30000000e00001003500230037001e00900063
:103f4000200a9000b00a90009e0078006c8040002b
:103f500020019000b00190000400be00d9f20700db
:103f60000000e00001003d00170037009e007800cf
:103f70006c80400040019000d00190009e007800cd
:103f80006c80400020059000b00590001e0090005d
:103f9000200c9000b00c90006000b800809fbe0024
:103fa0000600200007f823000202be000a01be003e
:103fb0000800be0022ff0700e48757001e019000a2
:103fc00020019800310198001e009000200a900006
:103fd000b00a90009e007800788040002001900098
:103fe000b00190000400be00b4f207000000e00041
:103ff00001003500210037001e009000200a9000cb
:10400000b00a90009e007800788040001001be0049
:104010000400be00abf207000000e00001003d001c
:10402000160037009e007800788040002001900044
:10403000b00190009e007800788040001005be001e
:104040001e009000200c9000b00c9000000020009a
:1040500001f82300809fbe006033b8000202be005a
:104060000a01be000800be00f5fe0700e487570005
:104070001e01900040019800510198001e00900020
:10408000200a9000b00a90009e00780078804000de
:1040900040019000d00190000400be0087f20700ac
:1040a0000000e00001003500230037001e009000f2
:1040b000200a9000b00a90009e00780078804000ae
:1040c00020019000b00190000400be007df20700c6
:1040d0000000e00001003d00170037009e0078005e
:1040e0007880400040019000d00190009e00780050
:1040f0007880400020059000b00590001e009000e0
:10410000200c9000b00c90006000b800809fbe00b2
:104110000600200007f823000202be000a01be00cc
:104120000800be00c6fe0700e48757001e0190008d
:1041300040019800510198001e009000200a900054
:10414000b00a9000410220001e8040002001900033
:10415000b00190000400be0058f207000000e0002b
:1041600001003500210037001e009000200a900059
:10417000b00a9000410220001e8040001001be00e5
:104180000400be004ff207000000e00001003d0007
:1041900016003700410220001e80400020019000e0
:1041a000b0019000410220001e8040001005be00ba
:1041b0001e009000200c9000b00c90000000200029
:1041c00001f82300809fbe006033b8000202be00e9
:1041d0000a01be000800be0099fe0700e4875700f0
:1041e0001e01900060019800710198001e0090006f
:1041f000200a9000b00a9000410220001e8040007a
:1042000040019000d00190000400be002bf2070096
:104210000000e00001003500230037001e00900080
:10422000200a9000b00a9000410220001e80400049
:1042300020019000b00190000400be0021f20700b0
:104240000000e00001003d0017003700410220009f
:104250001e80400040019000d001900041022000eb
:104260001e80400020059000b00590001e009000c8
:10427000200c9000b00c90006000b800809fbe0041
:104280000600200007f823000202be000a01be005b
:104290000800be006afe0700e48757001e01900078
:1042a00060019800710198001e009000200a9000a3
:1042b000b00a9000010320001e8040002001900001
:1042c000b00190000400be00fcf107000000e00017
:1042d00001003500210037001e009000200a9000e8
:1042e000b00a9000010320001e8040001001be00b3
:1042f0000400be00f3f107000000e00001003d00f3
:1043000016003700010320001e80400020019000ad
:10431000b0019000010320001e8040001005be0087
:104320001e009000200c9000b00c900000002000b7
:1043300001f82300809fbe006033b8000202be0077
:104340000a01be000800be003dfe0700e4875700da
:104350001e01900000099800110998001e009000ad
:10436000200a9000b00a9000010320001e80400047
:1043700020019000b00190000400be00d1f10700c0
:104380000000e00001003d0018003700010320009c
:104390001e80400040019000d001900001032000e9
:1043a0001e80400020059000b00590001e00900087
:1043b000200c9000b00c90000000200001f82300b9
:1043c000809fbe000600200007f823000202be0006
:1043d0000a01be000800be0019fe0700e48757006e
:1043e0001e01900000099800110998004f05be00b9
:1043f0004f04be000080fa00000006003e00fa00f4
:10440000889fbe008a1f7800501f9800611f980087
:10441000ee00470080452a0009000900b018780026
:104420004101b1004001b1000040eb00504f980045
:104430000040eb00404f98000000eb00000f7800b8
:10444000770037000000200001f8230030079800b3
:1044500041079800430037005e4890000000fb00d1
:10446000800078006e1890000080400010407800b6
:104470000000fb007800b900800078005e18900012
:1044800000804000500798005e4890000040e8001f
:10449000504f98005e4890000000fb0080007800bc
:1044a0006e18900000804000104078000000fb0073
:1044b0000000400000004000800078005e00900096
:1044c000008040001001be001207980023079800ea
:1044d0005e4890000000fb00800078006e1890009d
:1044e00000804000104078000000fb000000400009
:1044f00000004000800078005e00900000804000d6
:104500001000be003e019000ce0190006bf107004c
:104510000000e000010035000f0037005e48900009
:104520000000fb00800078006e18900000804000c2
:10453000104078000000fb00000040000000400038
:10454000800078005e009000008040001001be00f6
:1045500032079800430798005e4890000040e8004a
:10456000504f98005e4890000000fb0080007800eb
:104570006e189000008040009040780090c5b30015
:1045800080cf5000b4ff3a005e4890000040e80041
:10459000504f98004e4890000040e800404f98006f
:1045a0005e4890000000fb00800078006e189000cc
:1045b00000804000104078000000fb00000f7800f1
:1045c0005e4890000040e800504f98001e057800bb
:1045d0001e007800ee004700000040000000400090
:1045e000010040001004be003e019000ce0190008a
:1045f0003e009000ce009000fcf007000001be00dd
:104600000800be009cf007000001be00ee0047005d
:104610000a00450000004000010040000288be0082
:104620004e489000f64f500086ff340020022000d4
:104630000e004000500798000040eb00504f9800db
:104640001a0037005e4890000000fb00ee004700b3
:104650000000400000004000010040001000be00cb
:104660001af1070010079800210798005e48900093
:104670000000fb00ee00470000004000000040008a
:10468000010040001000be0010f107005e01900024
:104690000089be005e009000640040005007980052
:1046a0005e4890000040e800504f98005e4890003f
:1046b000e44f5000e3ff34006000b800100798009a
:1046c00021079800200220000e0040001000be00cc
:1046d0006011b800c5f00700100798002107980086
:1046e000200220000e004000b0009000200090004a
:1046f00002002000831c2400bcf007000001be0063
:104700001e009000ae0090005bf0070010079800bc
:1047100021079800200220000e004000d0009000e9
:10472000400090000200200083242400aff0070026
:104730000001be001e009000ae0090004ef0070089
:104740001007980021079800200220000e0040006a
:10475000f000900060009000020020006329240017
:10476000a2f007000001be001e009000ae00900005
:1047700041f0070010079800210798002002200050
:104780000e004000900890000008900002002000f9
:10479000832c240095f007000001be001e0090004d
:1047a000ae00900034f00700100798002107980031
:1047b000200220000e0040001002be002002200057
:1047c0000e00400020019000b00190000400be00e7
:1047d00029f007000002be00200220000e00400069
:1047e00040019000d00190000400be0022f00700bc
:1047f0000002be00200220000e0040006001900078
:10480000f00190000400be001bf007000002be0093
:10481000200220000e004000000990009009900046
:104820000400be0014f007000001be001e0090004e
:10483000ae009000cdef0700100798002107980008
:104840001e009000ae009000a7ef0700000f780058
:104850001e009000ae0090004f0578004f04be008f
:084860000080fa0000000600d0
:020000040000fa
:100008003026000030260000302600003026000090
:100018003026000030260000302600003026000080
:10002800302600003026000030260000700c00004a
:100038003026000030260000ae0c000030260000fc
:100048003026000030260000302600003026000050
:100058003026000030260000302600003026000040
:100068003026000030260000302600003026000030
:100078003026000030260000302600003026000020
:10008800460c000030260000302600003026000014
:100098003026000030260000302600003026000000
:1000a80030260000302600003026000030260000f0
:1000b80030260000302600003026000030260000e0
:1000c80030260000302600003026000030260000d0
:1000d80030260000302600003026000030260000c0
:1000e80030260000302600003026000030260000b0
:0800f800302600003026000054
:020000040000fa
:10010800302600003026000030260000302600008f
:10011800302600003026000030260000302600007f
:10012800302600003026000030260000700c000049
:100138003026000030260000ae0c000030260000fb
:10014800302600003026000030260000302600004f
:10015800302600003026000030260000302600003f
:10016800302600003026000030260000302600002f
:10017800302600003026000030260000302600001f
:10018800460c000030260000302600003026000013
:1001980030260000302600003026000030260000ff
:1001a80030260000302600003026000030260000ef
:1001b80030260000302600003026000030260000df
:1001c80030260000302600003026000030260000cf
:1001d80030260000302600003026000030260000bf
:1001e80030260000302600003026000030260000af
:0801f800302600003026000053
:020000040000fa
:1048680030310000323300003435000036370000a4
:1048780038390000000000000000000000000000bf
:104888000000000000000000000000000000000020
:104898000000000000000000000000000000000010
:1048a8000000000000000000000000000000000000
:1048b80000000000000000000000000000000000f0
:1048c80000000000000000000000000000000000e0
:020000040000fa
:1048d800700900006c000000020000005001010097
:1048e8000101a5005a02430006004500cc334100ef
:1048f800010101000101010000470100010101005f
:104908000101000043010100004f010001005600b1
:1049180001010100010054000101000052010100e1
:104928000053010001004d000101010001010100d7
:10493800004c01000101010001010100010100001a
:104948004401010001010100010101000101010010
:1049580000550100010101000101010000420100b0
:1049680001000000400a58000a700a003c0a0000d2
:104978004c00000000000000d20a000042000000c5
:10498800020000000000000000000000000000001d
:10499800000000000000000000000000000000000f
:1049a80000000000000000000000000000000000ff
:1049b80000000000000000000000000000000000ef
:1049c80000000000000000000000000000000000df
:1049d800000000000000000000000000dc090000ea
:1049e800600000000200000000000000000000005d
:1049f80000000000000000000000000000000000af
:104a0800000000000000000000000000000000009e
:104a1800000000000000000000000000000000008e
:104a2800000000000000000000000000000000007e
:104a3800000000000000000000000000000000006e
:104a4800000000000000000000000000000000005e
:104a5800000000000000000000000000000000004e
:104a68000000000000000000020900006e000000c5
:104a78000000000000080000020100000200000021
:104a88000000200041000000dc43000080ea4300f1
:104a98000080dc0043000000eb43000080f9430085
:104aa8000080eb0043000000fa430000400444008b
:104ab8000080fa004300800004440000c00b44005a
:104ac80000c00400440000000c440000807744004b
:104ad800000080003f0000004144000040414400c5
:104ae800002041004400400041440000a04144002f
:104af800008041004400c0004144000000424400de
:104b080000e041004400400042440000a04244004c
:104b1800008042004400c00042440000c0794400c4
:104b280000000100005900000001010000590000c8
:104b380000020100005900000003010000590100b3
:104b480000000100015900000001010001590100a5
:104b5800000201000159010000030100015903008e
:104b6800000401000159030000000100025900007f
:104b7800000101000259010000020100025902006f
:104b88000003010002590300000401000259040057
:104b98000000010003590100000101000359010050
:104ba8000002010003590300000301000359030038
:104bb8000004010003590400000101000459030026
:104bc8000002010004590400000301000459040014
:104bd8000004010004590400140b00000200000046
:104be80000000000880a00004a00000002000000df
:104bf8000000210015110e000d0c0b000b0a0a0015
:104c08000909090009090800080808000808080037
:104c18000707070007070700070707000707070038
:104c28000730310032333400353637003839610007
:104c3800626364006566670068696a006b6c6d0092
:104c48006e6f7000717273007475760077787900f2
:084c58007a00000000000000da
:020000040000fa
:044c60000000fe0052
:00000001FF
