:020000040000FA
:060000008AEF03F012007C
:0600080038EF00F01200C9
:02002A000000D4
:04002C00AC9CAC8A52
:10003000AC98AC82AB8EAB9CAB88AC840A0EAF6E36
:100040009D8A9F9A1200020EE66E2FEC02F0E55296
:1000500064EC03F0000901E0FBD7800EE66EFEECD5
:1000600002F0E55264EC03F0000901E0FBD7120056
:10007000DACFE4FFE2CFDAFFE9CFE4FFEACFE4FF33
:10008000F6CFE4FFF7CFE4FFF5CFE4FFF3CFE4FFD3
:10009000F4CFE4FFFACFE4FF00EE00F0020EE80434
:1000A00003E3EECFE4FFFBD700EE02F0020EE8041C
:1000B00003E3EECFE4FFFBD7E6529EB424D8E5522B
:1000C00000EE03F0020EE80403E3E5CFEDFFFBD7FB
:1000D00000EE01F0020EE80403E3E5CFEDFFFBD7ED
:1000E000E5CFFAFFE5CFF4FFE5CFF3FFE5CFF5FF6E
:1000F000E5CFF7FFE5CFF6FFE5CFEAFFE5CFE9FF74
:10010000E5CFDAFF11009E94CECF8AF0CE6ACFCF32
:100110008BF0CF6A1200D9CFE6FFE1CFD9FF270ECF
:10012000E126150EDB6AD950160FE96EDACFEAFF29
:10013000EE6AEE6AEE6A190EDB6A1A0EDB6A1B0EB5
:10014000DB6AD9501C0FE96EDACFEAFFEE6AEE6A7D
:10015000EE6A1F0EDB6A200EDB6A210EDB6A220EBE
:10016000DB6A936A939A8A8A180EF36E0B0EF3CFAA
:10017000DBFF0D0EDB6A0E0EDB6A0F0EDB6A100E64
:10018000DB6A110EDB6A120EDB6A130EDB6A140ED9
:10019000DB6A050EF36E230EF3CFDBFF0F0EF36E5B
:1001A000240EF3CFDBFF42DF250EDB6A260EDB6A6F
:1001B00093948A84040EF36E230EF3CFDBFF240E98
:1001C000DB6A0B0EDB6A8A94240EDBCFE6FFD95084
:1001D000070FE66E000EDA20E66E230EDBCFE6FF99
:1001E0000B0EDBCFE6FF0C0EDBCFE6FFADD8026EC9
:1001F000060EE15E02508A84040EF36E230EF3CFE6
:10020000DBFF240EDB6A010EF36E0B0EF3CFDBFF78
:100210008A94240EDBCFE6FFD950070FE66E000E5E
:10022000DA20E66E230EDBCFE6FF0B0EDBCFE6FF18
:100230000C0EDBCFE6FF88D8026E060EE15E0250A0
:100240008A840F0EE66E4DEC03F0E5528A94040E9C
:10025000F36E230EF3CFDBFF040EF36E240EF3CF09
:10026000DBFF030EF36E0B0EF3CFDBFF240EDBCFB1
:10027000E6FFD950070FE66E000EDA20E66E230E79
:10028000DBCFE6FF0B0EDBCFE6FF0C0EDBCFE6FF8E
:100290005BD8026E060EE15E02500B0EDB500308C7
:1002A000D6E1230EDB6A0C0EF36E240EF3CFDBFFD8
:1002B000070EDB6A080EDB6A240EDBCFE6FFD9509F
:1002C000070FE66E000EDA20E66E230EDBCFE6FFA8
:1002D0000B0EDBCFE6FF0C0EDBCFE6FF35D8026E50
:1002E000060EE15E0250240EDBCFE6FFD950090F67
:1002F000E66E000EDA20E66E230EDBCFE6FF0B0E75
:10030000DBCFE6FF0C0EDBCFE6FF1ED8026E060E3B
:10031000E15E02508A84ACA2FED7730EAD6EACA231
:10032000FED7070EDB50AD6EACA2FED7080EDB5039
:10033000AD6E3ED7270EE15C02E2E16AE552E16E66
:10034000E552E7CFD9FF1200D9CFE6FFE1CFD9FFC1
:10035000939C939EFC0EDBCF02F00F0EE76E02180B
:10036000E8AE02D0023403D0E750D880025405E250
:100370000F0EF36EFC0EF3CFDBFFFC0EDB501DE027
:100380008A8CFD0EDBA002D08A8E01D08A9E0000EE
:100390008A9CFD0EDBCF02F0FE0EDBCF03F0D8907F
:1003A00003320232FD0E02C0DBFFFE0E03C0DBFF94
:1003B000FC0EDB06FC0EDB50E3E1938EF90EDBCF87
:1003C00002F00F0EE76E0218E8AE02D0023403D03E
:1003D000E750D880025405E20F0EF36EF90EF3CF0A
:1003E000DBFFF90EDB5035E08A8C81AE09D0FA0EC6
:1003F000DBCFE9FFFB0EDBCFEAFFEE80ED5208D04A
:10040000FA0EDBCFE9FFFB0EDBCFEAFFEE90ED52F9
:10041000F90EDB06F90EDB5017E0FA0EDBCFE9FF31
:10042000FB0EDBCFEAFFEECF02F0EFCF03F0D89068
:1004300002360336FA0EDBCFE9FFFB0EDBCFEAFF15
:1004400002C0EEFF03C0EDFF00008A9CF90EDB50F6
:0E045000CBE1000E00D0E552E7CFD9FF12003D
:02045E00D9CFF4
:10046000E6FFDACFE6FFE1CFD9FFE2CFDAFFF00E09
:1004700081160F0E9312939C939A9398819C819A64
:10048000819836EC03F0F00E93162ED83CEC03F076
:10049000F00E2AD83CEC03F0F00E26D80F0E931283
:1004A0002FD8FEE1FD0EDBCFE6FFFEEC02F0E552B9
:1004B00027D8FEE1080E1FD823D8FEE10F0E1BD867
:1004C0001FD8FEE1010E17D81BD8FEE1130E13D87A
:1004D00017D8FEE1E66AD3EC02F0E552E552E5CF2B
:1004E000DAFFE7CFD9FF120081168182818827ECDD
:1004F00003F081981200E66EFEEC02F0E552120065
:0805000064EC03F00009120095
:080508002A0EF66E000EF76EDC
:10051000000EF86E00010900F550856F0900F550D6
:10052000866F03E1856701D03DD00900F550806FEB
:100530000900F550816F0900F550826F090009002C
:10054000F550E96E0900F550EA6E0900090009004E
:10055000F550836F0900F550846F09000900F6CF4C
:1005600087F0F7CF88F0F8CF89F080C0F6FF81C020
:10057000F7FF82C0F8FF0001835302E1845307E0D4
:100580000900F550EE6E8307F8E28407F9D787C0BB
:10059000F6FF88C0F7FF89C0F8FF00018507000E4D
:0605A000865BBFD71200CC
:0A05A600D9CFE6FFDACFE6FFE1CF80
:1005B000D9FFE2CFDAFFF00E93168116FD0EDB5065
:1005C0008009E8380F0B0F0B8112819C819A0FD89C
:1005D000F00E8116FD0EDB500F0B811208D80F0EA6
:1005E0009312E552E5CFDAFFE7CFD9FF120027ECEF
:0C05F00003F0818827EC03F081981200D2
:0405FC00D9CFE6FF6E
:10060000DACFE6FFE1CFD9FFE2CFDAFFF00E9316A3
:100610008116FD0EDB380F0B0F0B8112819C819A26
:100620000FD8F00E8116FD0EDB500F0B811208D88B
:100630000F0E9312E552E5CFDAFFE7CFD9FF120094
:0E06400027EC03F0818827EC03F0819812006C
:02064E000000AA
:10065000000000000000000000000000000000009A
:100660000000000000000000000012004B0EE66ECB
:100670007AEC03F0E5521200140EE66E7AEC03F009
:10068000E552050EE66E98EC03F0E5521200050EF9
:0A069000E66E98EC03F0E55212004C
:06069A00FF0EE350056EA7
:1006A000EF0E01D0F30EE76EE72E54EF03F00C0EC1
:1006B000046EE76AE72E5AEF03F0042E59EF03F0B9
:0806C000052E52EF03F01200B9
:0806C800818C819A27EC03F0FC
:1006D000818827EC03F081A602D003D8010C01D851
:1006E000000C819827EC03F0818827EC03F08198B7
:0406F000819C1200D7
:0C06F400FF0EE350056E480E01D04C0EC6
:10070000E76EE72EFED7E76AE72EFED7052EF7D76E
:0407100000001200D3
:0C0714001EEE00F02EEE00F0F86A019CD2
:1007200084EC02F0A6EC03F08BEC00F0FBD7120097
:10073000FF0EE350056E1B0E00D001D0200EE76EB9
:0C074000E72EFED7052EFAD700D01200DD
:02074C00120099
:00000001FF
