:020000040000FA
:06000000C3EF00F0120046
:0600080016EF00F01200EB
:02002A000000D4
:04002C00DACFE4FF44
:10003000E2CFDAFFE9CFE4FFEACFE4FFF6CFE4FF57
:10004000F7CFE4FFF5CFE4FFF3CFE4FFF4CFE4FF15
:10005000FACFE4FF00EE00F0020EE80403E3EECF77
:10006000E4FFFBD700EE02F0000EE80403E3EECF5E
:10007000E4FFFBD7E6529EB424D8E55200EE01F02F
:10008000000EE80403E3E5CFEDFFFBD700EE01F03F
:10009000020EE80403E3E5CFEDFFFBD7E5CFFAFF5F
:1000A000E5CFF4FFE5CFF3FFE5CFF5FFE5CFF7FFB1
:1000B000E5CFF6FFE5CFEAFFE5CFE9FFE5CFDAFFD1
:1000C00011009E94CECF6AF0CE6ACFCF6BF0CF6A8C
:1000D0001200340EC66EC7B003D0C78A550EC96E63
:0800E000C7B0FED7F8D71200EB
:0800E8002A0EF66E000EF76E01
:1000F000000EF86E00010900F550656F0900F5501B
:10010000666F03E1656701D03DD00900F550606F6F
:100110000900F550616F0900F550626F0900090090
:10012000F550E96E0900F550EA6E09000900090072
:10013000F550636F0900F550646F09000900F6CFB0
:1001400067F0F7CF68F0F8CF69F060C0F6FF61C0E4
:10015000F7FF62C0F8FF0001635302E1645307E058
:100160000900F550EE6E6307F8E26407F9D767C03F
:10017000F6FF68C0F7FF69C0F8FF00016507000ED1
:06018000665BBFD7120010
:0A01860012EE00F022EE00F0F86A1D
:10019000019C74EC00F0D1EC00F069EC00F0FBD7AE
:0201A00012004B
:0201A200120049
:00000001FF
