:020000040000FA
:06000000E3EF13F0120013
:080008009EAA02D00AEF0FF0DE
:100010009EA602D059EF0FF09EA002D0C3EF0FF0C2
:0A0020009EA402D0D4EF0FF01200EE
:06002A000500082800009B
:100030004F01000002000000FB2700002301000028
:100040000D000000ED270000EC0000000E00000095
:10005000EC2700005101000001000000E42700002F
:080060003A0100000800000055
:08006800D9CFE6FFE1CFD9FF7B
:10007000939C939EFC0EDBCF00F00F0EE76E0018F2
:10008000E8AE02D0003403D0E750D880005405E237
:100090000F0EF36EFC0EF3CFDBFFFC0EDB501DE00A
:1000A0008A8CFD0EDBA002D08A8E01D08A9E0000D1
:1000B0008A9CFD0EDBCF00F0FE0EDBCF01F0D89066
:1000C00001320032FD0E00C0DBFFFE0E01C0DBFF7F
:1000D000FC0EDB06FC0EDB50E3E1938E8A8CF90EFE
:1000E000DBCF00F00F0EE76E0018E8AE02D0003450
:1000F00003D0E750D880005405E20F0EF36EF90EDE
:10010000F3CFDBFFF90EDB5035E08A9C81AE09D0DE
:10011000FA0EDBCFE9FFFB0EDBCFEAFFEE80ED52FC
:1001200008D0FA0EDBCFE9FFFB0EDBCFEAFFEE9043
:10013000ED52F90EDB06F90EDB5017E0FA0EDBCFBD
:10014000E9FFFB0EDBCFEAFFEECF00F0EFCF01F0CF
:10015000D89000360136FA0EDBCFE9FFFB0EDBCF7D
:10016000EAFF00C0EEFF01C0EDFF00008A8CF90E2F
:10017000DB50CBE18A9C000E00D0E552E7CFD9FFDF
:100180001200D9CFE6FFE1CFD9FF060EE126040E1B
:10019000DF6E010EDB6A9394040EDB6A8A94010E13
:1001A000DBCFE6FFD950020FE66E000EDA20E66ED6
:1001B000DFCFE6FF040EDBCFE6FF050EDBCFE6FF69
:1001C00053DF006E060EE15E00508A84010EF36E6E
:1001D000040EF3CFDBFF8A94010EDBCFE6FFD9508C
:1001E000020FE66E000EDA20E66EDFCFE6FF040EA9
:1001F000DBCFE6FF050EDBCFE6FF36DF006E060E37
:10020000E15E00508A84060EE15C02E2E16AE5529A
:10021000E16EE552E7CFD9FF1200D9CFE6FFE1CF7B
:10022000D9FF040EE126020EDB6A030EDB6A8A9414
:100230000001666B676B686B696B040EDF6EDE52E4
:10024000DD6E030EF36E020EF3CFDBFF010EDBCF8C
:10025000E6FF660EE66E000EE66EDFCFE6FF020EEC
:10026000DBCFE6FF030EDBCFE6FFFEDE006E060E01
:10027000E15E0050DF6ADE520B0EDD6E0001666B40
:10028000676B010EDBCFE6FF660EE66E000EE66ED4
:10029000DFCFE6FF020EDBCFE6FF030EDBCFE6FF8C
:1002A000E3DE006E060EE15E00500001686B696BD4
:1002B000010EDBCFE6FF680EE66E000EE66EDFCFC6
:1002C000E6FF020EDBCFE6FF030EDBCFE6FFCCDE60
:1002D000006E060EE15E00508A84040EE15C02E2CC
:1002E000E16AE552E16EE552E7CFD9FF1200D9CFBE
:1002F000E6FFE1CFD9FF050EE126010E66C0DBFF68
:10030000020E67C0DBFF030E68C0DBFF040E69C08E
:10031000DBFF010EDBCF00F0020EDBCF01F0D89047
:10032000015004E6000E005C040E015801E2AED05C
:10033000030EDBCF02F0040EDBCF03F0D8900350A6
:1003400004E6000E025C040E035801E29FD0006A2E
:10035000016A800E026EBF0E036E086A096A0A6A9D
:10036000450E0B6E010EDBCF24F0020EDBCF25F025
:10037000F5EC07F023C00CF024C00DF025C00EF002
:1003800026C00FF00CC028F00DC029F00EC02AF0D6
:100390000FC02BF008C023F009C024F00AC025F0DC
:1003A0000BC026F008EC08F023C004F024C005F0D0
:1003B00025C006F026C007F004C028F005C029F0CB
:1003C00006C02AF007C02BF000C023F001C024F0C3
:1003D00002C025F003C026F0F2EC08F0B2EC09F000
:1003E000DE5224C0DEFF25C0DDFFDD52006A016A57
:1003F000800E026EBF0E036E086A096A0A6A450E15
:100400000B6E030EDBCF24F0040EDBCF25F0F5ECF2
:1004100007F023C00CF024C00DF025C00EF026C05C
:100420000FF00CC028F00DC029F00EC02AF00FC04C
:100430002BF008C023F009C024F00AC025F00BC03F
:1004400026F008EC08F023C004F024C005F025C015
:1004500006F026C007F004C028F005C029F006C049
:100460002AF007C02BF000C023F001C024F002C026
:1004700025F003C026F0F2EC08F0B2EC09F0030E10
:1004800024C0DBFF040E25C0DBFFD7D0010EDBCF7D
:1004900000F0020EDBCF01F0D890015004E6000E10
:1004A000005C040E01585EE3030EDBCF02F0040E85
:1004B000DBCF03F0D890035004E6000E025C040E7C
:1004C000035850E2006A016A800E026EBF0E036E8E
:1004D000086A096A0A6A450E0B6E010EDBCF24F02A
:1004E000020EDBCF25F0F5EC07F023C00CF024C0A2
:1004F0000DF025C00EF026C00FF00CC028F00DC086
:1005000029F00EC02AF00FC02BF008C023F009C05C
:1005100024F00AC025F00BC026F008EC08F023C038
:1005200004F024C005F025C006F026C007F004C082
:1005300028F005C029F006C02AF007C02BF000C043
:1005400023F001C024F002C025F003C026F0F2EC35
:1005500008F0B2EC09F0DE5224C0DEFF25C0DDFF5A
:10056000DD526BD0010EDBCF00F0020EDBCF01F0CD
:10057000D890015004E6000E005C040E01585DE2C4
:10058000030EDBCF02F0040EDBCF03F0D890035054
:1005900004E6000E025C040E03584FE3006A016A91
:1005A000800E026EBF0E036E086A096A0A6A450E63
:1005B0000B6E030EDBCF24F0040EDBCF25F0F5EC41
:1005C00007F023C00CF024C00DF025C00EF026C0AB
:1005D0000FF00CC028F00DC029F00EC02AF00FC09B
:1005E0002BF008C023F009C024F00AC025F00BC08E
:1005F00026F008EC08F023C004F024C005F025C064
:1006000006F026C007F004C028F005C029F006C097
:100610002AF007C02BF000C023F001C024F002C074
:1006200025F003C026F0F2EC08F0B2EC09F0030E5E
:1006300024C0DBFF040E25C0DBFF070E0001E76EC0
:10064000F019E8AE02D0F03503D0E750D880F0556D
:1006500001E337D3F06B080E296E2A6AEEC024F04E
:10066000EFC025F05FEC09F024C0EEF025C0EFF0FC
:10067000080E296E2A6AECC024F0EDC025F05FEC6C
:1006800009F024C0ECF025C0EDF0EEC06CF0EFC036
:100690006DF0ECC06AF0EDC06BF00001EC6BED6B3F
:1006A000EE6BEF6B0001800E6B1501E0B1D0800E98
:1006B0006D1501E0ADD0086A096A800E0A6EBF0EA2
:1006C0000B6E6CC024F06DC025F0F5EC07F023C074
:1006D0000CF024C00DF025C00EF026C00FF00CC0A9
:1006E00028F00DC029F00EC02AF00FC02BF008C072
:1006F00023F009C024F00AC025F00BC026F0F2EC6C
:1007000008F023C004F024C005F025C006F026C080
:1007100007F06AC024F06BC025F0F5EC07F023C0A9
:1007200010F024C011F025C012F026C013F010C044
:1007300028F011C029F012C02AF013C02BF004C019
:1007400023F005C024F006C025F007C026F09FEC7A
:1007500008F023C000F024C001F025C002F026C03C
:1007600003F000C0E6FF01C0E6FF02C0E6FF03C0E1
:10077000E6FFCEEC0AF0E552E552E552E55222C022
:1007800076F023C077F024C078F025C079F0ED0E24
:10079000286E2E0E296E650E2A6E420E2B6E76C0C6
:1007A00023F077C024F078C025F079C026F0F2EC71
:1007B00008F023C076F024C077F025C078F026C07A
:1007C00079F0286A296AB40E2A6E430E2B6E76C021
:1007D00023F077C024F078C025F079C026F009EC2A
:1007E00008F023C076F024C077F025C078F026C04A
:1007F00079F076C023F077C024F078C025F079C076
:1008000026F0B2EC09F024C07AF025C07BF006D2C5
:10081000800E6B1501E1B1D0800E6D1501E1ADD0F8
:10082000086A096A800E0A6EBF0E0B6E6CC024F057
:100830006DC025F0F5EC07F023C00CF024C00DF0DE
:1008400025C00EF026C00FF00CC028F00DC029F016
:100850000EC02AF00FC02BF008C023F009C024F00E
:100860000AC025F00BC026F0F2EC08F023C004F01B
:1008700024C005F025C006F026C007F06AC024F0A9
:100880006BC025F0F5EC07F023C010F024C011F088
:1008900025C012F026C013F010C028F011C029F0B6
:1008A00012C02AF013C02BF004C023F005C024F0BE
:1008B00006C025F007C026F09FEC08F023C000F02A
:1008C00024C001F025C002F026C003F000C0E6FFFE
:1008D00001C0E6FF02C0E6FF03C0E6FFCEEC0AF06F
:1008E000E552E552E552E55222C076F023C077F09A
:1008F00024C078F025C079F0ED0E286E2E0E296EFA
:10090000650E2A6E420E2B6E76C023F077C024F05F
:1009100078C025F079C026F0F2EC08F023C076F01C
:1009200024C077F025C078F026C079F0286A296ABB
:10093000340E2A6E430E2B6E76C023F077C024F05F
:1009400078C025F079C026F009EC08F023C076F0D5
:1009500024C077F025C078F026C079F076C023F067
:1009600077C024F078C025F079C026F0B2EC09F009
:1009700024C07AF025C07BF051D1800E6B1501E1C7
:10098000B1D0800E6D1501E0ADD0086A096A800E05
:100990000A6EBF0E0B6E6CC024F06DC025F0F5EC36
:1009A00007F023C00CF024C00DF025C00EF026C0C7
:1009B0000FF00CC028F00DC029F00EC02AF00FC0B7
:1009C0002BF008C023F009C024F00AC025F00BC0AA
:1009D00026F0F2EC08F023C004F024C005F025C096
:1009E00006F026C007F06AC024F06BC025F0F5ECD5
:1009F00007F023C010F024C011F025C012F026C06B
:100A000013F010C028F011C029F012C02AF013C052
:100A10002BF004C023F005C024F006C025F007C069
:100A200026F09FEC08F023C000F024C001F025C0A0
:100A300002F026C003F000C0E6FF01C0E6FF02C0DE
:100A4000E6FF03C0E6FFCEEC0AF0E552E552E552C0
:100A5000E55222C076F023C077F024C078F025C09C
:100A600079F0ED0E286E2E0E296E650E2A6E420E5E
:100A70002B6E76C023F077C024F078C025F079C0C3
:100A800026F0F2EC08F023C076F024C077F025C001
:100A900078F026C079F0286A296A340E2A6E430E4F
:100AA0002B6E76C023F077C024F078C025F079C093
:100AB00026F009EC08F023C076F024C077F025C0BA
:100AC00078F026C079F076C023F077C024F078C0A3
:100AD00025F079C026F0B2EC09F024C07AF025C0E8
:100AE0007BF09CD0800E6B1501E098D0800E6D15C8
:100AF00001E194D0086A096A800E0A6EBF0E0B6E7F
:100B00006CC024F06DC025F0F5EC07F023C00CF0AC
:100B100024C00DF025C00EF026C00FF00CC028F048
:100B20000DC029F00EC02AF00FC02BF008C023F032
:100B300009C024F00AC025F00BC026F0F2EC08F042
:100B400023C004F024C005F025C006F026C007F03D
:100B50006AC024F06BC025F0F5EC07F023C010F05C
:100B600024C011F025C012F026C013F010C028F0E8
:100B700011C029F012C02AF013C02BF004C023F0DA
:100B800005C024F006C025F007C026F09FEC08F051
:100B900023C000F024C001F025C002F026C003F0FD
:100BA00000C0E6FF01C0E6FF02C0E6FF03C0E6FFAB
:100BB000CEEC0AF0E552E552E552E55222C076F05D
:100BC00023C077F024C078F025C079F0ED0E286EB0
:100BD0002E0E296E650E2A6E420E2B6E76C023F005
:100BE00077C024F078C025F079C026F0F2EC08F048
:100BF00023C076F024C077F025C078F026C079F0C5
:100C000076C023F077C024F078C025F079C026F0B4
:100C1000B2EC09F024C07AF025C07BF0F1C0E9FF06
:100C2000EA6AE9BEEA68D890E936EA36840EE9262F
:100C3000000EEA227AC0EEFF7BC0EDFF0001F12B2F
:100C4000070EE76EF119E8AE02D0F13503D0E75098
:100C5000D880F15501E2F16BDF6ADFCF00F0070EBB
:100C6000E76E0018E8AE02D0E73402D0E750005C2F
:100C700013E2DFCFE9FFEA6AE9BEEA68D890E93615
:100C8000EA36840EE926000EEA22EE5000016E27B5
:100C9000EE506F23DF2AE1D7080E296E2A6A6EC054
:100CA00024F06FC025F05FEC09F024C06EF025C081
:100CB0006FF06FC000F0016A00C082F06EC083F078
:100CC00015D0F02B010EDBCF24F0020EDBCF25F088
:100CD0002450EC272550ED23030EDBCF24F0040E27
:100CE000DBCF25F02450EE272550EF23050EE15CE5
:100CF00002E2E16AE552E16EE552E7CFD9FF120068
:100D0000D9CFE6FFE1CFD9FF040EE126050EDF6E55
:100D1000DE520F0EDD6E939A030EF36E020EF3CFCA
:100D2000DBFF8A9A010EDBCFE6FF600EE66E000E57
:100D3000E66EDFCFE6FF020EDBCFE6FF030EDBCF72
:100D4000E6FF34EC00F0006E060EE15E00508A8A89
:100D5000130EF36E020EF3CFDBFF8A9A010EDBCF88
:100D6000E6FF620EE66E000EE66EDFCFE6FF020ED5
:100D7000DBCFE6FF030EDBCFE6FF34EC00F0006EC6
:100D8000060EE15E00508A8A0B0EF36E020EF3CF60
:100D9000DBFF8A9A010EDBCFE6FF640EE66E000EE3
:100DA000E66EDFCFE6FF020EDBCFE6FF030EDBCF02
:100DB000E6FF34EC00F0006E060EE15E00508A8A19
:100DC000040EE15C02E2E16AE552E16EE552E7CF32
:100DD000D9FF1200D9CFE6FFE1CFD9FFE65260C0BC
:100DE00000F061C001F0030ED89001320032E80437
:100DF000FBE100C060F001C061F062C000F063C0C0
:100E000001F0030ED89001320032E804FBE100C08B
:100E100062F001C063F064C000F065C001F0030E31
:100E2000D89001320032E804FBE100C064F001C058
:100E300065F00001616B636B656B800E61AF02D082
:100E4000D89003D0605D000E615915E360C000F0DA
:100E500061C001F0000ED8800056010E01562468D2
:100E6000256800C029F001C02AF085EC09F022C0F5
:100E700060F023C061F0800E000163AF02D0D89013
:100E800003D0625D000E635915E362C000F063C0D9
:100E900001F0000ED8800056010E01562468256826
:100EA00000C029F001C02AF085EC09F022C062F0F0
:100EB00023C063F0800E000163AF02D0D89003D04E
:100EC000625D000E635915E364C000F065C001F077
:100ED000000ED8800056010E01562468256800C017
:100EE00029F001C02AF085EC09F022C064F023C08B
:100EF00065F00001F93504E2F8510708000EF955D4
:100F000052E2F86BF96BF2C070F0F3C071F0080EAA
:100F1000296E2A6A70C024F071C025F05FEC09F0D8
:100F200024C070F025C071F0F4C072F0F5C073F009
:100F3000080E296E2A6A72C024F073C025F05FEC97
:100F400009F024C072F025C073F0F6C074F0F7C049
:100F500075F0080E296E2A6A74C024F075C025F059
:100F60005FEC09F024C074F025C075F071C000F08A
:100F7000016A00C07CF070C07DF073C000F0016AAF
:100F800000C07EF072C07FF075C000F0016A00C042
:100F900080F074C081F00001F26BF36BF46BF56BC1
:100FA000F66BF76B1BD0F82B000EF9230001605194
:100FB0000001F227000161510001F3230001625199
:100FC0000001F427000163510001F5230001645181
:100FD0000001F627000165510001F723E552E552B3
:060FE000E7CFD9FF12006B
:0A0FE6001D9E08D01D9E25AE05D00B
:100FF000246C251EE86A25221D8E25C01FF024C002
:101000001EF02F6A2E6A8E0E206E216AFDEF09F007
:101010002B7E1D6A39EC0AF051EC0AF01DB6E1EFA7
:1010200009F01DA20AD01DAA03D01DBEE1EF09F0F0
:101030001DA4EDEF09F0EAEF09F01DAA05D01DACE3
:10104000EDEF09F0EAEF09F01DA00AD01DA808D0C5
:101050001DBE04D01DA402D0F6EF09F0FAEF09F08E
:101060002E6A216A2B50265C2D6E10E323C02FF0D0
:1010700024C01EF025C01FF026C02CF028C023F08D
:1010800029C024F02AC025F01D3A09D028C02FF02D
:1010900029C01EF02AC01FF02BC02CF02D6C1D9E05
:1010A0001DBC1D8E2CC020F01DB029EF0AF01A0EB9
:1010B0002D6029EF0AF0206A266A1DA408D0236C4F
:1010C000241E251E261EE86A2422252226221DAC67
:1010D00008D02F6C1E1E1F1E201EE86A1E221F2213
:1010E0002022226A2D5207E0263425322432233270
:1010F00022322D2EF9D723502F2624501E22255080
:101100001F222650202222C02EF01D9E20AE0BD082
:101110002E6C2F1E1E1E1F1E201EE86A2F221E224E
:101120001F2220221D8E20A006D0D8801F321E3202
:101130002F322E322C2A2CC020F0FDEF09F01D6A30
:1011400039EC0AF051EC0AF01DB6E1EF09F01DA2EE
:1011500005D01DBAE1EF09F0E8EF09F01DBAF4EF90
:1011600009F01DA005D01DB8E1EF09F0F4EF09F07A
:101170001DB8E8EF09F0216A7F0E2624206EE86A88
:1011800021222B50205EE86A215A1A0E2C6E266A04
:101190002E6A2F6A1E6A1F6A2850235E2950245A1D
:1011A0002A50255A000E265A09E72850232629508E
:1011B00024222A502522000E262201D02E8AD890E1
:1011C0002336243625362636D8902E362F361E3630
:1011D0001F362C2EE1D7255024102310D8A42E8A98
:1011E000FDEF09F01D6A39EC0AF051EC0AF01DB66A
:1011F000E1EF09F01DA205D01DB8E1EF09F0E8EF1D
:1012000009F01DAA05D01DB0E1EF09F0E8EF09F0E3
:101210001DB002D01DA802D0F4EF09F0216A2B50B6
:101220002624206EE86A21227E0E205EE86A215A7A
:101230002E6A2F6A1E6A1F6A2A502502F4CF1FF0F9
:10124000F3CF1EF029502502F3502F26F4501E2212
:10125000000E1F222A502402F3502F26F4501E2283
:10126000000E1F2228502502F3502E26F4502F2264
:10127000000E1E221F2229502402F3502E26F45065
:101280002F22000E1E221F222A502302F3502E2648
:10129000F4502F22000E1E221F2228502402F45048
:1012A0002E26000E2F221E221F2229502302F45028
:1012B0002E26000E2F221E221F22FDEF09F01C6A8F
:1012C0002AAE68EF09F0296C2A1EE86A2A221C1E41
:1012D00025AE70EF09F0246C251EE86A25221C1E3D
:1012E000BEEC13F025BE80EF09F01CAE000C246CA0
:1012F000251EE86A2522206C211EE86A2122000CA6
:101300001CBE77EF09F01D88FF0C25C02FF024C00C
:101310002EF024502902F4CF23F0F3CF22F02550F1
:101320002A02F4CF25F0F3CF24F02902F35023262C
:10133000F4502422E86A25222E502A02F350232654
:10134000F4502422E86A25222AAEABEF09F02E5091
:10135000245E2F50255A2FAE000C2950245E2A50AF
:10136000255A000C1D6A39EC0AF01DB6BCEF09F0D5
:101370001DA20ED01DB405D07F0E256EFF0E246E6B
:101380001FD0800E256E246A1BD0256A246A18D0CF
:101390001DB0FBD78F0E2660EDD77E0E2664F5D7E5
:1013A0008E0E265C05E0D89025322432262AF8D706
:1013B0001DA406D0246C251EE86A252225AEE5D79B
:1013C00012007F0E266EFF0E256E246E236E120015
:1013D0007F0E1DBEFF0E266E02D07F0E266E800E83
:1013E000256E246A236AF3D71DAE04D0800E266EC4
:1013F000256AF7D7266A256AF4D71F501E102F10CA
:101400002E10F8E021BEF0D71FBE0CD020502110C6
:10141000EBE0D8902E362F361E361F362006D8A089
:101420002106F2D72150D4E12028D2E02EAE11D0EF
:101430007F0E2E1402E12FA00CD02F2AE86A1E2264
:101440001F2207E3D8801F321E322F32202A202885
:10145000BFE02050C9E02FC023F01EC024F01F348D
:10146000256E2030266E2532269E1DBE268EE7EF85
:1014700009F02536263602E31D841D7E06E11D8017
:10148000266A256A246A236A1200262803E0D88087
:1014900025321200D890253202E11D8212001D86ED
:1014A00012002A362B3602E31D8C1D7E06E11D88B4
:1014B0002B6A2A6A296A286A12002B2803E0D8803E
:1014C0002A321200D8902A32EAE11D8A120079EC01
:1014D0000AF01DB6000C1DB0000C1DB4000C010C70
:1014E00079EC0AF01DB6000C1DB0000C1DA4000C18
:1014F000010C1D6A39EC0AF051EC0AF01DB612001D
:101500001DAE08D01DA004D01DA802D01D80120061
:101510001D9012002B50265C0BE12A50255C08E13F
:101520002950245C05E12850235C02E11D80120053
:10153000D8A002D01D8E10D026502BC026F02B6EC6
:1015400025502AC025F02A6E245029C024F0296E87
:10155000235028C023F0286E2B50265C10E0FF0F8C
:1015600009E01D901DB403D01DAE1D8412001DAEF8
:101570001D9412002B2AD8902A3229322832285062
:10158000235E2950245A2A50255A25BEEAD7D890DE
:0C159000233624362536262EF8D7C8D77F
:04159C00D9CFE6FFBE
:1015A000DACFE6FFE1CFD9FFE2CFDAFF1D0EE1246B
:1015B00002E3E168E652E16E67DAFA0EDBCFEEFF96
:1015C000FB0EDBCFEEFFFC0EDBCFEEFFFD0EDBCF25
:1015D000EEFFD950040FE66E000EDA20E66E0BDA4D
:1015E00050EC11F0006E060EE15C02E2E16AE55299
:1015F000E16E0050E76E0B0EE7CFDBFFDB5080089B
:1016000007E10A0EDB6ADE68DE68DE687F0E13D053
:101610000B0EDB0405E1DE6ADE6ADE6ADD6AA6D156
:101620000B0EDB50040809E1DB0EDE6E0F0EDE6EE2
:10163000C90EDE6E3F0EDD6E99D1DDD91EDA22C0F5
:10164000DEFF23C0DEFF24C0DEFF25C0DDFFDD524C
:10165000DD52DBD90DDA3F0E20DA23E1236A246A5A
:10166000800E256E3F0E266EDECF28F0DECF29F0ED
:10167000DECF2AF0DDCF2BF0DD52DD529FEC08F0FB
:1016800023C0DFFF010E24C0DBFF020E25C0DBFFFD
:10169000030E26C0DBFF020EF36E0C0EF3CFDBFF52
:1016A00002D00C0EDB6AB1D9A30E286E300E296E63
:1016B000890E2A6E3E0EF1D96CE1AF0E236E670ED5
:1016C000246E3B0E256E3F0E266EB2D923C008F065
:1016D00024C009F025C00AF026C00BF0C9D93F0E7E
:1016E0002B6E08EC08F023C004F024C005F025C0E0
:1016F00006F026C007F0C8D9EECF0CF0EECF0DF003
:10170000EECF0EF0EFCF0FF00CC028F00DC029F097
:101710000EC02AF00FC02BF009EC08F080D9D70ECC
:10172000146EB30E156EDD0E166E3F0E176EACD92D
:10173000EECF18F0EECF19F0EECF1AF0EFCF1BF08E
:1017400018C028F019C029F01AC02AF01BC02BF0CD
:1017500014C023F015C024F016C025F0266E09EC45
:1017600008F023C010F024C011F025C012F026C0EC
:1017700013F023C028F024C029F025C02AF026C089
:101780002BF035D99FEC08F05FD9DD52DD520C0EFD
:10179000DB2A31D972D922C000F023C001F024C065
:1017A00002F025C003F064D9390E2B6E22C023F05D
:1017B0007AD970EC0AF0010A01E1B5D04ED938D9D6
:1017C0000D0E23C0DBFF0E0E24C0DBFF0F0E25C065
:1017D000DBFF100E26C0DBFF910E236E860E246EFB
:1017E000500E256EBD0E266E0D0EDBCF28F00E0EB0
:1017F000DBCF29F00F0EDBCF2AF0100E4AD90FD91C
:10180000F60E286E100E296EF10E2A6EBE0E2B6E8D
:1018100009EC08F0110E23C0DBFF120E24C0DBFF21
:10182000130E25C0DBFF140E26C0DBFF0D0EDBCF31
:1018300000F00E0EDBCF01F00F0EDBCF02F0100E2A
:10184000DBCF03F0D30E286ECC0E296EB40E2A6EB9
:101850003F0E2B6ECCD809EC08F0150E23C0DBFF31
:10186000160E24C0DBFF170E25C0DBFF180E26C0A6
:10187000DBFF0D0EDBCF23F00E0EDBCF24F00F0EBF
:10188000DBCF25F0100EDBCF26F0110EDBCF28F0DA
:10189000120EDBCF29F0130EDBCF2AF0140EF9D88D
:1018A000150EDBCF28F0160EDBCF29F0170EDBCF9D
:1018B0002AF0180EDBCF2BF09FEC08F0B0D8190EF1
:1018C00023C0DBFF1A0E24C0DBFF1B0E25C0DBFF8D
:1018D0001C0E26C0DBFFC1D8190EDBCF28F01A0E74
:1018E000DBCF29F01B0EDBCF2AF01C0ED2D897D805
:1018F000CBD8EECF23F0EECF24F0EECF25F0EFCF14
:1019000026F000C028F001C029F002C02AF003C070
:101910002BF009EC08F026C0EDFF25C0EDFF24C038
:10192000EDFF23C0EFFF0C0EDB0409E1920E006E09
:101930000A0E016E060E3FD809EC08F016D00C0E08
:10194000DB50020806E1DB0E006E0F0E016EC90EC1
:1019500009D00C0EDB5003080BE1920E006E0A0E4C
:10196000016E860E28D808EC08F06ED8DD52DD52E4
:101970000A0EDB500AE049D87BD8BF0E2B6E37D851
:10198000F2EC08F061D8DD52DD52DECF22F0DECF7E
:1019900023F0DECF24F0DDCF25F0DD52DD521D0E29
:1019A000E15C02E2E16AE552E16EE552E5CFDAFF81
:1019B000E7CFD9FF1200026E3F0E036E65D8EECF5F
:1019C00004F0EECF05F0EECF06F0EFCF07F004C045
:1019D00028F005C029F006C02AF007C02BF000C08F
:1019E00023F001C024F002C025F0266E120000C0D2
:1019F00023F053EF0DF048D8EECFE6FFEECFE6FF31
:101A0000EECFE6FFEFCFE6FF12003ED8EECF00F0BC
:101A1000EECF01F0EECF02F0EFCF03F0120023C0C3
:101A200000F024C001F025C002F026C003F012002F
:101A3000000EDFCF28F0010EDBCF29F0020EDBCF46
:101A40002AF0030E49EF0DF023C0DEFF24C0DEFFB5
:101A500025C0DEFF26C0DDFF1200DECF23F0DECF83
:101A600024F0DECF25F0DDCF26F0DD52DD5212006E
:101A7000286A296A800E2A6E120038EC13F0E552AB
:101A8000E552E552E5521200D9CFE9FFDACFEAFF7D
:101A90001200DBCF2BF0F2EF08F02B6EA8DF67EC23
:101AA0000AF0010A120001C024F002C025F003C0B0
:041AB00026F012000A
:0C1AB400948C958695929584C696C68405
:101AC000C692C680C79EC688C79C9D869E969F86E6
:101AD000C68A12009D96C69A1200D9CFE6FFE1CFC2
:101AE000D9FFFE0EDB50C96EC6AE04D0C69E000EF6
:101AF00003D002D0010E00D0E552E7CFD9FF12008B
:101B0000C95000D01200D9CFE6FFE1CFD9FFE6528D
:101B100001012E5159E1FE0EDB50550A51E0170A22
:101B20004BE0060A45E0080A3FE0010A39E01D0AD9
:101B300033E0030A2DE0010A27E0060A21E0020A49
:101B40001BE0190A15E00C0A0FE0040A09E0060A76
:101B500003E02E6BFF0E59D12F6B010E2E6F34D088
:101B60002F6B020E2E6F30D02F6B030E2E6F2CD0EA
:101B70002F6B040E2E6F28D02F6B050E2E6F24D0E6
:101B80002F6B060E2E6F20D02F6B070E2E6F1CD0E2
:101B90002F6B080E2E6F18D02F6B090E2E6F14D0DE
:101BA0002F6B0A0E2E6F10D02F6B0B0E2E6F0CD0DA
:101BB0002F6B0C0E2E6F08D02F6B0D0E2E6F04D0D6
:101BC0002F6B0E0E2E6F00D02E51550A01E10AD157
:101BD000170A01E1F7D0060A01E1E4D04F0A01E15A
:101BE000D1D0010A01E1BED0030A01E19FD0010A70
:101BF00001E183D00F0A71E0010A5FE0030A4DE0C2
:101C0000010A3BE0070A29E0010A17E0030A05E0A0
:101C10002E6BA50EDF6EFF0EF8D02F51EA6A7C0FF7
:101C2000E96E000EEA22EFCFDFFF2F2B2F510608BF
:101C300003E22E6BFF0EE9D0E6D02F51EA6AD20FF5
:101C4000E96E000EEA22EFCFDFFF2F2B2F510408A1
:101C500003E22E6BFF0ED9D0D6D02F51EA6A820F45
:101C6000E96E000EEA22EFCFDFFF2F2B2F51020883
:101C700003E22E6BFF0EC9D0C6D02F51EA6ADA0FED
:101C8000E96E000EEA22EFCFDFFF2F2B2F51020863
:101C900003E22E6BFF0EB9D0B6D02F51EA6AD60FF1
:101CA000E96E000EEA22EFCFDFFF2F2B2F51040841
:101CB00003E22E6BFF0EA9D0A6D02F51EA6A420F85
:101CC000E96E010EEA22EFCFDFFF2F2B2F51020822
:101CD00003E22E6BFF0E99D096D02F51EA6A4B0F7C
:101CE000E96E010EEA22EFCFDFFF2F2B2F51020802
:101CF00003E22E6BFF0E89D086D02F51EA6A440F83
:101D0000E96E010EEA22EFCFDFFF2F51EA6A440F9E
:101D1000E96E010EEA22FE0EDBCFEFFF2F2B2F51D3
:101D2000020803E22E6BFF0E70D06DD02F51EA6ACD
:101D3000FA0FE96E000EEA22EFCFDFFF2F51EA6AB9
:101D4000FA0FE96E000EEA22FE0EDBCFEFFF2F2B1B
:101D50002F51040806E227EC13F001012E6BFF0E51
:101D600054D051D02F51EA6A010FE96E010EEA22D8
:101D7000EFCFDFFF2F2B2F51060803E22E6BFF0E54
:101D800044D041D02F51EA6A070FE96E010EEA22D2
:101D9000EFCFDFFF2F2B2F51090803E22E6BFF0E31
:101DA00034D031D02F51EA6A100FE96E010EEA22C9
:101DB000EFCFDFFF2F2B2F510A0803E22E6BFF0E10
:101DC00024D021D02F51EA6A1A0FE96E010EEA22BF
:101DD000EFCFDFFF2F2B2F51020803E22E6BFF0EF8
:101DE00014D011D02F51EA6A1C0FE96E010EEA22BD
:101DF000EFCFDFFF2F2B2F51070803E22E6BFF0ED3
:101E000004D001D000D0DF5000D0E552E552E7CF3A
:041E1000D9FF1200E4
:0C1E1400DACFE4FFE2CFDAFFE9CFE4FF11
:101E2000EACFE4FFF6CFE4FFF7CFE4FFF5CFE4FF1E
:101E3000F3CFE4FFF4CFE4FFFACFE4FF00EE1CF0B1
:101E4000140EE80403E3EECFE4FFFBD700EE00F04E
:101E50001C0EE80403E3EECFE4FFFBD7E652AE50DE
:101E6000E66EDEEC11F0E5528C78E55200EE1BF0E8
:101E70001C0EE80403E3E5CFEDFFFBD700EE2FF0E7
:101E8000140EE80403E3E5CFEDFFFBD7E5CFFAFF3F
:101E9000E5CFF4FFE5CFF3FFE5CFF5FFE5CFF7FFA3
:101EA000E5CFF6FFE5CFEAFFE5CFE9FFE5CFDAFFC3
:101EB0001100DACFE4FFE2CFDAFFE9CFE4FFEACFA7
:101EC000E4FFF6CFE4FFF7CFE4FFF5CFE4FFF3CF75
:101ED000E4FFF4CFE4FFFACFE4FF00EE1CF0140EB1
:101EE000E80403E3EECFE4FFFBD700EE00F01C0EA6
:101EF000E80403E3EECFE4FFFBD7E652D9CFE6FFD9
:101F0000E1CFD9FF020EE12680EC0DF0DF6EDFCFCE
:101F1000E6FF83EC0DF0E552E76E010EE7CFDBFF45
:101F2000DBCFE6FF6DEC0DF0E5529E96020EE15C14
:101F300002E2E16AE552E16EE552E7CFD9FFE552F0
:101F400000EE1BF01C0EE80403E3E5CFEDFFFBD72A
:101F500000EE2FF0140EE80403E3E5CFEDFFFBD70E
:101F6000E5CFFAFFE5CFF4FFE5CFF3FFE5CFF5FFCF
:101F7000E5CFF7FFE5CFF6FFE5CFEAFFE5CFE9FFD5
:101F8000E5CFDAFF1100DACFE4FFE2CFDAFFE65265
:101F90009E90000001014781CF0ECF6E2D0ECE2600
:101FA000E552E5CFDAFF1100DACFE4FFE2CFDAFF46
:101FB000E9CFE4FFEACFE4FFF6CFE4FFF7CFE4FF99
:101FC000F5CFE4FFF3CFE4FFF4CFE4FFFACFE4FF73
:101FD00000EE1CF0140EE80403E3EECFE4FFFBD7A1
:101FE00000EE00F01C0EE80403E3EECFE4FFFBD7A5
:101FF000E652CCEC12F0CE6ACF6A9E94E55200EE27
:102000001BF01C0EE80403E3E5CFEDFFFBD700EE69
:102010002FF0140EE80403E3E5CFEDFFFBD7E5CF87
:10202000FAFFE5CFF4FFE5CFF3FFE5CFF5FFE5CF0E
:10203000F7FFE5CFF6FFE5CFEAFFE5CFE9FFE5CF14
:10204000DAFF1100D9CFE6FFE1CFD9FFE65295982C
:102050008C88D4EC13F003EC13F080EC10F05AEC05
:102060000DF06BEC13F0F28CF28EDF6A01014A6B1B
:10207000496B010148834891959893908AEC13F03D
:10208000010147A137D04791DF2A7AEC13F08A701B
:10209000DF50050A23E0010A19E0070A13E0010AEC
:1020A00009E0030A01E023D0C1EC00F0010148A1DE
:1020B00000D01DD0D3EC10F0FBEC10F0010148A1D2
:1020C00000D015D0010148A100D011D00DEC01F0D5
:1020D00077EC01F0010148A100D009D080EC06F0B6
:1020E000EAEC06F0010148A100D0DF6A00D001014E
:1020F00047A500D0C5D7E552E552E7CFD9FF12007A
:102100003F0E926E996AB86EB96AC26A800EC06E4E
:10211000C00E9A6E100EC16EC2801200D9CFE6FFBB
:10212000E1CFD9FF020EE126C2A2C282C2B2FED71F
:10213000010EC4CFDBFFC350DF6EDECF00F0DDCF7A
:1021400001F000C0F3FF01C0F4FF020EE15C03E206
:1021500000D0E16AE552E16EE552E7CFD9FF120007
:10216000D9CFE6FFE1CFD9FFFE0EDB50030A13E023
:10217000010A0DE0030A07E0010A01E010D0C29451
:10218000C296996A0CD0C284C296996A08D0C29449
:10219000C286996A04D0C284C286996A00D0E55288
:1021A000E7CFD9FF1200E66ADBDFE552B7DFF3CFF6
:1021B000C4F0F4CFC5F0C5C0DAF0C4C0DBF0010E46
:1021C000E66ECEDFE552AADFF3CFC6F0F4CFC7F05C
:1021D000020EE66EC5DFE552A1DFF3CFC8F0F4CF03
:1021E000C9F0030EE66EBCDFE55298DFF3CFCAF00C
:1021F000F4CFCBF01200D9CFE6FFE1CFD9FFE65202
:1022000051C1E9FFEA6AE9BEEA68D890E936EA36E0
:10221000DC0EE926000EEA22C4C0EEFFC5C0EDFFC9
:102220000101512B070EE76E5119E8AE02D051356E
:1022300003D0E750D880515501E2516BDF6ADFCF00
:1022400000F0070EE76E0018E8AE02D0E73402D0C7
:10225000E750005C13E2DFCFE9FFEA6AE9BEEA6813
:10226000D890E936EA36DC0EE926000EEA22EE5076
:102270000001D027EE50D123DF2AE1D7080E296EC6
:102280002A6AD0C024F0D1C025F05FEC09F024C048
:10229000D0F025C0D1F0E552E552E7CFD9FF1200CA
:1022A000D9CFE6FFDACFE6FFE1CFD9FFE2CFDAFF01
:1022B000E652006801687F0E026E036AD950FA0F79
:1022C000E96EFF0EDA20EA6EEE500016EE500116AF
:1022D000EE500216EE5003166AD800C0EEFF01C0A1
:1022E000EEFF02C0EEFF03C0EEFFFD0EDB50800BE1
:1022F00002E0010E01D0000EE66E59D8060EE92666
:10230000000EEA22E552E750EF6EFC0EDBCF00F044
:10231000FD0EDBCF01F0D89000360136FC0E00C078
:10232000DBFFFD0E01C0DBFFDB50E66E40D8040E84
:10233000E926000EEA22E552E750EE6EED6AFD0E48
:10234000DB50006E016AFF0E001818E1015016E123
:102350002ED8EECF00F0EECF01F0EECF02F0EFCFAF
:1023600003F0005001100210031006E0210E0101DD
:102370004D6F4E6B800E0BD0040E09D0FD0EDB505E
:1023800008E115D8EE6AEE6AEE6AEE6A010EDF6EBB
:1023900006D0020EDF6E0BD8EE52EE52EE8EDF50FC
:1023A000E552E552E5CFDAFFE7CFD9FF1200F80E8C
:0C23B000DBCFE9FFF90EDBCFEAFF1200E3
:0423BC00D9CFE6FF90
:1023C000E1CFD9FFFE0EDB502A0A34E0060A2EE0E8
:1023D0006D0A1BE0650A14E0630A12E0170A10E0B8
:1023E000010100A173D001014F51090A61E00E0AF9
:1023F00051E0030A41E0060A31E0030A21E066D019
:1024000001014F2B0101009162D0050E0101E76E21
:102410004F19E8AE02D0E73402D0E7504F5D02E337
:102420000101008101014F6B506B51D001014F2B15
:10243000506B4DD001014F6B506B0101009147D0A3
:102440005051502BE96EEA6AE9BEEA68010EE926AE
:10245000010EEA22FE0EDBCFEFFF38D05051502B99
:10246000E96EEA6AE9BEEA68070EE926010EEA2289
:10247000FE0EDBCFEFFF2AD05051502BE96EEA6AF7
:10248000E9BEEA68100EE926010EEA22FE0EDBCF55
:10249000EFFF1CD05051502BE96EEA6AE9BEEA68A2
:1024A0001A0EE926010EEA22FE0EDBCFEFFF0ED058
:1024B0005051502BE96EEA6AE9BEEA681C0EE92623
:1024C000010EEA22FE0EDBCFEFFF00D000D0E55276
:0624D000E7CFD9FF120066
:0A24D6002A0EF66E000EF76E000EDF
:1024E000F86E01010900F550356F0900F550366F9F
:1024F00003E1356701D03DD00900F550306F090088
:10250000F550316F0900F550326F09000900F550A0
:10251000E96E0900F550EA6E090009000900F5505E
:10252000336F0900F550346F09000900F6CF37F119
:10253000F7CF38F1F8CF39F130C1F6FF31C1F7FFED
:1025400032C1F8FF0101335302E1345307E00900BF
:10255000F550EE6E3307F8E23407F9D737C1F6FFCE
:1025600038C1F7FF39C1F8FF01013507000E365BAE
:04257000BFD71200BF
:0C2574009484BD96BD84BD82BD909E94F1
:102580009D849F94CD8ECD8ACD88CD92CD809E9016
:102590009D90CE6ACF6A120001013C5133E10F01D8
:1025A000BE5001013E270F01BF5001013F23000E25
:1025B000402341230A0E3D5D24E33A6B3B6B3D6BA8
:1025C0003EC122F03FC123F040C124F041C125F0BB
:1025D0000A0E276E286A296A2A6A9AEC13F022C02A
:1025E0003AF123C03BF13BC100F0016A00C04BF15E
:1025F0003AC14CF101013E6B3F6B406B416B010EE8
:062600003C6F3D2B1200AF
:0A260600936A959E7F0E6F6E6E6A58
:102610006D6A6C6A6B686A6A7C6A7D6A160E7A6E8D
:102620001A0E7B6EC00E796E010E786EA00E776E5C
:10263000010E766EA20E756E010E746E060E736E2E
:10264000010E726E0C0E7F6E800E7E6E1200DBC06D
:1026500079FFACA2FED7FCC077FFACA2FED7FDC0CD
:1026600075FFACA2FED7FEC073FFACA2FED712006E
:10267000D9CFE6FFDACFE6FFE1CFD9FFE2CFDAFF2D
:10268000E652E652D950FD0F006EFF0EDA2000C070
:10269000DEFFDD6EDECFE9FFDDCFEAFFEF9EFA0E53
:1026A000DBCF00F0FB0EDBCF01F0FC0EDBCF02F046
:1026B000FD0EDBCF03F000C022F001C023F002C00A
:1026C00024F003C025F0E552E552E552E5CFDAFFEC
:0626D000E7CFD9FF120064
:0A26D600CD9ECF0ECF6E2D0ECE6EFE
:1026E000CD8CCD8ACD98CD92CD86CD809E909D808B
:1026F0009F801200010147934795492B0A0E495DBF
:1027000008E34783496B4A2B0A0E4A5D02E347857B
:102710004A6B120001014451030A08E0010A03E078
:102720008C888A9006D08C888A7003D08C788A80B6
:0427300000D01200C3
:0C273400216A206A1F6A1E6A200EE76EF0
:10274000D89022362336243625361E361F362036BC
:10275000213627501E5C28501F58295020582A50D7
:10276000215809E327501E5E28501F5A2950205A2D
:0C2770002A50215A222AE72EE4D712003A
:04277C00216A206A44
:10278000100EE76ED8902436253620362136295093
:10279000205C2A50215805E32950205E2A50215AF6
:0827A000242AE72EF0D71200F5
:0827A800948C948EAC9CAC8A69
:1027B000AC98AC84AB9CAB889D8AAB8E400EAF6E60
:0627C000AA92AA9012008B
:0A27C60012EE00F022EE00F0F86AB7
:1027D0001D9C6BEC12F0F1EC13F022EC10F0FBD727
:0227E0001200E5
:0227E2001200E3
:0827E4000000000000000000ED
:0127EC0000EC
:0327ED00000000E9
:0B27F0000000000000000000000000DE
:0527FB003031323334DF
:082800003536373839000000BD
:022808000000CE
:00000001FF
