:020000040000FA
:0600000084EF09F012007C
:080008009EA602D059EF07F09B
:0A0010009EA002D0C3EF07F012001B
:06002A0004000E140000AA
:10003000C40000000D0000000B140000E5000000EB
:10004000030000004313000000010000C80000008E
:0C00500042130000E90000000100000065
:04005C00948C948E5E
:10006000AC9CAC8AAC98AC84AB8EAB9CAB880A0ED3
:10007000AF6EAA92AA901200D9CFE6FFE1CFD9FFC6
:100080001B0EE66E57EC09F0E552ACA2FED75B0EF4
:10009000E66E57EC09F0E552ACA2FED7FD0EDBCFC1
:1000A00010F00A0EE76E1018E8AE02D0E73402D066
:1000B000E750105C11E30A0E106E10C00EF0FD0E3A
:1000C000DBCF09F077EC08F00950300FE66E57EC03
:1000D00009F0E552ACA2FED7FD0EDBCF10F010C048
:1000E00009F00A0E0E6E77EC08F00550300FE66E40
:1000F00057EC09F0E552ACA2FED73B0EE66E57EC8A
:1001000009F0E552ACA2FED7FE0EDBCF10F00A0ECE
:10011000E76E1018E8AE02D0E73402D0E750105C6A
:1001200011E30A0E106E10C00EF0FE0EDBCF09F0C8
:1001300077EC08F00950300FE66E57EC09F0E55205
:10014000ACA2FED7FE0EDBCF10F010C009F00A0EF5
:100150000E6E77EC08F00550300FE66E57EC09F0A4
:10016000E552ACA2FED7480EE66E57EC09F0E55218
:10017000ACA2FED7E552E7CFD9FF1200000EE66E23
:10018000010EE66E31EC09F0E552E5520D0EE66E19
:1001900057EC09F0E5521200010EE66EE66E6CDFD8
:1001A000E552E552050EE66E010EE66E31EC09F001
:1001B000E552E552020EE66E010EE66E5DDFE55297
:1001C000E552460EE66E010EE66E31EC09F0E552A0
:1001D000E552060EE66E010EE66E4EDFE552E55282
:1001E000870EE66E010EE66E31EC09F0E552E5523F
:1001F000070EE66E010EE66E3FDFE552E552460E53
:10020000E66E010EE66E31EC09F0E552E5521200A1
:10021000D9CFE6FFE1CFD9FFE652FB0EDBCF10F0DE
:10022000FC0EDBCF11F0E80E0D6E030E0E6E10C04B
:1002300008F011C009F091EC08F008C010F009C0F6
:1002400011F0FD0EDBCFE9FFFE0EDBCFEAFF10C0A1
:10025000EFFFFD0EDBCFE9FFFE0EDBCFEAFFEFCFB6
:1002600010F0116A10BE1168E80E1102F3CF11F000
:10027000030E1002F3501126E80E1002F3CF10F017
:10028000F4501126D950FB0FE96EFF0EDA20EA6E0A
:100290001050EE5E1150ED5AFB0EDBCF10F0FC0E4D
:1002A000DBCF11F0640E0D6E0E6A10C008F011C0A5
:1002B00009F091EC08F008C010F009C011F0010E2F
:1002C000E76EFD0EDBCFE9FFFE0EDBCFEAFFE75066
:1002D000E926000EEA2210C0EFFF010EE76EFD0EC8
:1002E000DBCFE9FFFE0EDBCFEAFFE750E926000E89
:1002F000EA22EF50640DF3CF10F0116A10BE1168BE
:10030000D950FB0FE96EFF0EDA20EA6E1050EE5E58
:100310001150ED5AD950FB0FE96EFF0EDA20EA6E4C
:10032000EE52ED6AFB0EDBCF10F0FC0EDBCF11F0CE
:100330000A0E0D6E0E6A10C008F011C009F091ECA3
:1003400008F008C010F009C011F0020EE76EFD0EB3
:10035000DBCFE9FFFE0EDBCFEAFFE750E926000E18
:10036000EA2210C0EFFFFB0EDBCF10F0FC0EDBCF5C
:1003700011F00A0E0D6E0E6A10C008F011C009F0DF
:1003800091EC08F004C010F005C011F0030EE76E08
:10039000FD0EDBCFE9FFFE0EDBCFEAFFE750E926DB
:1003A000000EEA2210C0EFFFDF6ADFCF10F0040E6C
:1003B000E76E1018E8AE02D0E73402D0E750105CC8
:1003C00013E2300E126EDFCF10F0116A10BE11680A
:1003D000FD0EDB501024E96EFE0EDB501120EA6E9C
:1003E0001250EF26DF2AE1D7E552E552E7CFD9FFD9
:1003F0001200D9CFE6FFE1CFD9FF050EE126949494
:100400008B84030EE66E040EE66E36DEE552E55290
:1004100060C0E6FF61C0E6FFD9CFE6FFDACFE6FFB6
:10042000F7DEE552E552E552E552D9CFE6FFDACFE5
:10043000E6FF31EC09F0E552E552030EE66E0D0ED3
:10044000E66E1ADEE552E55262C0E6FF63C0E6FFE3
:10045000D9CFE6FFDACFE6FFDBDEE552E552E55223
:10046000E552D9CFE6FFDACFE6FF31EC09F0E552ED
:10047000E552030EE66E160EE66EFEDDE552E5521F
:1004800064C0E6FF65C0E6FFD9CFE6FFDACFE6FF3E
:10049000BFDEE552E552E552E552D9CFE6FFDACFAD
:1004A000E6FF31EC09F0E552E552030EE66E210E4F
:1004B000E66EE2DDE552E55266C0E6FF67C0E6FFA4
:1004C000D9CFE6FFDACFE6FFA3DEE552E552E552EB
:1004D000E552D9CFE6FFDACFE6FF31EC09F0E5527D
:1004E000E552030EE66E2D0EE66EC6DDE552E552D0
:1004F00068C0E6FF69C0E6FFD9CFE6FFDACFE6FFC6
:1005000087DEE552E552E552E552D9CFE6FFDACF74
:10051000E6FF31EC09F0E552E552080EE66E040EF6
:10052000E66EAADDE552E552C8C1E6FFC9C1E6FFA5
:10053000D9CFE6FFDACFE6FF6BDEE552E552E552B2
:10054000E552D9CFE6FFDACFE6FF31EC09F0E5520C
:10055000E552080EE66E0D0EE66E8EDDE552E552B2
:100560000001DC390F0B0F0B300FE66E57EC09F072
:10057000E552ACA2FED70F0E0001DC15300FE66E7F
:1005800057EC09F0E552ACA2FED7080EE66E160E47
:10059000E66E72DDE552E5520001DD390F0B0F0BFF
:1005A000300FE66E57EC09F0E552ACA2FED70F0E05
:1005B0000001DC15300FE66E57EC09F0E552ACA2F5
:1005C000FED7080EE66E220EE66E56DDE552E552C7
:1005D0000001DE390F0B0F0B300FE66E57EC09F000
:1005E000E552ACA2FED70F0E0001DC15300FE66E0F
:1005F00057EC09F0E552ACA2FED7080EE66E2E0EBF
:10060000E66E3ADDE552E5520001DF390F0B0F0BC4
:10061000300FE66E57EC09F0E552ACA2FED70F0E94
:100620000001DC15300FE66E57EC09F0E552ACA284
:10063000FED78B94050EE15C02E2E16AE552E16EC1
:08064000E552E7CFD9FF1200DB
:08064800D9CFE6FFE1CFD9FF95
:10065000939C939EFC0EDBCF10F00F0EE76E1018EC
:10066000E8AE02D0103403D0E750D880105405E231
:100670000F0EF36EFC0EF3CFDBFFFC0EDB501DE024
:100680008A8CFD0EDBA002D08A8E01D08A9E0000EB
:100690008A9CFD0EDBCF10F0FE0EDBCF11F0D89060
:1006A00011321032FD0E10C0DBFFFE0E11C0DBFF59
:1006B000FC0EDB06FC0EDB50E3E1938E8A8CF90E18
:1006C000DBCF10F00F0EE76E1018E8AE02D010343A
:1006D00003D0E750D880105405E20F0EF36EF90EE8
:1006E000F3CFDBFFF90EDB5035E08A9C81AE09D0F9
:1006F000FA0EDBCFE9FFFB0EDBCFEAFFEE80ED5217
:1007000008D0FA0EDBCFE9FFFB0EDBCFEAFFEE905D
:10071000ED52F90EDB06F90EDB5017E0FA0EDBCFD7
:10072000E9FFFB0EDBCFEAFFEECF10F0EFCF11F0C9
:10073000D89010361136FA0EDBCFE9FFFB0EDBCF77
:10074000EAFF10C0EEFF11C0EDFF00008A8CF90E29
:10075000DB50CBE18A9C000E00D0E552E7CFD9FFF9
:100760001200D9CFE6FFE1CFD9FF060EE126040E35
:10077000DF6E010EDB6A9394040EDB6A8A94010E2D
:10078000DBCFE6FFD950020FE66E000EDA20E66EF0
:10079000DFCFE6FF040EDBCFE6FF050EDBCFE6FF83
:1007A00053DF106E060EE15E10508A84010EF36E68
:1007B000040EF3CFDBFF8A94010EDBCFE6FFD950A6
:1007C000020FE66E000EDA20E66EDFCFE6FF040EC3
:1007D000DBCFE6FF050EDBCFE6FF36DF106E060E41
:1007E000E15E10508A84060EE15C02E2E16AE552A5
:1007F000E16EE552E7CFD9FF1200D9CFE6FFE1CF96
:10080000D9FF040EE126020EDB6A030EDB6A8A942E
:100810000001666B676B686B696B040EDF6EDE52FE
:10082000DD6E030EF36E020EF3CFDBFF010EDBCFA6
:10083000E6FF660EE66E000EE66EDFCFE6FF020E06
:10084000DBCFE6FF030EDBCFE6FFFEDE106E060E0B
:10085000E15E1050DF6ADE520B0EDD6E0001666B4A
:10086000676B010EDBCFE6FF660EE66E000EE66EEE
:10087000DFCFE6FF020EDBCFE6FF030EDBCFE6FFA6
:10088000E3DE106E060EE15E10500001686B696BCE
:10089000010EDBCFE6FF680EE66E000EE66EDFCFE0
:1008A000E6FF020EDBCFE6FF030EDBCFE6FFCCDE7A
:1008B000106E060EE15E10508A84040EE15C02E2C6
:1008C000E16AE552E16EE552E7CFD9FF1200D9CFD8
:1008D000E6FFE1CFD9FFE65266C0F0F167C0F1F163
:1008E00068C0F2F169C0F3F1E552E552E7CFD9FFF4
:1008F0001200D9CFE6FFE1CFD9FF040EE126050EA5
:10090000DF6EDE520F0EDD6E939A030EF36E020E53
:10091000F3CFDBFF8A9A010EDBCFE6FF600EE66EB7
:10092000000EE66EDFCFE6FF020EDBCFE6FF030E22
:10093000DBCFE6FF89DE106E060EE15E10508A8A7C
:10094000130EF36E020EF3CFDBFF8A9A010EDBCF9C
:10095000E6FF620EE66E000EE66EDFCFE6FF020EE9
:10096000DBCFE6FF030EDBCFE6FF6EDE106E060E7A
:10097000E15E10508A8A0B0EF36E020EF3CFDBFF9E
:100980008A9A010EDBCFE6FF640EE66E000EE66E7D
:10099000DFCFE6FF020EDBCFE6FF030EDBCFE6FF85
:1009A00053DE106E060EE15E10508A8A040EE15C82
:1009B00002E2E16AE552E16EE552E7CFD9FF1200AB
:1009C000D9CFE6FFE1CFD9FFE6520F0E0001611744
:1009D0006317651760C010F061C011F0030ED89066
:1009E00011321032E804FBE110C060F011C061F078
:1009F00062C010F063C011F0030ED89011321032B3
:100A0000E804FBE110C062F011C063F064C010F0B4
:100A100065C011F0030ED89011321032E804FBE1EA
:100A200010C064F011C065F0000160AF07D060290C
:100A3000E86C010F606F61C0E6F102D00101E66B66
:100A4000000162AF07D06229E86C010F626F63C0DA
:100A5000E8F102D00101E86B000164AF07D064291E
:100A6000E86C010F646F65C0EAF102D00101EA6B26
:100A700060C0E7F162C0E9F164C0EBF10001E62B70
:100A8000000EE723E73504E2E6510808000EE755BB
:100A900002E2E66BE76BE552E552E7CFD9FF1200C1
:100AA000948C958695929584C696C684C692C68087
:100AB000C79EC688C79C9D869E969F86C68A120042
:100AC0009D96C69A1200D9CFE6FFE1CFD9FFFE0E60
:100AD000DB50C96EC6AE04D0C69E000E03D002D055
:100AE000010E00D0E552E7CFD9FF1200C95000D067
:100AF0001200D9CFE6FFE1CFD9FFE6520001CF5176
:100B00003BE1FE0EDB50500A33E0030A2DE0010A00
:100B100027E0060A21E0020A1BE0190A15E00C0A88
:100B20000FE0040A09E0060A03E0CF6BFF0EDBD0FA
:100B3000D06B010ECF6F20D0D06B020ECF6F1CD0C8
:100B4000D06B030ECF6F18D0D06B040ECF6F14D0C4
:100B5000D06B050ECF6F10D0D06B060ECF6F0CD0C0
:100B6000D06B070ECF6F08D0D06B080ECF6F04D0BC
:100B7000D06B090ECF6F00D0CF51090A01E194D09C
:100B8000010A01E181D00F0A6FE0010A5DE0030A6A
:100B90004BE0010A39E0070A27E0010A15E0030AE1
:100BA00003E0CF6BFF0E9FD0D051EA6AE60FE96EEB
:100BB000010EEA22EFCFDFFFD02BD051060803E26F
:100BC000CF6BFF0E90D08DD0D051EA6AEC0FE96E5A
:100BD000010EEA22EFCFDFFFD02BD051040803E251
:100BE000CF6BFF0E80D07DD0D051EA6AF00FE96E56
:100BF000010EEA22EFCFDFFFD02BD051020803E233
:100C0000CF6BFF0E70D06DD0D051EA6AF80FE96E4D
:100C1000010EEA22EFCFDFFFD02BD051020803E212
:100C2000CF6BFF0E60D05DD0D051EA6AF40FE96E51
:100C3000010EEA22EFCFDFFFD02BD051040803E2F0
:100C4000CF6BFF0E50D04DD0D051EA6AFA0FE96E4B
:100C5000010EEA22EFCFDFFFD02BD051020803E2D2
:100C6000CF6BFF0E40D03DD0D051EA6AFC0FE96E49
:100C7000010EEA22EFCFDFFFD02BD051020803E2B2
:100C8000CF6BFF0E30D02DD0D051EA6AFE0FE96E47
:100C9000010EEA22EFCFDFFFD02BD051020803E292
:100CA000CF6BFF0E20D01DD0D051EA6ADB0FE96E6A
:100CB000000EEA22EFCFDFFFD051EA6ADB0FE96EC8
:100CC000000EEA22FE0EDBCFEFFFD02BD05104083E
:100CD00006E2D0EC08F00001CF6BFF0E04D001D08B
:100CE00000D0DF5000D0E552E552E7CFD9FF120027
:100CF0003F0E926E996AB86EB96AC26A800EC06E73
:100D0000C00E9A6E100EC16EC2801200D9CFE6FFDF
:100D1000E1CFD9FF020EE126C2A2C282C2B2FED743
:100D2000010EC4CFDBFFC350DF6EDECF10F0DDCF8E
:100D300011F010C0F3FF11C0F4FF020EE15C03E2FA
:100D400000D0E16AE552E16EE552E7CFD9FF12002B
:100D5000D9CFE6FFE1CFD9FFFE0EDB50030A13E047
:100D6000010A0DE0030A07E0010A01E010D0C29475
:100D7000C296996A0CD0C284C296996A08D0C2946D
:100D8000C286996A04D0C284C286996A00D0E552AC
:100D9000E7CFD9FF1200E66ADBDFE552B7DFF3CF1A
:100DA000C8F1F4CFC9F1010EE66ED2DFE552AEDF35
:100DB000F3CFCAF1F4CFCBF1020EE66EC9DFE552F4
:100DC000A5DFF3CFCCF1F4CFCDF1030EE66EC0DF9B
:100DD000E5529CDFF3CFCEF1F4CFCFF11200D9CFA3
:100DE000E6FFE1CFD9FFE652E9C0E9FFEA6AE9BED2
:100DF000EA68D890E936EA36D60EE926010EEA22EC
:100E0000C8C1EEFFC9C1EDFF0001E92BDF6ADFCFEA
:100E100010F0080EE76E1018E8AE02D0E73402D0EA
:100E2000E750105C13E2DFCFE9FFEA6AE9BEEA6847
:100E3000D890E936EA36D60EE926010EEA22EE50BF
:100E40000101D427EE50D523DF2AE1D7DFCF10F000
:100E5000116A10BE1168D4C108F0D5C109F010C0E4
:100E60000DF011C00EF091EC08F008C0D4F109C0EB
:100E7000D5F1D4C1F8F1080ED4C1E7FF070B04E0A7
:100E8000E742E79EE806FCE1E7500101F96F080E32
:100E90000001E76EE919E8AE02D0E93503D0E7506A
:100EA000D880E95501E2E96BE552E552E7CFD9FF79
:020EB00012002E
:0E0EB200DACFE4FFE2CFDAFFE9CFE4FFEACFC8
:100EC000E4FFF6CFE4FFF7CFE4FFF5CFE4FFF3CF85
:100ED000E4FFF4CFE4FFFACFE4FF00EE00F0100EE1
:100EE000E80403E3EECFE4FFFBD700EE10F0030EBF
:100EF000E80403E3EECFE4FFFBD7E652D9CFE6FFE9
:100F0000E1CFD9FF020EE12676EC05F0DF6EDFCFF0
:100F1000E6FF79EC05F0E552E76E010EE7CFDBFF67
:100F2000DBCFE6FF63EC05F0E5529E96020EE15C36
:100F300002E2E16AE552E16EE552E7CFD9FFE55200
:100F400000EE12F0030EE80403E3E5CFEDFFFBD75C
:100F500000EE0FF0100EE80403E3E5CFEDFFFBD742
:100F6000E5CFFAFFE5CFF4FFE5CFF3FFE5CFF5FFDF
:100F7000E5CFF7FFE5CFF6FFE5CFEAFFE5CFE9FFE5
:100F8000E5CFDAFF1100DACFE4FFE2CFDAFFE65275
:100F90009E9000000001E181CF0ECF6E2D0ECE2677
:100FA000E552E5CFDAFF1100D9CFE6FFE1CFD9FF57
:100FB000E652B7EC08F078EC06F02EEC00F050ECBE
:100FC00005F0F5EC08F0BEEC00F0CCEC00F0F28C93
:100FD000F28EDF6A0001E46BE36B0001E295E297B9
:100FE000E28916EC09F00001E1A12CD0E191DF2AA1
:100FF00006EC09F0DF50050A18E0010A0DE0060AC8
:1010000006E0030A01E017D0B1EC03F014D0CBECFA
:1010100006F0EFEC06F00FD0FDEC03F00001665196
:10102000671102E067EC04F006D079EC04F0E0EC24
:1010300004F0DF6A00D00001E1A504D016EC09F04D
:10104000F9EC01F0D0D7E552E552E7CFD9FF120015
:101050002A0EF66E000EF76E000EF86E0001090003
:10106000F550D66F0900F550D76F03E1D66701D070
:101070003DD00900F550D16F0900F550D26F09003D
:10108000F550D36F09000900F550E96E0900F550DD
:10109000EA6E090009000900F550D46F0900F55007
:1010A000D56F09000900F6CFD8F0F7CFD9F0F8CF07
:1010B000DAF0D1C0F6FFD2C0F7FFD3C0F8FF0001CD
:1010C000D45302E1D55307E00900F550EE6ED40782
:1010D000F8E2D507F9D7D8C0F6FFD9C0F7FFDAC0D4
:0E10E000F8FF0001D607000ED75BBFD7120045
:0210EE00006A96
:1010F0000EAE7DEF08F00E6C001E09AE82EF08F018
:10110000096C001E92EC09F009BE8CEF08F000AEED
:10111000000C096C056C000C00BE89EF08F001881A
:10112000FF0C006A0EAE9AEF08F00D6C0E1EE86A16
:101130000E22001E09AEA2EF08F0086C091EE86A34
:101140000922001E6EEC09F009BEB2EF08F000AEF5
:10115000000C086C091EE86A0922046C051EE86A86
:0E1160000522000C00BEA9EF08F00188FF0C6C
:02116E00936A82
:10117000959E7F0E6F6E6E6A6D6A6C6A6B686A6AA6
:101180007C6A7D6A160E7A6E1A0E7B6E010E786E80
:10119000766E746E726E0C0E7F6E800E7E6E120016
:1011A000DCC079FFDCC0E6FF57EC09F0E552ACA2E9
:1011B000FED7DDC077FFDDC0E6FF57EC09F0E55252
:1011C000ACA2FED7DEC075FFDEC0E6FF57EC09F02B
:1011D000E552ACA2FED7DFC073FFDFC0E6FF57ECDD
:0A11E00009F0E552ACA2FED71200A0
:0611EA009E909D809F8095
:1011F000CD9ECF0ECF6E2D0ECE6ECD8CCD8ACD98DE
:10120000CD92CD86CD80F28CF28E12000001E1935A
:10121000E195E32B0A0EE35D08E3E183E36BE42B46
:101220000A0EE45D02E3E185E46B12000001E2A531
:1012300002D08C888A8CE2A70FD08A7C8A50400B1F
:1012400001E0010E106E8C50100B01E0010E105CDD
:1012500002E1000E01D0010EE2A902D08C888A7C46
:0212600012007A
:0E126200D9CFE6FFDACFE6FFE1CFD9FFE2CF2A
:10127000DAFFACA2FED7FC0EDBCFE9FFFD0EDBCF21
:10128000EAFFEF50E66E57EC09F0E552FC0EDBCFBB
:10129000E9FFDB2AFD0EDBCFEAFF01E3DB2AEF509B
:0E12A000E8E1E552E5CFDAFFE7CFD9FF120013
:0212AE00D9CF96
:1012B000E6FFDACFE6FFE1CFD9FFE2CFDAFFACAC51
:1012C00004D0AC900001E8B3AC80FD0EDB50AD6EF5
:0C12D000E552E5CFDAFFE7CFD9FF1200AE
:0412DC00056A046A31
:1012E000100EE76ED89008360936043605360D50D4
:1012F000045C0E50055805E30D50045E0E50055A6F
:08130000082AE72EF0D71200C5
:0813080012EE00F022EE00F0ED
:10131000F86A019C28EC08F0A0EC09F0D4EC07F086
:04132000FBD71200E5
:0C132400056A080EE76ED8900936053601
:101330000E50055C02E3056E092AE72EF7D712006E
:02134000120099
:0113420000AA
:0D1343001B5B324A007C20582041786978FD
:10135000207C20592041786973207C205A204178D4
:101360006973207C20436F6D706173732058207CFB
:1013700020436F6D706173732059207C0000000062
:101380000000000000000000002D2D2D2D2D2D2D22
:101390002D2D2D2D2D2D2D2D2D2D2D2D2D2D2D2D7D
:1013A0002D2D2D2D2D2D2D2D2D2D2D2D2D2D2D2D6D
:1013B0002D2D2D2D2D2D2D2D2D2D2D2D2D000000E4
:1013C000000000000000000000007C2052616E67F9
:1013D0006520207C20506974636820207C20205286
:1013E0006F6C6C20207C20202020596177202020E9
:1013F000207C20436F6C6C6563746976657C20008B
:0B1400000000000000000000000000E1
:03140B00000000DE
:02140E0030317B
:0B141000323334353637383900000025
:00000001FF
