:020000040000fa
:080000000401040000000000ef
:020000040000fa
:10020000a601040000000000afaa200080792200af
:100210000001880000000000050007000c00070036
:10022000da130200000000000040da000000fe00c7
:100230004440a900402c20000000e00003003200f0
:1002400000002000a00188004440a8000000060033
:10025000a09a210001002000160037006200400033
:10026000e0804800910188009001ba0062004000df
:10027000e0804800910188009002ba0062004000ce
:10028000e08048000002eb006028e10005003a0031
:100290008301e90007003300038009000059eb00e7
:1002a000040037006128e100010032000082eb0009
:1002b00005000700910188001001ba000200e0006b
:1002c000e6ff3a00000005009101880080027800f6
:1002d00062004000e08048003559ba008301e9001f
:1002e000080032002559ba008301e90005003200f8
:1002f0000400e000f4ff320015d9ba008301e900e0
:10030000f1ff3a000000060080017800000178004b
:1003100011407800315978000004e000fcff3a00f9
:1003200003007800000006000002780080017800d9
:10033000010037008159780002004200808f51008f
:10034000fcff3a000400780000000600881f7800d7
:100350000204780023000700080040004f047800e2
:10036000000006000000fa00881f780000047800f2
:100370003fb99700ea81570080007800601a20009a
:1003800021000700800078000000e0000200350036
:100390000040eb0080707c00010078004f04780082
:1003a0000080fa000000060080017800000178005b
:1003b000010037000201e8001204e000fdff3a00ee
:1003c000020037000201e8008100e80011407800d7
:1003d000004978000004e000faff3a0003007800ca
:1003e000000006000002780080017800010037005c
:1003f000b159780002004200808f5100fcff3a00a2
:1004000004007800000006006200fa00889fbe0029
:100410008a9fbe000004be000205780083007800b9
:1004200060f92f000f004000af00070088979f0081
:1004300099979f000000eb00a09f9f009a457800cd
:100440000b80fb000000ea00cf04de000904e90095
:1004500050c2b30080cf550001003200090478007b
:100460000800e0000b003400080178008a007800e2
:100470001f9097008f9197000300010090979f00b5
:100480000000e000930032002f9897000800400021
:10049000a09f9f000905450050c2b30080cf5500c2
:1004a000040032000b04e000e4ff3a002f989700ac
:1004b000890037000000eb00809f9f00f0979f00ad
:1004c000e0979f00d0979f00c0979f00b0979f0034
:1004d000c09f9f0009003700a0a9200000805000a5
:1004e00000004000e1a82000e08078004f989700cd
:1004f00001007000c09f9f000a05e8001a447800c0
:100500008800fb00a0a920007c0007008000780084
:100510000000e000f0ff3a00a0c2b300804f54009a
:100520000e003a00bf8897000180e900b08f9f005d
:1005300090007800b19f9f000100e00005003d00a1
:100540000100ea00b09f9f004f9897000020a00094
:10055000c09f9f000a05e80010003700b19f9f0070
:1005600009003700bf989700f0ff2700808f5000e8
:10057000040032006a08b900000041000300400096
:10058000b09f9f000a05e8001a01fb0003fd2f0041
:1005900003004100e90f5000f2ff3600e0c2b30053
:1005a0009a4f1000040032000080eb00909f9f00e3
:1005b0008a0478001c0037008a04e800a0c2b30057
:1005c000994f100007003a00bf8897000180e900aa
:1005d000b08f9f0010007800909f9f008a84e800f1
:1005e000110037000000eb00909f9f0009003700ca
:1005f0009f989700f0ff2700808f50000400320082
:100600006a08b9000000410003004000909f9f006d
:100610008904e8001901fb0003fd2f0003004100dd
:10062000e90f5000f2ff3600194478008800fb0003
:1006300020aa2000310007000000e00002003a007c
:1006400000447800010037008904e800a87f9f007b
:1006500080c6b300804f540004003a00664050004a
:10066000994f14000700320008003700c0c6b300dd
:10067000804f540005003a00994f140003003a00df
:1006800065404000a07f9f008904e8000905e8005c
:10069000c8fb2f000f04440060f92f000f0040003a
:1006a0008085e800880178001901fb00800078004f
:1006b0000b007800190007000000e00005003a0078
:1006c000880078000b0078005e0107000000e00061
:1006d0005aff3d000080eb004f05be004f04be00f6
:1006e0000080fa00000006000200fa00f1bf9f003f
:1006f000010878000080fa000000060004003700be
:100700001004e00001003a00000005000000e800cd
:1007100090cf1000faff3a0000000600889fbe004c
:100720008a1f780000047800010278008244780073
:1007300003057800e0c6b300804f5100d7003200b7
:1007400015003c006b405000804f510024003200e7
:100750000a003c0070405000804f510014013200ec
:1007600065404000804f51007600320050c2b30017
:10077000804f510027013a002301370040c6b300e3
:10078000804f51001b00320065404000804f5100f7
:1007900020013a001700370030c7b300804f5100e6
:1007a0000301320007003c0064405000804f5100bc
:1007b000640032000040e800804f510015013a000b
:1007c000ec00370050c7b300804f51005d0032008d
:1007d00063404000804f51000e013a00590037003d
:1007e0009180e900010a78007800900011f079000a
:1007f0000e01370028619000c0c6b300804f510041
:100800000a003a001400780064015000020a7800df
:100810001200be004f88de00cf80de001202be0054
:1008200000037800800378001500370010c7b3007c
:10083000804f510002003a00940078000400370015
:1008400094007800a0c6b300804f510005003a0024
:1008500068805000000a78003002be002003be000d
:10086000070037000180e900000a780010007800d6
:1008700000027800cfa2de0005037800860378002e
:10088000049cbe000694be00a860900080c6b30021
:1008900080cf50000e00320020c6b30080cf500041
:1008a00005003a000400fb00cf80de000101780063
:1008b000820178000a00370040c7b30080cf5000a3
:1008c000030032006640400080cf500006003a002e
:1008d00004007800cf80de000101780082017800fa
:1008e000009cbe000294be003800be002801be007d
:1008f000e00f5000e08f5800e00f5900e08f5900e2
:1009000003003d0078009000d1c2b3000a00370018
:10091000081090000018a300030032007800900037
:10092000b1c2b300040037000008a3005600320033
:100930007800900001c2b30001707d000000e80063
:100940005000370028619000c0c6b300804f5100ae
:1009500007003a009400780064805000000a780094
:100960001002be000003eb0086037800150037007c
:1009700010c7b300804f510002003a009400780085
:100980000400370094007800a0c6b300804f5100e7
:1009900005003a0068805000000a78003002be006e
:1009a0002003be00070037000180e900000a78003c
:1009b00010007800000278000500200006002000ea
:1009c00007002000049cbe000694be00a8609000b2
:1009d00080c6b30080cf50000e00320020c6b300a6
:1009e00080cf500005003a000480fb000100200089
:1009f00002002000030020000a00370040c7b300b7
:100a000080cf5000030032006640400080cf50008d
:100a100006003a00040078000100200002002000d7
:100a200003002000009cbe000294be00081090004d
:100a30000038a300140032003800be002801be00b8
:100a4000e00f5000e08f5800e00f5900e08f590090
:100a50000d00320080c7b30080cf54000300320085
:100a600080c5b30080cf540007003a0078009000a2
:100a700001c3b30001707d008000e80089707d0033
:100a80000080e800700498007800900000004500a5
:100a9000600498008940780042003700a860900008
:100aa000c0c6b30080cf5000250032000a003c00d1
:100ab0006440500080cf50002800320000c0e800a1
:100ac00080cf5000140032006840500080cf5000aa
:100ad00022003a000a00370040c7b30080cf500020
:100ae0001e0032006640400080cf50001b003200e4
:100af0006940500080cf500018003a0006003700cf
:100b00001480e900000a780010007800485c90002a
:100b100008487800470037001480e900000a780090
:100b20001002780068089000cf80de000101780094
:100b300082017800009abe000292be003d0037009c
:100b40001480e900000a780010017800680890001d
:100b5000cf80de000089be00360037001480e90037
:100b6000000a780010007800680c900008087800ef
:100b7000300037001180e90080087800100078000c
:100b8000cf80de000101780082017800009cbe0069
:100b90000294be00780090000000450060049800b8
:100ba00081c7b30008007800f0000700210037007b
:100bb0001480e900000a780090017800630498002e
:100bc000580990000200e00003003d000300780097
:100bd000990107000a0037008000eb00030078004d
:100be0009c010700800078000000e0000300320054
:100bf0006800900000805000010037005808900005
:100c0000100c98000b0037007800900002707d00f7
:100c10000600370078009000800045000904e000dd
:100c200001003a0059c2b300894878000000e8008a
:100c3000700498000000eb004f0578004f04be00e0
:100c4000000006000400fa00889fbe008a9fbe00d4
:100c50008c1f78000004780001067800700890006e
:100c6000f80090000100500088089000010050003a
:100c70009808900001005000a80890000100500062
:100c8000b808900001005000c8089000810550008d
:100c900000022200a0bf9f000003230090bf9f001e
:100ca000081090000028a30018003a000b00e00094
:100cb000160034008b04780009057800e28f540098
:100cc000020036002a002000020037000900e00080
:100cd0000b003400c80190000a017800ec80570036
:100ce0005800900003000100500498000000e0004c
:100cf00096003200680890000a004000600c9800de
:100d00008a8454004240a900ebff3c007801900027
:100d10000200e0000b003400c80190008c00780055
:100d20005800900003000100500498000000e0000b
:100d30008600320068089000f80090000100400032
:100d4000600c9800880c90000900e0001500340049
:100d500009057800e28f5400020036002a002000c6
:100d6000020037000900e0000b003400c8019000c9
:100d70000a017800ee80570058009000030001003f
:100d8000500498000000e0007000320068089000f5
:100d90000a004000600c98008a8454004240a90078
:100da000ebff3c00180990000200e0000b0034004b
:100db000c8019000e8009000580090000300010076
:100dc000500498000000e0006000320068089000c5
:100dd0009808900001004000600c9800a80c90005a
:100de0000900e0001500340009057800e28f540086
:100df000020036002a002000020037000900e0004f
:100e00000b003400c80190000a017800ee80570002
:100e10005800900003000100500498000000e0001a
:100e20004a003200680890000a004000600c9800f8
:100e30008a8454004240a900ebff3c00380990002e
:100e40000200e0000d003400e80090001808900057
:100e500080804000c801900058009000030001000d
:100e6000500498000000e00038003200680890004c
:100e7000b808900001004000600c9800c80c900079
:100e80000900e0001500340009057800e28f5400e5
:100e9000020036002a002000020037000900e000ae
:100ea0000b003400c80190000a017800ee80570062
:100eb0005800900003000100500498000000e0007a
:100ec00022003200680890000a004000600c980080
:100ed0008a8454004240a900ebff3c0008109000b7
:100ee0000028a3001b0032000b00e00019003400b2
:100ef0008b04780009057800e28f54000200360068
:100f00002a002000020037000900e0000b00340036
:100f1000c80190000a017800ec805700580090004a
:100f200003000100500498000000e00007003200b8
:100f3000680890000a004000600c98008a84540001
:100f40004240a90003003400eaff37000080eb00b4
:100f5000010037000000eb004f0678004f05be008f
:100f60004f04be000080fa00000006006f02b000cf
:100f7000889fbe008a9fbe008c9fbe008e1f780097
:100f800000067800b0a6200080bf9f0080c5b30097
:100f900080cf50000700320082002000f2b79f008f
:100fa000a3a5200083bf9f007740400080cf500062
:100fb0000a00320080c7b30080cf50000500320025
:100fc000a4002000f4b79f0080c5b30080cf50007c
:100fd00002003a0000012000f0b79f003c04be0070
:100fe0002c05be0040c6b30080cf50000300320085
:100ff0006540400080cf50000b003a00e00f5400e5
:10100000e08f5c00e00f5d00e08f5d0006003d00ba
:101010006000b8006011b8000804500089845800ce
:101020000a0559008b855900e00f5400e08f5c00e1
:10103000e00f5d00e08f5d0004003a005c08900066
:101040008d0120000000e0000c003200ffb097008e
:1010500001027800cfa2de00050378008603780045
:101060000800be000a01be002e0107000fba97005b
:1010700064407800d0e79f007d0120007fb097009a
:1010800000027800cfa2de00050378008603780016
:101090000800be000a01be001b010700009ebe0042
:1010a0000296be000d00e900e1fc2f008f80400099
:1010b000008740001a0037007fb1970002027800d5
:1010c000cfa2de0005037800860378003c00be0056
:1010d0002c01be00170107000205be000004be007f
:1010e0008d06e900ffb1970003027800cfa2de0071
:1010f00005037800860378000800be000a01be00e0
:10110000950107003fb29700000052008fb897008a
:1011100060cf7800089ebe000a96be000e07e90068
:101120003c00be002c01be00b0b79f00c1b79f00bd
:10113000d2b79f00e3b79f00e00f5000e08f580048
:10114000e00f5900e08f5900020034000d00e0006c
:10115000d9ff3c00ffb09700e88f500010003a0024
:101160000c1090000038a3000d003200f78f5600dd
:1011700006003e00e2fc2f000d014100e2c07f00ae
:1011800000c3b30080cf5000050032008d06e90097
:1011900000c3b300e3fc2f008d81410080f17f008c
:1011a00078811600120e98006c009000e3fc2f006e
:1011b0008f8141008d8041008afc07001c0990004e
:1011c0005c089000800f510006003d0002005000b6
:1011d000000e98000c1090000040a100001698002e
:1011e0000f0037000000e0000d003d000c109000e3
:1011f00074006000f00f500009003a007c08900075
:10120000fc009000010050008c089000010050008c
:10121000020050004240a90001003400000e980076
:101220004f0778004f06be004f05be004f04be00ba
:101230006f02b10000000600800078000100370056
:101240000000e8001004e000fdff3a00010050003b
:1012500000000600820178000400370090cf1000e3
:10126000050032000000e8008301e9000300e0000f
:10127000faff3a000000eb0000000600839f6800c0
:101280000100e00002003d0060001000e080180056
:101290000300e00002003d0060011100e081190040
:1012a000050007004f00e00002003b006000100056
:1012b000e0801800000006006022b800060220004e
:1012c0000000d0008180d2000482d2008582d2004a
:1012d0000000a0000202520083825a0003003b007b
:1012e0000202420083824a000000a1000603e900d6
:1012f000f3ff3a0000000600881f78000004780021
:101300005001be004000be000000420081804a0043
:1013100002014b0083814b00009cbe000294be0082
:101320000400e1000588e1000690e1000798e10073
:1013300002003100680044001008e8004f04780003
:1013400000000600f4874700889fbe008a9fbe0009
:101350008c9fbe008e1f78000205be000004be00f8
:10136000d4b79f00e5b79f00f6b79f0087bf9f00e7
:101370000000eb00c0b79f00b0b79f00a0b79f0070
:1013800090b79f0080b79f000d042000bfb097006a
:101390004fb09700000140000000e00014003d0045
:1013a0004f08de0000007100c0b79f00ad000700cd
:1013b00001003d0012002000b000070001003d00c8
:1013c00012002000b500070001003d0012002000bf
:1013d000ba000700be000700feff3a00c200070087
:1013e000c80007000f004000c3ff070027003700b8
:1013f0004f08de0000067100ccb79f00990007007f
:1014000001003d00120020009c00070001003d008b
:1014100012002000a100070001003d001200200082
:10142000a6000700aa000700feff3a00ae00070072
:101430000fb297009fb297002fb39700bfb39700ea
:10144000b60007000000520081805a0002015b00d4
:1014500083815b0080b79f0091b79f00a2b79f0078
:10146000b3b79f000007eb00ac0007000020e100cd
:1014700001a8e10002b0e10003b8e1000100310081
:101480001e0020000e005600c0b79f004fb297000c
:101490000400e000070035001000200001002000db
:1014a0006011b80008047000898470000a0571009a
:1014b0008b8571008d06e900b4ff3a000400e0005e
:1014c00003003d008f0007000f0040008aff070067
:1014d0004fa897000000e00004003a000fb4970006
:1014e0009fb497002fb59700bfb5970097000700ee
:1014f0004f0778004f06be004f05be004f04be00e8
:101500004f01b10000000600881f7800180020007d
:10151000881f78008bff07008f87e9004f04780051
:1015200000000600801feb0086ff07008f87e900a0
:1015300000000600889fbe008a9fbe008c1f7800b6
:101540007b00070005003d002f00070007003d005d
:101550003d0007000006eb00040037003f000700d5
:1015600002003d00300007001c002000770007004b
:10157000e5ff07000203be000002be000c00e00011
:1015800001003200280007000400be000601be0072
:101590004f0678004f05be004f04be000000060055
:1015a000889fbe008a9fbe008c1f780060000700e5
:1015b00003003d001400070006003d000400370052
:1015c0002600070003003d006000b8006011b8006d
:1015d0001d0007005d000700d2ff07000203be00e8
:1015e0000002be000c00e000010032000e00070007
:1015f0000400be000601be004f0678004f05be0085
:101600004f04be00000006006000b8006011b80082
:1016100008045000898458000a0559008b85590038
:101620001c002000030037006000b8006011b80003
:1016300005003700e00f5200e08f5a00e00f5b001a
:10164000e08f5b0000000600040250008582580015
:101650000603590087835900000006000006eb00ce
:10166000f4ff37000180400090b79f000001eb00bd
:101670008fb097000100e00000000600020070003b
:1016800090b79f000180400080b79f000001eb00f1
:10169000ffa897000100e0000000060002007000b3
:1016a00080b79f0001804000f0af9f000001eb0079
:1016b000efa897000100e0000000060002007000a3
:1016c000f0af9f000182400020000700f5030500f5
:1016d0008301d1000281d3008180d3000080d30038
:1016e0008502e9000000060000027200e4af9f00de
:1016f0000804440089844c000a054d008b854d0088
:10170000000006003fb29700cfb297005fb397008a
:10171000efb3970000fe2f00000006003fb09700d7
:10172000cfb097005fb19700efb1970000000600bf
:101730000205be000004be00e00f5000e08f58001c
:10174000e00f5900e08f5900000006000800be00bd
:101750000a01be0000000600889fbe008a9fbe00ee
:101760008c1f78000205be000004be000006eb00de
:10177000e00f5000e08f5800e00f5900e08f590053
:1017800007003d006000b8006011b8000804500078
:10179000898458000a0559008b8559001c002000d7
:1017a000e00f5200e08f5a00e00f5b00e08f5b001b
:1017b00002003d000f0007000c00a2000800be0060
:1017c0000a01be00120007000203be000002be00b4
:1017d0000c00e00001003200060007000400be001b
:1017e0000601be004f0678004f05be004f04be0044
:1017f000000006006000b8006011b800040250004c
:1018000085825800060359008783590000000600ae
:10181000889fbe008a9fbe008c9fbe000404b80053
:101820000506b8008904460060854e000606b8002b
:101830000a054600e0854e000706b8008b05460005
:10184000040eb800890446000a854e00e0854d006c
:10185000050eb8000a0546008b854e00060eb8003e
:101860008b0546000416b8000a0546008b854e001d
:101870000516b8008b054600041eb8008b0546000f
:101880000800be000a01be004f06be004f05be00a4
:101890004f04be00000006000200fa00d2e2a800d9
:1018a000d2c2a800d2a2a800d282a800d722a80043
:1018b000d742a90011000700d702a8000f000700b7
:1018c000d4c2bf0001c8b300014060000004e000c2
:1018d00004003200d702a90010002000000f780099
:1018e00003003700d702a9000000eb00000f7800ca
:1018f0001e0078000080fa00000006000200fa00d6
:101900000000eb00000f7800020037000060fe00ce
:101910001e0fe800100120009e0f1000fbff340096
:101920000080fa00000006000400fa006000b80021
:10193000008fbe00050037000060fe001000200090
:10194000010020001e0f40005e974800f04728006d
:10195000e1012000be0f1000ae8f1800f6ff34002a
:101960000080fa00000006000400fa006000b800e1
:10197000008fbe00050037000060fe001000200050
:10198000010020001e0f40005e974800f0d32000a9
:1019900031002000be0f1000ae8f1800f6ff34009b
:1019a0000080fa00000006000200fa000000eb00d0
:1019b000000f7800020037000060fe001e0fe800f4
:1019c000f07022009e0f1000fbff34000080fa0030
:1019d000000006000200fa00004f7800d2ff070066
:1019e000d6e2a900d6c2a900d6a2a900d682a90033
:1019f000d722a900d742a900d702a900d2e2a900a4
:101a0000d2c2a900d2a2a900d282a900d322a900e1
:101a1000d342a900d302a9001e4078003402070077
:101a2000e0c0b3003202070010c0b300300207006c
:101a300060c0b3002e0207000080fa00000006001c
:101a40000a00fa00d2e2a800d2c2a800d2a2a800de
:101a5000d282a800d722a800d742a900a7ff07007a
:101a6000d702a800a5ff0700d4c2bf000080fb007a
:101a70004600de0061406000804078000e80e80093
:101a8000614098000e80e800604090000000fb007c
:101a90000000400000004000000040000000400046
:101aa0000000400000004000804078000e80e80008
:101ab00061409800d4c2bf000080fb004500de00fa
:101ac00061406000804078000e80e800514098003e
:101ad0000e80e800504090000000fb000000400035
:101ae00000004000000040000000400000004000f6
:101af000804078000e80e80051409800d4c2bf00ba
:101b00000080fb004400de006140600080407800ff
:101b10000e80e800414098000e80e80040409000b0
:101b20000000fb00000040000000400000004000fa
:101b300000004000804078000e80e800414098009e
:101b4000d702a900d722a800d742a900d702a8002f
:101b50006aff0700d4c2bf000080fb004700de0020
:101b6000804078000e80e800314098000e80e80048
:101b7000304090000000fb000000400000004000ea
:101b800000004000804078000e80e800314098005e
:101b9000d4c2bf000080fb004600de006140600050
:101ba000804078000e80e800214098000e80e80018
:101bb000204090000000fb000000400000004000ba
:101bc000804078000e80e80021409800d4c2bf0019
:101bd0000080fb004500de0061406000804078002e
:101be0000e80e800114098000e80e8001040900040
:101bf0000000fb0000004000804078000e80e800fc
:101c000011409800d4c2bf000080fb004400de00f9
:101c100061406000804078000e80e8000148780054
:101c2000d702a9000040eb00004f78000800370001
:101c30009e00fb000e80e80000804000904078008d
:101c40001e40900001407000104798001e4fe800b1
:101c500070c0b3009e4f1000f5ff34001e4090008e
:101c60000000fb000080fa00000006000a00fa00f5
:101c7000d2e2a800d2c2a800d2a2a800d282a800b4
:101c8000d722a800d742a8001cff0700d702a8004f
:101c90001aff0700d4c2bf000080fb004700de002f
:101ca000804078000e80e800714098000e80e800c7
:101cb000704090000000fb00000040000000400069
:101cc0000000400000004000000040000000400014
:101cd00000004000804078000e80e80071409800cd
:101ce000d4c2bf000080fb004600de0061406000ff
:101cf000804078000e80e800614098000e80e80087
:101d0000604090000000fb00000040000000400028
:101d100000004000000040000000400000004000c3
:101d2000804078000e80e80061409800d4c2bf0077
:101d30000080fb004500de006140600080407800cc
:101d40000e80e800514098000e80e800504090005e
:101d50000000fb00000040000000400000004000c8
:101d60000000400000004000804078000e80e80045
:101d700051409800d4c2bf000080fb004400de0048
:101d800061406000804078000e80e800414098008b
:101d90000e80e800404090000000fb000000400082
:101da000000040000000400000004000804078003b
:101db0000e80e80041409800d702a900d722a80071
:101dc000d742a800d702a800ccfe0700d4c2bf00ab
:101dd0000080fb004700de00804078000e80e800b5
:101de000314098000e80e800304090000000fb0079
:101df00000004000000040000000400080407800eb
:101e00000e80e80031409800d4c2bf000080fb0083
:101e10004600de0061406000804078000e80e800ef
:101e2000214098000e80e800204090000000fb0058
:101e30000000400000004000804078000e80e80074
:101e400021409800d4c2bf000080fb004500de00a6
:101e500061406000804078000e80e80011409800ea
:101e60000e80e800104090000000fb0000004000e1
:101e7000804078000e80e80011409800d4c2bf0076
:101e80000080fb004400de0061406000804078007c
:101e90000e80e80001487800d702a9000040eb005e
:101ea000004f7800080037009e00fb000e80e8001d
:101eb00000804000904078001e409000014070007b
:101ec000104798001e4fe80070c0b3009e4f1000ee
:101ed000f5ff34001e4090000000fb000080fa0077
:101ee000000006000200fa00004f7800d722a90087
:101ef000d742a900d2e2a900d2c2a900d2a2a90069
:101f0000d282a900d6e2a900d6c2a8009e00fb009a
:101f100000022000008060004580de00614060001b
:101f20006140600000404000004040000040400030
:101f30000040400000414000612d200091407800a9
:101f4000f0cdb30000c0600002407000d6e2b700e0
:101f50001e00fb00700060004480de0061406000f5
:101f600061406000004040000040400000404000f0
:101f700000414000612d200091407800f0ceb30078
:101f800000c0600002407000d6e2b700d702a8008f
:101f90005afe0700d702a900d722a900d742a900fc
:101fa0001e00fb00680060004380de0061406000ae
:101fb0000040400000404000004040000040400021
:101fc000004040000040400080404000d6c2bf00ba
:101fd0000074a10001407000d6e2b7001e00fb00b3
:101fe000640060004280de0061406000614060008b
:101ff00000404000004040000040400000404000e1
:102000000040400000414000612d200091407800d8
:10201000f0cbb30000c0600002407000d6e2b70011
:102020001e00fb00620060000080d1006140600083
:10203000614060000040400000404000004040001f
:102040000040400000414000612d20009140780098
:10205000f0cdb30000c0600002407000d6e2b700cf
:102060001e40780061406000614060006140600097
:1020700061406000004040000040400000404000df
:1020800000414000612d200091407800f0ceb30067
:1020900000c0600002407000d6e2b700d702a8007e
:1020a00016fe0700d702a900d2e2a800d2c2a800fb
:1020b000d2a2a800d282a800f7fd07000004e00029
:1020c000fdff3a000080fa00000006000200fa005e
:1020d000004f7800d722a900d742a900d2e2a90078
:1020e000d2c2a900d2a2a900d282a900d6e2a80039
:1020f0009e00fb0000042000008060004680de009f
:1021000061406000614060000040400000404000cd
:1021100000404000004040000040400000414000be
:10212000612d200091407800f0cbb30000c060002a
:1021300002407000d6e2b7009e00fb0000022000c3
:10214000008060004580de0061406000614060000a
:10215000004040000040400000404000004040007f
:1021600000414000612d200091407800f0cdb30087
:1021700000c0600002407000d6e2b7001e00fb0005
:10218000700060004480de006140600061406000db
:10219000004040000040400000404000004140003e
:1021a000612d200091407800f0ceb30000c06000a7
:1021b00002407000d6e2b700d702a800cffd0700aa
:1021c000d702a900d722a900d742a9001e00fb0010
:1021d000680060004380de00614060000040400015
:1021e00000404000004040000040400000404000ef
:1021f0000040400080404000d6c2bf000074a100f3
:1022000001407000d6e2b7001e00fb0064006000d1
:102210004280de006140600061406000004040009c
:1022200000404000004040000040400000404000ae
:1022300000414000612d200091407800f0cbb300b8
:1022400000c0600002407000d6e2b7001e00fb0034
:10225000620060000080d100614060006140600069
:10226000004040000040400000404000004040006e
:1022700000414000612d200091407800f0cdb30076
:1022800000c0600002407000d6e2b7001e40780037
:10229000614060006140600061406000614060003a
:1022a000004040000040400000404000004140002d
:1022b000612d200091407800f0ceb30000c0600096
:1022c00002407000d6e2b700d702a8008bfd0700dd
:1022d000d702a900d2e2a800d2c2a800d2a2a800c8
:1022e000d282a800520307000080fa000000060016
:1022f0000200fa00004f7800d722a900d742a900b7
:10230000d2e2a900d2c2a900d2a2a900d282a90019
:102310009e00fb0000082000008060004780de0077
:10232000614060000040400000404000004040002c
:10233000004040000040400000404000804040001d
:10234000d6c2bf000074a10001407000d6e2b70001
:102350009e00fb0000042000008060004680de003c
:10236000614060006140600000404000004040006b
:10237000004040000040400000404000004140005c
:10238000612d200091407800f0cbb30000c06000c8
:1023900002407000d6e2b7009e00fb000002200061
:1023a000008060004580de006140600061406000a8
:1023b000004040000040400000404000004040001d
:1023c00000414000612d200091407800f0cdb30025
:1023d00000c0600002407000d6e2b7001e00fb00a3
:1023e000700060004480de00614060006140600079
:1023f00000404000004040000040400000414000dc
:10240000612d200091407800f0ceb30000c0600044
:1024100002407000d6e2b700d702a80037fd0700df
:10242000d702a900d722a900d742a9001e00fb00ad
:10243000680060004380de006140600000404000b2
:10244000004040000040400000404000004040008c
:102450000040400080404000d6c2bf000074a10090
:1024600001407000d6e2b7001e00fb00640060006f
:102470004280de006140600061406000004040003a
:10248000004040000040400000404000004040004c
:1024900000414000612d200091407800f0cbb30056
:1024a00000c0600002407000d6e2b7001e00fb00d2
:1024b000620060000080d100614060006140600007
:1024c000004040000040400000404000004040000c
:1024d00000414000612d200091407800f0cdb30014
:1024e00000c0600002407000d6e2b7001e407800d5
:1024f00061406000614060006140600061406000d8
:1025000000404000004040000040400000414000ca
:10251000612d200091407800f0ceb30000c0600033
:1025200002407000d6e2b700d702a800f3fc070013
:10253000d702a900d8fc07000004e000fdff3a0024
:102540000080fa00000006000200fa00004f780048
:10255000d722a900d742a800d2e2a900d2c2a9007e
:10256000d2a2a900d282a9009e00fb000008200090
:10257000008060004780de00614060000040400055
:10258000004040000040400000404000004040004b
:102590000040400080404000d6c2bf000074a1004f
:1025a00001407000d6e2b7009e00fb00000420004e
:1025b000008060004680de00614060006140600095
:1025c000004040000040400000404000004040000b
:1025d0000040400000414000612d20009140780003
:1025e000f0cbb30000c0600002407000d6e2b7003c
:1025f0009e00fb0000022000008060004580de009d
:1026000061406000614060000040400000404000c8
:10261000004040000040400000414000612d20008b
:1026200091407800f0cdb30000c06000024070001f
:10263000d6e2b7001e00fb00700060004480de00a0
:102640006140600061406000004040000040400088
:102650000040400000414000612d20009140780082
:10266000f0ceb30000c0600002407000d6e2b700b8
:10267000d702a800a1fc0700d702a900d722a90011
:10268000d742a8001e00fb00680060004380de0007
:1026900061406000004040000040400000404000b9
:1026a00000404000004040000040400080404000aa
:1026b000d6c2bf000074a10001407000d6e2b7008e
:1026c0001e00fb00640060004280de00614060008c
:1026d0006140600000404000004040000040400079
:1026e000004040000040400000414000612d2000bb
:1026f00091407800f0cbb30000c060000240700051
:10270000d6e2b7001e00fb00620060000080d1002e
:1027100061406000614060000040400000404000b7
:10272000004040000040400000414000612d20007a
:1027300091407800f0cdb30000c06000024070000e
:10274000d6e2b7001e407800614060006140600042
:102750006140600061406000004040000040400077
:102760000040400000414000612d20009140780071
:10277000f0ceb30000c0600002407000d6e2b700a7
:10278000d702a8005dfc0700d702a900d2e2a8008a
:10279000d2c2a800d2a2a800d282a800d742a90023
:1027a0003dfc07000004e000fdff3a000080fa0055
:1027b000000006000000fa008d20a80000b02400f0
:1027c000200007000000eb00301688000040eb00fe
:1027d00003e9b7000040eb0004e9b7000040eb005c
:1027e00005e9b7000040eb0006e9b7000040eb0048
:1027f00002e9b7000040eb008aeab7000040eb00b6
:102800008beab7000000eb0090168800d602a80003
:10281000d622a800d642a800d662a8000000370041
:102820003e00070001c8bf000004e000fcff3200ca
:102830000040eb0001e8b700208020000d010700f8
:10284000f7ff37000200fa00000f78000d42a900e0
:102850000cc2a900c12020009140780090cfb300a5
:1028600000c060000ce2b7000c02a9001e00780056
:102870000000400000004000000040000000400058
:102880006101b80040d42100c10120007bfa07009b
:102890000000e900a01088000de2a8000080fa0006
:1028a000000006000200fa00004f78000fc2bf00cf
:1028b000614060000004e000fcff32000f42a8000d
:1028c0001e00fb00801088000080fa000000060057
:1028d0000600fa0010079800210798000000eb009e
:1028e000000f7800060037009e0078001e00900060
:1028f0000080400010407800eaff07001e0fe8004b
:102900002e0090009e0f1000f7ff3900a0c0b3000a
:10291000e4ff07000080fa00000006000400fa004f
:1029200000c8bf000004e000d0003200d6c2bf00e3
:10293000614060000004a2006140600061416000ed
:10294000612d200091407800e0cfb30000c060000e
:1029500002407000d6e2b7000040eb0000e8b7008c
:1029600040548000100798001e009000e30f5000b4
:102970004d0032001e009000e30f500007003e00a3
:102980001e009000e10f50002d0032001e0090004c
:10299000e10f500038003e000d0037001e0090008f
:1029a000e50f5000680032001e009000e50f500057
:1029b0005e0039001e009000e60f500076003200e5
:1029c0001e009000e70f50007c0032009800370096
:1029d000c1a820009140780050cab30080cf5000b9
:1029e00014003a000000eb0030548800405480008e
:1029f0000000e80040548800d6c2bf000080fb0001
:102a00000000d100614060000004a200614060004d
:102a10006140600000414000612d2000914078003d
:102a2000d0cfb30000c0600002407000d6e2b70013
:102a30008e00370010c0b3008aeab7008b00370061
:102a4000c1a8200091407800a0c5b30080cf5000fd
:102a500004003a00405480000000e8004054880020
:102a60008200370010c0b3008aeab7000000eb0014
:102a7000405488007d0037008ccabf008080fb0076
:102a80003054800000804000305488008ccabf0061
:102a90000080fb0020548800405480000000e800c3
:102aa000405488007100370082cabf008080fb005c
:102ab00020548000808f5000180031008ccabf0065
:102ac0008080fb003054800000804000305488003b
:102ad00082cabf000081fb008ccabf008040780022
:102ae00090952000000041000148780082cabf0094
:102af0000040e80082eab70082cabf008080fb0085
:102b000020548000808f500058003a0040548000cc
:102b10000000e80040548800540037004054800012
:102b20000000e80040548800500037008ccabf0005
:102b30000080fb00f0538800405480000000e80053
:102b400040548800490037008ccabf000080fb0059
:102b500000548800f0538000000040000000400056
:102b60000000400000004000000040000000400065
:102b70000000400000004000800078000054800009
:102b800000804000e0538800405480000000e800ce
:102b90004054880035003700c0ccb3008ceab70041
:102ba000405480000000e8004054880082cabf0002
:102bb0000040e90082eab7002c003700c1a82000dd
:102bc0009140780030c3b30080cf500027003a0016
:102bd000e153800030548000808f500005003a009f
:102be0009195200020802000c7f5070010c0b30099
:102bf00001e8b7000000eb00405488000000eb0043
:102c0000205488000040eb0082eab7000000eb008f
:102c1000305488000000eb00f05388000000eb0007
:102c2000005488000000eb00e05388000f003700dc
:102c3000d6c2bf000080fb004200de0061406000a1
:102c40000004a2006140600061406000004040005c
:102c500000414000612d200091407800b0cfb300ca
:102c600000c0600002407000d6e2b7000080fa00a9
:102c7000000006006801fa0020379900b08429009e
:102c8000104f78000e00e800f20f20008000eb00eb
:102c9000a5f50700011020008e804000b0942900a7
:102ca00011000900b05878002101b1002001b100e5
:102cb000211120008e804000d095290012000900cb
:102cc000b05878003101b1003001b100511220003c
:102cd0008e804000009729000d000900b058780050
:102ce000e100b100e000b100311320008e8040000f
:102cf000e09729000b000900b0587800c100b1002e
:102d0000c000b100f11320008e804000a09829007f
:102d10000c000900b0587800d100b100d000b1001b
:102d2000c11420008e804000709929001200090013
:102d3000b05878003101b1003001b100f115200028
:102d40008e804000b0842900904878000100e8009f
:102d50008040eb00014878000000e8008040eb0074
:102d6000014878000000e8008040eb00014878004e
:102d70000000e8008040eb000148780002c8bf0076
:102d80008000fb0040052000808f500001003200d1
:102d90009900370003c8bf000000fb0030379900de
:102da00000052000be309100808f50002f003200bf
:102db00000052000be309100808f500009003c00cb
:102dc00030042000be309100808f5000720032002d
:102dd00050042000be309100808f50000a00320065
:102de0008500370010052000be309100808f500014
:102df0005000320020052000be309100808f50002e
:102e0000330032007c00370004c8bf0002e9b7007d
:102e100004c8bf000000fb00f11520008e804000b8
:102e2000801f780080842900801f780001007800ce
:102e30004cf50700e4875700011020008e80400009
:102e40000e00780058f50700211120008e80400008
:102e50000e00780054f50700f11520008e80400028
:102e60000e00780050f507006300370004c8bf006b
:102e700003e9b70004c8bf000000fb00f115200003
:102e80008e804000801f780080842900801f780099
:102e90000100780033f50700e48757000110200097
:102ea0008e8040000e0078003ff507005112200090
:102eb0008e8040000e0078003bf50700f1152000e1
:102ec0008e8040000e00780037f507004a0037007a
:102ed00004c8bf0004e9b70004c8bf000000fb003d
:102ee000f11520008e804000801f7800808429002a
:102ef000801f7800010078001af50700e48757006a
:102f0000011020008e8040000e00780026f507009a
:102f1000f11320008e8040000e00780022f507009b
:102f2000f11520008e8040000e0078001ef507008d
:102f30003100370004c8bf0005e9b70004c8bf006e
:102f40000000fb00f11520008e804000801f7800fb
:102f500080842900801f78000100780001f50700b7
:102f6000e4875700011020008e8040000e0078009a
:102f70000df50700311320008e8040000e00780010
:102f800009f50700f11520008e8040000e00780042
:102f900005f507001800370004c8bf0006e9b700b0
:102fa00004c8bf000000fb00f11520008e80400027
:102fb000801f780080842900801f7800010078003d
:102fc000e8f40700e4875700011020008e804000dd
:102fd0000e007800f4f40700c11420008e80400039
:102fe0000e007800f0f40700f11520008e804000fc
:102ff0000e007800ecf407000080fa0000000600e4
:10300000801f78000000fa008d20a9008520a9000b
:1030100010c0b30000e8b700901080008ceab70041
:103020008d20a8000080fa004f00780000400600c4
:103030000200fa000000eb00000f780002003700e9
:103040000060fe001e0fe800f0f321009e0f10004c
:10305000fbff34000080fa00000006000200fa00c6
:10306000000f7800040037001e0078001040780040
:1030700035fd07001e0fe8001e00780010407800a4
:103080000004e000f8ff3a000080fa0000000600ab
:020000040000fa
:100008008e1b00008e1b00008e1b00008e1b000044
:100018008e1b00008e1b00008e1b00008e1b000034
:100028008e1b00008e1b00008e1b00008e1b000024
:100038008e1b00008e1b00008e1b00008e1b000014
:100048008e1b0000001800008e1b00008e1b000095
:100058008e1b00008e1b00008e1b00008e1b0000f4
:100068008e1b00008e1b00008e1b00008e1b0000e4
:100078008e1b00008e1b00008e1b00008e1b0000d4
:100088008e1b00008e1b00008e1b00008e1b0000c4
:100098008e1b00008e1b00008e1b00008e1b0000b4
:1000a8008e1b00008e1b00008e1b00008e1b0000a4
:1000b8008e1b00008e1b00008e1b00008e1b000094
:1000c8008e1b00008e1b00008e1b00008e1b000084
:1000d8008e1b00008e1b00008e1b00008e1b000074
:1000e8008e1b00008e1b00008e1b00008e1b000064
:0800f8008e1b00008e1b0000ae
:020000040000fa
:100108008e1b00008e1b00008e1b00008e1b000043
:100118008e1b00008e1b00008e1b00008e1b000033
:100128008e1b00008e1b00008e1b00008e1b000023
:100138008e1b00008e1b00008e1b00008e1b000013
:100148008e1b0000001800008e1b00008e1b000094
:100158008e1b00008e1b00008e1b00008e1b0000f3
:100168008e1b00008e1b00008e1b00008e1b0000e3
:100178008e1b00008e1b00008e1b00008e1b0000d3
:100188008e1b00008e1b00008e1b00008e1b0000c3
:100198008e1b00008e1b00008e1b00008e1b0000b3
:1001a8008e1b00008e1b00008e1b00008e1b0000a3
:1001b8008e1b00008e1b00008e1b00008e1b000093
:1001c8008e1b00008e1b00008e1b00008e1b000083
:1001d8008e1b00008e1b00008e1b00008e1b000073
:1001e8008e1b00008e1b00008e1b00008e1b000063
:0801f8008e1b00008e1b0000ad
:020000040000fa
:1030900025640000000000000000000000000000a7
:1030a0000000000000000000000000000000000020
:1030b0000000000000000000000000000000000010
:1030c0000000000000000000000000000000000000
:1030d00000000000000000000000000000000000f0
:1030e00000000000000000000000000000000000e0
:1030f00000000000000000000000000000000000d0
:1031000000000000000000000000000000000000bf
:1031100000000000000000000000000000000000af
:10312000000000000000000000000000000000009f
:10313000000000000000000000000000000000008f
:10314000000000000000000000000000000000007f
:10315000000000000000000000000000000000006f
:10316000000000000000000000000000000000005f
:10317000000000000000000000000000000000004f
:10318000000000000000000000000000000000003f
:10319000000000000000000000000000000000002f
:1031a000000000000000000000000000000000001f
:1031b000000000000000000000000000000000000f
:1031c00000000000000000000000000000000000ff
:1031d00000000000000000000000000000000000ef
:1031e00000000000000000000000000000000000df
:1031f00000000000000000000000000000000000cf
:1032000000000000000000000000000000000000be
:1032100000000000000000000000000000000000ae
:10322000000000000000000000000000000000009e
:10323000000000000000000000000000000000008e
:10324000000000000000000000000000000000007e
:10325000000000000000000000000000000000006e
:10326000000000000000000000000000000000005e
:10327000000000000000000000000000000000004e
:10328000000000000000000000000000000000003e
:103290000000000000500000616300006b6500004a
:1032a000742000005265000063650000697600002c
:1032b000656400003a200000004500006e670000d1
:1032c000696e000065200000525000004d20000093
:1032d0007365000074200000746f0000200000007f
:1032e00050690000746300006820000073650000ee
:1032f00074200000746f000020000000596100007d
:10330000772000007365000074200000746f0000d7
:1033100020000000526f00006c6c00002073000061
:1033200065740000207400006f200000004300005e
:103330006f6c00006c65000063740000697600002b
:10334000652000007365000074200000746f0000a9
:043350002000000059
:020000040000fa
:10335400000800005a020000020000000000000003
:103364000000000000000000000000000000000059
:103374000000000000000000000000000000000049
:103384000000000000000000000000000000000039
:103394000000000000000000000000000000000029
:1033a4000000000000000000000000000000000019
:1033b4000000000000000000000000000000000009
:1033c40000000000000000000000000000000000f9
:1033d40000000000000000000000000000000000e9
:1033e40000000000000000000000000000000000d9
:1033f40000000000000000000000000000000000c9
:1034040000000000000000000000000000000000b8
:1034140000000000000000000000000000000000a8
:103424000000000000000000000000000000000098
:103434000000000000000000000000000000000088
:103444000000000000000000000000000000000078
:103454000000000000000000000000000000000068
:103464000000000000000000000000000000000058
:103474000000000000000000000000000000000048
:103484000000000000000000000000000000000038
:103494000000000000000000000000000000000028
:1034a4000000000000000000000000000000000018
:1034b40000000000000000000000450072726f0070
:1034c400723a200043686500636b7300756d2000d9
:1034d400696e63006f727200656374000a004500d0
:1034e40072726f00723a2000534f540020496e00ec
:1034f40076616c0069640a0000457200726f7200a4
:103504003a2045004f522000496e7600616c6900f4
:10351400640a00004461740061206900732056004d
:10352400616c6900640a00000000000000000000f3
:103534000000000000000000000000000000000087
:103544000000000000000000000000000000000077
:103554000000000000000000000000000000000067
:103564000000000000000000000000000000000057
:103574000000000000000000000000000000000047
:103584000000000000000000000000000000000037
:103594000000000000000000000000000000000027
:1035a4000000000000000000000000000000000017
:1035b4000000000000000000000000000000000007
:1035c40000000000000000000000000000000000f7
:1035d40000000000000000000000000000000000e7
:1035e40000000000000000000000000000000000d7
:1035f40000000000000000000000000000000000c7
:1036040000000000000000000000000000000000b6
:1036140000000000000000000000000000000000a6
:103624000000000000000000000000000000000096
:103634000000000000000000000000000000000086
:103644000000000000000000000000000000000076
:103654000000000000000000000000000000000066
:103664000000000000000000000000000000000056
:103674000000000000000000000000000000000046
:103684007c0a00001200000000000000a00a0000f4
:103694000200000002000000000000008e0a00008a
:1036a40012000000020000000100020000040000fb
:1036b4000800100000000000202b2d002330000023
:1036c400a20a00000800000002000000686a6c0002
:1036d400747a4c00000000005a0a00002200000026
:1036e4000200000030313200333435003637380000
:1036f4003961620063646500660030003132330072
:1037040034353600373839004142430044454600d9
:083714000000000000000000ad
:020000040000fa
:04371c000000fe00ab
:00000001FF
